:100000000C94ED020C9415030C9415030C94150339
:100010000C9415030C9415030C9415030C94150300
:100020000C9415030C9415030C9415030C941503F0
:100030000C9415030C9415030C9415030C941503E0
:100040000C943D2D0C9415030C94AD2D0C94872D20
:100050000C9415030C9415030C9415030C941503C0
:100060000C94DF2D0C9415034C564C00442E4F2E4F
:10007000004F525000525444004A7573742D56611B
:100080006C756573004153434949005254550054FF
:1000900065726D696E616C004C6576656C004F32FF
:1000A000005265646F780045430054656D702E0002
:1000B00025006D5600704800C2B55300C2B0430021
:1000C0005802580284038403580200000101010110
:1000D00002014E616D652C004F2C252C31004F2CF8
:1000E0006D672C30004B2C312E30004F2C53472C99
:1000F00030004F2C532C30004F2C5444532C3000E4
:100100004F2C45432C3100532C63004C2C31000103
:10011000010101010064727900686967682C006D53
:1001200069642C006C6F772C0043616C003A2000EE
:10013000C2B043005D20403A005B00496E742E203F
:100140004C6576656C202D20310045525200566179
:100150006C3A200045525200205600537461747569
:10016000733A2000536C61766520403A2000446F5A
:1001700020284175746F2D2941646472657373285A
:1001800065732900283173742920284175746F2DF7
:100190002941646472657373203D2000446F2028F8
:1001A0004175746F2D294E616D65287329002841B2
:1001B00075746F2D294E616D65203D200044656C7E
:1001C000657465204E616D6528732900436C656117
:1001D000722043616C6962726174696F6E28732961
:1001E00020202020200052657365742020202020CC
:1001F000004932432C007500A700B50071006C0067
:1002000068003D20002D50742E200020746F205374
:10021000657474696E672D4E6F2E205B312D335DD2
:1002200000290020280020436F70792046554C4C4F
:100230002053455454494E4720007C2020205465CB
:100240006D702E202020207C20202020454320205F
:100250002020207C202020202070482020202020CA
:100260007C202020205265646F78202020207C2074
:100270002020204F3220202020207C2020204C6570
:1002800076656C20207C003C007E003C007E003EB9
:10029000003E003A2000724832008F008B0085003B
:1002A0007900426F6F74204D6F646573203D2000AC
:1002B0004661696C5361666500746F6F4C6F77209F
:1002C00020207C202020204C6F7720202020207CA4
:1002D0002020202048696768202020207C2020746E
:1002E0006F6F486967682020207C0044656C6179E5
:1002F00054696D65730020436F7079546F53657452
:10030000205B312D345D002053656C65637453654B
:1003100074203D2000456469744E616D6520202085
:100320000052756E416C6C43656E742E0052756E92
:10033000414C4C202020002052756E53696E676C32
:100340006520202000204564697420202000AA0038
:10035000A700B500A1009E009800207C202020204E
:100360002020204C4F57202020202020207C20209F
:100370002020202048494748202020202020207C81
:10038000002D44756D6D794E616D652D005365745A
:10039000204869676800536574204C6F7700536587
:1003A0007420415647204173204D696400536574A1
:1003B0002053696E676C652F4D696400446F20336C
:1003C0002D50742E2043616C2E00446F20322D502E
:1003D000742E2043616C2E202020202000446F20AA
:1003E000312D50742E2043616C2E202020202000BF
:1003F0004F32202D004F5250202D007048202D00EC
:100400004543202D00525444202D002D2043616C83
:10041000696272617465200053656C656374204184
:100420004C4C0053656C6563742053696E676C6552
:100430000043616C6962726174696F6E2873292E62
:100440002E2E002053656C2E53657474696E6720E0
:100450005B312D335D203D200053657474696E67F8
:100460002D4E616D65203D20004D616E75616C2ED5
:100470002E2E0054696D65732E2E2E2020200056DE
:10048000616C7565732E2E2E202020004D6F7265D5
:100490002E2E2E20202000417344656661756C74F9
:1004A000004B6579436F6C6F7220202000436F6CA6
:1004B0006F722020200044696D00537065656420D0
:1004C0003D2000416464722E203D200054696D651A
:1004D0002020200044617465202020005265426F76
:1004E0006F742020200052655363616E202020002D
:1004F00048003B001B5B001B5B324A006D001B5B2E
:10050000001B5B316D001B5B32326D0044001B5BD6
:100510000043001B5B001B5B376D001B5B346D00F1
:1005200020001B5B32346D003A002900207C200043
:100530000D0A00204020001B37001B5B32376D0086
:100540001B38003E3E200000000000240027002A47
:100550000000000000250028002B00000000002300
:100560000026002900040404040404040402020216
:1005700002020203030303030301020408102040E4
:10058000800102040810200102040810200000006D
:100590000800020100000304070000000000000042
:1005A00000BC00B800B500B200B000B000202020B0
:1005B0002053656C656374206B65792C206F722005
:1005C000456E74657228666F722072657475726EFE
:1005D000292E2E2E000A0000FE2E11241FBECFEF62
:1005E000D8E0DEBFCDBF26E0A6E2B2E001C01D929A
:1005F000A83EB207E1F712E0A0E0B1E0EAE0F2E7DE
:1006000002C005900D92A632B107D9F712E0CDEEE7
:10061000D2E004C02197FE010E94BC38CC3ED10735
:10062000C9F70E94372F0C9403390C940000809175
:10063000A5059091A605891B990B0895833081F03B
:1006400028F4813099F08230A9F008958730A9F01C
:100650008830C9F08430B1F4809180008F7D03C070
:10066000809180008F7780938000089584B58F7784
:1006700084BD089584B58F7DFBCF8091B0008F77C6
:100680008093B00008958091B0008F7DF9CFCF9313
:10069000DF93282F30E0F901E357FA4F8491F901F5
:1006A000E758FA4FD491F901EB59FA4FC491CC2392
:1006B000A1F081110E941E03EC2FF0E0EE0FFF1F4E
:1006C000E55AFA4FA591B491EC91ED2381E090E0C9
:1006D00009F480E0DF91CF91089580E090E0FACFB7
:1006E0001F93CF93DF93282F30E0F901E357FA4FA0
:1006F0008491F901E758FA4FD491F901EB59FA4F77
:10070000C491CC23A9F0162F81110E941E03EC2F57
:10071000F0E0EE0FFF1FEF5AFA4FA591B4918FB79B
:10072000F894EC91111108C0D095DE23DC938FBFB3
:10073000DF91CF911F910895DE2BF8CF3FB7F8944A
:100740008091900590919105A0919205B0919305AB
:1007500026B5A89B05C02F3F19F00196A11DB11D1C
:100760003FBFBA2FA92F982F8827BC01CD01620F58
:10077000711D811D911D42E0660F771F881F991F13
:100780004A95D1F708958F929F92AF92BF92CF92E0
:10079000DF92EF92FF926B017C010E949E034B015E
:1007A0005C01C114D104E104F104B9F00E949E037C
:1007B000681979098A099B09683E7340810591058A
:1007C00080F321E0C21AD108E108F10888EE880E12
:1007D00083E0981EA11CB11CE4CFFF90EF90DF9046
:1007E000CF90BF90AF909F908F90089508950895F7
:1007F000AF92BF92CF92DF92EF92FF920F931F932F
:10080000CF93DF936C017B018B01040F151FEB016C
:100810005E01AE18BF08C017D10759F06991D60123
:10082000ED91FC910190F081E02DC6010995892B95
:1008300079F7C501DF91CF911F910F91FF90EF9054
:10084000DF90CF90BF90AF900895FC01538D448D01
:10085000252F30E0842F90E0821B930B541710F06B
:10086000CF96089501970895FC01918D828D981778
:1008700061F0A28DAE0FBF2FB11D5D968C91928D50
:100880009F5F9F73928F90E008958FEF9FEF089581
:10089000FC01918D828D981731F0828DE80FF11D4A
:1008A000858D90E008958FEF9FEF0895FC01918D65
:1008B000228D892F90E0805C9F4F821B91098F735E
:1008C000992708958BE396E00E94560421E0892B36
:1008D00009F420E0822F089580E090E0892B29F030
:1008E0000E94620481110C9400000895FC01A48D03
:1008F000A80FB92FB11DA35ABF4F2C91848D90E042
:1009000001968F739927848FA689B7892C93A08924
:10091000B1898C91837080648C93938D848D9813AE
:1009200006C00288F389E02D80818F7D8083089541
:10093000EF92FF920F931F93CF93DF93EC0181E02F
:10094000888F9B8D8C8D98131AC0E889F9898081D6
:1009500085FF15C09FB7F894EE89FF896083E88909
:10096000F98980818370806480839FBF81E090E0FB
:10097000DF91CF911F910F91FF90EF900895F62E88
:100980000B8D10E00F5F1F4F0F731127E02E8C8D22
:100990008E110CC00FB607FCFACFE889F989808167
:1009A00085FFF5CFCE010E947604F1CFEB8DEC0FE1
:1009B000FD2FF11DE35AFF4FF0829FB7F8940B8F84
:1009C000EA89FB8980818062CFCF0F931F93CF93F9
:1009D000DF938C01D0E0C0E0F801EC0FFD1F6491C3
:1009E000662341F08BE396E00E949804892B11F076
:1009F0002196F2CFCE01DF91CF911F910F910895F3
:100A0000682F8BE396E00C949804CF93DF93EC016E
:100A1000888D8823B9F0AA89BB89E889F9898C91E6
:100A200085FD03C0808186FD0DC00FB607FCF7CFA2
:100A30008C9185FFF2CF808185FFEDCFCE010E94A2
:100A40007604E9CFDF91CF9108952091B502260F6A
:100A50003327331F21323105ECF420911106FC01BC
:100A600090E080E0243069F082E00895A091B50222
:100A70002191AC014B565D4FA40FB52FB11D2C93A6
:100A80000196861798F38091B502680F6093B502BE
:100A900080E0089581E008951092110681E080932E
:100AA00010061092EB0561E082E10E94700361E0A4
:100AB00083E10E947003E9EBF0E080818E7F808308
:100AC00080818D7F808388E48093B80085E4809363
:100AD000BC000895CF93DF9391E090939402882314
:100AE000B9F0C091B800D091BA008091BC008A7B67
:100AF0008093BC0060E082E10E94700360E083E1CB
:100B00000E9470030E944C05D093BA00C093B800B5
:100B1000DF91CF9108958F929F92AF92BF92CF9223
:100B2000DF92EF92FF920F931F93CF93DF93D091B9
:100B30003A06D13208F0D7C0182FC09139060E946A
:100B40009E036B017C018091110681116BC082E0D4
:100B500080931106109310068FEF80930F0610926A
:100B60000E06D0930D06A9E1B6E0EDEEF5E080E0CB
:100B7000D81391C01092EC058091EC05CC0FC82BD6
:100B8000C093EC058091EB05813009F088C010928C
:100B9000EB050E949E036B017C018091EC05809324
:100BA000BB008091130690911406A0911506B09198
:100BB0001606892B8A2B8B2BA1F00E949E03009195
:100BC00013061091140620911506309116066C1923
:100BD0007D098E099F09061717072807390708F4AA
:100BE00042C08091BC0083FDD8CF85EC8093BC00CF
:100BF0000E949E036B017C0180911106823009F4F2
:100C000050C080910F068F3F09F46FC080910F068E
:100C1000803209F46CC080910F06803309F469C0FA
:100C200084E026C08091130690911406A0911506C9
:100C3000B0911606892B8A2B8B2B09F484CF0E9446
:100C40009E038090130690901406A0901506B09015
:100C500016066C197D098E099F0986169706A80647
:100C6000B90608F070CF809112060E946A0585E0EF
:100C70001092180610923A0610921706DF91CF9143
:100C80001F910F91FF90EF90DF90CF90BF90AF90AA
:100C90009F908F9008959D9191938F5F69CF85EE7E
:100CA000A5CF8091130690911406A0911506B091DE
:100CB0001606892B8A2B8B2B09F49ECF0E949E034C
:100CC0000091130610911406209115063091160616
:100CD0006C197D098E099F09061717072807390720
:100CE00008F08ACFC0CF81E0C3CF80E0C1CF82E0DF
:100CF000BFCF83E0BDCF0895E091A6058091A50503
:100D0000E81730F4F0E0E955FA4F808190E008955B
:100D10008FEF9FEF08959091A6058091A5052FEF85
:100D20003FEF981748F4E92FF0E0E955FA4F20819A
:100D300030E09F5F9093A605C9010895CF92DF929E
:100D4000EF92FF920F931F93CF93DF937C01CB0120
:100D50008A0120911706222389F0EB016B01C40E52
:100D6000D51ECC15DD0569F06991D701ED91FC9197
:100D70000190F081E02DC7010995F3CF642F0E9407
:100D80002505C801DF91CF911F910F91FF90EF9042
:100D9000DF90CF900895CF93DF931F92CDB7DEB74A
:100DA0006983209117062223F9F020913A06203218
:100DB00058F021E030E0FC013383228390E080E0B2
:100DC0000F90DF91CF91089580911806E82FF0E001
:100DD000E75EF94F998190838F5F80931806809327
:100DE0003A0681E090E0ECCF61E0CE0101960E94EE
:100DF0002505F7CF90E080E008950F931F93CF93E0
:100E0000DF938BE396E00E943404082F11E0C1E0E9
:100E1000D0E08A3319F010E0D0E0C0E06CE070E080
:100E200080E090E00E94C3038BE396E00E945604AA
:100E3000892BB9F021968BE396E00E9434048A3323
:100E400041F41F5F143029F4C430D10511F410921D
:100E50007F056CE070E080E090E00E94C30300E05A
:100E6000E3CF802FDF91CF911F910F9108959C01C7
:100E700064E670E00E947538FC01C901837099270F
:100E8000892B11F4309779F4C90160E971E00E946F
:100E900075389C01EF2B11F4892B19F481E0232B79
:100EA00009F080E0089581E00895863029F030F45B
:100EB000823051F0843031F48EE108958930E1F3CD
:100EC0008B30D1F38FE10895CB010E94370788233F
:100ED00011F08DE108958CE108952F923F924F9289
:100EE0005F926F927F928F929F92AF92BF92CF92BA
:100EF000DF92EF92FF920F931F93CF93DF932B011B
:100F00003C011A014901E80187EE97E09983888343
:100F100040E853E361EE71E0441655066606770635
:100F200090F088819981019699838883441A550AA3
:100F3000660A770A0E943707882351F340E055E894
:100F400062EE71E0E9CF81E0F401808360E87EED3C
:100F500088E290E04616570668067906B0F0F4017C
:100F600020812F5F2083461A570A680A790A688110
:100F70007981822F0E945507A82FB0E020E831E543
:100F800041E050E00E942438E5CFC301B20120E8DF
:100F900031E541E050E00E9402382F5FF1012083EB
:100FA00020E13EE040E050E00E940238F70120835B
:100FB0002CE330E040E050E00E940238F60120834C
:100FC000F5016083DF91CF911F910F91FF90EF901A
:100FD000DF90CF90BF90AF909F908F907F906F9059
:100FE0005F904F903F902F9008956F927F928F92D5
:100FF0009F92AF92BF92CF92DF92EF92FF920F93A8
:101000001F93CF93DF93C82FF62E6A01D22F87EE5E
:10101000682E87E0782E812C912C54016C147D046D
:10102000C0F4C3010E94370781110CC020E8821A66
:101030002CEC920A2EE1A20A2EEFB20A4FEF641AAC
:10104000740AECCF3BE7931A3DE1A30A3EEFB30AE3
:10105000F5CF11E01F1590F4B601812F0E945507BE
:10106000A82FB0E020E831E541E050E00E942438AC
:10107000860E971EA81EB91E1F5FECCF202F30E0F2
:10108000ACE3B0E00E9466389B01AC012E0D311D2F
:10109000411D511D69017A012D2F30E0A0E1BEE014
:1010A0000E946638C60ED71EE81EF91E4C2F41500E
:1010B000550BDA0120E831E541E050E00E94C238EA
:1010C0006C0D7D1D8E1D9F1D680D791D8A1D9B1D3C
:1010D000DF91CF911F910F91FF90EF90DF90CF9014
:1010E000BF90AF909F908F907F906F9008950F93D7
:1010F0001F938FB7F89440918C0550918D056091A6
:101100008E0570918F058FBF00917F021091800234
:101110002091810230918202DB01CA014017510700
:101120006207730718F40197A109B109801B910B9D
:10113000A20BB30B00917B0210917C0220917D02E7
:1011400030917E02800F911FA21FB31F883E23E0C3
:101150009207A105B10508F4C7C040937F025093E0
:1011600080026093810270938202885E9340A1099D
:10117000B10980937B0290937C02A0937D02B0938F
:101180007E028091770290917802A0917902B091CD
:101190007A020196A11DB11D809377029093780287
:1011A000A0937902B0937A02809176028F5F809348
:1011B00076028C3339F480917502109276028F5F3B
:1011C00080937502809175028C3339F4809174029A
:1011D000109275028F5F809374028091740288313F
:1011E00059F41092740280917202909173020196E8
:1011F0009093730280937202809171028F5F80934B
:10120000710240917B0550917C0560917D05709144
:101210007E054F5F5F4F6F4F7F4F40937B0550932D
:101220007C0560937D0570937E058C3339F4809145
:101230007002109271028F5F809370028091700231
:101240008C3339F480916F02109270028F5F80931B
:101250006F0280916F02883121F081E01F910F9120
:10126000089510926F02909105019F5F9093050180
:1012700080910401823009F59D3170F08091020166
:10128000909103010E943707811106C081E080938D
:10129000050183E080930401809104018D30E9F61B
:1012A00081E08093040180910201909103010196F5
:1012B0009093030180930201D0CF863019F020F47F
:1012C000843031F42FE105C08930E1F38B30D1F364
:1012D00020E2022E000C330B92171306E9F691E080
:1012E000909305018F5FD6CF80E0B8CFCF92DF9289
:1012F000EF92FF920F931F93CF93CCE3E62EF12C46
:10130000082F10E068018FE1C81AD1080E94770801
:101310008111C1508BE396E00E945604892BB9F1EC
:101320000E94FD06982F892F992369F190334CF084
:10133000292F092E000C330B20533109E216F30636
:10134000D4F4913634F1292F092E000C330B0217F7
:1013500013078CF4292F092E000C330B2C153D0597
:1013600054F09B31D1F09B3231F09D3221F0CCE32F
:101370009D7F9C3359F6CF911F910F91FF90EF9075
:10138000DF90CF900895C111C1CF8FEFF4CF90E0DF
:10139000CACF9134FCF69D3021F780E0ECCFCF939B
:1013A000C82FC15020F080E20E940005FACFCF91F3
:1013B000089581E00C94CF0986E195E00C94E50452
:1013C000813671F02AE5853261F0882349F021E009
:1013D000280F93EE980F983020F08955883008F048
:1013E0002EE1822F08954F925F926F927F928F929B
:1013F0009F92AF92BF92CF92EF92FF920F931F9363
:101400002B013C018E2DD5011C92812C912C540175
:10141000411451046104710461F080907B05909047
:101420007C05A0907D05B0907E0584189508A608DF
:10143000B708E02FF0E0EE0FFF1FEA56FB4F608188
:1014400071817B0110E000E0E814F9040A051B0536
:1014500058F48E189F08A00AB10A281539054A05C4
:101460005B05C8F091E09C93CC2039F18430F1F019
:10147000B0F48230C8F0C301B2011F910F91FF9008
:10148000EF90CF90BF90AF909F908F907F906F9094
:101490005F904F900895412C512C3201E5CF86305A
:1014A00051F368F0873039F0865F01C08CE06C91B1
:1014B0000E947003E0CF8DE0FACF8E5FF8CF87E017
:1014C000F6CF0E94D9098AE30E9400050C94D9093D
:1014D0004817C1F0613091F4E6E1E49FD001112496
:1014E000A75FBC4FE89FF0011124E75FFC4F81E04C
:1014F0002C919081291729F080E0089581E06230D5
:10150000D9F7089581E0FDCF96E1899FF00111247C
:10151000E75FFC4FE081F0E0EE0FFF1FE054FF4F6C
:1015200065917491072E000C880B990B0C94C303E2
:10153000CF93C2E060E08C2F0E947003CF5FCE306B
:10154000C9F7CF910895FC0101900020E9F7319788
:10155000AF01481B590BBC018BE396E00C94F803D8
:101560008F929F92AF92BF920F931F93CF93DF936F
:10157000CDB7DEB7A1970FB6F894DEBF0FBECDBFD3
:1015800019A2423008F44AE08E010F5D1F4F842EED
:10159000912CB12CA12CA50194010E940238E62FB8
:1015A000B901CA01EA30F4F4E05DD801EE938D018F
:1015B000232B242B252B79F790E080E0109719F04E
:1015C000CD010E94A30AA1960FB6F894DEBF0FBE0C
:1015D000CDBFDF91CF911F910F91BF90AF909F90A2
:1015E0008F900895E95CE1CF462F682F70E090E07E
:1015F00080E00C94B00ACF93C82F83E195E00E945D
:10160000E5046AE070E08C2F0E94F40A81E195E025
:10161000CF910C94E504CF93C82F8EE095E00E9403
:10162000E5046AE070E08C2F0E94F40A8CE095E0FB
:10163000CF910C94E504CF93C82F811101C0C7E26C
:1016400080916E0281110CC082EE8C0F883030F0D8
:1016500086EA8C0F883010F0C73211F4C093010174
:101660008EEF94E00E94E5046AE070E08C2F0E9407
:10167000F40A8CEF94E00E94E504C73211F0CF9198
:101680000895C1E3DDCFCF93C82F10926E0280E0A2
:101690000E94560B80910101CC2329F081E08093B8
:1016A0006E0280910001CF910C941B0BCF93C82F39
:1016B00080916E02882319F080E00E94430B81E044
:1016C00095E0C11102C086E095E0CF910C94E5044D
:1016D000CF93C82F80E00E94560B8CE295E00E94C9
:1016E000E504CC2321F081E0CF910C94560BCF91EF
:1016F000089580E00E94680B81E00C940B0BCF935F
:10170000C62F0E94CF0981E00E94680B8C2FCF91D9
:101710000C94CF09CF93C82F80E00E94430B8C2FED
:101720000E941B0B81E0CF910C94560B81110C94FD
:101730008A0B80E00E94560B80E00C941B0B80917A
:101740008A050E94960B8BE195E00C94E50480E0FD
:101750000E941B0B87EF94E00C94E5048F929F92FC
:10176000AF92BF92CF92DF92EF92FF920F931F93AF
:1017700090E0FC01EE0FFF1FEE0FFF1FEE5CFA4F33
:101780000081118122813381FC01EE0FFF1FEE0FDA
:10179000FF1FE65EFA4FC080D180E280F380FC013B
:1017A000EE0FFF1FEE0FFF1FEE5FFA4F808091805C
:1017B000A280B380FC01EE0FFF1FEE0FFF1FE25E61
:1017C000FB4F4081518162817381880F991F880F7F
:1017D000991FFC01E651FB4F80819181A281B38169
:1017E000481759076A077B07A4F082E24815590594
:1017F0006A057B057CF08FE104171507260737077C
:101800004CF080E2C416D506E606F7061CF481E229
:1018100001C084E21F910F91FF90EF90DF90CF9075
:10182000BF90AF909F908F900C941B0BCF93DF9342
:10183000C82FD62F84EF94E00E94E5046AE070E0A0
:101840008D2F0E94F40A82EF94E00E94E5046AE082
:1018500070E08C2F0E94F40A80EF94E0DF91CF912A
:101860000C94E5041F93CF93DF93C82F862FD42FBA
:10187000CC2331F011E01C0F6C2F0E94160CC12FED
:10188000D15020F08DE20E940005FACF8C2FDF911D
:10189000CF911F910895CF93C82F81E00E94560BDE
:1018A0008AE392E00E94E5044CE463E08C2F0E94FE
:1018B000320CC82F80E00E94560B8C2FCF910895D8
:1018C00082E491E00C94A30ACF93DF930E94E50495
:1018D000EC010E94600C8C0F9D1FDF91CF91089549
:1018E00085ED95E00E94640C8DEA95E00C94E5048A
:1018F000009711F00C94A30A90E080E0089583E82B
:1019000092E00C94780CCF93C82F84E491E0C0311E
:1019100010F485E491E00E94780C60E170E08C2F77
:10192000CF910C94F40AFF920F931F93CF93DF9300
:10193000F82E8DE491E00E94780C08EC15E0D1E0DF
:10194000C0E0F80181918F01C8270E94830CDF5FFE
:10195000FD12F7CF8C2F0E94830C80E395E0DF917E
:10196000CF911F910F91FF900C94E504E7ECF5E007
:101970009AE39083818381E0828363834483158229
:1019800086E00C94930CCF92DF92FF920F931F93FB
:10199000CF93DF93EB0109900020E9F72197C61B55
:1019A000D70BCC2369F18B0191E0909317068093BC
:1019B00039061092180610923A06F12CEC2FE40F1B
:1019C000FF27FF1F6F018F2D90E08C159D0554F4AC
:1019D000800F911FFC01608188ED96E00E94CB068C
:1019E000F394F1CF81E00E948B0581110BC08C2F05
:1019F000DF91CF911F910F91FF90DF90CF900895CD
:101A000080E0F6CF8FEFF4CF96E1899FF0011124AB
:101A1000E75FFC4F40E067E471E082810C94C30C07
:101A20000F931F93CF938C01FC0101900020E9F7E5
:101A30003197E81BF90B6E1B862F8695C62FC81BA6
:101A40000E94CF09C8010E94780C8C2FCF911F9162
:101A50000F910C94CF09CF92DF92EF92FF920F93E8
:101A60001F93CF93DF93C82F1092C7050E949E0348
:101A70006B017C0180911106811166C081E0809329
:101A80001106809310069FEF90930F0610920E069A
:101A90009FE190930D068093EC058091EC05CC0FAF
:101AA000C82BC093EC058091EB05813009F0A3C0F1
:101AB0001092EB050E949E036B017C018091EC0566
:101AC0008093BB008091130690911406A091150697
:101AD000B0911606892B8A2B8B2BA1F00E949E03B6
:101AE00000911306109114062091150630911606E8
:101AF0006C197D098E099F090617170728073907F2
:101B000008F443C08091BC0083FDD8CF85EC80935E
:101B1000BC000E949E036B017C0180911106813004
:101B200009F46BC080910E06D0E2803210F4D0919F
:101B30000E06ADEEB5E0E7EAF5E080E08D1751F175
:101B40009D9191938F5FFACF809113069091140627
:101B5000A0911506B0911606892B8A2B8B2B09F4C0
:101B600089CF0E949E0300911306109114062091C4
:101B70001506309116066C197D098E099F09061706
:101B800017072807390708F075CF809112060E94C1
:101B90006A05D0E01092A605D093A50511E0C0E03B
:101BA0008091A605D817B1F0C132A4F488ED96E073
:101BB0000E948B06112309F445C0813009F43FC00F
:101BC000C0E08F3F39F0CFEF8E3F21F0CEEF823073
:101BD00009F0CCEF81E00E948B05882311F0C7FF4C
:101BE000CDEF8C2FDF91CF911F910F91FF90EF9050
:101BF000DF90CF90089585EE8ACF80911306909163
:101C00001406A0911506B0911606892B8A2B8B2BF2
:101C100009F483CF0E949E030091130610911406CD
:101C200020911506309116066C197D098E099F09C1
:101C3000061717072807390708F06FCFA6CFC0E0AF
:101C400010E0AECFEC2F0C2E000CFF0BE953FA4F37
:101C50008083882309F4BECFCF5FEC2FF0E0E953F7
:101C6000FA4F1082EDCFCF92DF92EF92FF92CF9397
:101C7000DF936C01092E000CEE08FF0897FF17C0D8
:101C80008DE20E940005EC0166277727CB016C19D5
:101C90007D098E099F094AE00E94B00A8C0F9D1FA2
:101CA000DF91CF91FF90EF90DF90CF9008954AE0C1
:101CB000C701B601DF91CF91FF90EF90DF90CF90F9
:101CC0000C94B00ACF92EF920F931F93CF93DF93B0
:101CD000182FD42FC22F61110E94D909EE2011F0C4
:101CE000C11005C080E00E94430B0E949F0BDD23C2
:101CF00019F08D2F0E940005812F0E9400058AE2B5
:101D000095E00E94E504002321F088E295E00E941E
:101D1000E50480E00E94560B82E295E00E94E50413
:101D200001110E94D909CC2319F08C2F0E940005C3
:101D300080E00E941B0BEE20A1F0C11014C081E0D6
:101D4000DF91CF911F910F91EF90CF900C94560B94
:101D500081E0DF91CF911F910F91EF90CF900C9484
:101D6000430BC110F5CFDF91CF911F910F91EF90F1
:101D7000CF900895CF92EF920F93C62EE12C00E002
:101D800020E240E060E00E94620E0F91EF90CF9061
:101D90000895CF92EF920F93C12CE12C01E020E047
:101DA00040E060E00E94620E0F91EF90CF900895A6
:101DB000CF92EF920F93C42EE62E01E020E040E098
:101DC00060E00E94620E0F91EF90CF900895CF9344
:101DD000DF93EC010E94A70B80E00E941B0B0E9486
:101DE000DC0961E081E00E94160C81E00E94560B44
:101DF00060E5CE010E94100D80E00E94560B8AE340
:101E000095E00E94E50482E0DF91CF910895CF92A2
:101E1000DF92EF92FF920F931F93CF93DF93CDB793
:101E2000DEB72C970FB6F894DEBF0FBECDBF8CE0A7
:101E3000E6E0F1E0DE01119601900D928A95E1F75E
:101E400096E2C92E92E0D92E760112E000E0812FB1
:101E50000E944703F70191917F01981719F031977C
:101E6000808301E01F5F1E3091F7011104C0809153
:101E7000FD038111AFC0CE0101967C0110E080917D
:101E80007F05811106C060913202F70180810E94B6
:101E9000160CF60191916F0180917F05992309F449
:101EA00056C081114AC082E20E948A0B81E992E009
:101EB0000E94E50481E00E94430B80917F0581111F
:101EC00004C08DE892E00E94E5041F5FFFEFEF1A67
:101ED000FF0A1830A1F68EE2E82E82E0F82E08E024
:101EE00010E0D02E80917F0581110BC060913202ED
:101EF000E1E0F0E0EC0FFD1FE00FF11F80810E9498
:101F0000160CF70191917F0180917F05992309F4C7
:101F100050C081112EC081E20E948A0B8BE892E0B2
:101F20000E94E50482E00E940B0B81E00E94430BBB
:101F300089E892E00E94E5041FC041E0833008F484
:101F4000BCCF612F809185050E94B60CB6CF811160
:101F50000BC081E00E94430B8FE892E00E94E504F1
:101F600080E20E948A0BA9CF833008F4A6CF40E01C
:101F7000E8CF41E0833040F50F5F1F4F0C30110573
:101F800009F0AFCF81E08093FD0380917F0581113F
:101F900021C02C960FB6F894DEBF0FBECDBFDF91E7
:101FA000CF911F910F91FF90EF90DF90CF900C9405
:101FB000960B811106C081E00E94430B87E892E0F6
:101FC000B9CF8330C8F240E06D2D809185050E9425
:101FD000B60CD2CF2C960FB6F894DEBF0FBECDBF95
:101FE000DF91CF911F910F91FF90EF90DF90CF90F5
:101FF0000895CF93DF93EC0180E00E94430B0E9491
:102000009F0BCE010E94780C80E00E94430B82E27D
:1020100095E00E94E50480E0DF91CF910C94960B4F
:10202000CF93C82F682F85E00E94160C89E491E0B9
:102030000E94F90F86E292E00E94E50482E20E948B
:102040001B0B8AE495E00E94780C83E292E00E94E8
:10205000E5048091880590E001960E94330E81E2AC
:1020600092E00E94E50480E00E941B0B8BE092E06E
:102070000E94E50481E08C0FCF910895EF920F93B9
:102080001F93CF93DF936DE471E084E995E00E94A4
:102090003F37E12C00E010E0D0E0C0E0009741F1D4
:1020A000C330D10569F4212F47EE57E061E081E0AC
:1020B0000E94F507DF91CF911F910F91EF90089546
:1020C0000E9411378C33B0F4209759F4883190F482
:1020D000182F6DE471E090E080E00E943F37219678
:1020E000DDCFC130D10511F0E82EF3CF082FF1CFAD
:1020F0002397C9F260E070E0CB01DCCFCF93C82F0B
:1021000080E00E94CF0980E00E941B0BEC2FF0E0E2
:10211000EE0FFF1FEF55FA4F6591749184E995E03A
:102120000E9438370E94780C83E00E94CF0980E03B
:10213000CF910C94430B6F927F928F929F92AF92AC
:10214000BF92CF92DF92EF92FF920F931F93CF93A4
:10215000DF93CDB7DEB7E6970FB6F894DEBF0FBEBC
:10216000CDBF782E662E89E0E82E83E0F82ED12CA4
:10217000C12C8091DC028150990BC816D9060CF055
:1021800077C04C2D662D872D0E94680A882309F49C
:1021900068C06BE071E0CE0101960E943837F7010C
:1021A0008081813051F128F0843009F446C001E08B
:1021B00007C067E071E0CE010A960E94383702E05E
:1021C000CE0101965C01912C812C10E080169106C5
:1021D0000CF041C040E0B501F70182810E94C30CC0
:1021E0006CE271E080E090E00E94C303FFEF8F1A81
:1021F0009F0A89E0A80EB11CE9CF60E071E0CE0132
:102200000A960E94383768EF70E0CE0143960E942C
:10221000383762EF70E0CE014C960E9438376BEE93
:1022200070E0CE0185960E94383765EE70E0CE01F1
:102230008E960E94383706E0C3CF6EED70E0CE0177
:102240000A960E94383768ED70E0CE0143960E94EE
:10225000383703E0B5CF6CE271E080E090E00E9497
:10226000C3039FEFC91AD90AE6E1EE0EF11C81CF34
:10227000E6960FB6F894DEBF0FBECDBFDF91CF91CB
:102280001F910F91FF90EF90DF90CF90BF90AF9094
:102290009F908F907F906F9008955F926F927F9242
:1022A0008F929F92AF92BF92CF92DF92EF92FF9266
:1022B0000F931F93CF93DF9300D000D000D0CDB702
:1022C000DEB75C01662E542E722ECE0101966C0193
:1022D00086E0D6011D928A95E9F709E013E0F12C1A
:1022E000E12C8091DC028150990BE816F9060CF084
:1022F00079C04E2D652D862D0E94680A882309F429
:1023000050C062ED70E087EC95E00E94383777208E
:10231000C1F0D801EC91F0E0D601AE0FBF1F8C9157
:102320008F5F8C93EE0FFF1FEA50FE4F6591749103
:1023300084E995E00E943837BC018CEC95E00E945E
:10234000F33887EC882E85E0982EF4010190002068
:10235000E9F7CF01B50101970E94F338772091F09A
:10236000F40101900020E9F7E85CF540FF27E9530C
:10237000FA4FD8018C91D601A80FB11D8C91805DC8
:102380008083118241E067EC75E0F80182810E9450
:10239000C30C181634F46CEC75E0C80105960E9465
:1023A000F3386DE471E080E090E00E94C303D8014F
:1023B00012968C9191E090931706809339061092B3
:1023C000180610923A0660E088ED96E00E94CB066F
:1023D000F80182810E948B05FFEFEF1AFF0A0A5E67
:1023E0001F4F7FCF26960FB6F894DEBF0FBECDBF2E
:1023F000DF91CF911F910F91FF90EF90DF90CF90E1
:10240000BF90AF909F908F907F906F905F90089556
:102410000F931F93CF93DF930FE715E0C5EED3E043
:10242000CE010E94DC37F80181938F012196C13FD4
:10243000F3E0DF07A9F76091800570918105809135
:1024400082059091830520EB34E040E050E00E944B
:102450000238672B682B692B61F080E895E2A0E0D9
:10246000B0E08093800590938105A0938205B0939E
:10247000830580918805833020F0109288051092A2
:10248000860580918905843020F01092890510928C
:102490008605809187058B3020F010928705109279
:1024A00086058091840580930001DF91CF911F9173
:1024B0000F9108950F931F93CF93DF9329E2289FE5
:1024C0008001299F100D1124C3E3D2E0025F1E4F4B
:1024D000C8018C0F9D1F0E94DC37899382E0CC35A8
:1024E000D807B1F7DF91CF911F910F9108950F9306
:1024F0001F93CF93DF9325EC289F8001299F100D18
:102500001124C6E9D4E0045A1340C8018C0F9D1F62
:102510000E94DC37899385E0CB35D807B1F7DF918E
:10252000CF911F910F91089585ED8093BC0080910C
:10253000130690911406A0911506B0911606079601
:10254000A11DB11D23E0B695A795979587952A956E
:10255000D1F72091BC0024FD03C01092110608950C
:10256000409113065091140660911506709116065D
:10257000452B462B472B69F30097A105B10541F088
:102580002AE22A95F1F700C00197A109B109E1CF2C
:10259000809112060C946A052F923F924F925F929F
:1025A0006F927F928F929F92AF92BF92CF92DF9263
:1025B000EF92FF920F931F93CF93DF937C01FC0167
:1025C00001900020E9F731977E2E781A20E1271537
:1025D00018F4FC011082712C81E00E94560B83E4F8
:1025E00095E00E94E50480E00E94560B84E20E9480
:1025F0001B0B87E395E00E94E504772049F00E94D9
:10260000DC09C7010E94780C8AE395E00E94E5048A
:10261000B70184E995E00E94F338E72DF0E0EC562D
:10262000FA4F1082572C172DC12CD12C212C912C14
:10263000C0E0D0E090E1892E0CE3DD3009F4B1C1B7
:102640000E9477088823C9F00150B9F480E00E9405
:102650001B0B80E0DF91CF911F910F91FF90EF90C6
:10266000DF90CF90BF90AF909F908F907F906F90B2
:102670005F904F903F902F9008958BE396E00E94DB
:102680005604892BD1F28BE396E00E943404D82FB4
:10269000412E4518772009F493C1992493945C1234
:1026A000912CDC2ED70C312E3D18CC24C394C30CB6
:1026B000DD3009F443C1A4F4D830B1F0DA3009F4C4
:1026C0003DC12C2E80EE8D0F8F3508F0B5CF103127
:1026D00008F41AC1772009F4AFCFAA24A394DFC06D
:1026E000DB3129F0DF3769F72C2EA12CD8C02C2E36
:1026F0006CE070E080E090E00E94C30300E0A12C59
:10270000612CDBE18BE396E00E945604892B09F4EF
:102710004BC063948BE396E00E943404D82F6CE0A6
:1027200070E080E090E00E94C303F3E06F1651F187
:10273000F61558F021E06216A9F032E06316A9F010
:10274000AA24A394DFCF342CD3CF84E0681641F1C0
:1027500095E06912F5CF8FEB8D0F843088F70FE786
:102760000D0FD0CFDB3561F7CDCFD53334F4D33374
:1027700014F4D13329F70D2FC5CF8FEB8D0F843093
:10278000F8F6F9CFDB3309F4BDCFDE37C9F60133F4
:1027900009F4B8CFA8F28DEC800F823088F6B2CF62
:1027A000D23309F4AFCFCCCF662009F44FCFA110BC
:1027B00043CF033409F456C0E0F4043389F058F4ED
:1027C000013309F449C0033309F45EC0772009F4EA
:1027D00033CF412C0AC0013409F43EC00234B1F7B2
:1027E000642C772009F44EC04318642C650C712CBE
:1027F0007AC0013C69F168F4043409F43BC0003C40
:1028000029F7652C6194552009F416CF71105DC02D
:1028100012C0023C49F0033CC9F641E0511001C02E
:1028200040E0642E619405C066246394411001C0A9
:10283000612C711047C0662009F4DFC0762C652C2E
:10284000670CC52D17140CF44EC07194C62D4BC0E7
:10285000642C4110DBCFF0CE772009F4CCC04C2E95
:102860004518C3CF7110C0CF6624639441100AC0CD
:10287000612C08C07110F3CF41E0511001C040E05D
:10288000642E6194712C7FC0711009C0511680F7BD
:10289000DD24D394D50CC42C252C772473944C2D93
:1028A00050E06D2D70E06C567A4F822D90E08C5682
:1028B0009A4F0E94CF381719622CAA2009F497CF9B
:1028C000522C24C0662009F4B7CE8C2F870D992096
:1028D000A1F0C60D6C2EC81718F4982F8C2FC92F95
:1028E0007C2E781AC82F80E495E00E94E5047720BA
:1028F00009F485C0C11188C097C0680E862DC61521
:1029000078F78C2FC62DECCF7110E7CE852D90E097
:10291000FC01EC56FA4F5F018B569A4F511680F42A
:10292000442D50E04F5F5F4FBF010E94CF38F5014B
:10293000D08366246394650C1F5F59CF2C2E7CCE08
:10294000FC011082F4CF8AE395E00E94E5045C2E3E
:10295000570C852D90E09C012C563A4F5901511689
:1029600038F4F50181915F010E9400055394F7CF7F
:102970005C2E882D811B0E94CF0980E495E00E9487
:10298000E504C52D512C662009F456CE560C862D33
:1029900016141CF40E94FB0A4FCE81950E940B0B6B
:1029A0004BCEE12FF0E0EC56FA4F108280E00E940F
:1029B0001B0B64E975E0C7010E94F33881E04ACE41
:1029C0008D3009F439CE34F4883051F08A3009F46E
:1029D00033CE78CE8B3109F4B6CE8F3709F072CE74
:1029E000552059F022242A94250CCC24C394C40CDD
:1029F000D52CA12C52CF652C44CF712C1DCE512C3F
:102A0000112309F4B6CFC12F84E9A82E85E0B82E92
:102A1000512CF50181915F010E94000553945C12D5
:102A2000F8CF772009F4A5CF0E94DC095C2E2C2F6B
:102A3000270D3327331F5901852D90E08A159B05FB
:102A40000CF081CF8C569A4FFC0180810E940005CA
:102A50005394F2CFFF920F931F93CF93DF938C0188
:102A6000F62E6EE270E00E94E838EC01892B11F03E
:102A7000F1101BC04AE050E070E060E0C8010E9425
:102A8000FA358B019C01F7FE08C0A8EEB3E0AC015B
:102A90009B010E9424388B019C01C901B801DF9180
:102AA000CF911F910F91FF90089518824AE050E056
:102AB00070E060E0C8010E94FA359B01AC01A8EE0D
:102AC000B3E00E9424388B019C01F12C37FF09C030
:102AD00030952095109501951F4F2F4F3F4FFF24A4
:102AE000F394FE01319684E690E0CAE0D0E0419193
:102AF0004423F9F018161906E4F4042E000C550BC3
:102B0000405351094A30510590F7489FB001499F01
:102B1000700D589F700D1124AB01770F660B770B6A
:102B2000040F151F261F371FBE010E948938CB01D5
:102B3000DECFFF2009F4B1CF309520951095019597
:102B40001F4F2F4F3F4FA9CF009721F09093EA05D9
:102B50008093E9056FE471E08091E9059091EA05C1
:102B60000E943F370097A1F01092EA051092E90504
:102B7000FC014081242F042E000C330B205331091B
:102B80002A30310510F04D3229F76FEF0C942A15D9
:102B900060E070E0CB010895FF920F931F93CF93F5
:102BA000DF93082F10E096E1899FE0011124C75FB1
:102BB000DC4F8A810E942B0D18165CF587EC95E09E
:102BC0000E94A415F801EE0FFF1FEE0FFF1FE35246
:102BD000FD4F6083718382839383FF24F394E881A4
:102BE000F0E0E453FF4FE491FE16D0F490E080E073
:102BF0000E94A415F801EF0DF11DEE0FFF1FEE0F5F
:102C0000FF1FE352FD4F6083718382839383F394AC
:102C1000E6CF80E0DF91CF911F910F91FF90089553
:102C200081E0F8CF8F929F92AF92BF92FF920F9365
:102C30001F93CF93DF931092DC020E94600CC0E2DE
:102C400010E006E1FF24F3942091DC02C7FD51C19E
:102C50002A3008F04EC180EB8C0F883008F433C165
:102C6000C83609F430C11C136FC06DE471E080E018
:102C700090E00E94C303111169C0F0921706C0933F
:102C800039061092180610923A0681E00E948B05D0
:102C9000811119C184E691E00E94E5046AE070E0C8
:102CA0008C2F0E94F40A0E94610A6DE471E080E0BA
:102CB00090E00E94C30340E061E571E08C2F0E9428
:102CC000C30C082E000C990B0E94330E0E94610A5F
:102CD0006DE471E080E090E00E94C3038C2F0E94BD
:102CE0002B0DD82F082E000C990B0E94330E0E943A
:102CF000610ADC5FD53008F4F8C087EC95E00E94EB
:102D0000780C0E94610A8091C7058F3309F0EDC0ED
:102D10008091C805893409F0E8C0E091DC020E9F7B
:102D2000F0011124E75FFC4F118215828091CA05E2
:102D3000D3E08F3499F064F4D4E0843479F0D1E0B6
:102D4000853461F0DFEF0AC01C2F97CF10E0A2CFCF
:102D5000823509F4BAC0D2E08037A1F78D2F0D2E4D
:102D6000000C990B0E94330E0E94600CDF3F09F4A7
:102D7000BCC0E091DC020E9FF0011124E75FFC4F24
:102D8000C283D08387EC95E00E94A415D091DC0229
:102D90000D9F90011124A901475F5C4F5A01FA0170
:102DA0007483638340E063E571E08C2F0E94C30C61
:102DB0006DE471E080E090E00E94C3038C2F0E94DC
:102DC0002B0D18162CF48091CC058053F5018183CE
:102DD00040E069E571E08C2F0E94C30C6DE471E066
:102DE00080E090E00E94C3038C2F0E942B0D1816E8
:102DF0004CF4D09FC00111246DEC75E0825F9C4FB4
:102E00000E94F33840E060E671E08C2F0E94C30C12
:102E10008BE591E00E94E5046CE271E080E090E0D7
:102E20000E94C3038C2F0E942B0D18160CF055C066
:102E30008091CF050E9400050E94D90980E40E947C
:102E400000050E94D90981ED95E00E94780C88E583
:102E500091E00E94640C8EE491E00E94E504D09120
:102E6000DC028D2F0E94040D8D2F0E94840A8D2F6D
:102E70000E94CC158823A1F1E091DC0244E0E49F9C
:102E8000F0011124E352FD4F80809180A280B38035
:102E90004AE0C501B401B7FE0BC08DE20E940005F7
:102EA00066277727CB01681979098A099B094AE0C7
:102EB0000E94B00A0E94600C0E94600C8091DC02AB
:102EC0008F5F8093DC02CF5FBFCED1E08091CB05D6
:102ED000843509F4D0E0D19541CF84E591E0B9CFB4
:102EE0008AE491E00E94640CE7CFC113ECCFC1509B
:102EF000EACF30E0F901EE0FFF1FEE0FFF1FE352A4
:102F0000FD4F8AE694E0A1E0B0E080839183A28344
:102F1000B383C6E1C29FC001C39F900D1124FC0181
:102F2000E75FFC4F12826BE371E0825F9C4F0E946F
:102F300038378091DC02C89FF0011124E75FFC4F15
:102F400095E0908311828F5F8093DC0280938705E8
:102F5000DF91CF911F910F91FF90BF90AF909F9005
:102F60008F900895DF92EF92FF920F931F93CF936C
:102F7000DF93142FD22F2AE044E955E00E947637E0
:102F800044E955E0FA0101900020E9F7AF01455905
:102F90005540C42F4430A8F4552784E090E07C01CC
:102FA000E41AF50A64E975E0C7018C569A4F0E944D
:102FB000CF38A70160E370E084E995E00E94E13832
:102FC000C4E01D5FD12EDC1A1D14B4F44C2F50E068
:102FD00064E975E0ED2C0D2C000CFF08C7018C5640
:102FE0009A4F0E94CF38602F000F770BA70184E91A
:102FF00095E00E94E138C12F8C2F90E08C010F5694
:103000001A4F43E050E0B8018E569A4F0E94CF38D5
:103010008EE2F8018083CF5F12E01D0F1D0D412F5E
:103020004C1B141664F4042E000C550B8C2F90E0EE
:1030300060E370E08C569A4F0E94E138C12FECEFAC
:10304000EC0F80E0DD2321F08E2FEDEFED0FEC0F84
:10305000F0E0EC56FA4F1082DF91CF911F910F9163
:10306000FF90EF90DF900895CF92DF92EF92FF9262
:103070000F93CF936B017C01C42F4423E9F000E24E
:1030800023E041E00E94B21764E975E083E892E032
:103090000E94F33883E892E00E94CC12882391F0DA
:1030A0006C2F619584E995E0CF910F91FF90EF909F
:1030B000DF90CF900C942A152AE043E852E00E945A
:1030C0007637E8CFC701B601CF910F91FF90EF900F
:1030D000DF90CF900895CF93DF93EC0168817981E1
:1030E0008A819B8141E00E943418688379838A83B6
:1030F0009B8381E0DF91CF910895CF92DF92EF9291
:10310000FF920F931F93CF93DF93D62F7A01122F45
:10311000C02F282F30E0A8EEB3E00E94663800E30D
:1031200020E042E00E94B21764E975E083E892E093
:103130000E94F33883E8C82E82E0D82EF60112836D
:103140002D2F30E0A8EEB3E00E94663820E042E088
:103150000E94B21764E975E086E892E00E94F338B5
:10316000F60115839701A8EEB3E00E94663820E0CF
:103170004C2F0E94B21764E975E089E892E00E9442
:10318000F338EC2FF0E0ED57FD4F1682DF91CF9131
:103190001F910F91FF90EF90DF90CF900895AF9225
:1031A000BF92CF92DF92EF92FF920F931F93CF9334
:1031B000DF9300D01F92CDB7DEB719821A821B822F
:1031C0009E012D5F3F4F5901215031096901215066
:1031D0003109790110E000E030E020E050E040E00B
:1031E0000E946D074B8150E002E02AE36A818981E9
:1031F0000E947D180F900F900F90DF91CF911F913B
:103200000F91FF90EF90DF90CF90BF90AF90089517
:103210001F93CF93DF93EB01142F61E0209709F008
:1032200060E00E94BA0EBE0190E080E00E94CF18DC
:103230000E947F0C112329F0DF91CF911F910C94F4
:10324000790BDF91CF911F910895CF93DF93EC011C
:103250006881798190E080E00E94CF1883E892E055
:103260000E94CC120E943E107983688381E0DF9136
:10327000CF9108958F929F92AF92BF92EF920F934A
:10328000CF93DF934B015C01C42FD22F8E2D0E9470
:10329000560BDD23C1F02D2F4C2FC501B4010E9428
:1032A000B217C82F84E995E00E94780C80E00E9454
:1032B000560B8C2FDF91CF910F91EF90BF90AF9075
:1032C0009F908F900895A8EEB3E0A50194010E940D
:1032D000243820E04C2FE3CFEF92FF920F931F93FF
:1032E000CF93DF93C82FF62EE42E122FD02F0E94FB
:1032F000AE0B6E2D8F2D0E94160C84E0C89FF0013E
:103300001124E25EFB4F6081718182819381EE2402
:10331000E39400E222E0412F0E943A19DD2349F0B4
:103320008C2FDF91CF911F910F91FF90EF900C9414
:103330007E10DF91CF911F910F91FF90EF90089534
:10334000EF920F93CF93C82F01E022E0482F67E060
:1033500080E00E946C1981E00E94AE0B6C2F84E12A
:103360000E94160C60912204709123048091240421
:103370009091250428EE33E040E050E00E949D3813
:10338000CA01B901EE24E39400E220E044E00E9487
:103390003A1981E00E947E1001E022E04C2F60E2A9
:1033A00082E00E946C1900E024E04C2F6DE283E083
:1033B0000E946C1980E00E941B0B86E992E00E943B
:1033C000E50401E023E04C2F6BE384E00E946C19DC
:1033D00023E04C2F67E485E00E946C1981E08C0F9C
:1033E000CF910F91EF9008952F923F924F925F925D
:1033F0006F927F928F929F92AF92BF92CF92DF9205
:10340000EF92FF920F931F93CF93DF93CDB7DEB769
:103410006A970FB6F894DEBF0FBECDBF882E86E048
:10342000E2E1F1E0DE01119601900D928A95E1F75B
:1034300086E0E8E1F1E0DE01179601900D928A95B1
:10344000E1F7EEE12E2EE4E03E2E9E01295F3F4F94
:10345000398B288BAE014F5F5F4F5B8B4A8B10E03F
:10346000912C113009F471C081E090E052E05F8747
:10347000E889F9892191F98BE88B2C8BEA89FB8902
:103480002191FB8BEA8B2D8B49E053E05E874D87C2
:103490007DEDC72E72E0D72E082DB12CA12C412C2A
:1034A000512C3201F12C9C01990F440B550B2F8BA1
:1034B000388F498F5A8F8091DC028A151B0409F0DE
:1034C0000CF46AC03FEFA31AB30AED85FE85808134
:1034D000811331C0F39480917F0581113AC0F1E0EE
:1034E000F00FFE8B602F8D890E94160CC5010E9483
:1034F000330E83E992E00E94E504F6016081718158
:10350000828193812F89388D498D5A8D0E949D38F3
:10351000CA01B901EE24E39400E22F854C890E9490
:103520003A190E89F60180819181A281B381480EFA
:10353000591E6A1E7B1E2D853E852A5E3F4F3E87A3
:103540002D8734E0C30ED11CB6CF88EE93E01F86E2
:103550008FCF833038F3F6018081918122813381CE
:1035600040918505FAE3F093C7054093C80542E012
:103570004093C9054FEF4A0D4093CA051092CB0501
:103580003093CC052093CD059093CE058093CF0545
:1035900089E00E94930CC6CFFF20E1F12F2D30E08F
:1035A00050E040E0C301B2010E949D38F101208348
:1035B000318342835383133051F520912A04309193
:1035C0002B0440912C0450912D04AAE0B0E00E94FD
:1035D000243821E231E040E050E00E949D388091A3
:1035E000260490912704A0912804B0912904880F03
:1035F000991FAA1FBB1F820F931FA41FB51F809383
:103600002A0490932B04A0932C04B0932D049F14B0
:1036100008F49F2C1F5FF4E02F0E311C163009F0C8
:1036200020CF882D890D6A960FB6F894DEBF0FBEA5
:10363000CDBFDF91CF911F910F91FF90EF90DF9061
:10364000CF90BF90AF909F908F907F906F905F9042
:103650004F903F902F9008958F929F92AF92BF927C
:10366000CF92EF920F93962F49015A01C12CE12C72
:1036700000E020E240E060E0890F0E94620E00E27C
:1036800022E044E0C501B4010E943A1980E00F91A4
:10369000EF90CF90BF90AF909F908F900C94680B5D
:1036A0008F929F92AF92BF92EF920F93CF93C82FBA
:1036B0004A015B0185E092E00E94E5046C2F8DE1F8
:1036C0000E94160C82E092E00E94E504EE24E3944E
:1036D00000E222E044E0C501B4010E943A19CF9112
:1036E0000F91EF90BF90AF909F908F9008952F9281
:1036F0003F924F925F926F927F928F929F92AF9282
:10370000BF92CF92DF92EF92FF920F931F93CF93CE
:10371000DF9300D01F92CDB7DEB78983662E4901B3
:103720005A0158E7752E00E010E0C12CD12C76012B
:10373000202F30E03B832A838091DC028150990B5B
:10374000281739073CF586E1829FF001839FF00D31
:103750001124E75FFC4F808181111AC01F5F802F09
:103760000E94040D802F0E94840A802F0E94CC1595
:10377000EA81FB81EE0FFF1FEE0FFF1FE352FD4FAB
:1037800080819181A281B381C80ED91EEA1EFB1EE1
:103790000F5FCECF112309F4AAC0212F30E050E0F3
:1037A00040E0C701B6010E949D3819012A0120920C
:1037B0001E0430921F0440922004509221040E9463
:1037C000600C80E00E94430B0E949F0B89E391E014
:1037D0000E94E504E12C00E222E044E0C501B401CE
:1037E0000E943A1984E391E00E94E50480E00E947F
:1037F000430B82E295E00E94E50480E00E94960B74
:103800000E94D90922E043E0C201B1010E943A19A5
:1038100081E00E94430B80E391E00E94E50480E098
:103820000E94430B83E00E94FB0A10E034E1F32E78
:10383000212F30E03B832A838091DC028150990B59
:10384000281739070CF06FCF412F662D89810E9410
:10385000680A8823F1F1812F0E94040D812F0E94B4
:10386000840A812F0E94CC156A817B816F5F7F4F14
:10387000072E000C880B990BE12C00E320E042E0BE
:103880000E943A198DE291E00E94E5048A819B81B1
:10389000880F991F880F991F83529D4FFC016081EB
:1038A000718182819381EE24E39400E222E044E07E
:1038B0000E943A1980E00E94680BFEE0FF0E22E4AD
:1038C0002F1538F40E94600C84E10E94FB0A85E108
:1038D000F82E0E94770881117A948BE396E00E947B
:1038E0005604892B69F4772059F01F5FA1CF2090EF
:1038F0001E0430901F04409020045090210457CFA4
:103900008BE396E00E9434044B9719F4212C312C60
:103910002101C201B1010F900F900F90DF91CF9163
:103920001F910F91FF90EF90DF90CF90BF90AF90DD
:103930009F908F907F906F905F904F903F902F90CF
:1039400008952F923F924F925F926F927F928F9243
:103950009F92AF92BF92CF92DF92EF92FF920F931E
:103960001F93CF93DF93082FD62E142F322EF12CD6
:103970008F3F19F4FF24F39400E04FE365E0812FBB
:103980000E94320CC9E0D3E02DED622E22E0722EAF
:10399000912C812C402E512C26E1029FC001112434
:1039A000FC01E75FFC4F5F018091DC028815190480
:1039B00009F00CF4C2C09881F5018081981719F0C4
:1039C000FF2009F4AFC01F5F222423944814590438
:1039D00019F0D11001C0212C612F85E00E94160C36
:1039E00031100FC0CC24C394C224E22C00E020E0AC
:1039F00048E260E081E3880D0E94620E81E00E944F
:103A00000B0B81E0222009F495C00E94560B83E045
:103A10000E94FB0ACE0105960E94780C612F8AE174
:103A20000E94160C822D0E94680BF3016081718147
:103A30008281938100E222E045E00E94B2178881F2
:103A40000E94AE0B211003C081E00E94430B84E969
:103A500095E00E94780C80E00E94960B81E00E9425
:103A6000430B0E94D909E881F0E0EE0FFF1FEF55EC
:103A7000FA4F6591749184E995E00E9438370E946D
:103A8000780C612F89E20E94160C80E00E94680B7E
:103A9000E881F0E0EE0FFF1FEA50FE4F6591749150
:103AA00084E995E00E9438370E94780C612F80E30A
:103AB0000E94160C80E00E94680B6B817C8190E074
:103AC00080E000E322E042E00E94B21784E995E042
:103AD0000E94780C612F88E30E94160C80E00E94FF
:103AE000680B2A8130E0A8EEB3E00E94663800E25D
:103AF00020E043E00E94B21784E995E00E94780C30
:103B0000612F8EE30E94160C89810E94680B6AE087
:103B100070E089810E94F40A80E00E94560B80E0E8
:103B20000E94680BFFEF8F1A9F0A669624E0620ED0
:103B3000711C3ACF0E94430B6ACF80E00E94430B76
:103B40004FE365E081E0810F0E94320C82E0810F3B
:103B5000DF91CF911F910F91FF90EF90DF90CF9069
:103B6000BF90AF909F908F907F906F905F904F909D
:103B70003F902F9008950F93CF93DF93C82F682F16
:103B800085E00E94160C81E60E94C90E86EE91E047
:103B90000E94E50482E60E94C90E8CEC91E00E942E
:103BA000E50483E60E94C90E8DEB91E00E94E504D6
:103BB000D2E0DC0F43E068E081E08C0F0E94320C21
:103BC0006D2F85E00E94160C84E60E94C90E8EEAD5
:103BD00091E00E94E50481E00E94560B8CE592E0A2
:103BE0000E94780C6D2F8AE20E94160C85E60E94D6
:103BF000C90E8CE991E00E94E50443E068E083E0AF
:103C00008C0F0E94320C64E06C0F85E00E94160C51
:103C100086E60E94C90E84E891E00E94E50481E0F6
:103C20000E94560B20916D0230E0A8EEB3E00E9496
:103C3000663800E320E043E00E94B21784E995E093
:103C40000E94780C85E00E94CF0987E60E94C90E89
:103C50008EE691E00E94E50485E08C0FDF91CF9124
:103C60000F9108954F925F926F927F92AF92BF92A1
:103C7000CF92DF92EF92FF920F931F93CF93DF9338
:103C80005C01F62ED42E28013901CE2D69E271E0B7
:103C900087EC95E00E943837EE20E1F18CE28093CA
:103CA000CA05C33051F148F4C13091F06FE171E0C1
:103CB000C23081F0C43071F512C0C53031F1C63068
:103CC000C9F765E171E08BEC95E00E94383722C0BE
:103CD00064E271E08BEC95E00E943837C8E000E3C5
:103CE00022E041E0C301B2010E94B2178C2F90E0A4
:103CF00064E975E089539A4F0BC069E171E08BEC80
:103D000095E00E943837C9E0EACFB5018BEC95E029
:103D10000E94F338E12C86E1C82ECF9CE0011124EB
:103D2000C75FDC4F0E2D10E08091DC028150990BB3
:103D3000081719079CF54E2D6D2D8F2D0E94680ACE
:103D4000882351F1E881F0E0E15FFE4FE491EE233A
:103D500019F10E94600CC09EC001C19E900D1124FB
:103D60008C01075F1C4F6AE070E0F80182810E94BD
:103D7000F40A8DE491E00E94780C87EC95E00E94B3
:103D8000A30A0E94600C40E067EC75E0F8018281B4
:103D90000E94C30CF8011182E394C4CFDF91CF914C
:103DA0001F910F91FF90EF90DF90CF90BF90AF9059
:103DB0007F906F905F904F900895CF92DF92EF9237
:103DC000FF920F93CF93DF93C0907702D090780249
:103DD000E0907902F0907A02C701B6010E94CF18F4
:103DE000C701B60120E831E541E050E00E94023809
:103DF000A8EEB3E00E94243800E220E043E00E94F5
:103E0000B21749E050E063E872E088E892E00E946F
:103E1000CF38C3E8D2E083E0E4E9F5E0DE010190C9
:103E20000D928A95E1F784E68B8380E28C83DF91A3
:103E3000CF910F91FF90EF90DF90CF900C947F0C7B
:103E4000FF920F931F93CF93DF93F82EC62F8A0113
:103E5000D22F0E94DC0968E181E00E94160C8FEFEE
:103E6000F8122FC089E20E941B0B84E00E94CF0948
:103E7000C8010E94780C80E00E94560B81E30E94EA
:103E80001B0B83E395E00E94E5046AE070E08D2F50
:103E90000E94F40A0E94DD1EC11106C0E8010990CB
:103EA0000020E9F72197C01B88E28C1B0E94CF09F4
:103EB0008AE395E0DF91CF911F910F91FF900C94D1
:103EC000E50481E00E94560BD0CFCF93DF93809121
:103ED0007F05C0E0811122C00E94A70B0E94DC096F
:103EE00087E691E00E94E70EC82F8AE395E00E94E2
:103EF000E504D2E0DC0F61E06C0F83E00E94160C59
:103F00008D2F0E944B0CC82F80917F05811106C018
:103F100020E04BE751E060E00E94201F8C2F0E94C0
:103F2000F41990917F05911116C04CE463E00E9452
:103F3000320C0E94A0194CE463E00E94320CC82F9E
:103F400081E00E94560BC09332024CE463E081E0B2
:103F50008C0F0E94320C1092FD03DF91CF910895D7
:103F60000F9361E083E40E94160C0E94DC090E941A
:103F7000DD1E68E18DE30E94160C40910201509114
:103F8000030104E02EE260910401809105010E948A
:103F90007D1883E892E00E94780C0E94D909409134
:103FA000710250E002E02AE36091700280916F029A
:103FB0000E947D1883E892E00E94780C80E295E0F0
:103FC0000E94E5048AE395E00F910C94E5046F925A
:103FD0007F928F929F92BF92CF92DF92EF92FF9249
:103FE0000F931F93CF93DF93CDB7DEB7C056D109A0
:103FF0000FB6F894DEBF0FBECDBFB82E962E80E967
:1040000091E00E94E70E182F61E0680F83E00E94A4
:10401000160C82E0810F0E944B0C182F4CE463E0D9
:1040200081E0810F0E94320C109332021092FD0346
:1040300063E372E0FE01319680E0DB012D913D915A
:10404000BD0131832083843048F41E964D915C91EC
:104050009F01205C3F4FD9014D935C938F5F389651
:10406000883059F7FE01319680E0D12CC12CB8166A
:1040700019F0BFEFBB1209C0208131812115310534
:1040800021F0C216D30608F469018F5F38968C3090
:1040900071F7FE01319640E0B41619F02FEFB2121D
:1040A0005BC0208131812115310509F455C051E0F3
:1040B000951609F4DCC0C601B9010E9475388B0160
:1040C0002617370708F48901C901B8010E9475381D
:1040D0007B01609FC001619F900D709F900D112426
:1040E0008217930718F48FEFE81AF80AE09EC001D0
:1040F000E19E900DF09E900D11242817390738F499
:104100000115110509F4BDC001501109DDCFF5827B
:10411000E482C601821B930BB8010E947538778335
:104120006683E60EF71EE09EC001E19E900DF09EB4
:10413000900D1124D601A81BB90BCD01969587953A
:104140009383828382819381892B31F48681978145
:1041500096958795938382834F5F38964C3009F00C
:104160009BCFBFEFCB1ADB0A912C812C83E8682E02
:1041700082E0782EC114D10409F463C00E9477084C
:10418000882309F453C0E1E0CE1AD108B60190E0CB
:1041900080E00E94CF186FE971E08BE892E00E9406
:1041A000F338D3010D900020E9F7BD016458724047
:1041B00080917F05811105C020E043E852E00E9414
:1041C000201F8E010F5F1F4FF12CBF1419F0BFEF9E
:1041D000BB121AC0F80180819181892BA9F08281DC
:1041E00093818816990680F024813581A401481BAB
:1041F000590BCA0166817781620F731F0E9475385F
:1042000061E08217930708F060E082E08F0D0E9462
:104210007003F394085F1F4F5CE0F512D6CF8FEF69
:10422000881A980A0E94B01F0E94070F8BE396E03D
:104230000E945604892B09F49DCF8BE396E00E94DF
:104240003404C05ADF4F0FB6F894DEBF0FBECDBFA7
:10425000DF91CF911F910F91FF90EF90DF90CF9062
:10426000BF909F908F907F906F900C94980A3583A9
:104270002483C601821B930B978386831382128249
:1042800061CF0E94CA38CF92DF92EF92FF920F93D4
:104290001F93CF93DF93D62FF42E833609F46AC091
:1042A0009CF4813609F460C00CF09BC08F5F8230B3
:1042B00008F45EC080E0DF91CF911F910F91FF90D5
:1042C000EF90DF90CF900895853609F45EC00CF42E
:1042D00057C0863609F45DC0873661F7C0916D021C
:1042E00099E0C92E93E0D92E10E000E08091DC0225
:1042F0008150990B081719070CF06AC080EB8C0FDE
:10430000883008F463C0C83609F4C9E6402F6F2D21
:104310008D2F0E94680A882309F161EF71E084E91A
:1043200095E00E9438374AE063E872E08C2F90E015
:104330000E946B3763E872E088E995E00E94F338E9
:1043400040E064E975E0F60182810E94C30CCF5F12
:104350006CE271E080E090E00E94C3030F5F1F4FAA
:10436000F6E1CF0ED11CC2CF642F8D2F0E949B107F
:1043700081E0A1CF20E084E491E00E944D11F8CFCC
:104380008CE592E00E94CC12F3CF21E08CE592E024
:10439000F4CF60916D0270E090E080E040E00E9418
:1043A000341860936D022091DC028FE790E0821B4D
:1043B00091096817190631F02CF08FE7821B809362
:1043C0006D02D6CF6032A0F680E2F9CFC8E59ECF6D
:1043D00068EE73E080E090E00E94C3030E94121632
:1043E000C7CF85E0E82E00E010E0980188EA91E070
:1043F0000E94321EBDCFFF920F931F93CF93DF9386
:10440000EC01F62E08811981C8010E94DC37F816EC
:1044100021F06F2DC8010E94E437CE01DF91CF91CA
:104420001F910F91FF900895EF92FF920F931F93AA
:10443000CF93DF9300D0CDB7DEB78FE7E82E85E0CE
:10444000F82E05EE13E01A830983F70161917F01CD
:10445000CE0101960E94FB210F5F1F4F013FF3E049
:104460001F0789F70F900F90DF91CF911F910F9148
:10447000FF90EF900895EF92FF920F931F93CF93C9
:10448000DF9300D0CDB7DEB729E2AC01249FC00195
:10449000259F900D112403E312E0FC01E25FFE4F23
:1044A0007F01C701800F911F9A838983F801619171
:1044B0008F01CE0101960E94FB21F2E00C351F070F
:1044C00081F70F900F90DF91CF911F910F91FF9087
:1044D000EF900895EF92FF920F931F93CF93DF9386
:1044E00000D0CDB7DEB725ECAC01249FC001259FDD
:1044F000900D112406E914E0FC01E45AF3407F0119
:10450000C701800F911F9A838983F80161918F0100
:10451000CE0101960E94FB21F5E00B351F0781F7C4
:104520000F900F90DF91CF911F910F91FF90EF901F
:104530000895EF92FF920F931F93CF93DF9300D0D4
:10454000CDB7DEB789E0E82E83E0F82E10E000E07A
:104550001A830983F70161917F01CE0101960E94C0
:10456000FB210F5F1F4F023F110591F70F900F9036
:10457000DF91CF911F910F91FF90EF9008952F92AF
:104580003F924F925F926F927F928F929F92AF92E3
:10459000BF92CF92DF92EF92FF920F931F93CF9330
:1045A000DF93CDB7DEB7E1970FB6F894DEBF0FBE4D
:1045B000CDBF87E691E00E94E70E20E0482F61E042
:1045C0008FEF0E94A11CC82E082E000CDD08682F5A
:1045D00085E00E94160C81E60E94C90E86EE94E0EA
:1045E0000E94E50482E60E94C90E8CED94E00E94D0
:1045F000E50483E60E94C90E84ED94E00E94E50480
:1046000084E60E94C90E8CEC94E00E94E50485E6E5
:104610000E94C90E83EC94E00E94E5046091850538
:1046200070E090E080E0EE24E39400E320E043E0DB
:104630000E943A1943E068E081E08C0D0E94320C40
:10464000B6016E5F7F4F85E00E94160C86E60E94E1
:10465000C90E8AEB94E00E94E50481E00E94560BAB
:10466000609180057091810580918205909183050C
:104670004AE00E94B00A80E00E94560B83E00E944C
:10468000CF0987E60E94C90E86EB94E00E94E504FC
:1046900081E00E94430B8DEA94E00E94E50480E0F3
:1046A0000E94430B88E60E94C90E81EA94E00E94B2
:1046B000E5046091860541E0611140E089E60E94D1
:1046C000D80E87E994E00E94E50443E068E083E0C7
:1046D0008C0D0E94320C182F682F85E00E94160C5A
:1046E0008AE60E94C90E8CE894E00E94E5048BE6FD
:1046F0000E94C90E8FE794E00E94E5048CE60E94B8
:10470000C90E83E794E00E94E5048DE60E94C90E7D
:1047100089E694E00E94E50443E068E081E0810FCF
:104720000E94320C62E0610F85E00E94160C8EE65A
:104730000E94C90E89E594E00E94E50482E20E948D
:104740008A0B8AE495E00E94780C83E00E94CF09EE
:104750008EEA91E00E94F90F83E494E00E94E50460
:1047600082E20E948A0B8091880590E001960E9467
:10477000330E80E00E94960B0E94700C6091DC0268
:10478000615081E70E947609898B873609F4EFC46E
:104790000CF046C0823609F46FC1B4F48F3F34F098
:1047A00018160CF0EBC1813609F45DC1898981537B
:1047B0008A8B61E873E08CE592E00E94383781E2F1
:1047C00080936D02712CE5C42989243609F4A3C1B4
:1047D0000CF456C1253609F4ECC1263639F7609140
:1047E000800570918105809182059091830540E05C
:1047F0000E94341860938005709381058093820530
:104800009093830520EB34E040E050E00E940238B2
:10481000672B682B692B09F0D9C10E941422C9CEDD
:1048200039893C3609F472C20CF0AFC0393609F44C
:10483000D0C10CF4A5C43A3609F4BAC03B3609F02D
:10484000B5CF81EC91E00E94E70EA82E61E0680FE1
:104850008CE00E94160C61E080E00E947F0B80EBF0
:1048600092E00E94E50462E081E00E947F0B89EB08
:1048700092E00E94E5044CE463E082E08A0D0E942D
:10488000320C54E0952E9A0C63E06A0D83E00E948E
:10489000160C6EE4E62E63E0F62E02ED14E07AE1EB
:1048A000C72E75E0D72EB12C81E00E94560BF70180
:1048B0006591749184E995E00E94383769E00E941F
:1048C000100D80E00E94680BD8012D913D914D9113
:1048D0005D918D016B2D81E60E942C1BF8012489CE
:1048E0003589468957896B2D87E60E942C1BD80194
:1048F0009C962D913D914D915C919F976B2D8DE6EE
:104900000E942C1BF60121913191419151916F012F
:104910006B2D83E70E942C1BD60154962D913D915F
:104920004D915C9157976B2D81E40E942C1B692D52
:104930006B0D83E00E94160CB394B2E0EB0EF11CF9
:10494000E6E0BE12B1CF8AE08A0D0E9410100E94EC
:10495000700C63E088E70E94760918160CF029CEE7
:1049600081360CF45DC187360CF044C1F4E08F024F
:10497000C0011124825B9C4F0E946B18813009F0AA
:1049800068C18091880590E061C189898E3609F4FB
:10499000E4C30CF4ACC282370CF008CF89898F567F
:1049A0008093880590E00E9477120E941422E2C052
:1049B00081E280936D0261E873E08CE592E00E94F1
:1049C000383784EB91E00E94E70E21E0482F61E048
:1049D0008FEF0E94A11C0E94BB1D182F43E068E0CE
:1049E0000E94320C61E0610F85E00E94160C88E69F
:1049F0000E94C90E82EA92E00E94E50481E00E94D2
:104A0000560BE0917F05F0E0EE0FFF1FE656FD4FDD
:104A10006591749184E995E00E9438370E94780C82
:104A200080E00E94560B0E94700C6FEF88E60E9497
:104A30007609182F42E060E00E94432181110FC0E7
:104A4000183669F480917F058F5F843028F4809355
:104A50007F050E941422B5CF10927F05FACF111660
:104A60000CF4AFCFA6CD0E94A70B61E081E00E94BD
:104A7000160C0E9412169DCDF0E0E0E0099599CD4C
:104A800060917B0570917C0580917D0590917E05FC
:104A9000188A1D861A821982B12CA12CD12CC12C06
:104AA000F12CE12C8E010F5F1F4F9E01235F3F4FC2
:104AB000AE01405F5F4F0E946D0749815A8104E05B
:104AC0002EE26D8588890E947D1883E892E00E941D
:104AD000CC126EE871E084E995E00E943F3710E067
:104AE00000E0009709F497C70330110509F493C754
:104AF0000E94113797FD8FC70115110519F4809792
:104B00000CF089C76EE871E090E080E00E943F37CA
:104B10000F5F1F4FE6CF60E070E0CB01E1E7AE2E04
:104B2000E2E0BE2EF0E7CF2EF2E0DF2EAFE6EA2E77
:104B3000A2E0FA2E02E011E024E031E045E051E08D
:104B40000E946D074091020150910301E0907102B3
:104B50000091700220916F02609104018091050123
:104B60000E94F50760937B0570937C0580937D051B
:104B700090937E05B9891B160CF41BCD0E94651F0E
:104B8000E1960FB6F894DEBF0FBECDBFDF91CF9197
:104B90001F910F91FF90EF90DF90CF90BF90AF905B
:104BA0009F908F907F906F905F904F903F902F904D
:104BB00008956091850570E090E080E040E00E94FB
:104BC0003418609385056F3F09F027CE0E940812C4
:104BD000F0CC81E090918605911180E0809386056C
:104BE0000E94142280918605882309F4E2CC0E9459
:104BF0009922DFCC8D362CF424E08202C0011124EE
:104C0000B9CE83372CF434E08302C0011124B2CE34
:104C100089370CF016CEA4E08A02C0011124AACE76
:104C2000813454F087340CF00CCEB4E08B02C00118
:104C30001124825D9B4FA0CE81330CF410C78433C6
:104C40000CF0FFCD082E000C990BC1970E946A2230
:104C5000F8CD18160CF4F5CDACCCF701EA56FB4FA5
:104C60006081718140E081E68A0D0E940819A2C02E
:104C7000A12EEA2CF12CF701EE0FFF1FEE53FB4F94
:104C80006081718141E087E78A0D0E940819F70170
:104C9000EE0FFF1FE653FB4F6081718140E081E41E
:104CA0008A0D0E9408190E94790B6B2D610F83E019
:104CB0000E94160C1F5F183009F054C08CE0800F62
:104CC0000E9410100E94700C63E08AE70E9476092F
:104CD00018160CF06ECC81360CF48FC0873684F435
:104CE000880F990B8C529C4F0E942519813009F036
:104CF0009BC08091880590E094C0B2E0AB2EB9CF04
:104D00008F3674F3873764F38B3754F380ED91E07B
:104D10000E94E70E082F61E0680F8CE00E94160CDD
:104D200081E00E94680B8BEE92E00E94E50462E055
:104D300080E00E947F0B89EB92E00E94E5044CE446
:104D400063E082E0800F0E94320C34E0B32EB00E9C
:104D500063E0600F83E00E94160C42EAC42E44E038
:104D6000D42E10E0AA24A394123031F02EEFA22EFC
:104D7000A10E133008F4A12E81E00E94560BEA2CFC
:104D8000F12CEE0CFF1CF701E25BFC4F6591749176
:104D900084E995E00E94383769E00E94100D0E9476
:104DA000790BE1E0AE1259CF123008F456CF8BE008
:104DB0000E94CF090E94790BD6016D917D916D0102
:104DC00041E087E6810F0E940819F6016685778524
:104DD00041E08FE6810F0E940819123008F448CF95
:104DE000143009F48ACF83E0A82E173009F441CF9C
:104DF0006AE08BE00E947F0B56CF813444F085340B
:104E00000CF084CF880F990B885B9B4F6DCF81335B
:104E10000CF42BC684330CF079CF082E000C990BC0
:104E2000C1970E946A2272CF18160CF46FCFC1CBC3
:104E3000B2E0FB2EA6C0BA89B23028F460E08FE061
:104E40000E947F0BF0C061E0F20180819181892B8B
:104E500009F060E0872D0E94BA0EAB89BC896D9184
:104E60007C9190E080E00E94CF180E947F0CEE249D
:104E7000E394EB89FC8980819181892B09F0E12CF5
:104E8000CE2C00E020E048E261E08B2D0E94620E13
:104E900080E00E94680B113009F0C5C0F39471C026
:104EA0008136ECF089366CF4880F990B8F589E4F41
:104EB0000E942519813009F04DC18091890590E04B
:104EC00046C18D368CF38D340CF422C160E08D36F2
:104ED00021F08E3609F01FC161E08FEF06C08134EA
:104EE000C4F3893484F761E081540E94E71F80EEA7
:104EF00091E00E94E70E182F61E0680F85E00E94A4
:104F0000160CC12CEE24E39400E020E248E260E0BD
:104F10008FE60E94620E82E20E941B0B60E18BE42E
:104F200092E00E94100D80E00E941B0B8AE593E046
:104F30000E94E50453E0A52EA10E4AE365E082E05D
:104F4000810F0E94320C6EE4262E63E0362EFDEFB8
:104F5000FA8B912C812CF12C10E0812F153009F463
:104F600083E0282F30E009E6702E780E99E4B92E00
:104F7000B80E220F331FC9018D5B9D4F2C019C8BF6
:104F80008B8BA98AA394698988E00E94160C81E022
:104F90000E94560BF1016591749184E995E00E949D
:104FA000383761E10E94100D81E00E94680BF40126
:104FB000EF0DF11DEE0FFF1FED5CFD4FC080D180A6
:104FC0009F2D910F9F8BEE24E394C114D10409F01F
:104FD000E12C6E2D8F898F590E94BA0EB60190E098
:104FE00080E00E94CF180E947F0CCE2C00E020E0D1
:104FF00048E261E08F898F5B0E94620E81E00E942F
:10500000680B113009F017CF8FEF8F0D823008F049
:1050100012CF60E08FE00E947F0BA1E0FA1609F446
:1050200007CFE2E0FE2E1F5FFFEF8F1A9F0A2A894B
:105030002F5F2A8B32E0230E311C163009F08DCF02
:105040004AE365E08A2D0E94320C69896D5F85E034
:105050000E94160C80EF91E00E94F90F85E493E026
:105060000E94E50486EF91E00E94F90F87E393E048
:105070000E94E5048DE60E94C90E8DE293E00E9435
:10508000E5048EE60E94C90E81E293E00E94E504E9
:1050900043E068E089898C5F0E94320C69896B5F0C
:1050A00085E00E94160C8FE60E94C90E85E193E010
:1050B0000E94E5048CEF91E00E94F90F87E093E0F5
:1050C0000E94E50482E20E941B0B81E00E94560BC5
:1050D0008091890590E001960E94330E80E00E9445
:1050E0001B0B83E00E94CF0982E092E00E94F90F3F
:1050F00086EF92E00E94E5040E94700C68E08FE663
:105100000E94760918160CF4CBCE0E94980A51CA58
:1051100061E08354EACE81330CF4ABC485334CF4A4
:1051200081538093890590E00E945A120E941422B4
:10513000DECE893344F08F3609F0D9CE8BE492E08D
:105140000E94CC12BACE082E000C990BC5970E9473
:105150003B22CDCE1816CCF6CACE8AE495E00E944A
:10516000CC128091880590E00E946A2222CA809128
:1051700084050E94E00980938405809300014DCB53
:1051800080918A050E94E00980938A0546CB7724A6
:10519000739488E092E00E94E70E20E0482F672D8C
:1051A0008A890E94A11C8F5F0E94BB1D01E0080F2D
:1051B00043E068E00E94320C602F85E00E94160CEC
:1051C00088E60E94C90E81E394E00E94E504602F06
:1051D0008EE10E94160C11E01725472D612F89E6FC
:1051E0000E94D80E83E294E00E94E504602F83E3DE
:1051F0000E94160C412F672D8AE60E94D80E88E186
:1052000094E00E94E50480E00E94560B0E94700C1E
:1052100069E08AE60E947609082F472D6A890E9474
:105220004321182F8111F3C3093609F4CBCA0A367A
:1052300009F4ADCF083609F0E7C391E09CA3A1E0E3
:10524000ABA3B1E0BEA7E1E0EDA7F1E0FAA321E056
:105250002DA331E03CA71D8E1E8E1F8E18A21F8A23
:10526000188E198E1A8E812C912C5401212C312CE0
:105270002101A6E1BA89AB9FC0011124FC01E75FBF
:10528000FC4FFC8FEB8F05C08D8C9E8CAF8CB8A033
:1052900011E06BE074E087EC95E00E943837AB8D4D
:1052A000BC8D8C91823009F4B6C0C8F5882309F40E
:1052B0005CC0813009F483C087EC95E00E94E70E62
:1052C000D82E1111FCC0672D8A890E949B10AB8DCE
:1052D000BC8D8C918150823008F0F1C0E12EF12C10
:1052E0008091DC028150990BE816F9060CF0E7C0BA
:1052F000412F672D8A890E94680A882371F0B6E1E0
:10530000BE9DF001BF9DF00D1124E75FFC4F40E012
:105310006DE172E082810E94C30C1F5FDFCF83309A
:1053200009F4A2C0843041F660EF73E083ED95E0AC
:105330000E9438371111C0CF90912E049D8FA091FB
:105340002F04AE8FB0913004BF8FE0913104E8A3F9
:105350001CA21BA21EA61DA61AA21F8A188E198E99
:105360001A8E812C912C540126C065E074E083EDE7
:1053700095E00E94383711119FCFB0911E04BD8F68
:10538000E0911F04EE8FF0912004FF8F2091210403
:1053900028A31CA21BA21AA21DA280EA96E8A1E0E3
:1053A000B0E08F8B988FA98FBA8F78E0872E72E547
:1053B000972EA12CB12C212C312C21017DCF60E026
:1053C00074E083ED95E00E943837111175CF90910C
:1053D00022049D8FA0912304AE8FB0912404BF8F2F
:1053E000E0912504E8A31CA688E89FE8A5E1B0E0C9
:1053F0008F8B988FA98FBA8F58E8852E5FE8952EEE
:1054000055E1A52EB12C60E2262E68E4362E442408
:105410004394512C51CF6BEF73E083ED95E00E94E4
:105420003837111149CF909126049D8FA091270400
:10543000AE8FB0912804BF8FE0912904E8A380E1EA
:1054400097E2A0E0B0E08F8B988FA98FBA8F38E5F4
:10545000832E3BE1932EA12CB12C40EA242E4FE069
:10546000342E412C512C28CF65EF73E083ED95E06D
:105470000E943837111120CF90912A049D8FA0915E
:105480002B04AE8FB0912C04BF8FE0912D04E8A3C4
:105490001CA21BA21AA21DA28FEF9FEFDC018F8B13
:1054A000988FA98FBA8F98EE892E9EE6992E93E059
:1054B000A92EB12C22242A94322C2101FDCE21E0E8
:1054C0004D2D672D8A890E94A11C11E0180F682FAD
:1054D00085E00E94160CECA5E0FB60F8FDA1F0FB56
:1054E00061F82AA120FB62F83DA530FB63F88EA588
:1054F00080FB64F89BA190FB65F8ACA1A0FB66F86B
:10550000B62DB170DB2E60FE07C081E60E94C90E89
:105510008DED93E00E94E504E62DE270EE2E61FE33
:1055200007C082E60E94C90E8AEC93E00E94E5045F
:10553000F62DF470FF2E62FE07C083E60E94C90EAE
:105540008CEB93E00E94E50443E068E0812F0E9429
:10555000320C082F182F63FE12C0682F85E00E94BE
:10556000160C84E60E94C90E8DEA93E00E94E504C1
:1055700011E0100FB501A401802F0E94501B64FEA2
:1055800013C0612F85E00E94160C85E60E94C90EAB
:105590008EE993E00E94E5044D8D5E8D6F8D78A1BC
:1055A000812F1F5F0E94501B65FE11C0612F85E097
:1055B0000E94160C86E60E94C90E86E993E00E94BE
:1055C000E504B201A101812F1F5F0E94501B66FEFE
:1055D00012C0612F85E00E94160C87E60E94C90E5A
:1055E0008DE893E00E94E5044F89588D698D7A8D8E
:1055F000812F0E94501B0E94700C60E087E60E9481
:1056000076098FA71D861E861F8619821A821B8225
:105610001C821D821E821F82188619861A861B868E
:105620001C86E82FE156E73008F0E9C10E2E000C89
:10563000FF0BE35EF44D0C94BC38242BE62B3D2C81
:10564000B42C4429BC2CC42CDD2009F421CEA501A6
:105650009401672D8A890E94771B6B017C01C1141C
:10566000D104E104F10409F413CEAB8DBC8D8C910F
:10567000843009F495C1823009F09FC08D87C5013F
:10568000B4012CE432E040E050E00E949D38C701B4
:10569000B601685A7146810991090E94F23728E1E2
:1056A0003CEF4FEF5FEF0E949D38280D391D4A1DDA
:1056B0005B1D29833A834B835C83B1E0BB8B0981FB
:1056C0001A812B813C81ED84472D6A8984E491E025
:1056D0000E94321EB1E0B9A3E9A1FB89EF1708F0DF
:1056E0007FC10E2F10E09801220F331F220F331FAE
:1056F00039AB28AB81E090E08C0F9D1F820F931F88
:105700009BA78AA7DC01CD90DD90ED90FC90A701CE
:105710009601672D8A890E94771B6EA37FA388A7B5
:1057200099A7672B682B692B09F457C1EB8DFC8D6A
:105730008081823009F037C1C701B6012CE432E024
:1057400040E050E00E949D386EA17FA188A599A5F8
:10575000685A7146810991090E94F23728E13CEFAD
:105760004FEF5FEF0E949D38DA01C9018C0D9D1D3E
:10577000AE1DBF1DEAA5FBA580839183A283B383E1
:10578000ADE0B0E0AC0FBD1FA00FB11FE1E0F0E055
:10579000EC0FFD1F28A939A9E20FF31F0081118129
:1057A00022813381EC90472D6A8984E491E00E9444
:1057B000321E89A18F5F89A38FCF84E08D87898274
:1057C0009A82AB82BC82E1E0EB8B79CFEE2009F4C8
:1057D0005FCDAB8DBC8D8C9120E030E0A901813094
:1057E00011F0A5019401672D8A890E94771B6B0136
:1057F0007C01C114D104E104F10409F449CDEB8D1D
:10580000FC8D8081813051F1843099F112E01D8747
:10581000C501B4012CE432E040E050E00E949D3824
:10582000C701B601685A7146810991090E94F23791
:1058300028E13CEF4FEF5FEF0E949D38280D391DA6
:105840004A1D5B1D29833A834B835C831E872D820F
:105850003E824F82588632E03B8B31CF86E08D8787
:1058600084E08E878D829E82AF82B886F2E0FB8BC9
:1058700026CF8E8722E02B8B22CFFF2009F408CD84
:10588000AB8DBC8D8C9120E030E0A901813011F00E
:10589000A5019401672D8A890E94771B6B017C0109
:1058A000DC01CB01885A9146A109B1098B8B9C8BF5
:1058B000AD8BBE8BAB8DBC8D8C91813089F586E034
:1058C0008D8714E01E87C201B1012DE230E040E077
:1058D00050E00E949D386B897C898D899E890E9449
:1058E000F23728EE33E040E050E00E949D38220D70
:1058F000331D441D551D2D833E834F8358871F87BD
:105900008F89988DA98DBA8D89879A87AB87BC8737
:10591000CD28CE28CF2809F4BBCC93E09B8BCFCEEB
:1059200012E01D87C501B4012CE432E040E050E0F4
:105930000E949D386B897C898D899E890E94F237EF
:1059400028E13CEF4FEF5FEF0E949D38280D391D95
:105950004A1D5B1D29833A834B835C831E872D82FE
:105960003E824F825886CBCF41E0C501B4010E94F0
:1059700034184B015C018CCC41E0C201B1010E94A2
:1059800034181B012C0184CC41E06F89788D898DFE
:105990009A8D0E9434186F8B788F898F9A8F78CC6C
:1059A000A1E0AB8B8CCE813009F0EACEC701B60105
:1059B0002DE230E040E050E00E949D386EA17FA1D2
:1059C00088A599A5685A7146810991090E94F23704
:1059D00028EE33E040E050E0C5CE3B8939A3E9CE64
:1059E0001091DC020E9412168091DC02811710F4E3
:1059F0000E9412168091860581110E9499229FA50E
:105A000019160CF0C6CB44CCAFECA00FAA8B101625
:105A10000CF4BFCBAFC84091020150910301E12CBF
:105A200000E020E060910401809105010E94F507EB
:105A30006B017C0160917B0570917C0580917D05F7
:105A400090917E050E94CF1883E892E00E94CC12CC
:105A50000E943E106C0D7D1D8E1D9F1D5FC8813004
:105A600011F00C9421240C94C124813009F04EC90A
:105A700040C9813009F421CA3ACA1F920F920FB669
:105A80000F9211242F933F938F939F93AF93BF93C4
:105A900080918C0590918D05A0918E05B0918F0518
:105AA00030918B0523E0230F2D3758F50196A11D6A
:105AB000B11D20938B0580938C0590938D05A09349
:105AC0008E05B0938F058091900590919105A091DE
:105AD0009205B09193050196A11DB11D809390058B
