:100000000C949B020C94C3020C94C3020C94C30284
:100010000C94C3020C94C3020C94C3020C94C3024C
:100020000C94C3020C94C3020C94C3020C94C3023C
:100030000C94C3020C94C3020C94C3020C94C3022C
:100040000C94392E0C94C3020C94A92E0C94832E7C
:100050000C94C3020C94C3020C94C3020C94C3020C
:100060000C94DB2E0C94C3024C564C00442E4F2EA5
:10007000004F5250005254440025006D5600C2B546
:100080005300C2B04300580258028403840358024C
:1000900000000101010102014E616D652C004F2C31
:1000A000252C31004F2C6D672C30004B2C312E301D
:1000B000004F2C53472C30004F2C532C30004F2C2A
:1000C0005444532C30004F2C45432C3100532C63A7
:1000D000004C2C31000101010101006472790068BB
:1000E0006967682C006D69642C006C6F772C004385
:1000F000616C003A2000C2B043005D20403A005BD2
:1001000000496E742E204C6576656C202D203100E0
:10011000004552520056616C3A2000455252002070
:1001200056005374617475733A2000536C617665A0
:1001300020403A2000446F20284175746F2D2941DA
:100140006464726573732865732900283173742998
:1001500020284175746F2D29416464726573732082
:100160003D2000446F20284175746F2D294E616D2C
:100170006528732900284175746F2D294E616D65BE
:10018000203D200044656C657465204E616D6528D6
:10019000732900436C6561722043616C696272610E
:1001A00074696F6E28732900526573657400493253
:1001B000432C00750032022F0271006C0068003D74
:1001C00020002D50742E2000746F6F4869676800FE
:1001D00048696768004C6F7700746F6F4C6F7700E9
:1001E00020746F2053657474696E672D4E6F2E20D6
:1001F0005B312D335D00290020280020436F70798A
:100200002046554C4C2053455454494E472000310C
:100210002D33293A0042001B5B003A20007248004F
:100220004C6576656C004F32005265646F780070E3
:10023000480045430054656D702E00426F6F742076
:10024000466F72205465726D696E616C20557365DE
:1002500000426F6F74204173204D6F6442555320EC
:10026000536C617665004661696C53616665004454
:10027000656C617954696D65730020436F707954C2
:100280006F536574205B312D345D00352D38293A6C
:10029000002053656C656374536574203D20003104
:1002A0002D34293A00456469744E616D65005275BC
:1002B0006E416C6C43656E742E0052756E414C4CF1
:1002C000002052756E53696E676C6500412D4C2994
:1002D0003A00204564697400612D6C293A003502AA
:1002E00032022F0229022602200248494748004CC8
:1002F0004F57002D44756D6D794E616D652D00531E
:100300006574204869676800536574204C6F7700F6
:1003100053657420415647204173204D6964005352
:1003200065742053696E676C652F4D696400446F76
:1003300020332D50742E2043616C2E00446F2032E8
:100340002D50742E2043616C2E00446F20312D50AF
:10035000742E2043616C2E004F32202D004F5250DE
:10036000202D007048202D004543202D005254447C
:10037000202D002D2043616C69627261746520003C
:1003800053656C65637420414C4C0053656C656328
:10039000742053696E676C650043616C69627261B9
:1003A00074696F6E2873292E2E2E002053656C2ED3
:1003B00053657474696E67205B312D335D203D2079
:1003C000006F2D71293A0053657474696E672D4E64
:1003D000616D65203D20004D616E75616C2E2E2E85
:1003E0000054696D65732E2E2E0056616C75657311
:1003F0002E2E2E004D6F72652E2E2E0041734465F9
:100400006661756C74004B6579436F6C6F72004365
:100410006F6C6F720044696D005370656564203DB8
:100420002000416464722E203D200054696D6500F7
:1004300044617465005265426F6F74005265536386
:10044000616E0048003B001B5B001B5B324A006D85
:10045000001B5B001B5B316D001B5B32326D004487
:10046000001B5B0043001B5B001B5B346D001B5BD0
:10047000376D002040200020001B5B32346D003AB5
:10048000002900207C20001B37001B5B32376D00E9
:100490001B38003E3E200000000000240027002AF8
:1004A000003C007E003C007E003E003E000000005C
:1004B00000250028002B0000000000230026002952
:1004C00000040404040404040402020202020203FD
:1004D0000303030303010204081020408001020407
:1004E000081020010204081020000000080002018A
:1004F0000000030407000000000000000082007EEE
:10050000002F027B00790079002020202053656CA9
:10051000656374206B65792C206F7220456E74655D
:100520007228666F722072657475726E292E2E2E77
:10053000000A0000FA2F11241FBECFEFD8E0DEBF63
:10054000CDBF26E0A2E2B2E001C01D92A43EB207F8
:10055000E1F712E0A0E0B1E0E6E5F4E702C00590C3
:100560000D92A232B107D9F712E0CBE9D2E004C074
:100570002197FE010E94E239CA39D107C9F70E94CA
:1005800033300C94293A0C9400008091A10590918D
:10059000A205891B990B0895833081F028F48130DE
:1005A00099F08230A9F008958730A9F08830C9F019
:1005B0008430B1F4809180008F7D03C080918000F1
:1005C0008F7780938000089584B58F7784BD0895D8
:1005D00084B58F7DFBCF8091B0008F778093B00082
:1005E00008958091B0008F7DF9CFCF93DF93282FAE
:1005F00030E0F901E751FB4F8491F901EB52FB4FD9
:10060000D491F901EF53FB4FC491CC23A1F0811198
:100610000E94CC02EC2FF0E0EE0FFF1FE954FB4FDD
:10062000A591B491EC91ED2381E090E009F480E094
:10063000DF91CF91089580E090E0FACF1F93CF93A0
:10064000DF93282F30E0F901E751FB4F8491F90146
:10065000EB52FB4FD491F901EF53FB4FC491CC23E4
:10066000A9F0162F81110E94CC02EC2FF0E0EE0FC2
:10067000FF1FE355FB4FA591B4918FB7F894EC9110
:10068000111108C0D095DE23DC938FBFDF91CF918D
:100690001F910895DE2BF8CF3FB7F89480918C0519
:1006A00090918D05A0918E05B0918F0526B5A89BE0
:1006B00005C02F3F19F00196A11DB11D3FBFBA2FF4
:1006C000A92F982F8827BC01CD01620F711D811DB4
:1006D000911D42E0660F771F881F991F4A95D1F739
:1006E00008958F929F92AF92BF92CF92DF92EF9236
:1006F000FF926B017C010E944C034B015C01C11411
:10070000D104E104F104B9F00E944C03681979099D
:100710008A099B09683E73408105910580F321E0B9
:10072000C21AD108E108F10888EE880E83E0981E0D
:10073000A11CB11CE4CFFF90EF90DF90CF90BF9051
:10074000AF909F908F90089508950895AF92BF92B3
:10075000CF92DF92EF92FF920F931F93CF93DF938D
:100760006C017B018B01040F151FEB015E01AE18BC
:10077000BF08C017D10759F06991D601ED91FC91DE
:100780000190F081E02DC6010995892B79F7C5010B
:10079000DF91CF911F910F91FF90EF90DF90CF905D
:1007A000BF90AF900895FC01538D448D252F30E00C
:1007B000842F90E0821B930B541710F0CF9608956E
:1007C00001970895FC01918D828D981761F0A28D9B
:1007D000AE0FBF2FB11D5D968C91928D9F5F9F7361
:1007E000928F90E008958FEF9FEF0895FC01918D17
:1007F000828D981731F0828DE80FF11D858D90E084
:1008000008958FEF9FEF0895FC01918D228D892F20
:1008100090E0805C9F4F821B91098F739927089508
:1008200087E396E00E94040421E0892B09F420E08C
:10083000822F089580E090E0892B29F00E94100417
:1008400081110C9400000895FC01A48DA80FB92F0C
:10085000B11DA35ABF4F2C91848D90E001968F73E8
:100860009927848FA689B7892C93A089B1898C9107
:10087000837080648C93938D848D981306C0028856
:10088000F389E02D80818F7D80830895EF92FF9220
:100890000F931F93CF93DF93EC0181E0888F9B8DA3
:1008A0008C8D98131AC0E889F989808185FF15C05D
:1008B0009FB7F894EE89FF896083E889F989808180
:1008C0008370806480839FBF81E090E0DF91CF914F
:1008D0001F910F91FF90EF900895F62E0B8D10E071
:1008E0000F5F1F4F0F731127E02E8C8D8E110CC0E0
:1008F0000FB607FCFACFE889F989808185FFF5CF2B
:10090000CE010E942404F1CFEB8DEC0FFD2FF11DE1
:10091000E35AFF4FF0829FB7F8940B8FEA89FB8967
:1009200080818062CFCF0F931F93CF93DF938C0191
:10093000D0E0C0E0F801EC0FFD1F6491662341F0A8
:1009400087E396E00E944604892B11F02196F2CFAE
:10095000CE01DF91CF911F910F910895682F87E30A
:1009600096E00C944604CF93DF93EC01888D8823A6
:10097000B9F0AA89BB89E889F9898C9185FD03C002
:10098000808186FD0DC00FB607FCF7CF8C9185FFE7
:10099000F2CF808185FFEDCFCE010E942404E9CF04
:1009A000DF91CF9108952091A402260F3327331FA2
:1009B00021323105ECF420910D06FC0190E080E03D
:1009C000243069F082E00895A091A4022191AC0145
:1009D0004C575D4FA40FB52FB11D2C930196861770
:1009E00098F38091A402680F6093A40280E00895B8
:1009F00081E0089510920D0681E080930C0610921C
:100A0000E70561E082E10E941E0361E083E10E944C
:100A10001E03E9EBF0E080818E7F808380818D7FF3
:100A2000808388E48093B80085E48093BC000895B7
:100A3000CF93DF9391E0909383028823B9F0C09124
:100A4000B800D091BA008091BC008A7B8093BC0032
:100A500060E082E10E941E0360E083E10E941E03C9
:100A60000E94FA04D093BA00C093B800DF91CF91EE
:100A700008958F929F92AF92BF92CF92DF92EF92A2
:100A8000FF920F931F93CF93DF93D0913606D1320D
:100A900008F0D7C0182FC09135060E944C036B0197
:100AA0007C0180910D0681116BC082E080930D0660
:100AB00010930C068FEF80930B0610920A06D093CA
:100AC0000906A5E1B6E0E9EEF5E080E0D81391C0B3
:100AD0001092E8058091E805CC0FC82BC093E8057B
:100AE0008091E705813009F088C01092E7050E94E7
:100AF0004C036B017C018091E8058093BB008091E1
:100B00000F0690911006A0911106B0911206892B44
:100B10008A2B8B2BA1F00E944C0300910F061091A1
:100B2000100620911106309112066C197D098E096C
:100B30009F09061717072807390708F442C0809154
:100B4000BC0083FDD8CF85EC8093BC000E944C0391
:100B50006B017C0180910D06823009F450C08091B8
:100B60000B068F3F09F46FC080910B06803209F4A9
:100B70006CC080910B06803309F469C084E026C004
:100B800080910F0690911006A0911106B091120667
:100B9000892B8A2B8B2B09F484CF0E944C038090E5
:100BA0000F0690901006A0901106B09012066C19D6
:100BB0007D098E099F0986169706A806B90608F0D2
:100BC00070CF80910E060E94180585E010921406E1
:100BD0001092360610921306DF91CF911F910F915C
:100BE000FF90EF90DF90CF90BF90AF909F908F904D
:100BF00008959D9191938F5F69CF85EEA5CF8091E8
:100C00000F0690911006A0911106B0911206892B43
:100C10008A2B8B2B09F49ECF0E944C0300910F0668
:100C20001091100620911106309112066C197D0961
:100C30008E099F09061717072807390708F08ACF7A
:100C4000C0CF81E0C3CF80E0C1CF82E0BFCF83E0DF
:100C5000BDCF0895E091A2058091A105E81730F479
:100C6000F0E0ED55FA4F808190E008958FEF9FEF0F
:100C700008959091A2058091A1052FEF3FEF98175D
:100C800048F4E92FF0E0ED55FA4F208130E09F5F06
:100C90009093A205C9010895CF92DF92EF92FF923F
:100CA0000F931F93CF93DF937C01CB018A01209197
:100CB0001306222389F0EB016B01C40ED51ECC155F
:100CC000DD0569F06991D701ED91FC910190F0810A
:100CD000E02DC7010995F3CF642F0E94D304C8010A
:100CE000DF91CF911F910F91FF90EF90DF90CF9008
:100CF0000895CF93DF931F92CDB7DEB7698320911C
:100D000013062223F9F020913606203258F021E014
:100D100030E0FC013383228390E080E00F90DF918C
:100D2000CF91089580911406E82FF0E0EB5EF94F23
:100D3000998190838F5F809314068093360681E0BB
:100D400090E0ECCF61E0CE0101960E94D304F7CF92
:100D500090E080E008959C0164E670E00E949B3979
:100D6000FC01C90183709927892B11F4309779F41C
:100D7000C90160E971E00E949B399C01EF2B11F4DD
:100D8000892B19F481E0232B09F080E0089581E09C
:100D90000895863029F034F4823051F0843031F4F3
:100DA0008EE108958930E1F38B30D1F38FE108951E
:100DB000CB010E94AB06882311F08DE108958CE1F0
:100DC00008952F923F924F925F926F927F928F92EF
:100DD0009F92AF92BF92CF92DF92EF92FF920F93CA
:100DE0001F93CF93DF932B013C011A014901E801C6
:100DF00087EE97E09983888340E853E361EE71E0E2
:100E00004415550566057705B0F4888199810196EA
:100E100099838883441A550A660A770A0E94AB06AA
:100E200040E450E761E370E08111EACF40EC5EE11D
:100E300060E370E0E5CF81E0F401808360E87EED5F
:100E400088E290E06415750586059705B0F4F40115
:100E500020812F5F2083461A570A680A790A688121
:100E60007981822F0E94C906A82FB0E020E831E5E1
:100E700041E050E00E944A39E5CFC301B20120E8C9
:100E800031E541E050E00E9428392F5FF1012083D5
:100E900020E13EE040E050E00E942839F701208345
:100EA0002CE330E040E050E00E942839F601208336
:100EB000F5016083DF91CF911F910F91FF90EF902B
:100EC000DF90CF90BF90AF909F908F907F906F906A
:100ED0005F904F903F902F9008954F925F926F9246
:100EE0007F928F929F92AF92BF92CF92DF92EF92BA
:100EF000FF920F93CF93DF93C82FC62E3A01D22FC4
:100F000097EE492E97E0592E812C912C54014614CE
:100F10005704C0F4C2010E94AB0681110CC020E846
:100F2000821A2CEC920A2EE1A20A2EEFB20A4FEF9F
:100F3000441A540AECCF3BE7931A3DE1A30A3EEF73
:100F4000B30AF5CF44244394512CD12C4C145D04A6
:100F5000A4F4B301842D0E94C906A82FB0E020E8B4
:100F600031E541E050E00E944A39860E971EA81EE6
:100F7000B91E5FEF451A550AE9CF202F30E0ACE3E8
:100F8000B0E00E948C399B01AC012E0D311D411D3A
:100F9000511D69017A012D2F30E0A0E1BEE00E94D1
:100FA0008C39C60ED71EE81EF91E4C2F4150550B2A
:100FB000DA0120E831E541E050E00E94E8396C0DAB
:100FC0007D1D8E1D9F1D680D791D8A1D9B1DDF9146
:100FD000CF910F91FF90EF90DF90CF90BF90AF90A7
:100FE0009F908F907F906F905F904F9008950F9398
:100FF0001F938FB7F89440918805509189056091AF
:101000008A0570918B058FBF00916E0210916F025F
:101010002091700230917102DB01CA014017510723
:101020006207730718F40197A109B109801B910B9E
:10103000A20BB30B00916A0210916B0220916C021B
:1010400030916D02800F911FA21FB31F883E23E0D5
:101050009207A105B10508F4C7C040936E025093F2
:101060006F026093700270937102885E9340A109D1
:10107000B10980936A0290936B02A0936C02B093C3
:101080006D028091660290916702A0916802B09112
:1010900069020196A11DB11D8093660290936702BB
:1010A000A0936802B0936902809165028F5F80937C
:1010B00065028C3339F480916402109265028F5F6F
:1010C00080936402809164028C3339F480916302CE
:1010D000109264028F5F8093630280916302883173
:1010E00059F410926302809161029091620201961C
:1010F0009093620280936102809160028F5F80937F
:1011000060024091060450910704609108047091B8
:1011100009044F5F5F4F6F4F7F4F4093060450931A
:10112000070460930804709309048C3339F48091A8
:101130005F02109260028F5F80935F0280915F0276
:101140008C3339F480915E0210925F028F5F80933E
:101150005E0280915E02883121F081E01F910F9143
:10116000089510925E02909105019F5F9093050192
:1011700080910401823009F59D3170F08091020167
:10118000909103010E94AB06811106C081E080931B
:10119000050183E080930401809104018D30E9F61C
:1011A00081E08093040180910201909103010196F6
:1011B0009093030180930201D0CF863019F020F480
:1011C000843031F42FE105C08930E1F38B30D1F365
:1011D00020E2022E000C330B92171306E9F691E081
:1011E000909305018F5FD6CF80E0B8CFCF92DF928A
:1011F000EF92FF920F931F93CF93DF93CFEFDCE338
:10120000E62EF12C082F10E068018FE1C81AD108F2
:10121000DD23A1F10E94F7078111D15087E396E009
:101220000E940404892BA1F387E396E00E94E20365
:10123000C82F803304F1082E000C990B9C01205319
:101240003109E216F306D4F4C1369CF008171907E9
:10125000ACF48C159D0594F0CB3179F0CB3271F064
:10126000CD3261F0DCE38C2F8D7F8C3339F0CFEF02
:10127000D1CFC13474F7CD3079F7C0E08C2FDF9136
:10128000CF911F910F91FF90EF90DF90CF90089535
:10129000CF93C82FC15020F080E20E94AE04FACF55
:1012A000CF91089581E00C9448098EE694E00C9467
:1012B0009304813671F02AE5853261F0882349F084
:1012C00021E0280F93EE980F983020F08955883050
:1012D00008F02EE1822F08954F925F926F927F92D5
:1012E0008F929F92AF92BF92CF92EF92FF920F9305
:1012F0001F932B013C018E2DD5011C92812C912C2A
:101300005401411451046104710461F08090060499
:1013100090900704A0900804B090090484189508E0
:10132000A608B708E02FF0E0EE0FFF1FEE55FB4FC9
:10133000608171817B0110E000E0E814F9040A0586
:101340001B0558F48E189F08A00AB10A2815390504
:101350004A055B05C8F091E09C93CC2039F18430BC
:10136000F1F0B0F48230C8F0C301B2011F910F91C7
:10137000FF90EF90CF90BF90AF909F908F907F9015
:101380006F905F904F900895412C512C3201E5CF22
:10139000863051F368F0873039F0865F01C08CE009
:1013A0006C910E941E03E0CF8DE0FACF8E5FF8CFE4
:1013B00087E0F6CF4817C1F0613091F4E6E1E49F91
:1013C000D0011124AE5EBC4FE89FF0011124EE5E07
:1013D000FC4F81E02C919081291729F080E008953D
:1013E00081E06230D9F7089581E0FDCF0E94520973
:1013F0008AE30E94AE040C94520996E1899FF001A1
:101400001124EE5EFC4FE081F0E0EE0FFF1FEA5783
:10141000FF4F65917491072E000C880B990B0C946B
:101420007103CF93C2E060E08C2F0E941E03CF5F58
:10143000CE30C9F7CF910895FC0101900020E9F763
:101440003197AF01481B590BBC0187E396E00C9420
:10145000A6038F929F92AF92BF920F931F93CF9349
:10146000DF93CDB7DEB7A1970FB6F894DEBF0FBEFE
:10147000CDBF19A2423008F44AE08E010F5D1F4F24
:10148000842E912CB12CA12CA50194010E94283905
:10149000E62FB901CA01EA30F4F4E05DD801EE9319
:1014A0008D01232B242B252B79F790E080E01097DA
:1014B00019F0CD010E941C0AA1960FB6F894DEBF68
:1014C0000FBECDBFDF91CF911F910F91BF90AF9015
:1014D0009F908F900895E95CE1CF009711F00C94F4
:1014E0001C0A90E080E0089582E792E00C946D0A77
:1014F000CF93DF930E949304EC0186E391E00E9476
:101500001C0A8C0F9D1FDF91CF91089581E395E018
:101510000E94780A89E095E00C949304CF92DF92C0
:10152000FF920F931F93CF93DF93EB01099000205D
:10153000E9F72197C61BD70BCC2369F18B0191E00A
:101540009093130680933506109214061092360677
:10155000F12CEC2FE40FFF27FF1F6F018F2D90E080
:101560008C159D0554F4800F911FFC01608184ED62
:1015700096E00E947906F394F1CF81E00E9439054C
:1015800081110BC08C2FDF91CF911F910F91FF9094
:10159000DF90CF90089580E0F6CF8FEFF4CF96E103
:1015A000899FF0011124EE5EFC4F40E069E371E099
:1015B00082810C948E0A0F931F93CF938C01FC01B0
:1015C00001900020E9F73197E81BF90B6E1B862F7D
:1015D0008695C62FC81B0E944809C8010E946D0A43
:1015E0008C2FCF911F910F910C944809682F70E0B8
:1015F00090E080E04AE00C94290ACF93C82F86E659
:1016000094E00E9493048C2F0E94F60A84E694E0F2
:10161000CF910C949304CF93C82F81E694E00E945D
:1016200093048C2F0E94F60A8FE594E0CF910C94DE
:101630009304CF93C82F811101C0C7E280915D024E
:1016400081110CC082EE8C0F883030F086EA8C0F4E
:10165000883010F0C73211F4C093010181E594E0A5
:101660000E9493048C2F0E94F60A8FE494E00E945B
:101670009304C73211F0CF910895C1E3DFCFCF9328
:10168000C82F10925D0280E00E94520B80910101F0
:10169000CC2329F081E080935D0280910001CF91FD
:1016A0000C94190BCF93C82F80915D02882319F0F9
:1016B00080E00E943F0B84E594E0C11102C089E5FF
:1016C00094E0CF910C949304CF93C82F80E00E94B4
:1016D000520B83E894E00E949304CC2321F081E034
:1016E000CF910C94520BCF9108951F93CF93DF931A
:1016F000EC01162F81E00E94640B612FCE01DF9177
:10170000CF911F910C94DB0A80E00E94640B81E072
:101710000C940B0BCF93C62F0E94480981E00E94C6
:10172000640B8C2FCF910C94480989ED91E00E94B5
:10173000930463E082E00E948A0B85ED91E00E94B1
:10174000930463E084E00E948A0B80ED91E00E94A4
:10175000930461E083E00E948A0B88EC91E00E9490
:10176000930460E082E00C948A0BCF93C82F80E052
:101770000E943F0B8C2F0E94190B81E0CF910C949B
:10178000520B81110C94B50B80E00E94520B80E04B
:101790000C94190B80E00E94190B8AE494E00C94DD
:1017A00093048F929F92AF92BF92CF92DF92EF926B
:1017B000FF920F931F9390E0FC01EE0FFF1FEE0FBF
:1017C000FF1FE25CFA4F0081118122813381FC010D
:1017D000EE0FFF1FEE0FFF1FEA5DFA4FC080D180B2
:1017E000E280F380FC01EE0FFF1FEE0FFF1FE25FB0
:1017F000FA4F80809180A280B380FC01EE0FFF1F22
:10180000EE0FFF1FE65DFB4F4081518162817381C6
:10181000880F991F880F991FFC01EA50FB4F8081A8
:101820009181A281B381481759076A077B07A4F009
:1018300082E2481559056A057B057CF08FE10417A3
:101840001507260737074CF080E2C416D506E606D2
:10185000F7061CF481E201C084E21F910F91FF9012
:10186000EF90DF90CF90BF90AF909F908F900C94AF
:10187000190BCF93DF93C82FD62F87E494E00E94F3
:1018800093048D2F0E94F60A85E494E00E9493044D
:101890008C2F0E94F60A83E494E0DF91CF910C94A0
:1018A00093041F93CF93DF93C82F862FD42FCC237D
:1018B00031F011E01C0F6C2F0E94390CC12FD15058
:1018C00020F08DE20E94AE04FACF8C2FDF91CF91F1
:1018D0001F910895CF93C82F82EC91E00E9493044A
:1018E0006C2F8DE10E94390C8FEB91E0CF910C941D
:1018F0009304CF92DF92EF92FF920F931F93CF93B7
:10190000DF93C82F1092C3050E944C036B017C012A
:1019100080910D06811166C081E080930D06809351
:101920000C069FEF90930B0610920A069FE190938E
:1019300009068093E8058091E805CC0FC82BC09379
:10194000E8058091E705813009F0A3C01092E70512
:101950000E944C036B017C018091E8058093BB00E1
:1019600080910F0690911006A0911106B091120679
:10197000892B8A2B8B2BA1F00E944C0300910F0620
:101980001091100620911106309112066C197D09F4
:101990008E099F09061717072807390708F443C05F
:1019A0008091BC0083FDD8CF85EC8093BC000E9461
:1019B0004C036B017C0180910D06813009F46BC0F2
:1019C00080910A06D0E2803210F4D0910A06A9EE86
:1019D000B5E0E3EAF5E080E08D1751F19D91919338
:1019E0008F5FFACF80910F0690911006A09111069B
:1019F000B0911206892B8A2B8B2B09F489CF0E9478
:101A00004C0300910F0610911006209111063091A1
:101A100012066C197D098E099F09061717072807FA
:101A2000390708F075CF80910E060E941805D0E0A6
:101A30001092A205D093A10511E0C0E08091A2050B
:101A4000D817B1F0C132A4F484ED96E00E943906B3
:101A5000112309F445C0813009F43FC0C0E08F3F35
:101A600039F0CFEF8E3F21F0CEEF823009F0CCEF8E
:101A700081E00E943905882311F0C7FFCDEF8C2F3C
:101A8000DF91CF911F910F91FF90EF90DF90CF905A
:101A9000089585EE8ACF80910F0690911006A0914F
:101AA0001106B0911206892B8A2B8B2B09F483CF58
:101AB0000E944C0300910F06109110062091110610
:101AC000309112066C197D098E099F0906171707B8
:101AD0002807390708F06FCFA6CFC0E010E0AECFDF
:101AE000EC2F0C2E000CFF0BED53FA4F8083882354
:101AF00009F4BECFCF5FEC2FF0E0ED53FA4F108228
:101B0000EDCFCF92DF92EF92FF92CF93DF936C01F4
:101B1000092E000CEE08FF0897FF17C08DE20E9407
:101B2000AE04EC0166277727CB016C197D098E097D
:101B30009F094AE00E94290A8C0F9D1FDF91CF91D7
:101B4000FF90EF90DF90CF9008954AE0C701B60173
:101B5000DF91CF91FF90EF90DF90CF900C94290A06
:101B6000CF93DF93EC010E94CA0B80E00E94190B17
:101B70000E94550961E081E00E94390C81E00E94D9
:101B8000520B60E5CE010E94DB0A80E00E94520BFE
:101B90008AE894E00E94930482E0DF91CF91089557
:101BA000CF93C82F80E00E943F0BCC2349F0809157
:101BB000D6020E94C10B89E694E0CF910C94930465
:101BC00089E794E00E94930480E0CF910C94C10BCC
:101BD000CF92EF920F931F93CF93DF93182FD42FB1
:101BE000C22F61110E945209EE2011F0C11003C0F2
:101BF00081E00E94D00DDD2319F08D2F0E94AE04EC
:101C0000812F0E94AE0481E894E00E949304002397
:101C100021F08FE794E00E94930480E00E94520B31
:101C200089E794E00E94930401110E945209CC2399
:101C300019F08C2F0E94AE0480E00E94190BEE2058
:101C4000A1F0C11014C081E0DF91CF911F910F91DD
:101C5000EF90CF900C94520B81E0DF91CF911F91C8
:101C60000F91EF90CF900C943F0BC110F5CFDF9107
:101C7000CF911F910F91EF90CF900895CF92EF9257
:101C80000F93C62EE12C00E020E240E060E00E94CD
:101C9000E80D0F91EF90CF900895CF92EF920F93B0
:101CA000C12CE12C01E020E040E060E00E94E80D62
:101CB0000F91EF90CF900895CF92EF920F93C42E93
:101CC000E62E01E020E040E060E00E94E80D0F9188
:101CD000EF90CF900895CF92EF920F93C12CE12C0B
:101CE00000E020E240E060E00E94E80D0F91EF90FC
:101CF000CF900895CF93C82F682F85E00E94390CAC
:101D000081E00E94D00D8FE092E00E94930480E079
:101D10000E94D00D8BEF91E00E94930482E20E941A
:101D2000190B86E595E00E946D0A88EF91E00E940C
:101D300093048091D40290E001960E94810D86EF79
:101D400091E00E94930480E00E94190B80EE91E0E4
:101D50000E94930481E08C0FCF910895CF93DF937D
:101D6000C82FD62F80E00E944809DD23C9F081E00A
:101D70000E943F0BEC2FF0E0EE0FFF1FE350FB4FF4
:101D80006591749180E995E00E945E380E946D0A29
:101D900083E00E94480980E0DF91CF910C943F0BD3
:101DA00080E00E94190BE6CF6F927F928F929F92F4
:101DB000AF92BF92CF92DF92EF92FF920F931F9359
:101DC000CF93DF93CDB7DEB7E6970FB6F894DEBFBB
:101DD0000FBECDBF782E662E82E1E82E83E0F82E6E
:101DE000D12CC12C809111038150990BC816D906B2
:101DF0000CF077C04C2D662D872D0E94DA098823C0
:101E000009F468C061ED70E0CE0101960E945E3871
:101E1000F7018081813051F128F0843009F446C007
:101E200001E007C06DEC70E0CE010A960E945E38BA
:101E300002E0CE0101965C01912C812C10E080160D
:101E400091060CF041C040E0B501F70182810E948B
:101E50008E0A6CE271E080E090E00E947103FFEF77
:101E60008F1A9F0A89E0A80EB11CE9CF66EC70E0DA
:101E7000CE010A960E945E386EEB70E0CE0143966A
:101E80000E945E3868EB70E0CE014C960E945E388E
:101E900061EB70E0CE0185960E945E386BEA70E0DF
:101EA000CE018E960E945E3806E0C3CF64EA70E0F1
:101EB000CE010A960E945E386EE970E0CE0143962C
:101EC0000E945E3803E0B5CF6CE271E080E090E004
:101ED0000E9471039FEFC91AD90AE6E1EE0EF11CC8
:101EE00081CFE6960FB6F894DEBF0FBECDBFDF916F
:101EF000CF911F910F91FF90EF90DF90CF90BF9007
:101F0000AF909F908F907F906F9008955F926F92A7
:101F10007F928F929F92AF92BF92CF92DF92EF9279
:101F2000FF920F931F93CF93DF93CDB7DEB72B971D
:101F30000FB6F894DEBF0FBECDBF5C01662E542EE7
:101F4000722ECE0101966C018BE0D6011D928A950E
:101F5000E9F702E113E0F12CE12C809111038150AB
:101F6000990BE816F9060CF073C04E2D652D862DE1
:101F70000E94DA09882309F450C068E970E083EC14
:101F800095E00E945E387720C1F0D801EC91F0E036
:101F9000D601AE0FBF1F8C918F5F8C93EE0FFF1F8A
:101FA000ED54FE4F6591749180E995E00E945E3892
:101FB000BC0188EC95E00E94193A83EC882E85E0FC
:101FC000982EF40101900020E9F7CF01B5010197A7
:101FD0000E94193A772091F0F40101900020E9F76E
:101FE000E45CF540FF27ED53FA4FD8018C91D60100
:101FF000A80FB11D8C91805D8083118241E063EC5C
:1020000075E0F80182810E948E0A181634F468EC9B
:1020100075E0C80105960E94193AD80112968C9174
:1020200091E0909313068093350610921406109257
:10203000360660E084ED96E00E947906F801828120
:102040000E943905FFEFEF1AFF0A0A5E1F4F85CF86
:102050002B960FB6F894DEBF0FBECDBFDF91CF91A8
:102060001F910F91FF90EF90DF90CF90BF90AF90B6
:102070009F908F907F906F905F9008950F931F9324
:10208000CF93DF930BEC12E0C5EED3E0CE010E94BC
:102090000239F80181938F012196C13FF3E0DF07F8
:1020A000A9F76091CC027091CD028091CE029091FF
:1020B000CF0220EB34E040E050E00E942839672B4B
:1020C000682B692B61F080E895E2A0E0B0E0809396
:1020D000CC029093CD02A093CE02B093CF02809118
:1020E000D402833020F01092D4021092D202809158
:1020F000D502843020F01092D5021092D202809145
:10210000D3028B3020F01092D3021092D202809131
:10211000D00280930001DF91CF911F910F9108951C
:102120000F931F93CF93DF9329E2289F8001299F6C
:10213000100D1124C2E2D2E0015E1E4FC8018C0FC7
:102140009D1F0E940239899382E0CB34D807B1F7F2
:10215000DF91CF911F910F9108950F931F93CF930C
:10216000DF9325EC289F8001299F100D1124C2EADE
:10217000D4E0005B1340C8018C0F9D1F0E94023900
:10218000899385E0C736D807B1F7DF91CF911F91CA
:102190000F91089585ED8093BC0080910F0690917A
:1021A0001006A0911106B09112060796A11DB11D4F
:1021B00023E0B695A795979587952A95D1F7209115
:1021C000BC0024FD03C010920D06089540910F0637
:1021D000509110066091110670911206452B462B06
:1021E000472B69F30097A105B10541F025E32A9536
:1021F000F1F700000197A109B109E1CF80910E0626
:102200000C9418052F923F924F925F926F927F929B
:102210008F929F92AF92BF92CF92DF92EF92FF92F6
:102220000F931F93CF93DF936C01EC010990002073
:10223000E9F72197C81BD90B6C2E81E00E94520B45
:1022400083E994E00E94930480E00E94520B84E2B0
:102250000E94190B87E894E00E949304CC2349F074
:102260000E945509C6010E946D0A8AE894E00E9406
:102270009304B60180E995E00E94193AFE01FF2718
:10228000E057FA4F10825C2E1C2FE12CF12C212CF0
:10229000912CC0E0D0E090E1892E0CE3DD3009F410
:1022A000B1C10E94F7078823C9F00150B9F480E05A
:1022B0000E94190B80E0DF91CF911F910F91FF9049
:1022C000EF90DF90CF90BF90AF909F908F907F90D6
:1022D0006F905F904F903F902F90089587E396E026
:1022E0000E940404892BD1F287E396E00E94E20366
:1022F000D82F412E4518662009F493C19924939450
:102300005C12912CFC2EF60C312E3F18EE24E39437
:10231000E30CDD3009F443C1A4F4D830B1F0DA3075
:1023200009F43DC12C2E80EE8D0F8F3508F0B5CF0E
:10233000103108F41AC1662009F4AFCFAA24A3947F
:10234000DFC0DB3129F0DF3769F72C2EA12CD8C094
:102350002C2E6CE070E080E090E00E94710300E0C1
:10236000A12C712CDBE187E396E00E940404892B09
:1023700009F44BC0739487E396E00E94E203D82FE0
:102380006CE070E080E090E00E94710323E0721640
:1023900051F1271558F031E07316A9F082E0781654
:1023A000A9F0AA24A394DFCF342CD3CF94E07916DC
:1023B00041F1E5E07E12F5CF8FEB8D0F843088F789
:1023C0000FE70D0FD0CFDB3561F7CDCFD53334F428
:1023D000D33314F4D13329F70D2FC5CF8FEB8D0FE5
:1023E0008430F8F6F9CFDB3309F4BDCFDE37C9F618
:1023F000013309F4B8CFA8F28DEC800F823088F653
:10240000B2CFD23309F4AFCFCCCF772009F44FCF7E
:10241000A11043CF033409F456C0E0F4043389F02B
:1024200058F4013309F449C0033309F45EC066204F
:1024300009F433CF412C0AC0013409F43EC0023400
:10244000B1F7742C662009F44EC04318742C750C37
:10245000612C7AC0013C69F168F4043409F43BC092
:10246000003C29F7752C7194552009F416CF6110A2
:102470005DC012C0023C49F0033CC9F641E0511076
:1024800001C040E0742E719405C07724739441100C
:1024900001C0712C611047C0772009F4DFC0672CA0
:1024A000752C760CC52D16140CF44EC06194C72DF6
:1024B0004BC0742C4110DBCFF0CE662009F4CCC0A9
:1024C0004C2E4518C3CF6110C0CF772473944110B0
:1024D0000AC0712C08C06110F3CF41E0511001C057
:1024E00040E0742E7194612C7FC0611009C05116B8
:1024F00080F7FF24F394F50CE42C252C66246394D8
:102500004E2D50E06F2D70E060577A4F822D90E095
:1025100080579A4F0E94F5391619722CAA2009F497
:1025200097CF522C24C0772009F4B7CE8C2F860D7C
:102530009920A1F0C70D7C2EC81718F4982F8C2F66
:10254000C92F6C2E681AC82F80E994E00E9493046A
:10255000662009F485C0C11188C097C0780E872D08
:10256000C71578F78C2FC72DECCF6110E7CE852DDE
:1025700090E09C0120573A4F59018F569A4F5116BF
:1025800080F4442D50E04F5F5F4FB9010E94F53950
:10259000F501D08377247394750C1F5F59CF2C2ECF
:1025A0007CCEFC011082F4CF8AE894E00E94930470
:1025B0005C2E560C852D90E09C0120573A4F590116
:1025C000511638F4F50181915F010E94AE045394D5
:1025D000F7CF5C2E882D811B0E94480980E994E08A
:1025E0000E949304C52D512C772009F456CE570C28
:1025F000872D17141CF40E94FD0A4FCE81950E946E
:102600000B0B4BCEE12FF0E0E057FA4F108280E049
:102610000E94190B60E975E0C6010E94193A81E039
:102620004ACE8D3009F439CE34F4883051F08A30F6
:1026300009F433CE78CE8B3109F4B6CE8F3709F05A
:1026400072CE552059F022242A94250CEE24E394CE
:10265000E40CF52CA12C52CF752C44CF612C1DCE4F
:10266000512C112309F4B6CFC12F80E9A82E85E0A3
:10267000B82E512CF50181915F010E94AE04539454
:102680005C12F8CF662009F4A5CF0E9455095C2E94
:102690002C2F260D3327331F5901852D90E08A15E5
:1026A0009B050CF081CF80579A4FFC0180810E94DE
:1026B000AE045394F2CFFF920F931F93CF93DF9307
:1026C0008C01F62E6EE270E00E940E3AEC01892B2E
:1026D00011F0F1101BC04AE050E070E060E0C8016A
:1026E0000E9420378B019C01F7FE08C0A8EEB3E0E2
:1026F000AC019B010E944A398B019C01C901B801C0
:10270000DF91CF911F910F91FF90089518824AE0B9
:1027100050E070E060E0C8010E9420379B01AC01EE
:10272000A8EEB3E00E944A398B019C01F12C37FFDF
:1027300009C030952095109501951F4F2F4F3F4FA1
:10274000FF24F394FE01319684E690E0CAE0D0E0E5
:1027500041914423F9F018161906E4F4042E000CF4
:10276000550B405351094A30510590F7489FB0012D
:10277000499F700D589F700D1124AB01770F660BA8
:10278000770B040F151F261F371FBE010E94AF399C
:10279000CB01DECFFF2009F4B1CF30952095109505
:1027A00001951F4F2F4F3F4FA9CF009721F09093D6
:1027B000E6058093E5056BE371E08091E505909176
:1027C000E6050E9465380097A1F01092E605109288
:1027D000E505FC014081242F042E000C330B20530F
:1027E00031092A30310510F04D3229F76FEF0C9482
:1027F0005B1360E070E0CB010895FF920F931F938D
:10280000CF93DF93082F10E096E1899FE001112418
:10281000CE5EDC4F8A810E94790C18165CF583EC41
:1028200095E00E94D513F801EE0FFF1FEE0FFF1F7A
:10283000EB51FD4F6083718382839383FF24F39474
:10284000E881F0E0EE56FF4FE491FE16D0F490E000
:1028500080E00E94D513F801EF0DF11DEE0FFF1F70
:10286000EE0FFF1FEB51FD4F6083718382839383D3
:10287000F394E6CF80E0DF91CF911F910F91FF900D
:10288000089581E0F8CF8F929F92AF92BF92FF920E
:102890000F931F93CF93DF931092110388E391E07E
:1028A0000E941C0A86E391E00E941C0AC0E210E02C
:1028B00006E1FF24F39420911103C7FD55C12A308E
:1028C00008F052C180EB8C0F883008F437C1C8364D
:1028D00009F434C11C136DC06DE471E080E090E038
:1028E0000E947103111167C0F0921306C093350660
:1028F000109214061092360681E00E94390581116B
:102900001DC18BE291E00E9493048C2F0E94F60A75
:102910000E94F6096DE471E080E090E00E9471038E
:1029200040E06DE371E08C2F0E948E0A082E000CAF
:10293000990B0E94810D0E94F6096DE471E080E020
:1029400090E00E9471038C2F0E94790CD82F082EE2
:10295000000C990B0E94810D0E94F609DC5FD530B6
:1029600008F4FEC083EC95E00E946D0A0E94F6090F
:102970008091C3058F3309F0F3C08091C405893479
:1029800009F0EEC0E09111030E9FF0011124EE5EFC
:10299000FC4F118215828091C605D3E08F3499F0E7
:1029A00064F4D4E0843479F0D1E0853461F0DFEF71
:1029B0000AC01C2F99CF10E0A4CF823509F4C0C003
:1029C000D2E08037A1F78D2F0D2E000C990B0E94BD
:1029D000810D86E391E00E941C0ADF3F09F4C0C02C
:1029E000E09111030E9FF0011124EE5EFC4FC283B3
:1029F000D08383EC95E00E94D513D09111030D9FF5
:102A000090011124A9014E5E5C4F5A01FA017483B2
:102A1000638340E06FE371E08C2F0E948E0A6DE4C7
:102A200071E080E090E00E9471038C2F0E94790C8D
:102A300018162CF48091C8058053F501818340E07D
:102A400065E471E08C2F0E948E0A6DE471E080E0F5
:102A500090E00E9471038C2F0E94790C18164CF4A0
:102A6000D09FC001112469EC75E0895E9C4F0E94E3
:102A7000193A40E06CE471E08C2F0E948E0A82E2E9
:102A800091E00E9493046CE271E080E090E00E948B
:102A900071038C2F0E94790C18160CF059C080918C
:102AA000CB050E94AE040E94520980E40E94AE044D
:102AB0000E9452098DEC95E00E946D0A8FE191E031
:102AC0000E94780A85E191E00E949304D09111035D
:102AD0008D2F0E94CF0A8D2F0E94FD098D2F0E94FD
:102AE000FD138823C1F1E091110344E0E49FF0015C
:102AF0001124EB51FD4F80809180A280B3804AE089
:102B0000C501B401B7FE0BC08DE20E94AE0466277A
:102B10007727CB01681979098A099B094AE00E9445
:102B2000290A86E391E00E941C0A80E191E00E945C
:102B3000780A809111038F5F80931103CF5FBBCE22
:102B4000D1E08091C705843509F4D0E0D1953BCF21
:102B50008BE191E0B5CF81E191E00E94780AE5CF69
:102B6000C113ECCFC150EACF30E0F901EE0FFF1FE7
:102B7000EE0FFF1FEB51FD4F8AE694E0A1E0B0E0BD
:102B800080839183A283B383C6E1C29FC001C39FA8
:102B9000900D1124FC01EE5EFC4F128261E071E0A9
:102BA000895E9C4F0E945E3880911103C89FF0019E
:102BB0001124EE5EFC4F95E0908311828F5F80932D
:102BC0001103DF91CF911F910F91FF90BF90AF90B4
:102BD0009F908F900895DF92EF92FF920F931F9333
:102BE000CF93DF93142FD22F2AE040E955E00E94C3
:102BF0009C3840E955E0FA0101900020E9F7AF0167
:102C000041595540C42F4430A8F4552784E090E042
:102C10007C01E41AF50A60E975E0C70180579A4F14
:102C20000E94F539A70160E370E080E995E00E9419
:102C3000073AC4E01D5FD12EDC1A1D14B4F44C2FEA
:102C400050E060E975E0ED2C0D2C000CFF08C70189
:102C500080579A4F0E94F539602F000F770BA7011C
:102C600080E995E00E94073AC12F8C2F90E08C01FB
:102C700003571A4F43E050E0B80182579A4F0E9421
:102C8000F5398EE2F8018083CF5F12E01D0F1D0D34
:102C9000412F4C1B141664F4042E000C550B8C2F82
:102CA00090E060E370E080579A4F0E94073AC12F8E
:102CB000ECEFEC0F80E0DD2321F08E2FEDEFED0F38
:102CC000EC0FF0E0E057FA4F1082DF91CF911F91A7
:102CD0000F91FF90EF90DF900895CF92DF92EF92E7
:102CE000FF920F93CF936B017C01C42F4423E9F033
:102CF00000E223E041E00E94EB1560E975E082E725
:102D000092E00E94193A82E792E00E940211882321
:102D100091F06C2F619580E995E0CF910F91FF9034
:102D2000EF90DF90CF900C945B132AE042E752E0E3
:102D30000E949C38E8CFC701B601CF910F91FF9058
:102D4000EF90DF90CF900895CF92DF92EF92FF92B5
:102D50000F931F93CF93DF93D62F7A01122FC02F9B
:102D6000282F30E0A8EEB3E00E948C3900E320E089
:102D700042E00E94EB1560E975E082E792E00E9474
:102D8000193A82E7C82E82E0D82EF60112832D2F41
:102D900030E0A8EEB3E00E948C3920E042E00E94CF
:102DA000EB1560E975E085E792E00E94193AF601BB
:102DB00015839701A8EEB3E00E948C3920E04C2FD8
:102DC0000E94EB1560E975E088E792E00E94193AED
:102DD000EC2FF0E0EE58FD4F1682DF91CF911F915E
:102DE0000F91FF90EF90DF90CF900895AF92BF9238
:102DF000CF92DF92EF92FF920F931F93CF93DF93C7
:102E000000D01F92CDB7DEB719821A821B829E01B5
:102E10002D5F3F4F5901215031096901215031097E
:102E2000790110E000E030E020E050E040E00E9456
:102E3000E1064B8150E002E02AE36A8189810E9429
:102E4000A4160F900F900F90DF91CF911F910F91CB
:102E5000FF90EF90DF90CF90BF90AF900895FF92DA
:102E60000F931F93CF93DF930E94F61682E792E0B1
:102E70000E94021163E571E080E995E00E946538E7
:102E8000F12C00E010E0D0E0C0E00097E9F0C330A2
:102E9000D105E1F00E9437388C33910598F52097E1
:102EA00061F48831910574F5182F63E571E090E0C5
:102EB00080E00E9465382196E8CFC130D10511F439
:102EC000082FF3CFF82EF1CF2397E1F4212F30E034
:102ED000A0E1BEE00E948C392CE3029F8001112406
:102EE000012E000C220B330B600F711F821F931FEA
:102EF0006F0D711D811D911DDF91CF911F910F915C
:102F0000FF90089560E070E0CB01F6CF8F929F9222
:102F1000AF92BF92EF920F93CF93DF934B015C017F
:102F2000C42FD22F8E2D0E94520BDD23C1F02D2FE6
:102F30004C2FC501B4010E94EB15C82F80E995E024
:102F40000E946D0A80E00E94520B8C2FDF91CF917E
:102F50000F91EF90BF90AF909F908F900895A8EE43
:102F6000B3E0A50194010E944A3920E04C2FE3CF41
:102F7000CF92DF92EF920F93CF93C82F80E00E9401
:102F8000D10B6C2F87E00E94390C8AE2C82E84E0B6
:102F9000D82EF6016081718182819381EE24E394C1
:102FA00000E222E042E00E94861760E080E00E949A
:102FB000AE0E81E00E94D10B6C2F84E10E94390C8F
:102FC000F601648175818681978128EE33E040E0C7
:102FD00050E00E94C339CA01B90120E044E00E94D8
:102FE000861760E081E00E94AE0E82E00E94D10B65
:102FF0006C2F80E20E94390CF60160857185828514
:10300000938522E042E00E94861760E082E00E9401
:10301000AE0E83E00E94D10B6C2F8CE20E94390C23
:10302000F601648575858685978522E044E00E94D7
:10303000861780E00E94190B8DE192E00E949304B4
:1030400084E00E94D10B6C2F8AE30E94390CF601B8
:10305000608971898289938922E043E00E94861702
:1030600060E084E00E94AE0E85E00E94D10B6C2FE0
:1030700088E40E94390CF6016489758986899789EC
:1030800022E043E00E94861760E085E00E94AE0ED9
:1030900081E08C0FCF910F91EF90DF90CF9008954A
:1030A0002F923F924F925F926F927F928F929F9258
:1030B000AF92BF92CF92DF92EF92FF920F931F9346
:1030C000CF93DF9300D000D000D0CDB7DEB7162F5E
:1030D0004E83922E802E72E1272E73E0372EE5EE7E
:1030E000CE2EE2E0DE2EB12CA12C412C512C32014F
:1030F0001D829701FF0C440B550B29833A834B83A8
:103100005C83909111039A151B0409F00CF442C0E2
:103110003FEFA31AB30AF1019081FE819F1333C0E0
:103120002D812F5F2D83FF24F394F80E682F812FBC
:103130000E94390CC5010E94810D8AE192E00E9433
:103140009304F601608171818281938129813A81A2
:103150004B815C810E94C339CA01B901EE24E3941A
:1031600000E2282D492D0E948617F6018081918169
:10317000A281B381480E591E6A1E7B1E61E08E81BA
:103180000E94AE0E8F2DF6E12F0E311C24E0C20EF0
:10319000D11CB7CF3D81332309F441C05E8144E0A7
:1031A000549F80011124065D1B4F232F30E050E017
:1031B00040E0C301B2010E94C339F801208331838A
:1031C00042835383FE81F33051F5209136043091D0
:1031D00037044091380450913904AAE0B0E00E94CD
:1031E0004A3921E231E040E050E00E94C339809149
:1031F000320490913304A0913404B0913504880FC7
:10320000991FAA1FBB1F820F931FA41FB51F809376
:10321000360490933704A0933804B09339048D8119
:1032200026960FB6F894DEBF0FBECDBFDF91CF91CB
:103230001F910F91FF90EF90DF90CF90BF90AF90D4
:103240009F908F907F906F905F904F903F902F90C6
:103250000895DF92EF92FF920F931F93CF93DF9326
:10326000C82FEE24E394F12C02E022E040E064E079
:103270000E945018D82F58EEE52E53E0F52E00E0AE
:1032800024E041E061E18C2F0E945018D81708F427
:10329000D82FEE24E394F12C02E022E042E06DE12D
:1032A0008C2F0E945018D82E8D1708F4DD2EEE2496
:1032B000E394F12C02E024E043E06AE28C2F0E94C8
:1032C0005018182F8D1508F41D2DEE24E394F12CC1
:1032D00002E023E044E066E38C2F0E945018D82FD0
:1032E000811708F4D12FEE24E394F12C02E023E0BF
:1032F00045E065E48C2F0E9450188D1708F48D2F3F
:103300008C0FDF91CF911F910F91FF90EF90DF9085
:1033100008952F923F924F925F926F927F928F9279
:103320009F92AF92BF92CF92DF92EF92FF920F9354
:103330001F93CF93DF9300D01F92CDB7DEB7898361
:10334000662E49015A0158E7752E00E010E0C12CA5
:10335000D12C7601202F30E03B832A83809111030A
:103360008150990B281739073CF586E1829FF001BF
:10337000839FF00D1124EE5EFC4F808181111AC0F5
:103380001F5F802F0E94CF0A802F0E94FD09802F8F
:103390000E94FD13EA81FB81EE0FFF1FEE0FFF1F5E
:1033A000EB51FD4F80819181A281B381C80ED91E5E
:1033B000EA1EFB1E0F5FCECF112309F4AAC0212FF6
:1033C00030E050E040E0C701B6010E94C339190166
:1033D0002A0120922A0430922B0440922C0450920D
:1033E0002D0486E391E00E941C0A81E00E94D00D2A
:1033F0008FEF90E00E949304E12C00E222E044E091
:10340000C501B4010E9486178AEF90E00E949304E0
:1034100080E00E94D00D0E94520922E043E0C201E8
:10342000B1010E94861781E00E943F0B86EF90E079
:103430000E94930480E00E943F0B83E00E94FD0AFB
:1034400010E034E1F32E212F30E03B832A8380917A
:1034500011038150990B281739070CF076CF412FB3
:10346000662D89810E94DA09882309F444C0812FDE
:103470000E94CF0A812F0E94FD09812F0E94FD1317
:103480006A817B816F5F7F4F072E000C880B990B41
:10349000E12C00E320E042E00E94861783EF90E0F9
:1034A0000E9493048A819B81880F991F880F991F1E
:1034B0008B519D4FFC016081718182819381EE244B
:1034C000E39400E222E044E00E94861780E00E943C
:1034D000640BFEE0FF0E22E42F1568F488E391E010
:1034E0000E941C0A86E391E00E941C0A84E10E946B
:1034F000FD0A85E1F82E0E94F70781117A9487E38F
:1035000096E00E940404892B69F4772059F01F5F2C
:103510009ACF20902A0430902B0440902C04509095
:103520002D0457CF87E396E00E94E2034B9719F4EE
:10353000212C312C2101C201B1010F900F900F906D
:10354000DF91CF911F910F91FF90EF90DF90CF907F
:10355000BF90AF909F908F907F906F905F904F90B3
:103560003F902F9008952F923F924F925F926F92CB
:103570007F928F929F92AF92BF92CF92DF92EF9203
:10358000FF920F931F93CF93DF93082FD62E142F04
:10359000322EF12C8F3F19F4FF24F39400E04FE317
:1035A00065E0812F0E94510CC2E1D3E025EE622E2E
:1035B00022E0722E912C812C402E512C26E1029F6C
:1035C000C0011124FC01EE5EFC4F5F0180911103EC
:1035D0008815190409F00CF4C0C09881F5018081A8
:1035E000981719F0FF2009F4ADC01F5F222423941F
:1035F0004814590419F0D11001C0212C612F85E025
:103600000E94390C31100FC0CC24C394C224E22C88
:1036100000E020E048E260E081E3880D0E94E80DD0
:1036200081E00E940B0B81E0222009F493C00E94EC
:10363000520B83E00E94FD0ACE0105960E946D0A9E
:10364000612F8AE10E94390C822D0E94640BF301E4
:10365000608171818281938100E222E045E00E94D5
:10366000EB1588810E94D10B211003C081E00E94DC
:103670003F0B80E995E00E946D0A80E00E94C10B3B
:1036800081E00E943F0B0E945209E881F0E0EE0FBA
:10369000FF1FE350FB4F6591749180E995E00E9414
:1036A0005E380E946D0A612F89E20E94390C80E029
:1036B0000E94640BE881F0E0EE0FFF1FED54FE4F17
:1036C0006591749180E995E00E945E380E946D0AD0
:1036D000612F80E30E94390C80E00E94640B6B81B3
:1036E0007C8190E080E000E322E042E00E94EB1564
:1036F00080E995E00E946D0A612F88E30E94390CF1
:1037000080E00E94640B2A8130E0A8EEB3E00E94C2
:103710008C3900E220E043E00E94EB1580E995E05F
:103720000E946D0A612F8EE30E94390C89810E94EC
:10373000640B89810E94F60A80E00E94520B80E0AF
:103740000E94640BFFEF8F1A9F0A669624E0620EB8
:10375000711C3CCF0E943F0B6CCF80E00E943F0B5E
:103760004FE365E081E0810F0E94510C82E0810F00
:10377000DF91CF911F910F91FF90EF90DF90CF904D
:10378000BF90AF909F908F907F906F905F904F9081
:103790003F902F9008950F93CF93DF93C82F682FFA
:1037A00085E00E94390C81E60E944D0E88EA91E086
:1037B0000E94930485E00E94480982E60E944D0E13
:1037C00083E991E00E94930485E00E94480983E622
:1037D0000E944D0E84E891E00E949304D2E0DC0F39
:1037E00043E068E081E08C0F0E94510C6D2F85E072
:1037F0000E94390C84E60E944D0E85E791E00E94FC
:10380000930481E00E94520B8BE492E00E946D0AC7
:103810006D2F8AE20E94390C85E60E944D0E83E6E8
:1038200091E00E94930443E068E083E08C0F0E94E3
:10383000510C64E06C0F85E00E94390C86E60E9412
:103840004D0E8BE491E00E94930481E00E94520BA4
:1038500020915C0230E0A8EEB3E00E948C3900E3D6
:1038600020E043E00E94EB1580E995E00E946D0A9C
:1038700085E00E94480987E60E944D0E85E391E0AD
:103880000E94930485E08C0FDF91CF910F910895F2
:103890004F925F926F927F92AF92BF92CF92DF92E0
:1038A000EF92FF920F931F93CF93DF935C01F62E5D
:1038B000D42E28013901CE2D6FEE70E083EC95E017
:1038C0000E945E38EE20E9F18CE28093C605C33099
:1038D00059F150F4C13099F065EE70E0C23089F0D2
:1038E000C53078F5C4E012C0C53031F1C630C1F73B
:1038F0006BED70E087EC95E00E945E3822C06AEEC6
:1039000070E087EC95E00E945E38C8E000E322E0BA
:1039100041E0C301B2010E94EB158C2F90E060E9F9
:1039200075E08D539A4F0BC06FED70E087EC95E01A
:103930000E945E38C9E0EACFB50187EC95E00E94AD
:10394000193AE12C86E1C82ECF9CE0011124CE5E0D
:10395000DC4F0E2D10E0809111038150990B081758
:1039600019070CF54E2D6D2D8F2D0E94DA09882335
:10397000C1F0E881F0E0EB52FF4FE491EE2389F0D3
:10398000C09EC001C19E900D11248C010E5E1C4F83
:1039900040E063EC75E0F80182810E948E0AF80134
:1039A0001182E394D6CFDF91CF911F910F91FF90B9
:1039B000EF90DF90CF90BF90AF907F906F905F902F
:1039C0004F900895CF92DF92EF92FF920F93CF9393
:1039D000DF93C0906602D0906702E0906802F0909A
:1039E0006902C701B6010E94F616C701B60120E8B8
:1039F00031E541E050E00E942839A8EEB3E00E9492
:103A00004A3900E220E043E00E94EB1549E050E033
:103A100062E772E087E792E00E94F539C2E7D2E000
:103A200083E0E0E9F5E0DE0101900D928A95E1F78F
:103A300084E68B8380E28C83DF91CF910F91FF909E
:103A4000EF90DF90CF900C94740A0F9361E083E4C1
:103A50000E94390C0E9455090E94E21C68E18DE326
:103A60000E94390C409102015091030104E02EE2C2
:103A700060910401809105010E94A41682E792E002
:103A80000E946D0A0E9452094091600250E002E0DB
:103A90002AE360915F0280915E020E94A41682E791
:103AA00092E00E946D0A87E794E00E9493048AE8FE
:103AB00094E00F910C9493040F931F93CF93DF9393
:103AC000D82FC62F8A010E94550968E181E00E9423
:103AD000390CDF3F49F589E20E94190B84E00E940E
:103AE0004809C8010E946D0A80E00E94520B81E3E0
:103AF0000E94190B83E794E00E9493040E94E21C49
:103B0000C11106C0E80109900020E9F72197C01B08
:103B100088E28C1B0E9448098AE894E0DF91CF91EB
:103B20001F910F910C94930481E00E94520BD6CF09
:103B3000CF93DF930E94CA0B0E94550985E591E05F
:103B40000E94B00DC82F8AE894E00E949304D2E04E
:103B5000DC0F61E06C0F82E00E94390C65E372E0DB
:103B600080E995E00E945E386AE00E94750B62E38E
:103B700072E080E995E00E945E3869E00E94750B72
:103B80006FE272E080E995E00E945E386AE00E9490
:103B9000750B69E272E080E995E00E945E386BE0A7
:103BA0000E94750B66E272E080E995E00E945E3843
:103BB00069E00E94750B60E272E080E995E00E9486
:103BC0005E3869E00E94750B81E00E940B0B0E9439
:103BD000840B4CE463E08D2F0E94510CC82F80E0D1
:103BE0000E94520B49E651E060E080E00E945C1DBB
:103BF0008C2F0E9429194CE463E00E94510C0E9412
:103C0000B8174CE463E00E94510CC82F81E00E9479
:103C1000520BC093D7024CE463E081E08C0FDF913C
:103C2000CF910C94510C2F923F924F925F926F92D2
:103C30007F928F929F92AF92BF92CF92DF92EF923C
:103C4000FF920F931F93CF93DF93CDB7DEB7CD597C
:103C5000D1090FB6F894DEBF0FBECDBFF82EC35604
:103C6000DF4F6883CD59D0408EE791E00E94B00DC0
:103C7000182F61E0680F82E10E94390C68E08DE83E
:103C800091E00E94750B68E084E991E00E94750B59
:103C900068E08BE991E00E94750B68E083EA91E0AF
:103CA0000E94750B68E08CEA91E00E94750B0E94FF
:103CB000840B81E00E94520B03E0010F44E467E0B3
:103CC00082E0810F0E94510C62E272E0FE013196A7
:103CD00080E0DB012D913D91BD0131832083843053
:103CE00048F41E964D915C919F0128593F4FD90190
:103CF0004D935C938F5F3D96883059F7FE01319666
:103D000080E0D12CC12CF81619F0BFEFFB1209C0CE
:103D1000208131812115310521F0C216D30608F426
:103D2000690110868F5F3D968C3069F710E0412C59
:103D3000BDE05B2EEE24E394123031F0E12E13301F
:103D400018F0AEEFEA2EE10E2E2C312C220C331C93
:103D5000F101E252FD4F1F0180E01F1519F0FFEF46
:103D6000FF12FAC0A12EB12CE1E0F0E0EC0FFD1F34
:103D7000519EE00DF11D1124208131812115310565
:103D800009F4EAC0C356DF4F8881CD59D040813055
:103D900009F4E6C0C601B9010E949B39261737070E
:103DA000D8F1748763875A9C30015B9C700C112496
:103DB000A1E0B0E0AC0FBD1F6A0E7B1EBBE06B0E36
:103DC000711CD301ED91FC91C901BF010E949B3987
:103DD0004B01E69FC001E79F900DF69F900D1124C7
:103DE0008217930718F4BFEF8B1A9B0AE89DC00156
:103DF000E99D900DF89D900D11242817390778F44E
:103E0000309709F423C23197D301ED93FC93D9CFB6
:103E10001AE0A3CF1BE0A1CF34872387C4CF5A9CDD
:103E200030015B9C700C112481E090E08C0F9D1F91
:103E3000680E791ED30115969C928E921497C60136
:103E4000821B930BBF010E949B39D30117967C9371
:103E50006E931697680D791D6E9FC0016F9F900D30
:103E60007E9F900D1124F601E81BF90BCF0196956A
:103E7000879513969C938E9312975A9CF0015B9CA6
:103E8000F00D1124A1E0B0E0AC0FBD1FEA0FFB1F45
:103E9000868097809286818682819381892B29F4FE
:103EA000C401969587959383828382E2183008F047
:103EB00081E20E94190B602F0F5F87E00E94390C8E
:103EC00081E00E94520BF1016591749180E995E0C7
:103ED0000E945E386BE00E94DB0A80E00E94190BB2
:103EE00080E00E94640B5A9CC0015B9C900D1124E1
:103EF000AA24A394B12CAC0EBD1EA80EB91EF501C8
:103F00006281738190E080E00E94F6160E94740A3C
:103F100080E00E94640BD50114966D917C9190E035
:103F200080E00E94F6160E94740A80E00E94640BF2
:103F3000B40190E080E00E94F6160E94740A81E0CD
:103F40000E94640B842D411007C087E894E00E9412
:103F5000930481E044244394123080F4185FFDCE32
:103F600081E090E09487838735832483C601821B98
:103F7000930B97838683138212827FCF143009F4C8
:103F800047CF173009F446CF1B3009F48AC01A30E6
:103F900009F444C1183008F01850882371F0B1E0DA
:103FA000EB1202C0133049F480E00E94520B802FC4
:103FB00044E467E00F5F0E94510C1F5F183008F463
:103FC000B9CE42E7842E42E0942E442443945DE02F
:103FD000552EC114D10409F449C00E94F707882363
:103FE000D1F1E1E0CE1AD108B60190E080E00E9464
:103FF000F61662EB71E08AE792E00E94193AD4016A
:104000000D900020E9F7BD016357724042E752E08E
:1040100080E00E945C1D8E010F5F1F4FE12CA12CE0
:10402000FE1419F0BFEFFB120CC0F80180819181E2
:10403000892B39F0828193810097A9F101979383AD
:104040008283E394035F1F4FFCE0EF12E9CFA110DE
:1040500055C00E94251D87E396E00E940404892B29
:1040600009F4B7CF87E396E00E94E203C356DF4F1F
:104070000FB6F894DEBF0FBECDBFDF91CF911F9179
:104080000F91FF90EF90DF90CF90BF90AF909F90F7
:104090008F907F906F905F904F903F902F900C94F7
:1040A000110A17E07ACF8185928520852223C1F0FD
:1040B000248135812817390729F412861186108644
:1040C000AA24A394D80118966C9182E08E0D0E94C8
:1040D0001E03F80181859285019692878187B1CF71
:1040E000268137812817390769F71286118640869D
:1040F00083859485019794878387E2CF10E0B12C64
:104100003A2C123031F0312E133018F03EEF332EAE
:10411000310E80E01F1519F02FEFF2125AC0612EF8
:10412000712CE1E0F0E0EC0FFD1F519EE00DF11D60
:10413000112420813181232B09F44BC080E994E0C4
:104140000E949304BB2059F087E192E00E949304FF
:104150008B2D0E94F60A85E192E00E949304B394AD
:1041600082E2183008F081E20E94190B569CC001CF
:10417000579C900D112466246394712C6C0E7D1E47
:10418000680E791ED3011B966D917C9190E080E0C2
:10419000EE24E39400E320E048E00E94861780E0EC
:1041A0000E94190BF3010085802F0E94640B0023ED
:1041B000C1F08091D6020E94190B68E08BEB91E070
:1041C0000E94DB0A80E00E94190B80E00E94640BD1
:1041D0008A2D123060F4185F9DCF1AE09BCF1BE050
:1041E00099CF68E08EEB91E00E94DB0AEECF1430AD
:1041F000A1F31730A1F31B30F9F01A30C9F01830D1
:1042000008F01850882329F0F1E03F121DC0133048
:10421000D9F01F5F183008F473CF1BCF15E0882347
:1042200009F48FCD21E014E0E21609F4C6CEBCCE2D
:1042300081110EC015E06ACF882309F40ACF31E05E
:10424000331609F406CF17E0B394E3CF0E94F03998
:1042500081E014E03812F8CFEDCFEF92FF920F9388
:104260001F93CF93DF93962F833609F456C08CF4B7
:10427000813609F44CC00CF085C08F5F823008F4A1
:104280004AC080E0DF91CF911F910F91FF90EF9096
:104290000895853609F44CC00CF445C0863609F4FF
:1042A0004BC0873671F7E0905C0202E113E0D0E08A
:1042B000C0E0FC2EFE0C809111038150990BC817B1
:1042C000D9070CF056C06EEA71E080E995E00E94D3
:1042D0005E384AE062E772E08F2D90E00E949138EC
:1042E00062E772E084E995E00E94193A40E060E9F3
:1042F00075E0F80182810E948E0A6CE271E080E034
:1043000090E00E94710321960A5E1F4FD2CF642F66
:10431000892F0E94D40E81E0B5CF20E088E391E0A0
:104320000E94860FF8CF8BE492E00E940211F3CF37
:1043300021E08BE492E0F4CF60915C0270E090E0C9
:1043400080E040E00E946D1660935C0220911103B2
:104350008FE790E0821B91096817190631F02CF065
:104360008FE7821B80935C02D6CF6032A0F680E29A
:10437000F9CF68EE73E080E090E00E9471030E9444
:104380004314C9CF85E0E82E00E010E0980182ECEC
:1043900091E00E94481CBFCFFF920F931F93CF93D1
:1043A000DF93EC01F62E08811981C8010E940239C1
:1043B000F81621F06F2DC8010E940A39CE01DF9155
:1043C000CF911F910F91FF900895EF92FF920F935D
:1043D0001F93CF93DF9300D0CDB7DEB78BECE82EE1
:1043E00082E0F82E05EE13E01A830983F70161914C
:1043F0007F01CE0101960E94CC210F5F1F4F013F2C
:10440000F3E01F0789F70F900F90DF91CF911F9175
:104410000F91FF90EF900895EF92FF920F931F93EB
:10442000CF93DF9300D0CDB7DEB729E2AC01249F54
:10443000C001259F900D112402E212E0FC01E15E13
:10444000FE4F7F01C701800F911F9A838983F80176
:1044500061918F01CE0101960E94CC21F2E00B34D4
:104460001F0781F70F900F90DF91CF911F910F9150
:10447000FF90EF900895EF92FF920F931F93CF93C9
:10448000DF9300D0CDB7DEB725ECAC01249FC0018F
:10449000259F900D112402EA14E0FC01E05BF3403B
:1044A0007F01C701800F911F9A838983F801619171
:1044B0008F01CE0101960E94CC21F5E007361F073F
:1044C00081F70F900F90DF91CF911F910F91FF9087
:1044D000EF900895EF92FF920F931F93CF93DF9386
:1044E00000D0CDB7DEB782E1E82E83E0F82E10E0F1
:1044F00000E01A830983F70161917F01CE010196E3
:104500000E94CC210F5F1F4F023F110591F70F90C2
:104510000F90DF91CF911F910F91FF90EF90089531
:104520002F923F924F925F926F927F928F929F92C3
:10453000AF92BF92CF92DF92EF92FF920F931F93B1
:10454000CF93DF93CDB7DEB7E1970FB6F894DEBF18
:104550000FBECDBF85E591E00E94B00D20E0482F51
:1045600061E08FEF0E94B31AC82E082E000CDD0800
:10457000682F85E00E94390C81E60E944D0E8CE385
:1045800094E00E94930483E00E94480982E60E941E
:104590004D0E85E394E00E94930483E00E94480955
:1045A00083E60E944D0E80E394E00E94930483E032
:1045B0000E94480984E60E944D0E8BE294E00E941E
:1045C000930483E00E94480985E60E944D0E82E232
:1045D00094E00E9493046091D10270E090E080E04A
:1045E000EE24E39400E320E043E00E94861743E0DA
:1045F00068E081E08C0D0E94510CB6016E5F7F4F28
:1046000085E00E94390C86E60E944D0E89E194E017
:104610000E94930481E00E94520B6091CC02709141
:10462000CD028091CE029091CF024AE00E94290AE9
:1046300080E00E94520B83E00E94480987E60E94B6
:104640004D0E85E194E00E94930481E00E943F0BAF
:104650008FE094E00E94930480E00E943F0B83E08F
:104660000E94480988E60E944D0E86E094E00E9470
:10467000930483E00E9448096091D20241E06111F5
:1046800040E089E60E945C0E8CEF93E00E94930468
:1046900043E068E083E08C0D0E94510C182F682FD6
:1046A00085E00E94390C8AE60E944D0E84EF93E06B
:1046B0000E94930483E00E9448098BE60E944D0EFD
:1046C0008AEE93E00E94930483E00E9448098CE6FE
:1046D0000E944D0E81EE93E00E94930483E00E94BD
:1046E00048098DE60E944D0E87ED93E00E949304E9
:1046F00043E068E081E0810F0E94510C62E0610FAD
:1047000085E00E94390C8EE60E944D0E87EC93E006
:104710000E94930482E20E94B50B86E595E00E9418
:104720006D0A83E00E94480981E00E94D00D81EC6F
:1047300093E00E94930480E00E94D00D8BEA93E006
:104740000E94930482E20E94B50B8091D40290E013
:1047500001960E94810D80E00E94C10B0E94860A92
:1047600060911103615081E70E94F608898B8736BA
:1047700009F4E4C50CF046C0823609F4EBCEB4F47B
:104780008F3F34F018160CF016C2813609F48BC135
:10479000F989F153FA8B63EF72E08BE492E00E94A7
:1047A0005E3881E280935C02712CDAC52989243657
:1047B00009F4D2C10CF480C1253609F41BC2263697
:1047C00039F76091CC027091CD028091CE02909128
:1047D000CF0240E00E946D166093CC027093CD0230
:1047E0008093CE029093CF0220EB34E040E050E083
:1047F0000E942839672B682B692B09F008C20E9498
:10480000E521A8CE39893C3609F41EC30CF0DAC084
:10481000393609F4FFC10CF49AC53A3609F4E5C0FB
:104820003B3609F0B5CF85ED91E00E94B00DF82E32
:1048300061E0680F8CE00E94390C61E080E00E942A
:104840008A0B86E692E00E94930462E081E00E9477
:104850008A0B0E94950B4CE463E082E08F0D0E946E
:10486000510C63E06F0D83E00E94390CBEEDAB2E5E
:10487000B2E0BB2E1EEDC12E14E0D12E06E2802E3A
:1048800005E0902E11E683EA782E7F0C81E00E94ED
:10489000520BF5016591749180E995E00E945E38B4
:1048A00069E00E94DB0A80E00E94640B812F0E9475
:1048B0006B0ED6016D917D918D919D916D01E12CD5
:1048C00000E222E044E00E94861780E00E94640B30
:1048D00086E0810F0E946B0EF601648975898689D6
:1048E000978922E044E00E94861780E00E94640BD2
:1048F0008CE0810F0E946B0ED6019C966D917D918C
:104900008D919C919F9722E044E00E94861780E061
:104910000E94640B82E1810F0E946B0EF401619191
:104920007191819191914F0122E044E00E9486179C
:1049300080E00E94640B80EE810F0E946B0ED40118
:1049400054966D917D918D919C91579722E044E012
:104950000E94861780E00E94640B672D610F83E040
:104960000E94390CB2E0AB0EB11C1F5F173609F084
:104970008DCF8AE08F0D0E947A0E0E94860A63E036
:1049800088E70E94F60818160CF0E4CD0FE9080F2E
:10499000063008F050C1E4E00E9F8001112402525D
:1049A0001B4FD8016D917D918D919C9141E00E94AA
:1049B0006D16F80160837183828393838091D402A2
:1049C00090E06DC189898E3609F4AEC40CF416C32B
:1049D00082370CF0DDCE89898F568093D40290E027
:1049E0000E94AD100E94E521E6C081E280935C0246
:1049F00063EF72E08BE492E00E945E3888EC91E015
:104A00000E94B00D21E0482F61E08FEF0E94B31AA1
:104A10000E94CB1B182F43E068E00E94510C61E01C
:104A2000610F85E00E94390C6091CB0241E0611179
:104A300040E088E60E945C0E81E592E00E949304CB
:104A400080E00E943F0B85E00E9448094091CB0224
:104A500061E0411160E089E60E945C0E8BE392E028
:104A60000E94930480E00E943F0B0E94860A6FEF31
:104A700089E60E94F608182F42E060E00E942D218E
:104A8000811104C0183631F0193651F011160CF4AA
:104A9000B5CF60CD81E08093CB020E94E521AECFFF
:104AA0001092CB02FACF0E94CA0B61E081E00E9413
:104AB000390C0E9443144ECD609106047091070496
:104AC0008091080490910904188A1D861A8219821F
:104AD000B12CA12CD12CC12CF12CE12C8E010F5F1B
:104AE0001F4F9E01235F3F4FAE01405F5F4F0E940B
:104AF000E10649815A8104E02EE26D8588890E9491
:104B0000A41682E792E00E9402116CE771E080E94E
:104B100095E00E94653810E000E0009711F40C94D5
:104B2000162E0330110511F40C94162E0E943738FE
:104B300097FF02C00C94162E0115110521F48097E1
:104B400014F00C94162E6CE771E090E080E00E9467
:104B500065380F5F1F4FE1CF60E070E0CB0120E6CA
:104B6000A22E22E0B22E3FE5C32E32E0D32E4EE538
:104B7000E42E42E0F42E02E011E024E031E045E0D2
:104B800051E00E94E1064091020150910301E09042
:104B9000600200915F0220915E02609104018091A9
:104BA00005010E946D0760930604709307048093CB
:104BB000080490930904B9891B160CF4CBCC0E940D
:104BC000981DE1960FB6F894DEBF0FBECDBFDF9102
:104BD000CF911F910F91FF90EF90DF90CF90BF90FA
:104BE000AF909F908F907F906F905F904F903F908D
:104BF0002F9008956091D10270E090E080E040E055
:104C00000E946D166093D1026F3F09F0F8CD0E94AB
:104C10003E10A0CC81E09091D202911180E080936F
:104C2000D2020E94E5218091D202882309F492CC1D
:104C30000E946A228FCC09E9080F063038F4F4E0AC
:104C40000F9F800111240A501B4FABCE03E9080FC0
:104C5000063038F4F4E00F9F80011124025F1A4FF0
:104C6000A0CE0DE8080F063038F4F4E00F9F800165
:104C700011240A5D1A4F95CE0FEB080F063038F459
:104C8000F4E00F9F80011124025C1A4F8ACE9FEC42
:104C9000980F933038F4082E000C990BC1970E949E
:104CA0003B22C1CD813009F489CEBDCD61E0F70151
:104CB000EE55FB4F80819181892B09F060E081E600
:104CC0008B0D0E943E0EF701EE55FB4F6081718106
:104CD00090E080E00E94F6160E94740A07C1173027
:104CE00008F43CC163E0962E173009F0912EE92CB0
:104CF000F12C5701F6E1AF0EB11CF501EE0FFF1FCD
:104D0000EE55FB4F61E080819181892B09F060E0D5
:104D100087E7890D0E943E0EF501EE0FFF1FEE554D
:104D2000FB4F6081718190E080E00E94F6160E9446
:104D3000740A0E94840B2AE1E20EF11CF701EE0FC7
:104D4000FF1FEE55FB4F61E080819181892B09F0B7
:104D500060E081E4890D0E943E0EF701EE0FFF1F17
:104D6000EE55FB4F6081718190E080E00E94F61665
:104D70000E94740A0E94840B682D610F83E00E94D8
:104D8000390C1F5F32E0C30ED11C183009F086C009
:104D90008CE0800F0E947A0E0E94860A63E08AE708
:104DA0000E94F60818160CF0D5CB0FE9080F063054
:104DB000B0F410E0000F111F0E551B4FD8016D917C
:104DC0007C9190E080E00E942F17F801718360834E
:104DD0008091D40290E033C052E0952E88CF09E94B
:104DE000080F083030F410E0000F111F02551B4F60
:104DF000E5CF01E9080F083030F410E0000F111F73
:104E000002541B4FDBCF09E8080F043030F410E0E8
:104E1000000F111F02531B4FD1CF0FEB080F0430AF
:104E200030F410E0000F111F0A521B4FC7CF9FEC48
:104E3000980F933038F4082E000C990BC1970E94FC
:104E40003B2202C0813021F284EE91E00E94B00D3D
:104E5000082F61E0680F8CE00E94390C81E00E940D
:104E6000640B8FE692E00E94930462E080E00E946F
:104E70008A0B0E94950B4CE463E082E0800F0E9455
:104E8000510CF4E08F2E800E63E0600F83E00E94EF
:104E9000390CA2EACA2EA4E0DA2E10E0BB24B394A7
:104EA000123031F0EEEFBE2EB10E133008F4B12EF9
:104EB00081E00E94520BEB2CF12CEE0CFF1CF70151
:104EC000E252FD4F6591749180E995E00E945E3851
:104ED00069E00E94DB0A0E94840BF1E0BF12E6CE7B
:104EE000123008F4E3CE8BE00E9448090E94840B44
:104EF00061E0D6011C968D919C91892B09F060E0B0
:104F000087E6810F0E943E0EF6016485758590E06C
:104F100080E00E94F6160E94740A0E94840B61E0F1
:104F2000D6015C968D919C91892B09F060E08FE60B
:104F3000810F0E943E0EF601648D758D90E080E039
:104F40000E94F6160E94740A0E94840B143009F421
:104F500043CF08F0C4CE123008F4C8CE6AE08BE02C
:104F60000E948A0B07CF02E0F02EA2C02A892230CD
:104F700028F460E08FE00E948A0BF7C061E0D20164
:104F80008D919C91892B09F060E0832D0E943E0E4B
:104F9000EB89FC896081718190E080E00E94F616C7
:104FA0000E94740AEE24E394AB89BC898D919C9194
:104FB000892B09F0E12CCE2C00E020E048E261E0F2
:104FC000872D0E94E80D80E00E94640B113009F0EB
:104FD000CCC0F3946DC007E9080F043030F410E042
:104FE000000F111F0E5C1D4F60C19FEB980F983092
:104FF00008F069C161E0892F0E94131E84EF91E0DF
:105000000E94B00D182F61E0680F85E00E94390CF6
:10501000C12CEE24E39400E020E248E260E08FE659
:105020000E94E80D82E20E94190B60E18AE392E09F
:105030000E94DB0A80E00E94190B66E080E00E947B
:105040008A0B8FEE92E00E94930465E086E00E9456
:105050008A0B8AEE92E00E94930460E086E00E9450
:105060008A0B63E0262E210E4AE365E082E0810F81
:105070000E94510C7EEDA72E72E0B72EFDEFFA8B49
:10508000912C812CF12C10E0812F153009F483E054
:10509000282F30E099E6392E380E49E4742E780E28
:1050A000220F331FC9018E5C9D4F2C019C8B8B8B73
:1050B000298A2394698988E00E94390C81E00E9442
:1050C000520BF5016591749180E995E00E945E387C
:1050D00061E10E94DB0A81E00E94640B9F2D910F29
:1050E0009F8B6401CF0CD11CCC0CDD1CF601EE5D56
:1050F000FD4F61E080819181892B09F060E08F890B
:105100008F590E943E0ED601AE5DBD4F6D016D916F
:105110007C9190E080E00E94F6160E94740AEE24D2
:10512000E394F60180819181892B09F0E12CCE2C4A
:1051300000E020E048E261E08F898F5B0E94E80D8B
:1051400081E00E94640B113009F010CF8FEF8F0DBA
:10515000823008F00BCF60E08FE00E948A0BF1E014
:10516000FF1609F400CFA2E0FA2E1F5FBFEF8B1AE3
:105170009B0AEA89EF5FEA8BF2E0AF0EB11C1630B2
:1051800009F082CF4AE365E0822D0E94510C6989C3
:105190006D5F85E00E94390C81E00E94D00D88EDA2
:1051A00092E00E94930480E00E94D00D82ED92E094
:1051B0000E94930483E00E94480981E00E94D00D80
:1051C0008CEC92E00E94930480E00E94D00D81EC70
:1051D00092E00E94930483E00E9448098DE60E94B9
:1051E0004D0E8AEB92E00E94930483E00E944809EE
:1051F0008EE60E944D0E8EEA92E00E94930443E0F8
:1052000068E089898C5F0E94510C69896B5F85E039
:105210000E94390C8FE60E944D0E85EA92E00E94B2
:10522000930483E00E94480981E00E94D00D8FE939
:1052300092E00E94930480E00E94D00D81E992E008
:105240000E94930482E20E94190B81E00E94520B9B
:105250008091D50290E001960E94810D80E00E942D
:10526000190B83E00E94480981E00E94D00D8BE871
:1052700092E00E94930480E00E94D00D8AE792E0C1
:105280000E9493040E94860A68E08FE60E94F60856
:1052900018160CF0EAC40FE9080F083008F09BCE8E
:1052A00010E0000F111F0E5D1D4FD8016D917C9114
:1052B00090E080E00E942F17F80171836083809155
:1052C000D50290E024C097EB980F943018F461E079
:1052D000835492CE60E08D3619F08E3619F461E079
:1052E0008FEF8ACE9FEC980F943048F49093D502BC
:1052F000892F90E00E9490100E94E5217FCE9BECC8
:10530000980F943038F4082E000C990BC5970E9422
:105310000C2274CE8F3629F48AE392E00E940211A7
:10532000CECF813061F26ACE86E595E00E9402110F
:105330008091D40290E00E943B220CC98091D0025F
:105340000E9459098093D0028093000158CA80912D
:10535000D6020E9459098093D60251CA77247394C9
:1053600084E092E00E94B00D20E0482F672D8A89EA
:105370000E94B31A8F5F0E94CB1B01E0080F43E02D
:1053800068E00E94510C602F85E00E94390C88E68D
:105390000E944D0E89E993E00E949304602F8EE1F4
:1053A0000E94390C11E01725472D612F89E60E94D4
:1053B0005C0E8BE893E00E949304602F83E30E94CD
:1053C000390C412F672D8AE60E945C0E80E893E03D
:1053D0000E94930480E00E94520B0E94860A69E0BA
:1053E0008AE60E94F608082F472D6A890E942D211F
:1053F000182F811116C4093609F4D6C90A3609F4E2
:10540000ADCF083609F00AC421E02CA331E03BA35C
:1054100081E08EA791E09DA7A1E0AAA3B1E0BDA382
:10542000E1E0ECA71D8E1E8E1F8E18A21F8A188E1B
:10543000198E1A8E812C912C5401212C312C210192
:10544000F6E12A89F29FC0011124DC01AE5EBC4F57
:10545000BC8FAB8F05C08D8C9E8CAF8CB8A011E03B
:1054600063E773E083EC95E00E945E38EB8DFC8D82
:105470008081823009F4B6C0C8F5882309F45CC085
:10548000813009F483C083EC95E00E94B00DD82EE2
:105490001111FCC0672D8A890E94D40EAB8DBC8D82
:1054A0008C918150823008F0F1C0E12EF12C809176
:1054B00011038150990BE816F9060CF0E7C0412F53
:1054C000672D8A890E94DA09882371F0B6E1BE9DB2
:1054D000F001BF9DF00D1124EE5EFC4F40E069E14C
:1054E00072E082810E948E0A1F5FDFCF833009F451
:1054F000A2C0843041F668E573E08FEC95E00E942D
:105500005E381111C0CF90913A049D8FA0913B0459
:10551000AE8FB0913C04BF8FE0913D04E8A31CA284
:105520001BA21EA61DA61AA21F8A188E198E1A8EDD
:10553000812C912C540126C06DE673E08FEC95E030
:105540000E945E3811119FCFF0912A04FD8F2091A7
:105550002B042E8F30912C043F8F80912D0488A333
:105560001CA21BA21AA21DA280EA96E8A1E0B0E04C
:105570008F8B988FA98FBA8F78E0872E72E5972E40
:10558000A12CB12C212C312C21017DCF68E673E0B8
:105590008FEC95E00E945E38111175CF90912E042A
:1055A0009D8FA0912F04AE8FB0913004BF8FE091FA
:1055B0003104E8A31CA688E89FE8A5E1B0E08F8B42
:1055C000988FA98FBA8F58E8852E5FE8952E55E100
:1055D000A52EB12C60E2262E68E4362E4424439496
:1055E000512C51CF63E673E08FEC95E00E945E385A
:1055F000111149CF909132049D8FA0913304AE8F49
:10560000B0913404BF8FE0913504E8A380E197E2C4
:10561000A0E0B0E08F8B988FA98FBA8F38E5832EEA
:105620003BE1932EA12CB12C40EA242E4FE0342EE6
:10563000412C512C28CF6DE573E08FEC95E00E9452
:105640005E38111120CF909136049D8FA0913704C0
:10565000AE8FB0913804BF8FE0913904E8A31CA24B
:105660001BA21AA21DA28FEF9FEFDC018F8B988FD8
:10567000A98FBA8F98EE892E9EE6992E93E0A92ED7
:10568000B12C22242A94322C2101FDCE21E04D2D73
:10569000672D8A890E94B31A182F61E0680F85E090
:1056A0000E94390CECA5E0FB60F8FDA1F0FB61F86D
:1056B0002AA120FB62F83DA530FB63F88EA580FB94
:1056C00064F89BA190FB65F8ACA1A0FB66F8B62D31
:1056D000B170CB2E60FE0AC081E60E944D0E8AE4B6
:1056E00093E00E94930485E00E944809E62DE27051
:1056F000DE2E61FE0AC082E60E944D0E8CE393E02E
:105700000E94930485E00E944809F62DF470FF2E54
:1057100062FE07C083E60E944D0E8EE293E00E9477
:10572000930443E068E082E0810F0E94510C082F4F
:10573000182F63FE19C0682F85E00E94390C84E69B
:105740000E944D0E8FE193E00E94930411E0100F30
:10575000802F0E946A0CEE24E39400E222E044E0F1
:10576000C501B4010E94861764FE1AC0612F85E04E
:105770000E94390C85E60E944D0E80E193E00E9464
:105780009304812F1F5F0E946A0CEE24E39400E2D1
:1057900022E044E06D8D7E8D8F8D98A10E9486174A
:1057A00065FE18C0612F85E00E94390C86E60E94D4
:1057B0004D0E88E093E00E949304812F1F5F0E94AA
:1057C0006A0CEE24E39400E222E044E0C201B1015D
:1057D0000E94861766FE19C0612F85E00E94390C71
:1057E00087E60E944D0E8FEF92E00E949304812F76
:1057F0000E946A0CEE24E39400E222E044E06F8908
:10580000788D898D9A8D0E9486170E94860A60E0A5
:1058100087E60E94F6088FA71D861E861F861982BE
:105820001A821B821C821D821E821F821886198684
:105830001A861B861C86E82FE156E73008F0E9C17E
:105840000E2E000CFF0BE95DF34D0C94E2392E2C6B
:10585000F02C472DBE2D2B2AC62DCE2DCC2009F4A1
:10586000FECDA5019401672D8A890E9489196B01DB
:105870007C01C114D104E104F10409F4F0CDAB8D35
:10588000BC8D8C91843009F495C1823009F09FC0A1
:105890008D87C501B4012CE432E040E050E00E9465
:1058A000C339C701B601685A7146810991090E943E
:1058B000183928E13CEF4FEF5FEF0E94C339280D04
:1058C000391D4A1D5B1D29833A834B835C83B1E0FC
:1058D000BB8B09811A812B813C81ED84472D6A891C
:1058E00088E391E00E94481CB1E0B9A3E9A1FB89DB
:1058F000EF1708F07FC10E2F10E09801220F331F21
:10590000220F331F39AB28AB81E090E08C0F9D1F35
:10591000820F931F9BA78AA7DC01CD90DD90ED90AD
:10592000FC90A7019601672D8A890E9489196EA3B0
:105930007FA388A799A7672B682B692B09F457C108
:10594000EB8DFC8D8081823009F037C1C701B60133
:105950002CE432E040E050E00E94C3396EA17FA108
:1059600088A599A5685A7146810991090E9418393C
:1059700028E13CEF4FEF5FEF0E94C339DA01C90124
:105980008C0D9D1DAE1DBF1DEAA5FBA580839183D7
:10599000A283B383ADE0B0E0AC0FBD1FA00FB11F79
:1059A000E1E0F0E0EC0FFD1F28A939A9E20FF31F99
:1059B0000081118122813381EC90472D6A8988E32F
:1059C00091E00E94481C89A18F5F89A38FCF84E05A
:1059D0008D8789829A82AB82BC82E1E0EB8B79CFA2
:1059E000DD2009F43CCDAB8DBC8D8C9120E030E006
:1059F000A901813011F0A5019401672D8A890E94C7
:105A000089196B017C01C114D104E104F10409F48A
:105A100026CDEB8DFC8D8081813051F1843099F160
:105A200012E01D87C501B4012CE432E040E050E0F3
:105A30000E94C339C701B601685A714681099109AC
:105A40000E94183928E13CEF4FEF5FEF0E94C33905
:105A5000280D391D4A1D5B1D29833A834B835C83C6
:105A60001E872D823E824F82588632E03B8B31CF9B
:105A700086E08D8784E08E878D829E82AF82B88695
:105A8000F2E0FB8B26CF8E8722E02B8B22CFFF20EC
:105A900009F4E5CCAB8DBC8D8C9120E030E0A90100
:105AA000813011F0A5019401672D8A890E9489191E
:105AB0006B017C01DC01CB01885A9146A109B10937
:105AC0008B8B9C8BAD8BBE8BAB8DBC8D8C918130C9
:105AD00089F586E08D8714E01E87C201B1012DE2B1
