:100000000C94E9020C9411030C9411030C94110349
:100010000C9411030C9411030C9411030C94110310
:100020000C9411030C9411030C9411030C94110300
:100030000C9411030C9411030C9411030C941103F0
:100040000C94802C0C9411030C94F02C0C94CA2C5E
:100050000C9411030C9411030C9411030C941103D0
:100060000C94222D0C9411034C564C00442E4F2E10
:10007000004F525000525444004C6576656C004F5E
:1000800032005265646F780045430054656D702EF0
:100090000025006D5600704800C2B55300C2B04341
:1000A0000058025802840384035802000001010131
:1000B0000102014E616D652C004F2C252C31004F43
:1000C0002C6D672C30004B2C312E30004F2C5347B9
:1000D0002C30004F2C532C30004F2C5444532C30D8
:1000E000004F2C45432C3100532C63004C2C310025
:1000F00001010101010064727900686967682C00E0
:100100006D69642C006C6F772C0043616C003A20A1
:1001100000C2B043005D20403A005B00496E742E7F
:10012000204C6576656C202D2031004552520056DA
:10013000616C3A200045525200205600537461749D
:1001400075733A2000536C61766520403A20004474
:100150006F20284175746F2D294164647265737333
:100160002865732900283173742920284175746F1C
:100170002D2941646472657373203D2000446F2013
:10018000284175746F2D294E616D652873290028EB
:100190004175746F2D294E616D65203D20004465C9
:1001A0006C657465204E616D6528732900436C652C
:1001B00061722043616C6962726174696F6E287349
:1001C00029202020202000526573657420202020E3
:1001D00020004932432C0075008800960071006CA5
:1001E0000068003D20002D50742E200020746F20E8
:1001F00053657474696E672D4E6F2E205B312D33FD
:100200005D00290020280020436F70792046554C5E
:100210004C2053455454494E4720007C2020205404
:10022000656D702E202020207C202020204543203A
:10023000202020207C2020202020704820202020EA
:10024000207C202020205265646F78202020207C94
:10025000202020204F3220202020207C2020204CD5
:100260006576656C20207C003C007E003C007E00B2
:100270003E003E003A200072483200426F6F742008
:10028000466F72205465726D696E616C205573659E
:1002900000426F6F74204173204D6F6442555320AC
:1002A000536C6176652020202020004661696C53E4
:1002B00061666500746F6F4C6F772020207C202072
:1002C00020204C6F7720202020207C2020202048D8
:1002D000696768202020207C2020746F6F48696740
:1002E000682020207C0044656C617954696D6573D9
:1002F0000020436F7079546F536574205B312D3447
:100300005D002053656C656374536574203D200067
:10031000456469744E616D652020200052756E4100
:100320006C6C43656E742E0052756E414C4C2020EF
:1003300020002052756E53696E676C652020200086
:100340002045646974202020008B0088009600827C
:10035000007F007900207C202020202020204C4F8E
:1003600057202020202020207C20202020202048D2
:10037000494748202020202020207C002D44756DF6
:100380006D794E616D652D0053657420486967680D
:1003900000536574204C6F770053657420415647B5
:1003A000204173204D6964005365742053696E6762
:1003B0006C652F4D696400446F20332D50742E20DE
:1003C00043616C2E00446F20322D50742E20436107
:1003D0006C2E202020202000446F20312D50742EC0
:1003E0002043616C2E2020202020004F32202D0041
:1003F0004F5250202D007048202D004543202D00E5
:10040000525444202D002D2043616C696272617446
:1004100065200053656C65637420414C4C00536546
:100420006C6563742053696E676C650043616C6929
:1004300062726174696F6E2873292E2E2E0020530C
:10044000656C2E53657474696E67205B312D335D66
:10045000203D200053657474696E672D4E616D6593
:10046000203D20004D616E75616C2E2E2E0054696A
:100470006D65732E2E2E2020200056616C756573DD
:100480002E2E2E202020004D6F72652E2E2E202025
:100490002000417344656661756C74004B65794357
:1004A0006F6C6F7220202000436F6C6F72202020D1
:1004B0000044696D005370656564203D200041640F
:1004C00064722E203D200054696D65202020004478
:1004D000617465202020005265426F6F74202020D7
:1004E0000052655363616E2020200048003B001BD2
:1004F0005B001B5B324A006D001B5B001B5B316DB8
:10050000001B5B32326D0044001B5B0043001B5B31
:10051000001B5B376D001B5B346D0020402000200A
:10052000001B5B32346D003A002900207C20001B48
:1005300037001B5B32376D001B38003E3E20000049
:10054000000000240027002A0000000000250028E9
:10055000002B0000000000230026002900040404F2
:10056000040404040402020202020203030303035C
:100570000301020408102040800102040810200139
:10058000020408102000000008000201000003041B
:100590000700000000000000009D009900960093F5
:1005A00000910091002020202053656C6563742029
:1005B0006B65792C206F7220456E74657228666FAA
:1005C000722072657475726E292E2E2E000A00003C
:1005D000412E11241FBECFEFD8E0DEBFCDBF26E0F5
:1005E000A4E2B2E001C01D92A63EB207E1F712E01C
:1005F000A0E0B1E0E8EEFFE602C005900D92A43263
:10060000B107D9F712E0C9EED2E004C02197FE018C
:100610000E94AB37C83ED107C9F70E947A2E0C94CE
:10062000F2370C9400008091A3059091A405891BDA
:10063000990B0895833081F028F4813099F082304D
:10064000A9F008958730A9F08830C9F08430B1F45A
:10065000809180008F7D03C0809180008F77809390
:100660008000089584B58F7784BD089584B58F7D0B
:10067000FBCF8091B0008F778093B0000895809178
:10068000B0008F7DF9CFCF93DF93282F30E0F901B1
:10069000EB57FA4F8491F901EF58FA4FD491F901D1
:1006A000E35AFA4FC491CC23A1F081110E941A039E
:1006B000EC2FF0E0EE0FFF1FED5AFA4FA591B49129
:1006C000EC91ED2381E090E009F480E0DF91CF919F
:1006D000089580E090E0FACF1F93CF93DF93282F07
:1006E00030E0F901EB57FA4F8491F901EF58FA4FD6
:1006F000D491F901E35AFA4FC491CC23A9F0162FF3
:1007000081110E941A03EC2FF0E0EE0FFF1FE75B50
:10071000FA4FA591B4918FB7F894EC91111108C0DC
:10072000D095DE23DC938FBFDF91CF911F91089589
:10073000DE2BF8CF3FB7F89480918E0590918F050E
:10074000A0919005B091910526B5A89B05C02F3FBB
:1007500019F00196A11DB11D3FBFBA2FA92F982FE7
:100760008827BC01CD01620F711D811D911D42E0E2
:10077000660F771F881F991F4A95D1F708958F92AA
:100780009F92AF92BF92CF92DF92EF92FF926B0156
:100790007C010E949A034B015C01C114D104E10465
:1007A000F104B9F00E949A03681979098A099B0932
:1007B000683E73408105910580F321E0C21AD1089B
:1007C000E108F10888EE880E83E0981EA11CB11C98
:1007D000E4CFFF90EF90DF90CF90BF90AF909F90CD
:1007E0008F90089508950895AF92BF92CF92DF92AF
:1007F000EF92FF920F931F93CF93DF936C017B01D6
:100800008B01040F151FEB015E01AE18BF08C01766
:10081000D10759F06991D601ED91FC910190F081D9
:10082000E02DC6010995892B79F7C501DF91CF919C
:100830001F910F91FF90EF90DF90CF90BF90AF90FE
:100840000895FC01538D448D252F30E0842F90E0D6
:10085000821B930B541710F0CF96089501970895BB
:10086000FC01918D828D981761F0A28DAE0FBF2F84
:10087000B11D5D968C91928D9F5F9F73928F90E0DA
:1008800008958FEF9FEF0895FC01918D828D981749
:1008900031F0828DE80FF11D858D90E008958FEF86
:1008A0009FEF0895FC01918D228D892F90E0805C4F
:1008B0009F4F821B91098F739927089589E396E0D2
:1008C0000E94520421E0892B09F420E0822F089530
:1008D00080E090E0892B29F00E945E0481110C9445
:1008E00000000895FC01A48DA80FB92FB11DA35AD3
:1008F000BF4F2C91848D90E001968F739927848F40
:10090000A689B7892C93A089B1898C918370806462
:100910008C93938D848D981306C00288F389E02D03
:1009200080818F7D80830895EF92FF920F931F93B4
:10093000CF93DF93EC0181E0888F9B8D8C8D981392
:100940001AC0E889F989808185FF15C09FB7F8949E
:10095000EE89FF896083E889F989808183708064EA
:1009600080839FBF81E090E0DF91CF911F910F9135
:10097000FF90EF900895F62E0B8D10E00F5F1F4F44
:100980000F731127E02E8C8D8E110CC00FB607FC53
:10099000FACFE889F989808185FFF5CFCE010E94E1
:1009A0007204F1CFEB8DEC0FFD2FF11DE35AFF4FD9
:1009B000F0829FB7F8940B8FEA89FB89808180626F
:1009C000CFCF0F931F93CF93DF938C01D0E0C0E084
:1009D000F801EC0FFD1F6491662341F089E396E076
:1009E0000E949404892B11F02196F2CFCE01DF9161
:1009F000CF911F910F910895682F89E396E00C9491
:100A00009404CF93DF93EC01888D8823B9F0AA89F1
:100A1000BB89E889F9898C9185FD03C0808186FDB9
:100A20000DC00FB607FCF7CF8C9185FFF2CF808108
:100A300085FFEDCFCE010E947204E9CFDF91CF9107
:100A400008952091B402260F3327331F2132310538
:100A5000ECF420910F06FC0190E080E0243069F076
:100A600082E00895A091B4022191AC014C565D4FF3
:100A7000A40FB52FB11D2C930196861798F3809182
:100A8000B402680F6093B40280E0089581E0089595
:100A900010920F0681E080930E061092E90561E046
:100AA00082E10E946C0361E083E10E946C03E9EB48
:100AB000F0E080818E7F808380818D7F808388E4D9
:100AC0008093B80085E48093BC000895CF93DF93B2
:100AD00091E0909393028823B9F0C091B800D0912F
:100AE000BA008091BC008A7B8093BC0060E082E108
:100AF0000E946C0360E083E10E946C030E94480541
:100B0000D093BA00C093B800DF91CF9108958F922F
:100B10009F92AF92BF92CF92DF92EF92FF920F938C
:100B20001F93CF93DF93D0913806D13208F0D7C00E
:100B3000182FC09137060E949A036B017C018091A7
:100B40000F0681116BC082E080930F0610930E0692
:100B50008FEF80930D0610920C06D0930B06A7E141
:100B6000B6E0EBEEF5E080E0D81391C01092EA0514
:100B70008091EA05CC0FC82BC093EA058091E90566
:100B8000813009F088C01092E9050E949A036B0138
:100B90007C018091EA058093BB00809111069091C1
:100BA0001206A0911306B0911406892B8A2B8B2B69
:100BB000A1F00E949A030091110610911206209153
:100BC0001306309114066C197D098E099F090617CA
:100BD00017072807390708F442C08091BC0083FD3D
:100BE000D8CF85EC8093BC000E949A036B017C01F6
:100BF00080910F06823009F450C080910D068F3F1E
:100C000009F46FC080910D06803209F46CC08091A8
:100C10000D06803309F469C084E026C08091110676
:100C200090911206A0911306B0911406892B8A2B7D
:100C30008B2B09F484CF0E949A0380901106909028
:100C40001206A0901306B09014066C197D098E0947
:100C50009F0986169706A806B90608F070CF8091FE
:100C600010060E94660585E010921606109238065E
:100C700010921506DF91CF911F910F91FF90EF9089
:100C8000DF90CF90BF90AF909F908F9008959D91EF
:100C900091938F5F69CF85EEA5CF809111069091DA
:100CA0001206A0911306B0911406892B8A2B8B2B68
:100CB00009F49ECF0E949A0300911106109112062A
:100CC00020911306309114066C197D098E099F0935
:100CD000061717072807390708F08ACFC0CF81E029
:100CE000C3CF80E0C1CF82E0BFCF83E0BDCF089506
:100CF000E091A4058091A305E81730F4F0E0EB55EE
:100D0000FA4F808190E008958FEF9FEF08959091C2
:100D1000A4058091A3052FEF3FEF981748F4E92F22
:100D2000F0E0EB55FA4F208130E09F5F9093A405EF
:100D3000C9010895CF92DF92EF92FF920F931F9314
:100D4000CF93DF937C01CB018A01209115062223EA
:100D500089F0EB016B01C40ED51ECC15DD0569F0E1
:100D60006991D701ED91FC910190F081E02DC701CF
:100D70000995F3CF642F0E942105C801DF91CF911F
:100D80001F910F91FF90EF90DF90CF900895CF9338
:100D9000DF931F92CDB7DEB769832091150622231A
:100DA000F9F020913806203258F021E030E0FC01C3
:100DB0003383228390E080E00F90DF91CF910895FC
:100DC00080911606E82FF0E0E95EF94F9981908353
:100DD0008F5F809316068093380681E090E0ECCF19
:100DE00061E0CE0101960E942105F7CF90E080E0FE
:100DF0000895CF9389E396E00E943004C82F6CE0F9
:100E000070E080E090E00E94BF0389E396E00E94DA
:100E10005204892B61F089E396E00E9430046CE073
:100E200070E080E090E00E94BF03C0E0EECF8C2F26
:100E3000CF9108959C0164E670E00E946437FC0144
:100E4000C90183709927892B11F4309779F4C9016E
:100E500060E971E00E9464379C01EF2B11F4892B4B
:100E600019F481E0232B09F080E0089581E00895D2
:100E7000863029F034F4823051F0843031F48EE140
:100E800008958930E1F38B30D1F38FE10895CB01E0
:100E90000E941A07882311F08DE108958CE10895CE
:100EA0002F923F924F925F926F927F928F929F927A
:100EB000AF92BF92CF92DF92EF92FF920F931F9368
:100EC000CF93DF932B013C011A014901E80187EE22
:100ED00097E09983888340E853E361EE71E044151D
:100EE000550566057705B0F4888199810196998347
:100EF0008883441A550A660A770A0E941A0740E452
:100F000050E761E370E08111EACF40EC5EE160E31D
:100F100070E0E5CF81E0F401808360E87EED88E257
:100F200090E06415750586059705B0F4F4012081FD
:100F30002F5F2083461A570A680A790A68817981E7
:100F4000822F0E943807A82FB0E020E831E541E069
:100F500050E00E941337E5CFC301B20120E831E52C
:100F600041E050E00E94F1362F5FF101208320E143
:100F70003EE040E050E00E94F136F70120832CE390
:100F800030E040E050E00E94F136F6012083F501A8
:100F90006083DF91CF911F910F91FF90EF90DF90D1
:100FA000CF90BF90AF909F908F907F906F905F9009
:100FB0004F903F902F9008954F925F926F927F9243
:100FC0008F929F92AF92BF92CF92DF92EF92FF9259
:100FD0000F93CF93DF93C82FC62E3A01D22F97EEEF
:100FE000492E97E0592E812C912C54014614570418
:100FF000C0F4C2010E941A0781110CC020E8821AB5
:101000002CEC920A2EE1A20A2EEFB20A4FEF441AFC
:10101000540AECCF3BE7931A3DE1A30A3EEFB30A33
:10102000F5CF44244394512CD12C4C145D04A4F4EA
:10103000B301842D0E943807A82FB0E020E831E5E5
:1010400041E050E00E941337860E971EA81EB91E7D
:101050005FEF451A550AE9CF202F30E0ACE3B0E04E
:101060000E9455379B01AC012E0D311D411D511DB4
:1010700069017A012D2F30E0A0E1BEE00E945537D2
:10108000C60ED71EE81EF91E4C2F4150550BDA0133
:1010900020E831E541E050E00E94B1376C0D7D1D44
:1010A0008E1D9F1D680D791D8A1D9B1DDF91CF919F
:1010B0000F91FF90EF90DF90CF90BF90AF909F90F7
:1010C0008F907F906F905F904F9008950F931F9334
:1010D0008FB7F89440918A0550918B0560918C05EB
:1010E00070918D058FBF00917E0210917F0220913B
:1010F000800230918102DB01CA014017510762076B
:10110000730718F40197A109B109801B910BA20B79
:10111000B30B00917A0210917B0220917C023091F6
:101120007D02800F911FA21FB31F883E23E092070C
:10113000A105B10508F4C7C040937E0250937F0219
:101140006093800270938102885E9340A109B10987
:1011500080937A0290937B02A0937C02B0937D02ED
:101160008091760290917702A0917802B0917902F5
:101170000196A11DB11D8093760290937702A093F2
:101180007802B0937902809175028F5F8093750227
:101190008C3339F480917402109275028F5F8093C2
:1011A0007402809174028C3339F48091730210922E
:1011B00074028F5F8093730280917302883159F4B7
:1011C0001092730280917102909172020196909335
:1011D000720280937102809170028F5F809370021F
:1011E000409108045091090460910A0470910B0425
:1011F0004F5F5F4F6F4F7F4F409308045093090438
:1012000060930A0470930B048C3339F480916F025D
:10121000109270028F5F80936F0280916F028C3307
:1012200039F480916E0210926F028F5F80936E028C
:1012300080916E02883121F081E01F910F91089515
:1012400010926E02909105019F5F9093050180912D
:101250000401823009F59D3170F080910201909176
:1012600003010E941A07811106C081E080930501E5
:1012700083E080930401809104018D30E9F681E0E0
:101280008093040180910201909103010196909353
:10129000030180930201D0CF863019F020F484300E
:1012A00031F42FE105C08930E1F38B30D1F320E236
:1012B000022E000C330B92171306E9F691E090937F
:1012C00005018F5FD6CF80E0B8CFCF92DF92EF924B
:1012D000FF920F931F93CF93CCE3E62EF12C082FB0
:1012E00010E068018FE1C81AD1080E9466088111D8
:1012F000C15089E396E00E945204892BB9F10E9403
:10130000F906982F892F992369F190334CF0292FF2
:10131000092E000C330B20533109E216F306D4F4E6
:10132000913634F1292F092E000C330B02171307C5
:101330008CF4292F092E000C330B2C153D0554F08D
:101340009B31D1F09B3231F09D3221F0CCE39D7F77
:101350009C3359F6CF911F910F91FF90EF90DF9042
:10136000CF900895C111C1CF8FEFF4CF90E0CACFD5
:101370009134FCF69D3021F780E0ECCFCF93C82F5D
:10138000C15020F080E20E94FC04FACFCF91089572
:1013900081E00C94BE0981E195E00C94E104813672
:1013A00071F02AE5853261F0882349F021E0280FA9
:1013B00093EE980F983020F08955883008F02EE190
:1013C000822F08954F925F926F927F928F929F9299
:1013D000AF92BF92CF92EF92FF920F931F932B0188
:1013E0003C018E2DD5011C92812C912C540141146D
:1013F00051046104710461F0809008049090090424
:10140000A0900A04B0900B0484189508A608B708A9
:10141000E02FF0E0EE0FFF1FEC55FB4F6081718174
:101420007B0110E000E0E814F9040A051B0558F4FC
:101430008E189F08A00AB10A281539054A055B05D0
:10144000C8F091E09C93CC2039F18430F1F0B0F4F5
:101450008230C8F0C301B2011F910F91FF90EF904D
:10146000CF90BF90AF909F908F907F906F905F9044
:101470004F900895412C512C3201E5CF863051F325
:1014800068F0873039F0865F01C08CE06C910E9473
:101490006C03E0CF8DE0FACF8E5FF8CF87E0F6CF18
:1014A0000E94C8098AE30E94FC040C94C8094817EA
:1014B000C1F0613091F4E6E1E49FD0011124AC5E0B
:1014C000BC4FE89FF0011124EC5EFC4F81E02C91B1
:1014D0009081291729F080E0089581E06230D9F7E2
:1014E000089581E0FDCF96E1899FF0011124EC5E23
:1014F000FC4FE081F0E0EE0FFF1FEF55FF4F6591CD
:101500007491072E000C880B990B0C94BF03CF939A
:10151000C2E060E08C2F0E946C03CF5FCE30C9F731
:10152000CF910895FC0101900020E9F73197AF01B8
:10153000481B590BBC0189E396E00C94F4038F928D
:101540009F92AF92BF920F931F93CF93DF93CDB72C
:10155000DEB7A1970FB6F894DEBF0FBECDBF19A2BC
:10156000423008F44AE08E010F5D1F4F842E912C0B
:10157000B12CA12CA50194010E94F136E62FB901EE
:10158000CA01EA30F4F4E05DD801EE938D01232B1B
:10159000242B252B79F790E080E0109719F0CD01EE
:1015A0000E94920AA1960FB6F894DEBF0FBECDBF7F
:1015B000DF91CF911F910F91BF90AF909F908F902F
:1015C0000895E95CE1CF82E491E00C94920ACF9314
:1015D000DF930E94E104EC010E94E30A8C0F9D1F3F
:1015E000DF91CF9108958DEC95E00E94E70A85EA9E
:1015F00095E00C94E104009711F00C94920A90E0AD
:1016000080E0089582E892E00C94FB0ACF92DF928A
:10161000FF920F931F93CF93DF93EB01099000206C
:10162000E9F72197C61BD70BCC2369F18B0191E019
:10163000909315068093370610921606109238067E
:10164000F12CEC2FE40FFF27FF1F6F018F2D90E08F
:101650008C159D0554F4800F911FFC01608186ED6F
:1016600096E00E94C706F394F1CF81E00E948705BF
:1016700081110BC08C2FDF91CF911F910F91FF90A3
:10168000DF90CF90089580E0F6CF8FEFF4CF96E112
:10169000899FF0011124EC5EFC4F40E065E471E0AD
:1016A00082810C94060B0F931F93CF938C01FC0146
:1016B00001900020E9F73197E81BF90B6E1B862F8C
:1016C0008695C62FC81B0E94BE09C8010E94FB0A4E
:1016D0008C2FCF911F910F910C94BE09682F70E051
:1016E00090E080E04AE00C949F0ACF93C82F8EE0F0
:1016F00095E00E94E1048C2F0E946E0B8CE095E037
:10170000CF910C94E104CF93C82F89E095E00E941B
:10171000E1048C2F0E946E0B87E095E0CF910C9432
:10172000E104CF93C82F811101C0C7E280916D02FF
:1017300081110CC082EE8C0F883030F086EA8C0F5D
:10174000883010F0C73211F4C093010189EF94E0A2
:101750000E94E1048C2F0E946E0B87EF94E00E94A0
:10176000E104C73211F0CF910895C1E3DFCFCF93E9
:10177000C82F10926D0280E00E94CA0B8091010177
:10178000CC2329F081E080936D0280910001CF91FC
:101790000C94910BCF93C82F80916D02882319F080
:1017A00080E00E94B70B8CEF94E0C11102C081E091
:1017B00095E0CF910C94E104CF93C82F80E00E9474
:1017C000CA0B8BE295E00E94E104CC2321F081E07A
:1017D000CF910C94CA0BCF91089580E00E94DC0B4E
:1017E00081E00C94830BCF93C62F0E94BE0981E049
:1017F0000E94DC0B8C2FCF910C94BE09CF93C82F85
:1018000080E00E94B70B8C2F0E94910B81E0CF915A
:101810000C94CA0B81110C94FE0B80E00E94CA0B41
:1018200080E00C94910B8091E6020E940A0C86E104
:1018300095E00C94E10480E00E94910B82EF94E02B
:101840000C94E1048F929F92AF92BF92CF92DF925D
:10185000EF92FF920F931F9390E0FC01EE0FFF1F9A
:10186000EE0FFF1FE05CFA4F00811181228133816E
:10187000FC01EE0FFF1FEE0FFF1FE85DFA4FC08067
:10188000D180E280F380FC01EE0FFF1FEE0FFF1FFF
:10189000E05FFA4F80809180A280B380FC01EE0F60
:1018A000FF1FEE0FFF1FE45DFB4F408151816281FE
:1018B0007381880F991F880F991FFC01E850FB4F17
:1018C00080819181A281B381481759076A077B07FC
:1018D000A4F082E2481559056A057B057CF08FE18A
:1018E00004171507260737074CF080E2C416D50603
:1018F000E606F7061CF481E201C084E21F910F9115
:10190000FF90EF90DF90CF90BF90AF909F908F901F
:101910000C94910BCF93DF93C82FD62F8FEE94E0CA
:101920000E94E1048D2F0E946E0B8DEE94E00E94C8
:10193000E1048C2F0E946E0B8BEE94E0DF91CF912F
:101940000C94E1041F93CF93DF93C82F862FD42FDD
:10195000CC2331F011E01C0F6C2F0E948A0CC12F98
:10196000D15020F08DE20E94FC04FACF8C2FDF9141
:10197000CF911F910895CF93C82F81E00E94CA0B89
:101980008BE192E00E94E1044CE463E08C2F0E9422
:10199000A20CC82F80E00E94CA0B8C2FCF91089513
:1019A000CF92DF92EF92FF920F931F93CF93DF932B
:1019B000C82F1092C5050E949A036B017C0180918B
:1019C0000F06811166C081E080930F0680930E069A
:1019D0009FEF90930D0610920C069FE190930B06DB
:1019E0008093EA058091EA05CC0FC82BC093EA05E5
:1019F0008091E905813009F0A3C01092E9050E94A9
:101A00009A036B017C018091EA058093BB00809171
:101A1000110690911206A0911306B0911406892B1D
:101A20008A2B8B2BA1F00E949A0300911106109132
:101A3000120620911306309114066C197D098E0947
:101A40009F09061717072807390708F443C0809134
:101A5000BC0083FDD8CF85EC8093BC000E949A0324
:101A60006B017C0180910F06813009F46BC080917D
:101A70000C06D0E2803210F4D0910C06ABEEB5E04B
:101A8000E5EAF5E080E08D1751F19D9191938F5F2C
:101A9000FACF8091110690911206A0911306B09191
:101AA0001406892B8A2B8B2B09F489CF0E949A0369
:101AB0000091110610911206209113063091140620
:101AC0006C197D098E099F09061717072807390722
:101AD00008F075CF809110060E946605D0E0109244
:101AE000A405D093A30511E0C0E08091A405D81708
:101AF000B1F0C132A4F486ED96E00E94870611236E
:101B000009F445C0813009F43FC0C0E08F3F39F08F
:101B1000CFEF8E3F21F0CEEF823009F0CCEF81E0A5
:101B20000E948705882311F0C7FFCDEF8C2FDF912E
:101B3000CF911F910F91FF90EF90DF90CF9008957C
:101B400085EE8ACF8091110690911206A09113061E
:101B5000B0911406892B8A2B8B2B09F483CF0E941A
:101B60009A030091110610911206209113063091EC
:101B700014066C197D098E099F0906171707280797
:101B8000390708F06FCFA6CFC0E010E0AECFEC2F42
:101B90000C2E000CFF0BEB53FA4F8083882309F4C3
:101BA000BECFCF5FEC2FF0E0EB53FA4F1082EDCFBA
:101BB000CF92DF92EF92FF92CF93DF936C01092EC9
:101BC000000CEE08FF0897FF17C08DE20E94FC048E
:101BD000EC0166277727CB016C197D098E099F09D7
:101BE0004AE00E949F0A8C0F9D1FDF91CF91FF90CA
:101BF000EF90DF90CF9008954AE0C701B601DF91E2
:101C0000CF91FF90EF90DF90CF900C949F0ACF92EE
:101C1000EF920F931F93CF93DF93182FD42FC22FE0
:101C200061110E94C809EE2011F0C11005C080E0CA
:101C30000E94B70B0E94130CDD2319F08D2F0E9418
:101C4000FC04812F0E94FC0489E295E00E94E104DB
:101C5000002321F087E295E00E94E10480E00E94E9
:101C6000CA0B81E295E00E94E10401110E94C809BB
:101C7000CC2319F08C2F0E94FC0480E00E94910B71
:101C8000EE20A1F0C11014C081E0DF91CF911F912F
:101C90000F91EF90CF900C94CA0B81E0DF91CF9120
:101CA0001F910F91EF90CF900C94B70BC110F5CF0F
:101CB000DF91CF911F910F91EF90CF900895CF9228
:101CC000EF920F93C62EE12C00E020E240E060E0AE
:101CD0000E94070E0F91EF90CF900895CF92EF9250
:101CE0000F93C12CE12C01E020E040E060E00E9475
:101CF000070E0F91EF90CF900895CF92EF920F9330
:101D0000C42EE62E01E020E040E060E00E94070ED5
:101D10000F91EF90CF900895CF93DF93EC010E9445
:101D20001B0C80E00E94910B0E94CB0961E081E0D6
:101D30000E948A0C81E00E94CA0B60E5CE010E94DD
:101D4000530B80E00E94CA0B82E395E00E94E104FD
:101D500082E0DF91CF910895CF92DF92EF92FF92D0
:101D60000F931F93CF93DF93CDB7DEB72C970FB6AA
:101D7000F894DEBF0FBECDBF8CE0E6E0F1E0DE01FF
:101D8000119601900D928A95E1F724E2C22E22E08D
:101D9000D22E760112E000E0812F0E944303F7016A
:101DA00091917F01981719F03197808301E01F5FAF
:101DB0001E3091F7011104C080913002811176C06C
:101DC0007E01F9E0EF0EF11C8E010F5F1F4F609155
:101DD0003102F80181918F010E948A0CF6018191F4
:101DE0006F01882309F451C082E20E94FE0B82E752
:101DF00092E00E94E10481E00E94B70B8EE692E03F
:101E00000E94E1040E151F0511F78CE2C82E82E036
:101E1000D82EEE24E394F12CEC0EFD1EFCE0EF0E28
:101E2000F11C60913102F80181918F010E948A0CAE
:101E3000F60181916F01882399F181E20E94FE0BE6
:101E40008CE692E00E94E10482E00E94830B81E034
:101E50000E94B70B8AE692E00E94E104E016F106C8
:101E600001F781E08093300280E02C960FB6F89461
:101E7000DEBF0FBECDBFDF91CF911F910F91FF90BD
:101E8000EF90DF90CF900C940A0C81E00E94B70B8A
:101E900080E792E00E94E10480E20E94FE0BAECF58
:101EA00081E00E94B70B88E692E0D6CF2C960FB661
:101EB000F894DEBF0FBECDBFDF91CF911F910F9180
:101EC000FF90EF90DF90CF900895CF93DF93EC01D8
:101ED00080E00E94B70B0E94130CCE010E94FB0A07
:101EE00080E00E94B70B81E295E00E94E10480E06F
:101EF000DF91CF910C940A0CCF93C82F682F85E007
:101F00000E948A0C87E491E00E94650F87E092E0CE
:101F10000E94E10482E20E94910B88E595E00E9414
:101F2000FB0A84E092E00E94E1048091E40290E0E8
:101F300001960E94D80D82E092E00E94E10480E0C8
:101F40000E94910B8CEE91E00E94E10481E08C0FE5
:101F5000CF910895FF920F931F93CF93DF936BE47C
:101F600071E082E995E00E942E36F12C00E010E04D
:101F7000D0E0C0E00097E9F0C330D105E1F00E9465
:101F800000368C33910598F5209761F488319105DE
:101F900074F5182F6BE471E090E080E00E942E361B
:101FA0002196E8CFC130D10511F4082FF3CFF82ED8
:101FB000F1CF2397E1F4212F30E0A0E1BEE00E94B1
:101FC00055372CE3029F80011124012E000C220BB7
:101FD000330B600F711F821F931F6F0D711D811DC9
:101FE000911DDF91CF911F910F91FF90089560E0B7
:101FF00070E0CB01F6CFCF93DF93C82FD62F80E0D0
:102000000E94BE09DD23C9F081E00E94B70BEC2FCE
:10201000F0E0EE0FFF1FE756FA4F6591749182E9E9
:1020200095E00E9427360E94FB0A83E00E94BE09C9
:1020300080E0DF91CF910C94B70B80E00E94910B70
:10204000E6CF6F927F928F929F92AF92BF92CF9284
:10205000DF92EF92FF920F931F93CF93DF93CDB751
:10206000DEB7E6970FB6F894DEBF0FBECDBF782E71
:10207000662E84E1E82E83E0F82ED12CC12C8091CD
:10208000E7028150990BC816D9060CF077C04C2D89
:10209000662D872D0E94570A882309F468C06CEECC
:1020A00070E0CE0101960E942736F70180818130D1
:1020B00051F128F0843009F446C001E007C068EE11
:1020C00070E0CE010A960E94273602E0CE0101960A
:1020D0005C01912C812C10E0801691060CF041C01F
:1020E00040E0B501F70182810E94060B6CE271E0CD
:1020F00080E090E00E94BF03FFEF8F1A9F0A89E003
:10210000A80EB11CE9CF61EE70E0CE010A960E94E4
:10211000273669ED70E0CE0143960E94273663EDC5
:1021200070E0CE014C960E9427366CEC70E0CE0138
:1021300085960E94273666EC70E0CE018E960E944E
:10214000273606E0C3CF6FEB70E0CE010A960E94FF
:10215000273669EB70E0CE0143960E94273603E0F4
:10216000B5CF6CE271E080E090E00E94BF039FEF8A
:10217000C91AD90AE6E1EE0EF11C81CFE6960FB638
:10218000F894DEBF0FBECDBFDF91CF911F910F91AD
:10219000FF90EF90DF90CF90BF90AF909F908F9087
:1021A0007F906F9008955F926F927F928F929F922F
:1021B000AF92BF92CF92DF92EF92FF920F931F9355
:1021C000CF93DF9300D000D000D0CDB7DEB75C0155
:1021D000662E542E722ECE0101966C0186E0D60139
:1021E0001D928A95E9F704E113E0F12CE12C80912E
:1021F000E7028150990BE816F9060CF079C04E2DD4
:10220000652D862D0E94570A882309F450C063EB80
:1022100070E085EC95E00E9427367720C1F0D80168
:10222000EC91F0E0D601AE0FBF1F8C918F5F8C93C5
:10223000EE0FFF1FE952FE4F6591749182E995E020
:102240000E942736BC018AEC95E00E94E23785ECBB
:10225000882E85E0982EF40101900020E9F7CF0147
:10226000B50101970E94E237772091F0F4010190C7
:102270000020E9F7E65CF540FF27EB53FA4FD80161
:102280008C91D601A80FB11D8C91805D8083118245
:1022900041E065EC75E0F80182810E94060B18169A
:1022A00034F46AEC75E0C80105960E94E2376DE4EB
:1022B00071E080E090E00E94BF03D80112968C91FB
:1022C00091E09093150680933706109216061092AF
:1022D000380660E086ED96E00E94C706F80182812C
:1022E0000E948705FFEFEF1AFF0A0A5E1F4F7FCF9C
:1022F00026960FB6F894DEBF0FBECDBFDF91CF910B
:102300001F910F91FF90EF90DF90CF90BF90AF9013
:102310009F908F907F906F905F9008950F931F9381
:10232000CF93DF930BED12E0C5EED3E0CE010E9418
:10233000CB36F80181938F012196C13FF3E0DF078F
:10234000A9F76091DC027091DD028091DE0290912C
:10235000DF0220EB34E040E050E00E94F136672BD2
:10236000682B692B61F080E895E2A0E0B0E08093F3
:10237000DC029093DD02A093DE02B093DF02809135
:10238000E402833020F01092E4021092E202809185
:10239000E502843020F01092E5021092E202809172
:1023A000E3028B3020F01092E3021092E20280915F
:1023B000E00280930001DF91CF911F910F9108956A
:1023C0000F931F93CF93DF9329E2289F8001299FCA
:1023D000100D1124C2E3D2E0015F1E4FC8018C0F23
:1023E0009D1F0E94CB36899382E0CB35D807B1F789
:1023F000DF91CF911F910F9108950F931F93CF936A
:10240000DF9325EC289F8001299F100D1124C4EA39
:10241000D4E0025B1340C8018C0F9D1F0E94CB3695
:10242000899385E0C936D807B1F7DF91CF911F9125
:102430000F91089585ED8093BC00809111069091D5
:102440001206A0911306B09114060796A11DB11DA6
:1024500023E0B695A795979587952A95D1F7209172
:10246000BC0024FD03C010920F0608954091110690
:10247000509112066091130670911406452B462B5D
:10248000472B69F30097A105B10541F025E32A9593
:10249000F1F700000197A109B109E1CF8091100681
:1024A0000C9466052F923F924F925F926F927F92AB
:1024B0008F929F92AF92BF92CF92DF92EF92FF9254
:1024C0000F931F93CF93DF937C01FC0101900020B9
:1024D000E9F731977E2E781A20E1271518F4FC01D0
:1024E0001082712C81E00E94CA0B8BE395E00E9460
:1024F000E10480E00E94CA0B84E20E94910B8FE20B
:1025000095E00E94E104772049F00E94CB09C701C1
:102510000E94FB0A82E395E00E94E104B70182E990
:1025200095E00E94E237E72DF0E0EE56FA4F108278
:10253000572C172DC12CD12C212C912CC0E0D0E090
:1025400090E1892E0CE3DD3009F4B1C10E946608E8
:102550008823C9F00150B9F480E00E94910B80E01B
:10256000DF91CF911F910F91FF90EF90DF90CF906F
:10257000BF90AF909F908F907F906F905F904F90A3
:102580003F902F90089589E396E00E945204892B92
:10259000D1F289E396E00E943004D82F412E4518ED
:1025A000772009F493C1992493945C12912CDC2E2A
:1025B000D70C312E3D18CC24C394C30CDD3009F464
:1025C00043C1A4F4D830B1F0DA3009F43DC12C2E67
:1025D00080EE8D0F8F3508F0B5CF103108F41AC199
:1025E000772009F4AFCFAA24A394DFC0DB3129F010
:1025F000DF3769F72C2EA12CD8C02C2E6CE070E0B0
:1026000080E090E00E94BF0300E0A12C612CDBE1A0
:1026100089E396E00E945204892B09F44BC063942D
:1026200089E396E00E943004D82F6CE070E080E0EF
:1026300090E00E94BF03F3E06F1651F1F61558F0D9
:1026400021E06216A9F032E06316A9F0AA24A3944F
:10265000DFCF342CD3CF84E0681641F195E06912C6
:10266000F5CF8FEB8D0F843088F70FE70D0FD0CFAC
:10267000DB3561F7CDCFD53334F4D33314F4D13314
:1026800029F70D2FC5CF8FEB8D0F8430F8F6F9CFDA
:10269000DB3309F4BDCFDE37C9F6013309F4B8CF17
:1026A000A8F28DEC800F823088F6B2CFD23309F4D5
:1026B000AFCFCCCF662009F44FCFA11043CF033466
:1026C00009F456C0E0F4043389F058F4013309F4F6
:1026D00049C0033309F45EC0772009F433CF412C9D
:1026E0000AC0013409F43EC00234B1F7642C7720EB
:1026F00009F44EC04318642C650C712C7AC0013C5F
:1027000069F168F4043409F43BC0003C29F7652CF6
:102710006194552009F416CF71105DC012C0023CBF
:1027200049F0033CC9F641E0511001C040E0642E7D
:10273000619405C066246394411001C0612C71103E
:1027400047C0662009F4DFC0762C652C670CC52DC8
:1027500017140CF44EC07194C62D4BC0642C41105C
:10276000DBCFF0CE772009F4CCC04C2E4518C3CF78
:102770007110C0CF6624639441100AC0612C08C058
:102780007110F3CF41E0511001C040E0642E61941C
:10279000712C7FC0711009C0511680F7DD24D394CD
:1027A000D50CC42C252C772473944C2D50E06D2D22
:1027B00070E06E567A4F822D90E08E569A4F0E94AE
:1027C000BE371719622CAA2009F497CF522C24C0C7
:1027D000662009F4B7CE8C2F870D9920A1F0C60D85
:1027E0006C2EC81718F4982F8C2FC92F7C2E781AAE
:1027F000C82F88E395E00E94E104772009F485C0A2
:10280000C11188C097C0680E862DC61578F78C2F29
:10281000C62DECCF7110E7CE852D90E0FC01EE5671
:10282000FA4F5F018D569A4F511680F4442D50E0B7
:102830004F5F5F4FBF010E94BE37F501D083662412
:102840006394650C1F5F59CF2C2E7CCEFC01108247
:10285000F4CF82E395E00E94E1045C2E570C852DB5
:1028600090E09C012E563A4F5901511638F4F5016B
:1028700081915F010E94FC045394F7CF5C2E882D58
:10288000811B0E94BE0988E395E00E94E104C52DEA
:10289000512C662009F456CE560C862D16141CF4C5
:1028A0000E94750B4FCE81950E94830B4BCEE12F7A
:1028B000F0E0EE56FA4F108280E00E94910B62E940
:1028C00075E0C7010E94E23781E04ACE8D3009F4FD
:1028D00039CE34F4883051F08A3009F433CE78CED2
:1028E0008B3109F4B6CE8F3709F072CE552059F0EE
:1028F00022242A94250CCC24C394C40CD52CA12CBE
:1029000052CF652C44CF712C1DCE512C112309F4CC
:10291000B6CFC12F82E9A82E85E0B82E512CF50143
:1029200081915F010E94FC0453945C12F8CF7720E0
:1029300009F4A5CF0E94CB095C2E2C2F270D33273D
:10294000331F5901852D90E08A159B050CF081CF2E
:102950008E569A4FFC0180810E94FC045394F2CF62
:10296000FF920F931F93CF93DF938C01F62E6EE2AD
:1029700070E00E94D737EC01892B11F0F1101BC0D9
:102980004AE050E070E060E0C8010E94E9348B0149
:102990009C01F7FE08C0A8EEB3E0AC019B010E94C9
:1029A00013378B019C01C901B801DF91CF911F91B1
:1029B0000F91FF90089518824AE050E070E060E0C7
:1029C000C8010E94E9349B01AC01A8EEB3E00E946B
:1029D00013378B019C01F12C37FF09C030952095EE
:1029E000109501951F4F2F4F3F4FFF24F394FE0189
:1029F000319684E690E0CAE0D0E041914423F9F0BA
:102A000018161906E4F4042E000C550B4053510916
:102A10004A30510590F7489FB001499F700D589F6B
:102A2000700D1124AB01770F660B770B040F151F88
:102A3000261F371FBE010E947837CB01DECFFF2053
:102A400009F4B1CF30952095109501951F4F2F4F68
:102A50003F4FA9CF009721F09093E8058093E705B9
:102A60006DE471E08091E7059091E8050E942E36B3
:102A70000097A1F01092E8051092E705FC01408153
:102A8000242F042E000C330B205331092A3031053A
:102A900010F04D3229F76FEF0C94B01460E070E045
:102AA000CB010895FF920F931F93CF93DF93082FCD
:102AB00010E096E1899FE0011124CC5EDC4F8A8111
:102AC0000E94D00C18165CF585EC95E00E942A1542
:102AD000F801EE0FFF1FEE0FFF1FE851FD4F60835F
:102AE000718382839383FF24F394E881F0E0E355BC
:102AF000FF4FE491FE16D0F490E080E00E942A158A
:102B0000F801EF0DF11DEE0FFF1FEE0FFF1FE85153
:102B1000FD4F6083718382839383F394E6CF80E0DB
:102B2000DF91CF911F910F91FF90089581E0F8CF31
:102B30008F929F92AF92BF92FF920F931F93CF936A
:102B4000DF931092E7020E94E30AC0E210E006E180
:102B5000FF24F3942091E702C7FD4FC12A3008F00B
:102B60004CC180EB8C0F883008F431C1C83609F4B1
:102B70002EC11C136DC06DE471E080E090E00E94F6
:102B8000BF03111167C0F0921506C093370610926B
:102B900016061092380681E00E948705811117C140
:102BA00085E491E00E94E1048C2F0E946E0B0E944C
:102BB000500A6DE471E080E090E00E94BF0340E0C5
:102BC0006FE471E08C2F0E94060B082E000C990B0D
:102BD0000E94D80D0E94500A6DE471E080E090E000
:102BE0000E94BF038C2F0E94D00CD82F082E000CFF
:102BF000990B0E94D80D0E94500ADC5FD53008F472
:102C0000F8C085EC95E00E94FB0A0E94500A809172
:102C1000C5058F3309F0EDC08091C605893409F0F0
:102C2000E8C0E091E7020E9FF0011124EC5EFC4F3A
:102C3000118215828091C805D3E08F3499F064F435
:102C4000D4E0843479F0D1E0853461F0DFEF0AC05C
:102C50001C2F99CF10E0A4CF823509F4BAC0D2E07E
:102C60008037A1F78D2F0D2E000C990B0E94D80DE7
:102C70000E94E30ADF3F09F4BCC0E091E7020E9F27
:102C8000F0011124EC5EFC4FC283D08385EC95E00B
:102C90000E942A15D091E7020D9F90011124A901ED
:102CA0004C5E5C4F5A01FA017483638340E061E536
:102CB00071E08C2F0E94060B6DE471E080E090E0E3
:102CC0000E94BF038C2F0E94D00C18162CF4809108
:102CD000CA058053F501818340E067E571E08C2FE0
:102CE0000E94060B6DE471E080E090E00E94BF035B
:102CF0008C2F0E94D00C18164CF4D09FC0011124C8
:102D00006BEC75E0875E9C4F0E94E23740E06EE519
:102D100071E08C2F0E94060B8CE391E00E94E1048D
:102D20006CE271E080E090E00E94BF038C2F0E9473
:102D3000D00C18160CF055C08091CD050E94FC04F3
:102D40000E94C80980E40E94FC040E94C8098FEC1C
:102D500095E00E94FB0A89E391E00E94E70A8FE276
:102D600091E00E94E104D091E7028D2F0E94470B71
:102D70008D2F0E94730A8D2F0E9452158823A1F176
:102D8000E091E70244E0E49FF0011124E851FD4F97
:102D900080809180A280B3804AE0C501B401B7FE73
:102DA0000BC08DE20E94FC0466277727CB016819CF
:102DB00079098A099B094AE00E949F0A0E94E30A56
:102DC0000E94E30A8091E7028F5F8093E702CF5F62
:102DD000C1CED1E08091C905843509F4D0E0D19508
:102DE00041CF85E391E0B9CF8BE291E00E94E70A01
:102DF000E7CFC113ECCFC150EACF30E0F901EE0FBD
:102E0000FF1FEE0FFF1FE851FD4F8AE694E0A1E09F
:102E1000B0E080839183A283B383C6E1C29FC001E7
:102E2000C39F900D1124FC01EC5EFC4F12826CE1FB
:102E300071E0875E9C4F0E9427368091E702C89F11
:102E4000F0011124EC5EFC4F95E0908311828F5FBE
:102E50008093E7028093E302DF91CF911F910F915E
:102E6000FF90BF90AF909F908F900895DF92EF9268
:102E7000FF920F931F93CF93DF93142FD22F2AE04B
:102E800042E955E00E94653642E955E0FA010190B9
:102E90000020E9F7AF0143595540C42F4430A8F44E
:102EA000552784E090E07C01E41AF50A62E975E0B8
:102EB000C7018E569A4F0E94BE37A70160E370E0AB
:102EC00082E995E00E94D037C4E01D5FD12EDC1A64
:102ED0001D14B4F44C2F50E062E975E0ED2C0D2C7C
:102EE000000CFF08C7018E569A4F0E94BE37602F14
:102EF000000F770BA70182E995E00E94D037C12F20
:102F00008C2F90E08C0101571A4F43E050E0B8013C
:102F100080579A4F0E94BE378EE2F8018083CF5FC0
:102F200012E01D0F1D0D412F4C1B141664F4042ECE
:102F3000000C550B8C2F90E060E370E08E569A4F9A
:102F40000E94D037C12FECEFEC0F80E0DD2321F0A1
:102F50008E2FEDEFED0FEC0FF0E0EE56FA4F1082F2
:102F6000DF91CF911F910F91FF90EF90DF90089527
:102F7000CF92DF92EF92FF920F93CF936B017C0180
:102F8000C42F4423E9F000E223E041E00E94361719
:102F900062E975E082E892E00E94E23782E892E01E
:102FA0000E945212882391F06C2F619582E995E07E
:102FB000CF910F91FF90EF90DF90CF900C94B014D1
:102FC0002AE042E852E00E946536E8CFC701B60128
:102FD000CF910F91FF90EF90DF90CF900895CF9316
:102FE000DF93EC01688179818A819B8141E00E94B5
:102FF000B817688379838A839B8381E0DF91CF91BF
:103000000895CF92DF92EF92FF920F931F93CF9389
:10301000DF93D62F7A01122FC02F282F30E0A8EE91
:10302000B3E00E94553700E320E042E00E943617EB
:1030300062E975E082E892E00E94E23782E8C82EF9
:1030400082E0D82EF60112832D2F30E0A8EEB3E0F7
:103050000E94553720E042E00E94361762E975E091
:1030600085E892E00E94E237F60115839701A8EE09
:10307000B3E00E94553720E04C2F0E94361762E9DA
:1030800075E088E892E00E94E237EC2FF0E0EE571E
:10309000FD4F1682DF91CF911F910F91FF90EF901E
:1030A000DF90CF900895AF92BF92CF92DF92EF92D0
:1030B000FF920F931F93CF93DF9300D01F92CDB752
:1030C000DEB719821A821B829E012D5F3F4F590184
:1030D00021503109690121503109790110E000E0E6
:1030E00030E020E050E040E00E9450074B8150E08B
:1030F00002E02AE36A8189810E9401180F900F90F3
:103100000F90DF91CF911F910F91FF90EF90DF9083
:10311000CF90BF90AF9008951F93CF93DF93EB01B3
:10312000142F61E0209709F060E00E945F0EBE015D
:1031300090E080E00E9453180E94020B112329F0B6
:10314000DF91CF911F910C94ED0BDF91CF911F91E7
:103150000895CF93DF93EC016881798190E080E05E
:103160000E94531882E892E00E9452120E94AA0F15
:103170007983688381E0DF91CF9108958F929F9248
:10318000AF92BF92EF920F93CF93DF934B015C010D
:10319000C42FD22F8E2D0E94CA0BDD23C1F02D2FFC
:1031A0004C2FC501B4010E943617C82F82E995E063
:1031B0000E94FB0A80E00E94CA0B8C2FDF91CF9106
:1031C0000F91EF90BF90AF909F908F900895A8EED1
:1031D000B3E0A50194010E94133720E04C2FE3CF08
:1031E000EF92FF920F931F93CF93DF93C82FF62E8A
:1031F000E42E122FD02F0E94220C6E2D8F2D0E94B4
:103200008A0C84E0C89FF0011124E45DFB4F6081CB
:10321000718182819381EE24E39400E222E0412FC8
:103220000E94BE18DD2351F060E08C2FDF91CF911A
:103230001F910F91FF90EF900C94FB0FDF91CF91B6
:103240001F910F91FF90EF900895EF920F93CF93FE
:10325000C82F01E022E0482F67E080E00E94F018CC
:1032600081E00E94220C6C2F84E10E948A0C609104
:10327000300470913104809132049091330428EE2F
:1032800033E040E050E00E948C37CA01B901EE24DF
:10329000E39400E220E044E00E94BE1860E081E098
:1032A0000E94FB0F01E022E04C2F60E282E00E94CE
:1032B000F01800E024E04C2F6DE283E00E94F0184B
:1032C00080E00E94910B87E792E00E94E10401E018
:1032D00023E04C2F6BE384E00E94F01823E04C2F96
:1032E00067E485E00E94F01881E08C0FCF910F9188
:1032F000EF9008952F923F924F925F926F927F923C
:103300008F929F92AF92BF92CF92DF92EF92FF92F5
:103310000F931F93CF93DF93CDB7DEB76A970FB6A6
:10332000F894DEBF0FBECDBFA82E86E0E2E1F1E04B
:10333000DE01119601900D928A95E1F786E0E8E1B1
:10334000F1E0DE01179601900D928A95E1F7ECE22B
:103350008E2EE4E09E2E9E01295F3F4F3B8B2A8BF1
:10336000AE014F5F5F4F588B4F8710E0B12C11308B
:1033700009F470C081E090E052E0598BEA89FB8942
:103380002191FB8BEA8B2C8BEF85F8892191F88BAF
:10339000EF872D8B44E153E05E874D8778EE272E33
:1033A00072E0372E6A2DD12CC12C412C512C3201C8
:1033B000F12C9C01990F440B550B2F8B388F498FA3
:1033C0005A8F8091E7028C151D0409F00CF446C059
:1033D0003FEFC31AD30AED85FE858081811330C08B
:1033E000F394F1E0F60FFE8B8D890E948A0CC601E2
:1033F0000E94D80D84E792E00E94E104F10160810F
:103400007181828193812F89388D498D5A8D0E94D7
:103410008C37CA01B901EE24E39400E229894C8972
:103420000E94BE18F10180819181A281B381480E72
:10343000591E6A1E7B1E61E0812F0E94FB0F6E8960
:103440002D853E852A5E3F4F3E872D8734E0230E33
:10345000311CB7CF88EE93E0198A90CFFF20E1F1BD
:103460002F2D30E050E040E0C301B2010E948C37C4
:10347000F4012083318342835383133051F520912B
:1034800038043091390440913A0450913B04AAE049
:10349000B0E00E94133721E231E040E050E00E94AA
:1034A0008C378091340490913504A0913604B0910A
:1034B0003704880F991FAA1FBB1F820F931FA41FD9
:1034C000B51F8093380490933904A0933A04B093C5
:1034D0003B04BF1408F4BF2C1F5FF4E08F0E911C57
:1034E000163009F044CF8A2D8B0D6A960FB6F894EA
:1034F000DEBF0FBECDBFDF91CF911F910F91FF9027
:10350000EF90DF90CF90BF90AF909F908F907F9083
:103510006F905F904F903F902F9008958F929F9261
:10352000AF92BF92CF92EF920F93962F49015A011B
:10353000C12CE12C00E020E240E060E0890F0E9415
:10354000070E00E222E044E0C501B4010E94BE186B
:1035500080E00F91EF90CF90BF90AF909F908F90B1
:103560000C94DC0B8F929F92AF92BF92EF920F93CD
:10357000CF93C82F4A015B0186EE91E00E94E104DF
:103580006C2F8DE10E948A0C83EE91E00E94E10491
:10359000EE24E39400E222E044E0C501B4010E947D
:1035A000BE18CF910F91EF90BF90AF909F908F90EA
:1035B00008952F923F924F925F926F927F928F92D7
:1035C0009F92AF92BF92CF92DF92EF92FF920F93B2
:1035D0001F93CF93DF9300D01F92CDB7DEB78983BF
:1035E000662E49015A0158E7752E00E010E0C12C03
:1035F000D12C7601202F30E03B832A838091E70293
:103600008150990B281739073CF586E1829FF0011C
:10361000839FF00D1124EC5EFC4F808181111AC054
:103620001F5F802F0E94470B802F0E94730A802FFC
:103630000E945215EA81FB81EE0FFF1FEE0FFF1F64
:10364000E851FD4F80819181A281B381C80ED91EBE
:10365000EA1EFB1E0F5FCECF112309F4AAC0212F53
:1036600030E050E040E0C701B6010E948C371901FC
:103670002A0120922C0430922D0440922E04509264
:103680002F040E94E30A80E00E94B70B0E94130CF3
:103690008AE191E00E94E104E12C00E222E044E0B2
:1036A000C501B4010E94BE1885E191E00E94E104C9
:1036B00080E00E94B70B81E295E00E94E10480E087
:1036C0000E940A0C0E94C80922E043E0C201B10135
:1036D0000E94BE1881E00E94B70B81E191E00E9438
:1036E000E10480E00E94B70B83E00E94750B10E0BC
:1036F00034E1F32E212F30E03B832A838091E702CF
:103700008150990B281739070CF06FCF412F662D88
:1037100089810E94570A8823F1F1812F0E94470B6B
:10372000812F0E94730A812F0E9452156A817B812A
:103730006F5F7F4F072E000C880B990BE12C00E385
:1037400020E042E00E94BE188EE091E00E94E10479
:103750008A819B81880F991F880F991F88519D4FDF
:10376000FC016081718182819381EE24E39400E207
:1037700022E044E00E94BE1880E00E94DC0BFEE0E4
:10378000FF0E22E42F1538F40E94E30A84E10E9420
:10379000750B85E1F82E0E94660881117A9489E301
:1037A00096E00E945204892B69F4772059F01F5F3C
:1037B000A1CF20902C0430902D0440902E045090E6
:1037C0002F0457CF89E396E00E9430044B9719F4F9
:1037D000212C312C2101C201B1010F900F900F90CB
:1037E000DF91CF911F910F91FF90EF90DF90CF90DD
:1037F000BF90AF909F908F907F906F905F904F9011
:103800003F902F9008952F923F924F925F926F9228
:103810007F928F929F92AF92BF92CF92DF92EF9260
:10382000FF920F931F93CF93DF93082FD62E142F61
:10383000322EF12C8F3F19F4FF24F39400E04FE374
:1038400065E0812F0E94A20CC4E1D3E028EE622E35
:1038500022E0722E912C812C402E512C26E1029FC9
:10386000C0011124FC01EC5EFC4F5F018091E70276
:103870008815190409F00CF4C0C09881F501808105
:10388000981719F0FF2009F4ADC01F5F222423947C
:103890004814590419F0D11001C0212C612F85E082
:1038A0000E948A0C31100FC0CC24C394C224E22C95
:1038B00000E020E048E260E081E3880D0E94070E0E
:1038C00081E00E94830B81E0222009F493C00E94D2
:1038D000CA0B83E00E94750BCE0105960E94FB0A7D
:1038E000612F8AE10E948A0C822D0E94DC0BF30179
:1038F000608171818281938100E222E045E00E9433
:10390000361788810E94220C211003C081E00E949A
:10391000B70B82E995E00E94FB0A80E00E940A0C46
:1039200081E00E94B70B0E94C809E881F0E0EE0F29
:10393000FF1FE756FA4F6591749182E995E00E9466
:1039400027360E94FB0A612F89E20E948A0C80E0E0
:103950000E94DC0BE881F0E0EE0FFF1FE952FE4F02
:103960006591749182E995E00E9427360E94FB0AD6
:10397000612F80E30E948A0C80E00E94DC0B6B8147
:103980007C8190E080E000E322E042E00E94361774
:1039900082E995E00E94FB0A612F88E30E948A0C6D
:1039A00080E00E94DC0B2A8130E0A8EEB3E00E94A8
:1039B000553700E220E043E00E94361782E995E0A7
:1039C0000E94FB0A612F8EE30E948A0C89810E946B
:1039D000DC0B89810E946E0B80E00E94CA0B80E0A4
:1039E0000E94DC0BFFEF8F1A9F0A669624E0620E9E
:1039F000711C3CCF0E94B70B6CCF80E00E94B70BCC
:103A00004FE365E081E0810F0E94A20C82E0810F0C
:103A1000DF91CF911F910F91FF90EF90DF90CF90AA
:103A2000BF90AF909F908F907F906F905F904F90DE
:103A30003F902F9008950F93CF93DF93C82F682F57
:103A400085E00E948A0C81E60E946E0E87EC91E070
:103A50000E94E10482E60E946E0E8DEA91E00E94CF
:103A6000E10483E60E946E0E8EE991E00E94E1047B
:103A7000D2E0DC0F43E068E081E08C0F0E94A20CF2
:103A80006D2F85E00E948A0C84E60E946E0E8FE8FE
:103A900091E00E94E10481E00E94CA0B8BE592E074
:103AA0000E94FB0A6D2F8AE20E948A0C85E60E9422
:103AB0006E0E8DE791E00E94E10443E068E083E050
:103AC0008C0F0E94A20C64E06C0F85E00E948A0CAF
:103AD00086E60E946E0E85E691E00E94E10481E098
:103AE0000E94CA0B20916C0230E0A8EEB3E00E9465
:103AF000553700E320E043E00E94361782E995E065
:103B00000E94FB0A85E00E94BE0987E60E946E0EB5
:103B10008FE491E00E94E10485E08C0FDF91CF916A
:103B20000F9108954F925F926F927F92AF92BF92E2
:103B3000CF92DF92EF92FF920F931F93CF93DF9379
:103B40005C01F62ED42E28013901CE2D6AE071E0F9
:103B500085EC95E00E942736EE20E1F18CE280931F
:103B6000C805C33051F148F4C13091F060E071E014
:103B7000C23081F0C43071F512C0C53031F1C630A9
:103B8000C9F766EF70E089EC95E00E94273622C005
:103B900065E071E089EC95E00E942736C8E000E31B
:103BA00022E041E0C301B2010E9436178C2F90E061
:103BB00062E975E08B539A4F0BC06AEF70E089ECB5
:103BC00095E00E942736C9E0EACFB50189EC95E07F
:103BD0000E94E237E12C86E1C82ECF9CE00111243F
:103BE000CC5EDC4F0E2D10E08091E7028150990BE6
:103BF000081719078CF54E2D6D2D8F2D0E94570A31
:103C0000882341F1E881F0E0E051FF4FE491EE2399
:103C100009F10E94E30AC09EC001C19E900D1124CB
:103C20008C010C5E1C4FF80182810E946E0B8BE4AC
:103C300091E00E94FB0A85EC95E00E94920A0E94A6
:103C4000E30A40E065EC75E0F80182810E94060B12
:103C5000F8011182E394C6CFDF91CF911F910F91AC
:103C6000FF90EF90DF90CF90BF90AF907F906F90DC
:103C70005F904F900895CF92DF92EF92FF920F9353
:103C8000CF93DF93C0907602D0907702E0907802D5
:103C9000F0907902C701B6010E945318C701B6011E
:103CA00020E831E541E050E00E94F136A8EEB3E0B3
:103CB0000E94133700E220E043E00E94361749E0FB
:103CC00050E062E872E087E892E00E94BE37C2E806
:103CD000D2E083E0E2E9F5E0DE0101900D928A9501
:103CE000E1F784E68B8380E28C83DF91CF910F91A3
:103CF000FF90EF90DF90CF900C94020B0F9361E058
:103D000083E40E948A0C0E94CB090E943B1E68E15A
:103D10008DE30E948A0C409102015091030104E05E
:103D20002EE260910401809105010E94011882E851
:103D300092E00E94FB0A0E94C8094091700250E084
:103D400002E02AE360916F0280916E020E940118E6
:103D500082E892E00E94FB0A8FE195E00E94E10474
:103D600082E395E00F910C94E1040F931F93CF939E
:103D7000DF93D82FC62F8A010E94CB0968E181E02A
:103D80000E948A0CDF3F49F589E20E94910B84E092
:103D90000E94BE09C8010E94FB0A80E00E94CA0B73
:103DA00081E30E94910B8BE195E00E94E1040E9467
:103DB0003B1EC11106C0E80109900020E9F72197D8
:103DC000C01B88E28C1B0E94BE0982E395E0DF9154
:103DD000CF911F910F910C94E10481E00E94CA0BD6
:103DE000D6CFCF93DF930E941B0C0E94CB0985E6B0
:103DF00091E00E948C0EC82F82E395E00E94E104BE
:103E0000D2E0DC0F61E06C0F83E00E948A0C8D2F02
:103E10000E94BB0CC82F49E751E060E080E00E949F
:103E2000B51E8C2F0E947A194CE463E00E94A20C0C
:103E30000E9425194CE463E00E94A20CC82F81E087
:103E40000E94CA0BC0933102109230024CE463E02E
:103E500081E08C0FDF91CF910C94A20C6F927F9236
:103E60008F929F92BF92CF92DF92EF92FF920F9329
:103E70001F93CF93DF93CDB7DEB7C056D1090FB6EE
:103E8000F894DEBF0FBECDBFB82E962E8EE891E01F
:103E90000E948C0E182F61E0680F83E00E948A0C4C
:103EA00082E0810F0E94BB0C182F4CE463E081E09C
:103EB000810F0E94A20C109331021092300262E333
:103EC00072E0FE01319680E0DB012D913D91BD0154
:103ED00031832083843048F41E964D915C919F017C
:103EE000205C3F4FD9014D935C938F5F38968830AB
:103EF00059F7FE01319680E0D12CC12CB81619F08B
:103F0000BFEFBB1209C0208131812115310521F09D
:103F1000C216D30608F469018F5F38968C3071F7AA
:103F2000FE01319640E0B41619F02FEFB2125BC0DB
:103F3000208131812115310509F455C051E09516D4
:103F400009F4D8C0C601B9010E9464378B01261755
:103F5000370708F48901C901B8010E9464377B0161
:103F6000609FC001619F900D709F900D112482177A
:103F7000930718F48FEFE81AF80AE09EC001E19E5B
:103F8000900DF09E900D11242817390738F4011573
:103F9000110509F4B9C001501109DDCFF582E482A1
:103FA000C601821B930BB8010E9464377783668336
:103FB000E60EF71EE09EC001E19E900DF09E900D72
:103FC0001124D601A81BB90BCD0196958795938333
:103FD000828382819381892B31F4868197819695A2
:103FE0008795938382834F5F38964C3009F09BCF3F
:103FF000BFEFCB1ADB0A912C812C82E8682E82E07D
:10400000782EC114D10409F45FC00E946608882389
:1040100009F44FC0E1E0CE1AD108B60190E080E08B
:104020000E9453186DE971E08AE892E00E94E2373D
:10403000D3010D900020E9F7BD016358724042E8BA
:1040400052E080E00E94B51E8E010F5F1F4FF12CE1
:10405000BF1419F0BFEFBB121AC0F8018081918123
:10406000892BA9F0828193818816990680F024819A
:104070003581A401481B590BCA0166817781620F03
:10408000731F0E94643761E08217930708F060E0B5
:1040900082E08F0D0E946C03F394085F1F4F5CE079
:1040A000F512D6CF8FEF881A980A0E947E1E0E94C2
:1040B000AC0E89E396E00E945204892B09F4A1CF4B
:1040C00089E396E00E943004C05ADF4F0FB6F8949F
:1040D000DEBF0FBECDBFDF91CF911F910F91FF903B
:1040E000EF90DF90CF90BF909F908F907F906F90D8
:1040F0000C94870A35832483C601821B930B978314
:1041000086831382128265CF0E94B937CF92DF92E5
:10411000EF92FF920F931F93CF93DF93D62FF42E3E
:10412000833609F46AC09CF4813609F460C00CF04F
:104130009BC08F5F823008F45EC080E0DF91CF913A
:104140001F910F91FF90EF90DF90CF9008958536EB
:1041500009F45EC00CF457C0863609F45DC087369A
:1041600061F7C0916C0294E1C92E93E0D92E10E062
:1041700000E08091E7028150990B081719070CF0B5
:104180006AC080EB8C0F883008F463C0C83609F42D
:10419000C9E6402F6F2D8D2F0E94570A882309F101
:1041A00062ED71E082E995E00E9427364AE062E81C
:1041B00072E08C2F90E00E945A3662E872E086E945
:1041C00095E00E94E23740E062E975E0F601828105
:1041D0000E94060BCF5F6CE271E080E090E00E94ED
:1041E000BF030F5F1F4FF6E1CF0ED11CC2CF642F6C
:1041F0008D2F0E94211081E0A1CF20E084E491E086
:104200000E94D310F8CF8BE592E00E945212F3CFB8
:1042100021E08BE592E0F4CF60916C0270E090E0D9
:1042200080E040E00E94B81760936C022091E702A2
:104230008FE790E0821B91096817190631F02CF086
:104240008FE7821B80936C02D6CF6032A0F680E2AB
:10425000F9CFC8E59ECF68EE73E080E090E00E9461
:10426000BF030E949815C7CF85E0E82E00E010E05C
:10427000980186EA91E00E94921DBDCFFF920F93B4
:104280001F93CF93DF93EC01F62E08811981C801AB
:104290000E94CB36F81621F06F2DC8010E94D3364C
:1042A000CE01DF91CF911F910F91FF900895EF9272
:1042B000FF920F931F93CF93DF9300D0CDB7DEB75C
:1042C0008BEDE82E82E0F82E05EE13E01A830983C9
:1042D000F70161917F01CE0101960E943E210F5F9F
:1042E0001F4F013FF3E01F0789F70F900F90DF91F9
:1042F000CF911F910F91FF90EF900895EF92FF9251
:104300000F931F93CF93DF9300D0CDB7DEB729E291
:10431000AC01249FC001259F900D112402E312E0FF
:10432000FC01E15FFE4F7F01C701800F911F9A835F
:104330008983F80161918F01CE0101960E943E218F
:10434000F2E00B351F0781F70F900F90DF91CF91AF
:104350001F910F91FF90EF900895EF92FF920F93AE
:104360001F93CF93DF9300D0CDB7DEB725ECAC0120
:10437000249FC001259F900D112404EA14E0FC0144
:10438000E25BF3407F01C701800F911F9A8389830D
:10439000F80161918F01CE0101960E943E21F5E066
:1043A00009361F0781F70F900F90DF91CF911F9172
:1043B0000F91FF90EF900895EF92FF920F931F934C
:1043C000CF93DF9300D0CDB7DEB784E1E82E83E052
:1043D000F82E10E000E01A830983F70161917F0154
:1043E000CE0101960E943E210F5F1F4F023F110533
:1043F00091F70F900F90DF91CF911F910F91FF9048
:10440000EF9008952F923F924F925F926F927F921A
:104410008F929F92AF92BF92CF92DF92EF92FF92D4
:104420000F931F93CF93DF93CDB7DEB7E1970FB60E
:10443000F894DEBF0FBECDBF85E691E00E948C0EE2
:1044400020E0482F61E08FEF0E94031CC82E082E49
:10445000000CDD08682F85E00E948A0C81E60E942E
:104460006E0E81EE94E00E94E10482E60E946E0EE0
:1044700087ED94E00E94E10483E60E946E0E8FECCB
:1044800094E00E94E10484E60E946E0E87EC94E0C2
:104490000E94E10485E60E946E0E8EEB94E00E947D
:1044A000E1046091E10270E090E080E0EE24E394AA
:1044B00000E320E043E00E94BE1843E068E081E0B2
:1044C0008C0D0E94A20CB6016E5F7F4F85E00E94AA
:1044D0008A0C86E60E946E0E85EB94E00E94E10451
:1044E00081E00E94CA0B6091DC027091DD02809134
:1044F000DE029091DF024AE00E949F0A80E00E9463
:10450000CA0B83E00E94BE0987E60E946E0E81EB13
:1045100094E00E94E10481E00E94B70B88EA94E0F5
:104520000E94E10480E00E94B70B88E60E946E0EB4
:104530008CE994E00E94E1046091E20241E06111A3
:1045400040E089E60E947D0E82E994E00E94E10449
:1045500043E068E083E08C0D0E94A20C182F682FC6
:1045600085E00E948A0C8AE60E946E0E87E894E03D
:104570000E94E1048BE60E946E0E8AE794E00E949E
:10458000E1048CE60E946E0E8EE694E00E94E10447
:104590008DE60E946E0E84E694E00E94E10443E002
:1045A00068E081E0810F0E94A20C62E0610F85E06B
:1045B0000E948A0C8EE60E946E0E84E594E00E94B2
:1045C000E10482E20E94FE0B88E595E00E94FB0A6E
:1045D00083E00E94BE098CEA91E00E94650F8EE3A1
:1045E00094E00E94E10482E20E94FE0B8091E402CA
:1045F00090E001960E94D80D80E00E940A0C0E9473
:10460000F30A6091E702615081E70E946509898B96
:10461000873609F4EFC40CF046C0823609F46FC146
:10462000B4F48F3F34F018160CF0EBC1813609F466
:104630005DC1898981538A8B6CE773E08BE592E0D9
:104640000E94273681E280936C02712CE5C429898F
:10465000243609F4A3C10CF456C1253609F4ECC183
:10466000263639F76091DC027091DD028091DE021E
:104670009091DF0240E00E94B8176093DC027093D3
:10468000DD028093DE029093DF0220EB34E040E015
:1046900050E00E94F136672B682B692B09F0D9C1D5
:1046A0000E945721C9CE39893C3609F472C20CF0F8
:1046B000AFC0393609F4D0C10CF4A5C43A3609F4B8
:1046C000BAC03B3609F0B5CF8FEB91E00E948C0E5B
:1046D000A82E61E0680F8CE00E948A0C61E080E007
:1046E0000E94F30B8BEA92E00E94E10462E081E019
:1046F0000E94F30B84EB92E00E94E1044CE463E03F
:1047000082E08A0D0E94A20C54E0952E9A0C63E080
:104710006A0D83E00E948A0C69E4E62E63E0F62EBF
:1047200000EE14E078E2C72E75E0D72EB12C81E0C0
:104730000E94CA0BF7016591749182E995E00E948D
:10474000273669E00E94530B80E00E94DC0BD80101
:104750002D913D914D915D918D016B2D81E60E94D2
:104760008E1AF80124893589468957896B2D87E689
:104770000E948E1AD8019C962D913D914D915C918D
:104780009F976B2D8DE60E948E1AF6012191319133
:10479000419151916F016B2D83E70E948E1AD601D2
:1047A00054962D913D914D915C9157976B2D81E4DD
:1047B0000E948E1A692D6B0D83E00E948A0CB394BF
:1047C000B2E0EB0EF11CE6E0BE12B1CF8AE08A0D3A
:1047D0000E947C0F0E94F30A63E088E70E9465094B
:1047E00018160CF029CE81360CF45DC187360CF01A
:1047F00044C1F4E08F02C0011124845A9C4F0E94EE
:10480000EF17813009F068C18091E40290E061C146
:1048100089898E3609F4E4C30CF4ACC282370CF0FB
:1048200008CF89898F568093E40290E00E94FD11A1
:104830000E945721E2C081E280936C026CE773E032
:104840008BE592E00E94273682EB91E00E948C0E6D
:1048500021E0482F61E08FEF0E94031C0E941B1D86
:10486000182F43E068E00E94A20C61E0610F85E030
:104870000E948A0C6091DB0241E0611140E088E611
:104880000E947D0E81E992E00E94E10480E00E9496
:10489000B70B4091DB0261E0411160E089E60E94C4
:1048A0007D0E8BE792E00E94E10480E00E94B70B4E
:1048B0000E94F30A6FEF89E60E946509182F42E013
:1048C00060E00E948620811104C0183631F019364C
:1048D00051F011160CF4B8CFAFCD81E08093DB021C
:1048E0000E945721B1CF1092DB02FACF0E941B0C1D
:1048F00061E081E00E948A0C0E9498159DCDF0E055
:10490000E0E0099599CD60910804709109048091C7
:104910000A0490910B04188A1D861A821982B12C00
:10492000A12CD12CC12CF12CE12C8E010F5F1F4F3B
:104930009E01235F3F4FAE01405F5F4F0E945007D3
:1049400049815A8104E02EE26D8588890E94011810
:1049500082E892E00E9452126CE871E082E995E0F0
:104960000E942E3610E000E0009709F497C703304C
:10497000110509F493C70E94003697FD8FC70115F2
:10498000110519F480970CF089C76CE871E090E08C
:1049900080E00E942E360F5F1F4FE6CF60E070E090
:1049A000CB01E0E7AE2EE2E0BE2EFFE6CF2EF2E036
:1049B000DF2EAEE6EA2EA2E0FA2E02E011E024E0BD
:1049C00031E045E051E00E945007409102015091D2
:1049D0000301E090700200916F0220916E026091DD
:1049E0000401809105010E94DC0760930804709324
:1049F000090480930A0490930B04B9891B160CF4E4
:104A00001BCD0E94F11EE1960FB6F894DEBF0FBEDB
:104A1000CDBFDF91CF911F910F91FF90EF90DF906D
:104A2000CF90BF90AF909F908F907F906F905F904E
:104A30004F903F902F9008956091E10270E090E0D8
:104A400080E040E00E94B8176093E1026F3F09F0F8
:104A500027CE0E948E11F0CC81E09091E20291115C
:104A600080E08093E2020E9457218091E202882335
:104A700009F4E2CC0E94DC21DFCC8D362CF424E05A
:104A80008202C0011124B9CE83372CF434E08302B2
:104A9000C0011124B2CE89370CF016CEA4E08A02F0
:104AA000C0011124AACE813454F087340CF00CCE0E
:104AB000B4E08B02C0011124845C9B4FA0CE8133F3
:104AC0000CF410C784330CF0FFCD082E000C990BAA
:104AD000C1970E94AD21F8CD18160CF4F5CDACCCE1
:104AE000F701EC55FB4F6081718140E081E68A0D52
:104AF0000E948C18A2C0A12EEA2CF12CF701EE0F17
:104B0000FF1FE053FB4F6081718141E087E78A0D11
:104B10000E948C18F701EE0FFF1FE852FB4F6081D7
:104B2000718140E081E48A0D0E948C180E94ED0B97
:104B30006B2D610F83E00E948A0C1F5F183009F013
:104B400054C08CE0800F0E947C0F0E94F30A63E047
:104B50008AE70E94650918160CF06ECC81360CF4B9
:104B60008FC0873684F4880F990B8E519C4F0E941A
:104B7000A918813009F09BC08091E40290E094C0B4
:104B8000B2E0AB2EB9CF8F3674F3873764F38B372F
:104B900054F38EEC91E00E948C0E082F61E0680FB8
:104BA0008CE00E948A0C81E00E94DC0B86EE92E091
:104BB0000E94E10462E080E00E94F30B84EB92E04B
:104BC0000E94E1044CE463E082E0800F0E94A20CAA
:104BD00034E0B32EB00E63E0600F83E00E948A0CD5
:104BE00040EBC42E44E0D42E10E0AA24A39412304B
:104BF00031F02EEFA22EA10E133008F4A12E81E089
:104C00000E94CA0BEA2CF12CEE0CFF1CF701E75BAB
:104C1000FC4F6591749182E995E00E94273669E026
:104C20000E94530B0E94ED0BE1E0AE1259CF1230FF
:104C300008F456CF8BE00E94BE090E94ED0BD6010E
:104C40006D917D916D0141E087E6810F0E948C1886
:104C5000F6016685778541E08FE6810F0E948C180A
:104C6000123008F448CF143009F48ACF83E0A82E1C
:104C7000173009F441CF6AE08BE00E94F30B56CF66
:104C8000813444F085340CF084CF880F990B8A5A14
:104C90009B4F6DCF81330CF42BC684330CF079CF4E
:104CA000082E000C990BC1970E94AD2172CF1816E7
:104CB0000CF46FCFC1CBB2E0FB2EA6C0BA89B230E4
:104CC00028F460E08FE00E94F30BF0C061E0F20195
:104CD00080819181892B09F060E0872D0E945F0E11
:104CE000AB89BC896D917C9190E080E00E94531863
:104CF0000E94020BEE24E394EB89FC898081918170
:104D0000892B09F0E12CCE2C00E020E048E261E0A4
:104D10008B2D0E94070E80E00E94DC0B113009F001
:104D2000C5C0F39471C08136ECF089366CF4880FFD
:104D3000990B80599E4F0E94A918813009F04DC1EE
:104D40008091E50290E046C18D368CF38D340CF4F1
:104D500022C160E08D3621F08E3609F01FC161E07E
:104D60008FEF06C08134C4F3893484F761E0815445
:104D70000E942E1F8EED91E00E948C0E182F61E094
:104D8000680F85E00E948A0CC12CEE24E39400E0B9
:104D900020E248E260E08FE60E94070E82E20E9475
:104DA000910B60E18AE492E00E94530B80E00E9444
:104DB000910B85E593E00E94E10453E0A52EA10E3E
:104DC0004AE365E082E0810F0E94A20C69E4262E8E
:104DD00063E0362EFDEFFA8B912C812CF12C10E044
:104DE000812F153009F483E0282F30E009E6702E7A
:104DF000780E99E4B92EB80E220F331FC9018E5BCD
:104E00009D4F2C019C8B8B8BA98AA394698988E088
:104E10000E948A0C81E00E94CA0BF1016591749195
:104E200082E995E00E94273661E10E94530B81E000
:104E30000E94DC0BF401EF0DF11DEE0FFF1FEE5C85
:104E4000FD4FC080D1809F2D910F9F8BEE24E39466
:104E5000C114D10409F0E12C6E2D8F898F590E9465
:104E60005F0EB60190E080E00E9453180E94020B92
:104E7000CE2C00E020E048E261E08F898F5B0E9449
:104E8000070E81E00E94DC0B113009F017CF8FEF85
:104E90008F0D823008F012CF60E08FE00E94F30B9C
:104EA000A1E0FA1609F407CFE2E0FE2E1F5FFFEF44
:104EB0008F1A9F0A2A892F5F2A8B32E0230E311C1A
:104EC000163009F08DCF4AE365E08A2D0E94A20CCE
:104ED00069896D5F85E00E948A0C8EEE91E00E94E8
:104EE000650F80E493E00E94E10484EF91E00E946A
:104EF000650F82E393E00E94E1048DE60E946E0E4E
:104F000088E293E00E94E1048EE60E946E0E8CE13E
:104F100093E00E94E10443E068E089898C5F0E948D
:104F2000A20C69896B5F85E00E948A0C8FE60E9463
:104F30006E0E80E193E00E94E1048AEF91E00E940E
:104F4000650F82E093E00E94E10482E20E94910BEF
:104F500081E00E94CA0B8091E50290E001960E94D8
:104F6000D80D80E00E94910B83E00E94BE0980E092
:104F700092E00E94650F81EF92E00E94E1040E949E
:104F8000F30A68E08FE60E94650918160CF4CBCE90
:104F90000E94870A51CA61E08354EACE81330CF43F
:104FA000ABC485334CF481538093E50290E00E94BA
:104FB000E0110E945721DECE893344F08F3609F08C
:104FC000D9CE8AE492E00E945212BACE082E000C8A
:104FD000990BC5970E947E21CDCE1816CCF6CACE6D
:104FE00088E595E00E9452128091E40290E00E94D0
:104FF000AD2122CA8091E0020E94CF098093E00295
:10500000809300014DCB8091E6020E94CF098093EE
:10501000E60246CB7724739486E092E00E948C0EE1
:1050200020E0482F672D8A890E94031C8F5F0E9411
:105030001B1D01E0080F43E068E00E94A20C602FF6
:1050400085E00E948A0C88E60E946E0E8CE294E055
:105050000E94E104602F8EE10E948A0C11E0172566
:10506000472D612F89E60E947D0E8EE194E00E941B
:10507000E104602F83E30E948A0C412F672D8AE6AA
:105080000E947D0E83E194E00E94E10480E00E9492
:10509000CA0B0E94F30A69E08AE60E946509082F9C
:1050A000472D6A890E948620182F8111F3C3093683
:1050B00009F4CBCA0A3609F4ADCF083609F0E7C3C4
:1050C00091E09CA3A1E0ABA3B1E0BEA7E1E0EDA716
:1050D000F1E0FAA321E02DA331E03CA71D8E1E8E46
:1050E0001F8E18A21F8A188E198E1A8E812C912C51
:1050F0005401212C312C2101A6E1BA89AB9FC001BA
:105100001124FC01EC5EFC4FFC8FEB8F05C08D8CF5
:105110009E8CAF8CB8A011E066E074E085EC95E061
:105120000E942736AB8DBC8D8C91823009F4B6C0BD
:10513000C8F5882309F45CC0813009F483C085EC8C
:1051400095E00E948C0ED82E1111FCC0672D8A8923
:105150000E942110AB8DBC8D8C918150823008F063
:10516000F1C0E12EF12C8091E7028150990BE816F5
:10517000F9060CF0E7C0412F672D8A890E94570A73
:10518000882371F0B6E1BE9DF001BF9DF00D1124A2
:10519000EC5EFC4F40E06BE172E082810E94060B06
:1051A0001F5FDFCF833009F4A2C0843041F66BEE7D
:1051B00073E081ED95E00E9427361111C0CF9091E8
:1051C0003C049D8FA0913D04AE8FB0913E04BF8FF3
:1051D000E0913F04E8A31CA21BA21EA61DA61AA2D2
:1051E0001F8A188E198E1A8E812C912C540126C07C
:1051F00060E074E081ED95E00E94273611119FCFA9
:10520000B0912C04BD8FE0912D04EE8FF0912E040F
:10521000FF8F20912F0428A31CA21BA21AA21DA25B
:1052200080EA96E8A1E0B0E08F8B988FA98FBA8FC3
:1052300078E0872E72E5972EA12CB12C212C312CF1
:1052400021017DCF6BEF73E081ED95E00E94273661
:10525000111175CF909130049D8FA0913104AE8FC4
:10526000B0913204BF8FE0913304E8A31CA688E814
:105270009FE8A5E1B0E08F8B988FA98FBA8F58E88F
:10528000852E5FE8952E55E1A52EB12C60E2262EE5
:1052900068E4362E44244394512C51CF66EF73E0DA
:1052A00081ED95E00E942736111149CF9091340489
:1052B0009D8FA0913504AE8FB0913604BF8FE091E1
:1052C0003704E8A380E197E2A0E0B0E08F8B988FED
:1052D000A98FBA8F38E5832E3BE1932EA12CB12CF8
:1052E00040EA242E4FE0342E412C512C28CF60EF81
:1052F00073E081ED95E00E942736111120CF909147
:1053000038049D8FA0913904AE8FB0913A04BF8FBD
:10531000E0913B04E8A31CA21BA21AA21DA28FEFDE
:105320009FEFDC018F8B988FA98FBA8F98EE892E13
:105330009EE6992E93E0A92EB12C22242A94322C99
:105340002101FDCE21E04D2D672D8A890E94031C8D
:1053500011E0180F682F85E00E948A0CECA5E0FB95
:1053600060F8FDA1F0FB61F82AA120FB62F83DA5E1
:1053700030FB63F88EA580FB64F89BA190FB65F879
:10538000ACA1A0FB66F8B62DB170DB2E60FE07C0A5
:1053900081E60E946E0E88ED93E00E94E104E62D06
:1053A000E270EE2E61FE07C082E60E946E0E85EC72
:1053B00093E00E94E104F62DF470FF2E62FE07C018
:1053C00083E60E946E0E87EB93E00E94E10443E0C7
:1053D00068E0812F0E94A20C082F182F63FE12C0D4
:1053E000682F85E00E948A0C84E60E946E0E88EA8F
:1053F00093E00E94E10411E0100FB501A401802F99
:105400000E94B21A64FE13C0612F85E00E948A0CCC
:1054100085E60E946E0E89E993E00E94E1044D8DBD
:105420005E8D6F8D78A1812F1F5F0E94B21A65FE7D
:1054300011C0612F85E00E948A0C86E60E946E0EE4
:1054400081E993E00E94E104B201A101812F1F5F75
:105450000E94B21A66FE12C0612F85E00E948A0C7B
:1054600087E60E946E0E88E893E00E94E1044F896F
:10547000588D698D7A8D812F0E94B21A0E94F30A8D
:1054800060E087E60E9465098FA71D861E861F863D
:1054900019821A821B821C821D821E821F8218861C
:1054A00019861A861B861C86E82FE156E73008F01D
:1054B000E9C10E2E000CFF0BE05AF54D0C94AB37F2
:1054C000672A292B802BF72B8728FF2B072CDD2021
:1054D00009F421CEA5019401672D8A890E94D91A69
:1054E0006B017C01C114D104E104F10409F413CE71
:1054F000AB8DBC8D8C91843009F495C1823009F05C
:105500009FC08D87C501B4012CE432E040E050E03B
:105510000E948C37C701B601685A7146810991090A
:105520000E94E13628E13CEF4FEF5FEF0E948C379D
:10553000280D391D4A1D5B1D29833A834B835C83EB
:10554000B1E0BB8B09811A812B813C81ED84472D11
:105550006A8984E491E00E94921DB1E0B9A3E9A1B7
:10556000FB89EF1708F07FC10E2F10E09801220F82
:10557000331F220F331F39AB28AB81E090E08C0F33
:105580009D1F820F931F9BA78AA7DC01CD90DD9002
:10559000ED90FC90A7019601672D8A890E94D91A87
:1055A0006EA37FA388A799A7672B682B692B09F4A3
:1055B00057C1EB8DFC8D8081823009F037C1C70166
:1055C000B6012CE432E040E050E00E948C376EA13E
:1055D0007FA188A599A5685A7146810991090E9401
:1055E000E13628E13CEF4FEF5FEF0E948C37DA01A4
:1055F000C9018C0D9D1DAE1DBF1DEAA5FBA58083B5
:105600009183A283B383ADE0B0E0AC0FBD1FA00FC8
:10561000B11FE1E0F0E0EC0FFD1F28A939A9E20F6E
:10562000F31F0081118122813381EC90472D6A891B
:1056300084E491E00E94921D89A18F5F89A38FCF9E
:1056400084E08D8789829A82AB82BC82E1E0EB8B19
:1056500079CFEE2009F45FCDAB8DBC8D8C9120E02D
:1056600030E0A901813011F0A5019401672D8A89EC
:105670000E94D91A6B017C01C114D104E104F10428
:1056800009F449CDEB8DFC8D8081813051F184305E
:1056900099F112E01D87C501B4012CE432E040E02D
:1056A00050E00E948C37C701B601685A71468109E3
:1056B00091090E94E13628E13CEF4FEF5FEF0E9435
:1056C0008C37280D391D4A1D5B1D29833A834B8376
:1056D0005C831E872D823E824F82588632E03B8B50
:1056E00031CF86E08D8784E08E878D829E82AF8267
:1056F000B886F2E0FB8B26CF8E8722E02B8B22CF61
:10570000FF2009F408CDAB8DBC8D8C9120E030E0FA
:10571000A901813011F0A5019401672D8A890E94A9
:10572000D91A6B017C01DC01CB01885A9146A10991
:10573000B1098B8B9C8BAD8BBE8BAB8DBC8D8C9153
:10574000813089F586E08D8714E01E87C201B101A2
:105750002DE230E040E050E00E948C376B897C897C
:105760008D899E890E94E13628EE33E040E050E0CA
:105770000E948C37220D331D441D551D2D833E8301
:105780004F8358871F878F89988DA98DBA8D8987F8
:105790009A87AB87BC87CD28CE28CF2809F4BBCC0D
:1057A00093E09B8BCFCE12E01D87C501B4012CE4A2
:1057B00032E040E050E00E948C376B897C898D8913
:1057C0009E890E94E13628E13CEF4FEF5FEF0E9497
:1057D0008C37280D391D4A1D5B1D29833A834B8365
:1057E0005C831E872D823E824F825886CBCF41E05C
:1057F000C501B4010E94B8174B015C018CCC41E09B
:10580000C201B1010E94B8171B012C0184CC41E0F8
:105810006F89788D898D9A8D0E94B8176F8B788FDC
:10582000898F9A8F78CCA1E0AB8B8CCE813009F038
:10583000EACEC701B6012DE230E040E050E00E9420
:105840008C376EA17FA188A599A5685A71468109F8
:1058500091090E94E13628EE33E040E050E0C5CEE9
:105860003B8939A3E9CE1091E7020E9498158091F7
:10587000E702811710F40E9498158091E2028111CD
:105880000E94DC219FA519160CF0C6CB44CCAFECCE
:10589000A00FAA8B10160CF4BFCBAFC84091020129
:1058A00050910301E12C00E020E06091040180911F
:1058B00005010E94DC076B017C0160910804709176
:1058C000090480910A0490910B040E94531882E805
:1058D00092E00E9452120E94AA0F6C0D7D1D8E1D37
:1058E0009F1D5FC8813011F00C9464230C94042434
:1058F000813009F04EC940C9813009F421CA3ACA41
:105900001F920F920FB60F9211242F933F938F93F4
:105910009F93AF93BF9380918A0590918B05A0913F
:105920008C05B0918D053091890523E0230F2D372B
:1059300058F50196A11DB11D2093890580938A0514
:1059400090938B05A0938C05B0938D0580918E0567
:1059500090918F05A0919005B09191050196A11DA0
:10596000B11D80938E0590938F05A0939005B09301
:105970009105BF91AF919F918F913F912F910F9082
:105980000FBE0F901F90189526E8230F0296A11DB9
:10599000B11DD2CF1F920F920FB60F9211242F93E9
:1059A0003F934F935F936F937F938F939F93AF93A7
:1059B000BF93EF93FF9389E396E00E947204FF91F7
:1059C000EF91BF91AF919F918F917F916F915F9177
:1059D0004F913F912F910F900FBE0F901F901895F0
:1059E0001F920F920FB60F9211242F938F939F93B4
:1059F000EF93FF93E0914906F0914A068081E09190
:105A00004F06F091500682FD1BC090818091520696
:105A10008F5F8F7320915306821741F0E0915206F9
:105A2000F0E0E75CF94F958F80935206FF91EF917C
:105A30009F918F912F910F900FBE0F901F901895EF
:105A40008081F4CF1F920F920FB60F9211242F93E3
:105A50003F934F935F936F937F938F939F93AF93F6
:105A6000BF93EF93FF938091B900887F803609F44C
:105A70004AC0F0F5883209F4A7C018F5803109F45E
:105A80009BC0B8F4882309F4F9C0883009F494C0A5
:105A9000FF91EF91BF91AF919F918F917F916F9106
:105AA0005F914F913F912F910F900FBE0F901F90DC
:105AB0001895883109F488C0803251F780930D061B
:105AC00014C0803409F49DC040F48033B9F38833A6
:105AD000F9F680930D0685ECB0C0803509F485C0D9
