:100000000C94E9020C9411030C9411030C94110349
:100010000C9411030C9411030C9411030C94110310
:100020000C9411030C9411030C9411030C94110300
:100030000C9411030C9411030C9411030C941103F0
:100040000C94582C0C9411030C94C82C0C94A22CD6
:100050000C9411030C9411030C9411030C941103D0
:100060000C94FA2C0C9411034C564C00442E4F2E39
:10007000004F525000525444004C6576656C004F5E
:1000800032005265646F780045430054656D702EF0
:100090000025006D5600704800C2B55300C2B04341
:1000A0000058025802840384035802000001010131
:1000B0000102014E616D652C004F2C252C31004F43
:1000C0002C6D672C30004B2C312E30004F2C5347B9
:1000D0002C30004F2C532C30004F2C5444532C30D8
:1000E000004F2C45432C3100532C63004C2C310025
:1000F00001010101010064727900686967682C00E0
:100100006D69642C006C6F772C0043616C003A20A1
:1001100000C2B043005D20403A005B00496E742E7F
:10012000204C6576656C202D2031004552520056DA
:10013000616C3A200045525200205600537461749D
:1001400075733A2000536C61766520403A20004474
:100150006F20284175746F2D294164647265737333
:100160002865732900283173742920284175746F1C
:100170002D2941646472657373203D2000446F2013
:10018000284175746F2D294E616D652873290028EB
:100190004175746F2D294E616D65203D20004465C9
:1001A0006C657465204E616D6528732900436C652C
:1001B00061722043616C6962726174696F6E287349
:1001C00029202020202000526573657420202020E3
:1001D00020004932432C0075008800960071006CA5
:1001E0000068003D20002D50742E200020746F20E8
:1001F00053657474696E672D4E6F2E205B312D33FD
:100200005D00290020280020436F70792046554C5E
:100210004C2053455454494E4720007C2020205404
:10022000656D702E202020207C202020204543203A
:10023000202020207C2020202020704820202020EA
:10024000207C202020205265646F78202020207C94
:10025000202020204F3220202020207C2020204CD5
:100260006576656C20207C003C007E003C007E00B2
:100270003E003E003A200072483200426F6F742008
:10028000466F72205465726D696E616C205573659E
:1002900000426F6F74204173204D6F6442555320AC
:1002A000536C6176652020202020004661696C53E4
:1002B00061666500746F6F4C6F772020207C202072
:1002C00020204C6F7720202020207C2020202048D8
:1002D000696768202020207C2020746F6F48696740
:1002E000682020207C0044656C617954696D6573D9
:1002F0000020436F7079546F536574205B312D3447
:100300005D002053656C656374536574203D200067
:10031000456469744E616D652020200052756E4100
:100320006C6C43656E742E0052756E414C4C2020EF
:1003300020002052756E53696E676C652020200086
:100340002045646974202020008B0088009600827C
:10035000007F007900207C202020202020204C4F8E
:1003600057202020202020207C20202020202048D2
:10037000494748202020202020207C002D44756DF6
:100380006D794E616D652D0053657420486967680D
:1003900000536574204C6F770053657420415647B5
:1003A000204173204D6964005365742053696E6762
:1003B0006C652F4D696400446F20332D50742E20DE
:1003C00043616C2E00446F20322D50742E20436107
:1003D0006C2E202020202000446F20312D50742EC0
:1003E0002043616C2E2020202020004F32202D0041
:1003F0004F5250202D007048202D004543202D00E5
:10040000525444202D002D2043616C696272617446
:1004100065200053656C65637420414C4C00536546
:100420006C6563742053696E676C650043616C6929
:1004300062726174696F6E2873292E2E2E0020530C
:10044000656C2E53657474696E67205B312D335D66
:10045000203D200053657474696E672D4E616D6593
:10046000203D20004D616E75616C2E2E2E0054696A
:100470006D65732E2E2E2020200056616C756573DD
:100480002E2E2E202020004D6F72652E2E2E202025
:100490002000417344656661756C74004B65794357
:1004A0006F6C6F7220202000436F6C6F72202020D1
:1004B0000044696D005370656564203D200041640F
:1004C00064722E203D200054696D65202020004478
:1004D000617465202020005265426F6F74202020D7
:1004E0000052655363616E2020200048003B001BD2
:1004F0005B001B5B324A006D001B5B001B5B316DB8
:10050000001B5B32326D0044001B5B0043001B5B31
:10051000001B5B376D001B5B346D0020402000200A
:10052000001B5B32346D003A002900207C20001B48
:1005300037001B5B32376D001B38003E3E20000049
:10054000000000240027002A0000000000250028E9
:10055000002B0000000000230026002900040404F2
:10056000040404040402020202020203030303035C
:100570000301020408102040800102040810200139
:10058000020408102000000008000201000003041B
:100590000700000000000000009D009900960093F5
:1005A00000910091002020202053656C6563742029
:1005B0006B65792C206F7220456E74657228666FAA
:1005C000722072657475726E292E2E2E000A00003C
:1005D000192E11241FBECFEFD8E0DEBFCDBF26E01D
:1005E000A4E2B2E001C01D92A63EB207E1F712E01C
:1005F000A0E0B1E0E6E9FFE602C005900D92A4326A
:10060000B107D9F712E0C9EED2E004C02197FE018C
:100610000E948237C83ED107C9F70E94522E0C941F
:10062000C9370C9400008091A3059091A405891B03
:10063000990B0895833081F028F4813099F082304D
:10064000A9F008958730A9F08830C9F08430B1F45A
:10065000809180008F7D03C0809180008F77809390
:100660008000089584B58F7784BD089584B58F7D0B
:10067000FBCF8091B0008F778093B0000895809178
:10068000B0008F7DF9CFCF93DF93282F30E0F901B1
:10069000EB57FA4F8491F901EF58FA4FD491F901D1
:1006A000E35AFA4FC491CC23A1F081110E941A039E
:1006B000EC2FF0E0EE0FFF1FED5AFA4FA591B49129
:1006C000EC91ED2381E090E009F480E0DF91CF919F
:1006D000089580E090E0FACF1F93CF93DF93282F07
:1006E00030E0F901EB57FA4F8491F901EF58FA4FD6
:1006F000D491F901E35AFA4FC491CC23A9F0162FF3
:1007000081110E941A03EC2FF0E0EE0FFF1FE75B50
:10071000FA4FA591B4918FB7F894EC91111108C0DC
:10072000D095DE23DC938FBFDF91CF911F91089589
:10073000DE2BF8CF3FB7F89480918E0590918F050E
:10074000A0919005B091910526B5A89B05C02F3FBB
:1007500019F00196A11DB11D3FBFBA2FA92F982FE7
:100760008827BC01CD01620F711D811D911D42E0E2
:10077000660F771F881F991F4A95D1F708958F92AA
:100780009F92AF92BF92CF92DF92EF92FF926B0156
:100790007C010E949A034B015C01C114D104E10465
:1007A000F104B9F00E949A03681979098A099B0932
:1007B000683E73408105910580F321E0C21AD1089B
:1007C000E108F10888EE880E83E0981EA11CB11C98
:1007D000E4CFFF90EF90DF90CF90BF90AF909F90CD
:1007E0008F90089508950895AF92BF92CF92DF92AF
:1007F000EF92FF920F931F93CF93DF936C017B01D6
:100800008B01040F151FEB015E01AE18BF08C01766
:10081000D10759F06991D601ED91FC910190F081D9
:10082000E02DC6010995892B79F7C501DF91CF919C
:100830001F910F91FF90EF90DF90CF90BF90AF90FE
:100840000895FC01538D448D252F30E0842F90E0D6
:10085000821B930B541710F0CF96089501970895BB
:10086000FC01918D828D981761F0A28DAE0FBF2F84
:10087000B11D5D968C91928D9F5F9F73928F90E0DA
:1008800008958FEF9FEF0895FC01918D828D981749
:1008900031F0828DE80FF11D858D90E008958FEF86
:1008A0009FEF0895FC01918D228D892F90E0805C4F
:1008B0009F4F821B91098F739927089589E396E0D2
:1008C0000E94520421E0892B09F420E0822F089530
:1008D00080E090E0892B29F00E945E0481110C9445
:1008E00000000895FC01A48DA80FB92FB11DA35AD3
:1008F000BF4F2C91848D90E001968F739927848F40
:10090000A689B7892C93A089B1898C918370806462
:100910008C93938D848D981306C00288F389E02D03
:1009200080818F7D80830895EF92FF920F931F93B4
:10093000CF93DF93EC0181E0888F9B8D8C8D981392
:100940001AC0E889F989808185FF15C09FB7F8949E
:10095000EE89FF896083E889F989808183708064EA
:1009600080839FBF81E090E0DF91CF911F910F9135
:10097000FF90EF900895F62E0B8D10E00F5F1F4F44
:100980000F731127E02E8C8D8E110CC00FB607FC53
:10099000FACFE889F989808185FFF5CFCE010E94E1
:1009A0007204F1CFEB8DEC0FFD2FF11DE35AFF4FD9
:1009B000F0829FB7F8940B8FEA89FB89808180626F
:1009C000CFCF0F931F93CF93DF938C01D0E0C0E084
:1009D000F801EC0FFD1F6491662341F089E396E076
:1009E0000E949404892B11F02196F2CFCE01DF9161
:1009F000CF911F910F910895682F89E396E00C9491
:100A00009404CF93DF93EC01888D8823B9F0AA89F1
:100A1000BB89E889F9898C9185FD03C0808186FDB9
:100A20000DC00FB607FCF7CF8C9185FFF2CF808108
:100A300085FFEDCFCE010E947204E9CFDF91CF9107
:100A400008952091B402260F3327331F2132310538
:100A5000ECF420910F06FC0190E080E0243069F076
:100A600082E00895A091B4022191AC014C565D4FF3
:100A7000A40FB52FB11D2C930196861798F3809182
:100A8000B402680F6093B40280E0089581E0089595
:100A900010920F0681E080930E061092E90561E046
:100AA00082E10E946C0361E083E10E946C03E9EB48
:100AB000F0E080818E7F808380818D7F808388E4D9
:100AC0008093B80085E48093BC000895CF93DF93B2
:100AD00091E0909393028823B9F0C091B800D0912F
:100AE000BA008091BC008A7B8093BC0060E082E108
:100AF0000E946C0360E083E10E946C030E94480541
:100B0000D093BA00C093B800DF91CF9108958F922F
:100B10009F92AF92BF92CF92DF92EF92FF920F938C
:100B20001F93CF93DF93D0913806D13208F0D7C00E
:100B3000182FC09137060E949A036B017C018091A7
:100B40000F0681116BC082E080930F0610930E0692
:100B50008FEF80930D0610920C06D0930B06A7E141
:100B6000B6E0EBEEF5E080E0D81391C01092EA0514
:100B70008091EA05CC0FC82BC093EA058091E90566
:100B8000813009F088C01092E9050E949A036B0138
:100B90007C018091EA058093BB00809111069091C1
:100BA0001206A0911306B0911406892B8A2B8B2B69
:100BB000A1F00E949A030091110610911206209153
:100BC0001306309114066C197D098E099F090617CA
:100BD00017072807390708F442C08091BC0083FD3D
:100BE000D8CF85EC8093BC000E949A036B017C01F6
:100BF00080910F06823009F450C080910D068F3F1E
:100C000009F46FC080910D06803209F46CC08091A8
:100C10000D06803309F469C084E026C08091110676
:100C200090911206A0911306B0911406892B8A2B7D
:100C30008B2B09F484CF0E949A0380901106909028
:100C40001206A0901306B09014066C197D098E0947
:100C50009F0986169706A806B90608F070CF8091FE
:100C600010060E94660585E010921606109238065E
:100C700010921506DF91CF911F910F91FF90EF9089
:100C8000DF90CF90BF90AF909F908F9008959D91EF
:100C900091938F5F69CF85EEA5CF809111069091DA
:100CA0001206A0911306B0911406892B8A2B8B2B68
:100CB00009F49ECF0E949A0300911106109112062A
:100CC00020911306309114066C197D098E099F0935
:100CD000061717072807390708F08ACFC0CF81E029
:100CE000C3CF80E0C1CF82E0BFCF83E0BDCF089506
:100CF000E091A4058091A305E81730F4F0E0EB55EE
:100D0000FA4F808190E008958FEF9FEF08959091C2
:100D1000A4058091A3052FEF3FEF981748F4E92F22
:100D2000F0E0EB55FA4F208130E09F5F9093A405EF
:100D3000C9010895CF92DF92EF92FF920F931F9314
:100D4000CF93DF937C01CB018A01209115062223EA
:100D500089F0EB016B01C40ED51ECC15DD0569F0E1
:100D60006991D701ED91FC910190F081E02DC701CF
:100D70000995F3CF642F0E942105C801DF91CF911F
:100D80001F910F91FF90EF90DF90CF900895CF9338
:100D9000DF931F92CDB7DEB769832091150622231A
:100DA000F9F020913806203258F021E030E0FC01C3
:100DB0003383228390E080E00F90DF91CF910895FC
:100DC00080911606E82FF0E0E95EF94F9981908353
:100DD0008F5F809316068093380681E090E0ECCF19
:100DE00061E0CE0101960E942105F7CF90E080E0FE
:100DF00008959C0164E670E00E943B37FC01C90144
:100E000083709927892B11F4309779F4C90160E92F
:100E100071E00E943B379C01EF2B11F4892B19F4F0
:100E200081E0232B09F080E0089581E00895863069
:100E300029F034F4823051F0843031F48EE1089599
:100E40008930E1F38B30D1F38FE10895CB010E941B
:100E5000F906882311F08DE108958CE108952F9211
:100E60003F924F925F926F927F928F929F92AF923A
:100E7000BF92CF92DF92EF92FF920F931F93CF9387
:100E8000DF932B013C011A014901E80187EE97E04D
:100E90009983888340E853E361EE71E0441555057A
:100EA00066057705B0F488819981019699838883D6
:100EB000441A550A660A770A0E94F90640E450E788
:100EC00061E370E08111EACF40EC5EE160E370E045
:100ED000E5CF81E0F401808360E87EED88E290E078
:100EE0006415750586059705B0F4F40120812F5F20
:100EF0002083461A570A680A790A68817981822F05
:100F00000E941707A82FB0E020E831E541E050E04B
:100F10000E94EA36E5CFC301B20120E831E541E0A5
:100F200050E00E94C8362F5FF101208320E13EE0AF
:100F300040E050E00E94C836F70120832CE330E007
:100F400040E050E00E94C836F6012083F50160833E
:100F5000DF91CF911F910F91FF90EF90DF90CF9095
:100F6000BF90AF909F908F907F906F905F904F90C9
:100F70003F902F9008954F925F926F927F928F9241
:100F80009F92AF92BF92CF92DF92EF92FF920F9318
:100F9000CF93DF93C82FC62E3A01D22F97EE492E5A
:100FA00097E0592E812C912C540146145704C0F41B
:100FB000C2010E94F90681110CC020E8821A2CECB3
:100FC000920A2EE1A20A2EEFB20A4FEF441A540AF7
:100FD000ECCF3BE7931A3DE1A30A3EEFB30AF5CF0E
:100FE00044244394512CD12C4C145D04A4F4B3013B
:100FF000842D0E941707A82FB0E020E831E541E0DA
:1010000050E00E94EA36860E971EA81EB91E5FEFBA
:10101000451A550AE9CF202F30E0ACE3B0E00E943A
:101020002C379B01AC012E0D311D411D511D690155
:101030007A012D2F30E0A0E1BEE00E942C37C60ED1
:10104000D71EE81EF91E4C2F4150550BDA0120E83F
:1010500031E541E050E00E9488376C0D7D1D8E1D0A
:101060009F1D680D791D8A1D9B1DDF91CF910F91EA
:10107000FF90EF90DF90CF90BF90AF909F908F90B8
:101080007F906F905F904F9008950F931F938FB74D
:10109000F89440918A0550918B0560918C05709170
:1010A0008D058FBF00917E0210917F0220918002FA
:1010B00030918102DB01CA014017510762077307B3
:1010C00018F40197A109B109801B910BA20BB30B76
:1010D00000917A0210917B0220917C0230917D0276
:1010E000800F911FA21FB31F883E23E09207A10526
:1010F000B10508F4C7C040937E0250937F0260930D
:10110000800270938102885E9340A109B1098093A7
:101110007A0290937B02A0937C02B0937D0280912F
:10112000760290917702A0917802B09179020196AF
:10113000A11DB11D8093760290937702A09378024F
:10114000B0937902809175028F5F809375028C3322
:1011500039F480917402109275028F5F809374024B
:10116000809174028C3339F480917302109274026E
:101170008F5F8093730280917302883159F41092CB
:1011800073028091710290917202019690937202A3
:1011900080937102809170028F5F80937002409102
:1011A00008045091090460910A0470910B044F5F88
:1011B0005F4F6F4F7F4F4093080450930904609333
:1011C0000A0470930B048C3339F480916F021092EF
:1011D00070028F5F80936F0280916F028C3339F4BD
:1011E00080916E0210926F028F5F80936E028091E9
:1011F0006E02883121F081E01F910F9108951092C5
:101200006E02909105019F5F90930501809104010A
:10121000823009F59D3170F08091020190910301B7
:101220000E94F906811106C081E08093050183E0E8
:1012300080930401809104018D30E9F681E0809370
:1012400004018091020190910301019690930301A2
:1012500080930201D0CF863019F020F4843031F42D
:101260002FE105C08930E1F38B30D1F320E2022E6B
:10127000000C330B92171306E9F691E090930501E9
:101280008F5FD6CF80E0B8CFCF92DF92EF92FF9200
:101290000F931F93CF93DF93CFEFDCE3E62EF12C78
:1012A000082F10E068018FE1C81AD108DD23A1F1F1
:1012B0000E9445088111D15089E396E00E945204B2
:1012C000892BA1F389E396E00E943004C82F803374
:1012D00004F1082E000C990B9C0120533109E216F1
:1012E000F306D4F4C1369CF008171907ACF48C153A
:1012F0009D0594F0CB3179F0CB3271F0CD3261F0B5
:10130000DCE38C2F8D7F8C3339F0CFEFD1CFC1341C
:1013100074F7CD3079F7C0E08C2FDF91CF911F911A
:101320000F91FF90EF90DF90CF900895CF93C82F4B
:10133000C15020F080E20E94FC04FACFCF910895C2
:1013400081E00C94960981E195E00C94E1048136EA
:1013500071F02AE5853261F0882349F021E0280FF9
:1013600093EE980F983020F08955883008F02EE1E0
:10137000822F08954F925F926F927F928F929F92E9
:10138000AF92BF92CF92EF92FF920F931F932B01D8
:101390003C018E2DD5011C92812C912C54014114BD
:1013A00051046104710461F0809008049090090474
:1013B000A0900A04B0900B0484189508A608B708FA
:1013C000E02FF0E0EE0FFF1FEC55FB4F60817181C5
:1013D0007B0110E000E0E814F9040A051B0558F44D
:1013E0008E189F08A00AB10A281539054A055B0521
:1013F000C8F091E09C93CC2039F18430F1F0B0F446
:101400008230C8F0C301B2011F910F91FF90EF909D
:10141000CF90BF90AF909F908F907F906F905F9094
:101420004F900895412C512C3201E5CF863051F375
:1014300068F0873039F0865F01C08CE06C910E94C3
:101440006C03E0CF8DE0FACF8E5FF8CF87E0F6CF68
:101450000E94A0098AE30E94FC040C94A00948178A
:10146000C1F0613091F4E6E1E49FD0011124AC5E5B
:10147000BC4FE89FF0011124EC5EFC4F81E02C9101
:101480009081291729F080E0089581E06230D9F732
:10149000089581E0FDCF96E1899FF0011124EC5E73
:1014A000FC4FE081F0E0EE0FFF1FEF55FF4F65911D
:1014B0007491072E000C880B990B0C94BF03CF93EB
:1014C000C2E060E08C2F0E946C03CF5FCE30C9F782
:1014D000CF910895FC0101900020E9F73197AF0109
:1014E000481B590BBC0189E396E00C94F4038F92DE
:1014F0009F92AF92BF920F931F93CF93DF93CDB77D
:10150000DEB7A1970FB6F894DEBF0FBECDBF19A20C
:10151000423008F44AE08E010F5D1F4F842E912C5B
:10152000B12CA12CA50194010E94C836E62FB90167
:10153000CA01EA30F4F4E05DD801EE938D01232B6B
:10154000242B252B79F790E080E0109719F0CD013E
:101550000E946A0AA1960FB6F894DEBF0FBECDBFF7
:10156000DF91CF911F910F91BF90AF909F908F907F
:101570000895E95CE1CF82E491E00C946A0ACF938C
:10158000DF930E94E104EC010E94BB0A8C0F9D1FB7
:10159000DF91CF9108958DEC95E00E94BF0A85EA16
:1015A00095E00C94E104009711F00C946A0A90E025
:1015B00080E0089582E892E00C94D30ACF92DF9203
:1015C000FF920F931F93CF93DF93EB0109900020BD
:1015D000E9F72197C61BD70BCC2369F18B0191E06A
:1015E00090931506809337061092160610923806CF
:1015F000F12CEC2FE40FFF27FF1F6F018F2D90E0E0
:101600008C159D0554F4800F911FFC01608186EDBF
:1016100096E00E94C706F394F1CF81E00E9487050F
:1016200081110BC08C2FDF91CF911F910F91FF90F3
:10163000DF90CF90089580E0F6CF8FEFF4CF96E162
:10164000899FF0011124EC5EFC4F40E065E471E0FD
:1016500082810C94DE0A0F931F93CF938C01FC01BF
:1016600001900020E9F73197E81BF90B6E1B862FDC
:101670008695C62FC81B0E949609C8010E94D30AEE
:101680008C2FCF911F910F910C949609682F70E0C9
:1016900090E080E04AE00C94770ACF93C82F8EE068
:1016A00095E00E94E1048C2F0E94460B8CE095E0AF
:1016B000CF910C94E104CF93C82F89E095E00E946C
:1016C000E1048C2F0E94460B87E095E0CF910C94AB
:1016D000E104CF93C82F811101C0C7E280916D0250
:1016E00081110CC082EE8C0F883030F086EA8C0FAE
:1016F000883010F0C73211F4C093010189EF94E0F3
:101700000E94E1048C2F0E94460B87EF94E00E9418
:10171000E104C73211F0CF910895C1E3DFCFCF9339
:10172000C82F10926D0280E00E94A20B80910101EF
:10173000CC2329F081E080936D0280910001CF914C
:101740000C94690BCF93C82F80916D02882319F0F8
:1017500080E00E948F0B8CEF94E0C11102C081E009
:1017600095E0CF910C94E104CF93C82F80E00E94C4
:10177000A20B8BE295E00E94E104CC2321F081E0F2
:10178000CF910C94A20BCF91089580E00E94B40BEE
:1017900081E00C945B0BCF93C62F0E94960981E0E9
:1017A0000E94B40B8C2FCF910C949609CF93C82F25
:1017B00080E00E948F0B8C2F0E94690B81E0CF91FB
:1017C0000C94A20B81110C94D60B80E00E94A20B0A
:1017D00080E00C94690B8091E6020E94E20B86E1A6
:1017E00095E00C94E10480E00E94690B82EF94E0A4
:1017F0000C94E1048F929F92AF92BF92CF92DF92AE
:10180000EF92FF920F931F9390E0FC01EE0FFF1FEA
:10181000EE0FFF1FE05CFA4F0081118122813381BE
:10182000FC01EE0FFF1FEE0FFF1FE85DFA4FC080B7
:10183000D180E280F380FC01EE0FFF1FEE0FFF1F4F
:10184000E05FFA4F80809180A280B380FC01EE0FB0
:10185000FF1FEE0FFF1FE45DFB4F4081518162814E
:101860007381880F991F880F991FFC01E850FB4F67
:1018700080819181A281B381481759076A077B074C
:10188000A4F082E2481559056A057B057CF08FE1DA
:1018900004171507260737074CF080E2C416D50653
:1018A000E606F7061CF481E201C084E21F910F9165
:1018B000FF90EF90DF90CF90BF90AF909F908F9070
:1018C0000C94690BCF93DF93C82FD62F8FEE94E043
:1018D0000E94E1048D2F0E94460B8DEE94E00E9441
:1018E000E1048C2F0E94460B8BEE94E0DF91CF91A8
:1018F0000C94E1041F93CF93DF93C82F862FD42F2E
:10190000CC2331F011E01C0F6C2F0E94620CC12F10
:10191000D15020F08DE20E94FC04FACF8C2FDF9191
:10192000CF911F910895CF93C82F81E00E94A20B01
:101930008BE192E00E94E1044CE463E08C2F0E9472
:101940007A0CC82F80E00E94A20B8C2FCF910895B3
:10195000CF92DF92EF92FF920F931F93CF93DF937B
:10196000C82F1092C5050E949A036B017C018091DB
:101970000F06811166C081E080930F0680930E06EA
:101980009FEF90930D0610920C069FE190930B062B
:101990008093EA058091EA05CC0FC82BC093EA0535
:1019A0008091E905813009F0A3C01092E9050E94F9
:1019B0009A036B017C018091EA058093BB008091C2
:1019C000110690911206A0911306B0911406892B6E
:1019D0008A2B8B2BA1F00E949A0300911106109183
:1019E000120620911306309114066C197D098E0998
:1019F0009F09061717072807390708F443C0809185
:101A0000BC0083FDD8CF85EC8093BC000E949A0374
:101A10006B017C0180910F06813009F46BC08091CD
:101A20000C06D0E2803210F4D0910C06ABEEB5E09B
:101A3000E5EAF5E080E08D1751F19D9191938F5F7C
:101A4000FACF8091110690911206A0911306B091E1
:101A50001406892B8A2B8B2B09F489CF0E949A03B9
:101A60000091110610911206209113063091140670
:101A70006C197D098E099F09061717072807390772
:101A800008F075CF809110060E946605D0E0109294
:101A9000A405D093A30511E0C0E08091A405D81758
:101AA000B1F0C132A4F486ED96E00E9487061123BE
:101AB00009F445C0813009F43FC0C0E08F3F39F0E0
:101AC000CFEF8E3F21F0CEEF823009F0CCEF81E0F6
:101AD0000E948705882311F0C7FFCDEF8C2FDF917F
:101AE000CF911F910F91FF90EF90DF90CF900895CD
:101AF00085EE8ACF8091110690911206A09113066F
:101B0000B0911406892B8A2B8B2B09F483CF0E946A
:101B10009A0300911106109112062091130630913C
:101B200014066C197D098E099F09061717072807E7
:101B3000390708F06FCFA6CFC0E010E0AECFEC2F92
:101B40000C2E000CFF0BEB53FA4F8083882309F413
:101B5000BECFCF5FEC2FF0E0EB53FA4F1082EDCF0A
:101B6000CF92DF92EF92FF92CF93DF936C01092E19
:101B7000000CEE08FF0897FF17C08DE20E94FC04DE
:101B8000EC0166277727CB016C197D098E099F0927
:101B90004AE00E94770A8C0F9D1FDF91CF91FF9042
:101BA000EF90DF90CF9008954AE0C701B601DF9132
:101BB000CF91FF90EF90DF90CF900C94770ACF9267
:101BC000EF920F931F93CF93DF93182FD42FC22F31
:101BD00061110E94A009EE2011F0C11005C080E043
:101BE0000E948F0B0E94EB0BDD2319F08D2F0E94BA
:101BF000FC04812F0E94FC0489E295E00E94E1042C
:101C0000002321F087E295E00E94E10480E00E9439
:101C1000A20B81E295E00E94E10401110E94A0095B
:101C2000CC2319F08C2F0E94FC0480E00E94690BE9
:101C3000EE20A1F0C11014C081E0DF91CF911F917F
:101C40000F91EF90CF900C94A20B81E0DF91CF9198
:101C50001F910F91EF90CF900C948F0BC110F5CF87
:101C6000DF91CF911F910F91EF90CF900895CF9278
:101C7000EF920F93C62EE12C00E020E240E060E0FE
:101C80000E94DF0D0F91EF90CF900895CF92EF92C9
:101C90000F93C12CE12C01E020E040E060E00E94C5
:101CA000DF0D0F91EF90CF900895CF92EF920F93A9
:101CB000C42EE62E01E020E040E060E00E94DF0D4F
:101CC0000F91EF90CF900895CF93DF93EC010E9496
:101CD000F30B80E00E94690B0E94A30961E081E0A0
:101CE0000E94620C81E00E94A20B60E5CE010E947E
:101CF0002B0B80E00E94A20B82E395E00E94E1049E
:101D000082E0DF91CF910895CF92DF92EF92FF9220
:101D10000F931F93CF93DF93CDB7DEB72C970FB6FA
:101D2000F894DEBF0FBECDBF8CE0E6E0F1E0DE014F
:101D3000119601900D928A95E1F724E2C22E22E0DD
:101D4000D22E760112E000E0812F0E944303F701BA
:101D500091917F01981719F03197808301E01F5FFF
:101D60001E3091F7011104C080913002811176C0BC
:101D70007E01F9E0EF0EF11C8E010F5F1F4F6091A5
:101D80003102F80181918F010E94620CF60181916C
:101D90006F01882309F451C082E20E94D60B82E7CA
:101DA00092E00E94E10481E00E948F0B8EE692E0B7
:101DB0000E94E1040E151F0511F78CE2C82E82E087
:101DC000D82EEE24E394F12CEC0EFD1EFCE0EF0E79
:101DD000F11C60913102F80181918F010E94620C27
:101DE000F60181916F01882399F181E20E94D60B5F
:101DF0008CE692E00E94E10482E00E945B0B81E0AD
:101E00000E948F0B8AE692E00E94E104E016F10640
:101E100001F781E08093300280E02C960FB6F894B1
:101E2000DEBF0FBECDBFDF91CF911F910F91FF900D
:101E3000EF90DF90CF900C94E20B81E00E948F0B2B
:101E400080E792E00E94E10480E20E94D60BAECFD0
:101E500081E00E948F0B88E692E0D6CF2C960FB6D9
:101E6000F894DEBF0FBECDBFDF91CF911F910F91D0
:101E7000FF90EF90DF90CF900895CF93DF93EC0128
:101E800080E00E948F0B0E94EB0BCE010E94D30AD0
:101E900080E00E948F0B81E295E00E94E10480E0E7
:101EA000DF91CF910C94E20BCF93C82F682F85E080
:101EB0000E94620C87E491E00E943D0F87E092E06F
:101EC0000E94E10482E20E94690B88E595E00E948D
:101ED000D30A84E092E00E94E1048091E40290E061
:101EE00001960E94B00D82E092E00E94E10480E041
:101EF0000E94690B8CEE91E00E94E10481E08C0F5E
:101F0000CF910895FF920F931F93CF93DF936BE4CC
:101F100071E082E995E00E940536F12C00E010E0C6
:101F2000D0E0C0E00097E9F0C330D105E1F00E94B5
:101F3000D7358C33910598F5209761F48831910558
:101F400074F5182F6BE471E090E080E00E94053694
:101F50002196E8CFC130D10511F4082FF3CFF82E28
:101F6000F1CF2397E1F4212F30E0A0E1BEE00E9401
:101F70002C372CE3029F80011124012E000C220B30
:101F8000330B600F711F821F931F6F0D711D811D19
:101F9000911DDF91CF911F910F91FF90089560E007
:101FA00070E0CB01F6CFCF93DF93C82FD62F80E020
:101FB0000E949609DD23C9F081E00E948F0BEC2F6F
:101FC000F0E0EE0FFF1FE756FA4F6591749182E93A
:101FD00095E00E94FE350E94D30A83E00E94960994
:101FE00080E0DF91CF910C948F0B80E00E94690B11
:101FF000E6CF6F927F928F929F92AF92BF92CF92D5
:10200000DF92EF92FF920F931F93CF93DF93CDB7A1
:10201000DEB7E6970FB6F894DEBF0FBECDBF782EC1
:10202000662E84E1E82E83E0F82ED12CC12C80911D
:10203000E7028150990BC816D9060CF077C04C2DD9
:10204000662D872D0E942F0A882309F468C06CEE44
:1020500070E0CE0101960E94FE35F701808181304B
:1020600051F128F0843009F446C001E007C068EE61
:1020700070E0CE010A960E94FE3502E0CE01019684
:102080005C01912C812C10E0801691060CF041C06F
:1020900040E0B501F70182810E94DE0A6CE271E046
:1020A00080E090E00E94BF03FFEF8F1A9F0A89E053
:1020B000A80EB11CE9CF61EE70E0CE010A960E9435
:1020C000FE3569ED70E0CE0143960E94FE3563ED6A
:1020D00070E0CE014C960E94FE356CEC70E0CE01B3
:1020E00085960E94FE3566EC70E0CE018E960E94C9
:1020F000FE3506E0C3CF6FEB70E0CE010A960E947A
:10210000FE3569EB70E0CE0143960E94FE3503E098
:10211000B5CF6CE271E080E090E00E94BF039FEFDA
:10212000C91AD90AE6E1EE0EF11C81CFE6960FB688
:10213000F894DEBF0FBECDBFDF91CF911F910F91FD
:10214000FF90EF90DF90CF90BF90AF909F908F90D7
:102150007F906F9008955F926F927F928F929F927F
:10216000AF92BF92CF92DF92EF92FF920F931F93A5
:10217000CF93DF9300D000D000D0CDB7DEB75C01A5
:10218000662E542E722ECE0101966C0186E0D60189
:102190001D928A95E9F704E113E0F12CE12C80917E
:1021A000E7028150990BE816F9060CF079C04E2D24
:1021B000652D862D0E942F0A882309F450C063EBF9
:1021C00070E085EC95E00E94FE357720C1F0D801E3
:1021D000EC91F0E0D601AE0FBF1F8C918F5F8C9316
:1021E000EE0FFF1FE952FE4F6591749182E995E071
:1021F0000E94FE35BC018AEC95E00E94B93785EC5F
:10220000882E85E0982EF40101900020E9F7CF0197
:10221000B50101970E94B937772091F0F401019040
:102220000020E9F7E65CF540FF27EB53FA4FD801B1
:102230008C91D601A80FB11D8C91805D8083118295
:1022400041E065EC75E0F80182810E94DE0A181613
:1022500034F46AEC75E0C80105960E94B9376DE464
:1022600071E080E090E00E94BF03D80112968C914B
:1022700091E09093150680933706109216061092FF
:10228000380660E086ED96E00E94C706F80182817C
:102290000E948705FFEFEF1AFF0A0A5E1F4F7FCFEC
:1022A00026960FB6F894DEBF0FBECDBFDF91CF915B
:1022B0001F910F91FF90EF90DF90CF90BF90AF9064
:1022C0009F908F907F906F905F9008950F931F93D2
:1022D000CF93DF930BED12E0C5EED3E0CE010E9469
:1022E000A236F80181938F012196C13FF3E0DF0709
:1022F000A9F76091DC027091DD028091DE0290917D
:10230000DF0220EB34E040E050E00E94C836672B4B
:10231000682B692B61F080E895E2A0E0B0E0809343
:10232000DC029093DD02A093DE02B093DF02809185
:10233000E402833020F01092E4021092E2028091D5
:10234000E502843020F01092E5021092E2028091C2
:10235000E3028B3020F01092E3021092E2028091AF
:10236000E00280930001DF91CF911F910F910895BA
:102370000F931F93CF93DF9329E2289F8001299F1A
:10238000100D1124C2E3D2E0015F1E4FC8018C0F73
:102390009D1F0E94A236899382E0CB35D807B1F702
:1023A000DF91CF911F910F9108950F931F93CF93BA
:1023B000DF9325EC289F8001299F100D1124C4EA8A
:1023C000D4E0025B1340C8018C0F9D1F0E94A2360F
:1023D000899385E0C936D807B1F7DF91CF911F9176
:1023E0000F91089585ED8093BC0080911106909126
:1023F0001206A0911306B09114060796A11DB11DF7
:1024000023E0B695A795979587952A95D1F72091C2
:10241000BC0024FD03C010920F06089540911106E0
:10242000509112066091130670911406452B462BAD
:10243000472B69F30097A105B10541F025E32A95E3
:10244000F1F700000197A109B109E1CF80911006D1
:102450000C9466052F923F924F925F926F927F92FB
:102460008F929F92AF92BF92CF92DF92EF92FF92A4
:102470000F931F93CF93DF937C01FC010190002009
:10248000E9F731977E2E781A20E1271518F4FC0120
:102490001082712C81E00E94A20B8BE395E00E94D8
:1024A000E10480E00E94A20B84E20E94690B8FE2AB
:1024B00095E00E94E104772049F00E94A309C7013A
:1024C0000E94D30A82E395E00E94E104B70182E909
:1024D00095E00E94B937E72DF0E0EE56FA4F1082F2
:1024E000572C172DC12CD12C212C912CC0E0D0E0E1
:1024F00090E1892E0CE3DD3009F4B1C10E9445085A
:102500008823C9F00150B9F480E00E94690B80E093
:10251000DF91CF911F910F91FF90EF90DF90CF90BF
:10252000BF90AF909F908F907F906F905F904F90F3
:102530003F902F90089589E396E00E945204892BE2
:10254000D1F289E396E00E943004D82F412E45183D
:10255000772009F493C1992493945C12912CDC2E7A
:10256000D70C312E3D18CC24C394C30CDD3009F4B4
:1025700043C1A4F4D830B1F0DA3009F43DC12C2EB7
:1025800080EE8D0F8F3508F0B5CF103108F41AC1E9
:10259000772009F4AFCFAA24A394DFC0DB3129F060
:1025A000DF3769F72C2EA12CD8C02C2E6CE070E000
:1025B00080E090E00E94BF0300E0A12C612CDBE1F1
:1025C00089E396E00E945204892B09F44BC063947E
:1025D00089E396E00E943004D82F6CE070E080E040
:1025E00090E00E94BF03F3E06F1651F1F61558F02A
:1025F00021E06216A9F032E06316A9F0AA24A394A0
:10260000DFCF342CD3CF84E0681641F195E0691216
:10261000F5CF8FEB8D0F843088F70FE70D0FD0CFFC
:10262000DB3561F7CDCFD53334F4D33314F4D13364
:1026300029F70D2FC5CF8FEB8D0F8430F8F6F9CF2A
:10264000DB3309F4BDCFDE37C9F6013309F4B8CF67
:10265000A8F28DEC800F823088F6B2CFD23309F425
:10266000AFCFCCCF662009F44FCFA11043CF0334B6
:1026700009F456C0E0F4043389F058F4013309F446
:1026800049C0033309F45EC0772009F433CF412CED
:102690000AC0013409F43EC00234B1F7642C77203B
:1026A00009F44EC04318642C650C712C7AC0013CAF
:1026B00069F168F4043409F43BC0003C29F7652C47
:1026C0006194552009F416CF71105DC012C0023C10
:1026D00049F0033CC9F641E0511001C040E0642ECE
:1026E000619405C066246394411001C0612C71108F
:1026F00047C0662009F4DFC0762C652C670CC52D19
:1027000017140CF44EC07194C62D4BC0642C4110AC
:10271000DBCFF0CE772009F4CCC04C2E4518C3CFC8
:102720007110C0CF6624639441100AC0612C08C0A8
:102730007110F3CF41E0511001C040E0642E61946C
:10274000712C7FC0711009C0511680F7DD24D3941D
:10275000D50CC42C252C772473944C2D50E06D2D72
:1027600070E06E567A4F822D90E08E569A4F0E94FE
:1027700095371719622CAA2009F497CF522C24C040
:10278000662009F4B7CE8C2F870D9920A1F0C60DD5
:102790006C2EC81718F4982F8C2FC92F7C2E781AFE
:1027A000C82F88E395E00E94E104772009F485C0F2
:1027B000C11188C097C0680E862DC61578F78C2F7A
:1027C000C62DECCF7110E7CE852D90E0FC01EE56C2
:1027D000FA4F5F018D569A4F511680F4442D50E008
:1027E0004F5F5F4FBF010E949537F501D08366248C
:1027F0006394650C1F5F59CF2C2E7CCEFC01108298
:10280000F4CF82E395E00E94E1045C2E570C852D05
:1028100090E09C012E563A4F5901511638F4F501BB
:1028200081915F010E94FC045394F7CF5C2E882DA8
:10283000811B0E94960988E395E00E94E104C52D62
:10284000512C662009F456CE560C862D16141CF415
:102850000E944D0B4FCE81950E945B0B4BCEE12F1A
:10286000F0E0EE56FA4F108280E00E94690B62E9B8
:1028700075E0C7010E94B93781E04ACE8D3009F476
:1028800039CE34F4883051F08A3009F433CE78CE22
:102890008B3109F4B6CE8F3709F072CE552059F03E
:1028A00022242A94250CCC24C394C40CD52CA12C0E
:1028B00052CF652C44CF712C1DCE512C112309F41D
:1028C000B6CFC12F82E9A82E85E0B82E512CF50194
:1028D00081915F010E94FC0453945C12F8CF772031
:1028E00009F4A5CF0E94A3095C2E2C2F270D3327B6
:1028F000331F5901852D90E08A159B050CF081CF7F
:102900008E569A4FFC0180810E94FC045394F2CFB2
:10291000FF920F931F93CF93DF938C01F62E6EE2FD
:1029200070E00E94AE37EC01892B11F0F1101BC052
:102930004AE050E070E060E0C8010E94C0348B01C2
:102940009C01F7FE08C0A8EEB3E0AC019B010E9419
:10295000EA368B019C01C901B801DF91CF911F912B
:102960000F91FF90089518824AE050E070E060E017
:10297000C8010E94C0349B01AC01A8EEB3E00E94E4
:10298000EA368B019C01F12C37FF09C03095209568
:10299000109501951F4F2F4F3F4FFF24F394FE01D9
:1029A000319684E690E0CAE0D0E041914423F9F00A
:1029B00018161906E4F4042E000C550B4053510967
:1029C0004A30510590F7489FB001499F700D589FBC
:1029D000700D1124AB01770F660B770B040F151FD9
:1029E000261F371FBE010E944F37CB01DECFFF20CD
:1029F00009F4B1CF30952095109501951F4F2F4FB9
:102A00003F4FA9CF009721F09093E8058093E70509
:102A10006DE471E08091E7059091E8050E9405362C
:102A20000097A1F01092E8051092E705FC014081A3
:102A3000242F042E000C330B205331092A3031058A
:102A400010F04D3229F76FEF0C94881460E070E0BD
:102A5000CB010895FF920F931F93CF93DF93082F1D
:102A600010E096E1899FE0011124CC5EDC4F8A8161
:102A70000E94A80C18165CF585EC95E00E940215E2
:102A8000F801EE0FFF1FEE0FFF1FE851FD4F6083AF
:102A9000718382839383FF24F394E881F0E0E3550C
:102AA000FF4FE491FE16D0F490E080E00E94021502
:102AB000F801EF0DF11DEE0FFF1FEE0FFF1FE851A4
:102AC000FD4F6083718382839383F394E6CF80E02C
:102AD000DF91CF911F910F91FF90089581E0F8CF82
:102AE0008F929F92AF92BF92FF920F931F93CF93BB
:102AF000DF931092E7020E94BB0AC0E210E006E1F9
:102B0000FF24F3942091E702C7FD4FC12A3008F05B
:102B10004CC180EB8C0F883008F431C1C83609F401
:102B20002EC11C136DC06DE471E080E090E00E9446
:102B3000BF03111167C0F0921506C09337061092BB
:102B400016061092380681E00E948705811117C190
:102B500085E491E00E94E1048C2F0E94460B0E94C4
:102B6000280A6DE471E080E090E00E94BF0340E03D
:102B70006FE471E08C2F0E94DE0A082E000C990B86
:102B80000E94B00D0E94280A6DE471E080E090E0A0
:102B90000E94BF038C2F0E94A80CD82F082E000C77
:102BA000990B0E94B00D0E94280ADC5FD53008F412
:102BB000F8C085EC95E00E94D30A0E94280A809113
:102BC000C5058F3309F0EDC08091C605893409F041
:102BD000E8C0E091E7020E9FF0011124EC5EFC4F8B
:102BE000118215828091C805D3E08F3499F064F486
:102BF000D4E0843479F0D1E0853461F0DFEF0AC0AD
:102C00001C2F99CF10E0A4CF823509F4BAC0D2E0CE
:102C10008037A1F78D2F0D2E000C990B0E94B00D5F
:102C20000E94BB0ADF3F09F4BCC0E091E7020E9F9F
:102C3000F0011124EC5EFC4FC283D08385EC95E05B
:102C40000E940215D091E7020D9F90011124A90165
:102C50004C5E5C4F5A01FA017483638340E061E586
:102C600071E08C2F0E94DE0A6DE471E080E090E05C
:102C70000E94BF038C2F0E94A80C18162CF4809180
:102C8000CA058053F501818340E067E571E08C2F30
:102C90000E94DE0A6DE471E080E090E00E94BF03D4
:102CA0008C2F0E94A80C18164CF4D09FC001112440
:102CB0006BEC75E0875E9C4F0E94B93740E06EE593
:102CC00071E08C2F0E94DE0A8CE391E00E94E10407
:102CD0006CE271E080E090E00E94BF038C2F0E94C4
:102CE000A80C18160CF055C08091CD050E94FC046C
:102CF0000E94A00980E40E94FC040E94A0098FECBD
:102D000095E00E94D30A89E391E00E94BF0A8FE216
:102D100091E00E94E104D091E7028D2F0E941F0BE9
:102D20008D2F0E944B0A8D2F0E942A158823A1F116
:102D3000E091E70244E0E49FF0011124E851FD4FE7
:102D400080809180A280B3804AE0C501B401B7FEC3
:102D50000BC08DE20E94FC0466277727CB0168191F
:102D600079098A099B094AE00E94770A0E94BB0AF6
:102D70000E94BB0A8091E7028F5F8093E702CF5FDA
:102D8000C1CED1E08091C905843509F4D0E0D19558
:102D900041CF85E391E0B9CF8BE291E00E94BF0A79
:102DA000E7CFC113ECCFC150EACF30E0F901EE0F0D
:102DB000FF1FEE0FFF1FE851FD4F8AE694E0A1E0F0
:102DC000B0E080839183A283B383C6E1C29FC00138
:102DD000C39F900D1124FC01EC5EFC4F12826CE14C
:102DE00071E0875E9C4F0E94FE358091E702C89F8C
:102DF000F0011124EC5EFC4F95E0908311828F5F0F
:102E00008093E7028093E302DF91CF911F910F91AE
:102E1000FF90BF90AF909F908F900895DF92EF92B8
:102E2000FF920F931F93CF93DF93142FD22F2AE09B
:102E300042E955E00E943C3642E955E0FA01019032
:102E40000020E9F7AF0143595540C42F4430A8F49E
:102E5000552784E090E07C01E41AF50A62E975E008
:102E6000C7018E569A4F0E949537A70160E370E024
:102E700082E995E00E94A737C4E01D5FD12EDC1ADD
:102E80001D14B4F44C2F50E062E975E0ED2C0D2CCC
:102E9000000CFF08C7018E569A4F0E949537602F8D
:102EA000000F770BA70182E995E00E94A737C12F99
:102EB0008C2F90E08C0101571A4F43E050E0B8018D
:102EC00080579A4F0E9495378EE2F8018083CF5F3A
:102ED00012E01D0F1D0D412F4C1B141664F4042E1F
:102EE000000C550B8C2F90E060E370E08E569A4FEB
:102EF0000E94A737C12FECEFEC0F80E0DD2321F01B
:102F00008E2FEDEFED0FEC0FF0E0EE56FA4F108242
:102F1000DF91CF911F910F91FF90EF90DF90089577
:102F2000CF92DF92EF92FF920F93CF936B017C01D0
:102F3000C42F4423E9F000E223E041E00E940E1791
:102F400062E975E082E892E00E94B93782E892E097
:102F50000E942A12882391F06C2F619582E995E0F6
:102F6000CF910F91FF90EF90DF90CF900C94881449
:102F70002AE042E852E00E943C36E8CFC701B601A1
:102F8000CF910F91FF90EF90DF90CF900895CF9366
:102F9000DF93EC01688179818A819B8141E00E9405
:102FA0009017688379838A839B8381E0DF91CF9137
:102FB0000895CF92DF92EF92FF920F931F93CF93DA
:102FC000DF93D62F7A01122FC02F282F30E0A8EEE2
:102FD000B3E00E942C3700E320E042E00E940E178D
:102FE00062E975E082E892E00E94B93782E8C82E73
:102FF00082E0D82EF60112832D2F30E0A8EEB3E048
:103000000E942C3720E042E00E940E1762E975E032
:1030100085E892E00E94B937F60115839701A8EE82
:10302000B3E00E942C3720E04C2F0E940E1762E97B
:1030300075E088E892E00E94B937EC2FF0E0EE5797
:10304000FD4F1682DF91CF911F910F91FF90EF906E
:10305000DF90CF900895AF92BF92CF92DF92EF9220
:10306000FF920F931F93CF93DF9300D01F92CDB7A2
:10307000DEB719821A821B829E012D5F3F4F5901D4
:1030800021503109690121503109790110E000E036
:1030900030E020E050E040E00E942F074B8150E0FC
:1030A00002E02AE36A8189810E94D9170F900F906C
:1030B0000F90DF91CF911F910F91FF90EF90DF90D4
:1030C000CF90BF90AF9008951F93CF93DF93EB0104
:1030D000142F61E0209709F060E00E94370EBE01D6
:1030E00090E080E00E942B180E94DA0A112329F058
:1030F000DF91CF911F910C94C50BDF91CF911F9160
:103100000895CF93DF93EC016881798190E080E0AE
:103110000E942B1882E892E00E942A120E94820FDD
:103120007983688381E0DF91CF9108958F929F9298
:10313000AF92BF92EF920F93CF93DF934B015C015D
:10314000C42FD22F8E2D0E94A20BDD23C1F02D2F74
:103150004C2FC501B4010E940E17C82F82E995E0DB
:103160000E94D30A80E00E94A20B8C2FDF91CF91A6
:103170000F91EF90BF90AF909F908F900895A8EE21
:10318000B3E0A50194010E94EA3620E04C2FE3CF82
:10319000EF92FF920F931F93CF93DF93C82FF62EDA
:1031A000E42E122FD02F0E94FA0B6E2D8F2D0E942D
:1031B000620C84E0C89FF0011124E45DFB4F608144
:1031C000718182819381EE24E39400E222E0412F19
:1031D0000E949618DD2351F060E08C2FDF91CF9193
:1031E0001F910F91FF90EF900C94D30FDF91CF912F
:1031F0001F910F91FF90EF900895EF920F93CF934F
:10320000C82F01E022E0482F67E080E00E94C81844
:1032100081E00E94FA0B6C2F84E10E94620C6091A5
:10322000300470913104809132049091330428EE7F
:1032300033E040E050E00E946337CA01B901EE2458
:10324000E39400E220E044E00E94961860E081E010
:103250000E94D30F01E022E04C2F60E282E00E9446
:10326000C81800E024E04C2F6DE283E00E94C818EB
:1032700080E00E94690B87E792E00E94E10401E090
:1032800023E04C2F6BE384E00E94C81823E04C2F0E
:1032900067E485E00E94C81881E08C0FCF910F9100
:1032A000EF9008952F923F924F925F926F927F928C
:1032B0008F929F92AF92BF92CF92DF92EF92FF9246
:1032C0000F931F93CF93DF93CDB7DEB76A970FB6F7
:1032D000F894DEBF0FBECDBFA82E86E0E2E1F1E09C
:1032E000DE01119601900D928A95E1F786E0E8E102
:1032F000F1E0DE01179601900D928A95E1F7ECE27C
:103300008E2EE4E09E2E9E01295F3F4F3B8B2A8B41
:10331000AE014F5F5F4F588B4F8710E0B12C1130DB
:1033200009F470C081E090E052E0598BEA89FB8992
:103330002191FB8BEA8B2C8BEF85F8892191F88BFF
:10334000EF872D8B44E153E05E874D8778EE272E83
:1033500072E0372E6A2DD12CC12C412C512C320118
:10336000F12C9C01990F440B550B2F8B388F498FF3
:103370005A8F8091E7028C151D0409F00CF446C0A9
:103380003FEFC31AD30AED85FE858081811330C0DB
:10339000F394F1E0F60FFE8B8D890E94620CC6015A
:1033A0000E94B00D84E792E00E94E104F101608187
:1033B0007181828193812F89388D498D5A8D0E9428
:1033C0006337CA01B901EE24E39400E229894C89EC
:1033D0000E949618F10180819181A281B381480EEB
:1033E000591E6A1E7B1E61E0812F0E94D30F6E89D9
:1033F0002D853E852A5E3F4F3E872D8734E0230E84
:10340000311CB7CF88EE93E0198A90CFFF20E1F10D
:103410002F2D30E050E040E0C301B2010E9463373D
:10342000F4012083318342835383133051F520917B
:1034300038043091390440913A0450913B04AAE099
:10344000B0E00E94EA3621E231E040E050E00E9424
:1034500063378091340490913504A0913604B09183
:103460003704880F991FAA1FBB1F820F931FA41F29
:10347000B51F8093380490933904A0933A04B09315
:103480003B04BF1408F4BF2C1F5FF4E08F0E911CA7
:10349000163009F044CF8A2D8B0D6A960FB6F8943A
:1034A000DEBF0FBECDBFDF91CF911F910F91FF9077
:1034B000EF90DF90CF90BF90AF909F908F907F90D4
:1034C0006F905F904F903F902F9008958F929F92B2
:1034D000AF92BF92CF92EF920F93962F49015A016C
:1034E000C12CE12C00E020E240E060E0890F0E9466
:1034F000DF0D00E222E044E0C501B4010E9496180D
:1035000080E00F91EF90CF90BF90AF909F908F9001
:103510000C94B40B8F929F92AF92BF92EF920F9345
:10352000CF93C82F4A015B0186EE91E00E94E1042F
:103530006C2F8DE10E94620C83EE91E00E94E10409
:10354000EE24E39400E222E044E0C501B4010E94CD
:103550009618CF910F91EF90BF90AF909F908F9062
:1035600008952F923F924F925F926F927F928F9227
:103570009F92AF92BF92CF92DF92EF92FF920F9302
:103580001F93CF93DF9300D01F92CDB7DEB789830F
:10359000662E49015A0158E7752E00E010E0C12C53
:1035A000D12C7601202F30E03B832A838091E702E3
:1035B0008150990B281739073CF586E1829FF0016D
:1035C000839FF00D1124EC5EFC4F808181111AC0A5
:1035D0001F5F802F0E941F0B802F0E944B0A802F9D
:1035E0000E942A15EA81FB81EE0FFF1FEE0FFF1FDD
:1035F000E851FD4F80819181A281B381C80ED91E0F
:10360000EA1EFB1E0F5FCECF112309F4AAC0212FA3
:1036100030E050E040E0C701B6010E946337190175
:103620002A0120922C0430922D0440922E045092B4
:103630002F040E94BB0A80E00E948F0B0E94EB0BBC
:103640008AE191E00E94E104E12C00E222E044E002
:10365000C501B4010E94961885E191E00E94E10441
:1036600080E00E948F0B81E295E00E94E10480E0FF
:103670000E94E20B0E94A00922E043E0C201B101D6
:103680000E94961881E00E948F0B81E191E00E94D8
:10369000E10480E00E948F0B83E00E944D0B10E05C
:1036A00034E1F32E212F30E03B832A838091E7021F
:1036B0008150990B281739070CF06FCF412F662DD9
:1036C00089810E942F0A8823F1F1812F0E941F0B0C
:1036D000812F0E944B0A812F0E942A156A817B81CB
:1036E0006F5F7F4F072E000C880B990BE12C00E3D6
:1036F00020E042E00E9496188EE091E00E94E104F2
:103700008A819B81880F991F880F991F88519D4F2F
:10371000FC016081718182819381EE24E39400E257
:1037200022E044E00E94961880E00E94B40BFEE084
:10373000FF0E22E42F1538F40E94BB0A84E10E9498
:103740004D0B85E1F82E0E94450881117A9489E39A
:1037500096E00E945204892B69F4772059F01F5F8C
:10376000A1CF20902C0430902D0440902E04509036
:103770002F0457CF89E396E00E9430044B9719F449
:10378000212C312C2101C201B1010F900F900F901B
:10379000DF91CF911F910F91FF90EF90DF90CF902D
:1037A000BF90AF909F908F907F906F905F904F9061
:1037B0003F902F9008952F923F924F925F926F9279
:1037C0007F928F929F92AF92BF92CF92DF92EF92B1
:1037D000FF920F931F93CF93DF93082FD62E142FB2
:1037E000322EF12C8F3F19F4FF24F39400E04FE3C5
:1037F00065E0812F0E947A0CC4E1D3E028EE622EAE
:1038000022E0722E912C812C402E512C26E1029F19
:10381000C0011124FC01EC5EFC4F5F018091E702C6
:103820008815190409F00CF4C0C09881F501808155
:10383000981719F0FF2009F4ADC01F5F22242394CC
:103840004814590419F0D11001C0212C612F85E0D2
:103850000E94620C31100FC0CC24C394C224E22C0D
:1038600000E020E048E260E081E3880D0E94DF0D87
:1038700081E00E945B0B81E0222009F493C00E944A
:10388000A20B83E00E944D0BCE0105960E94D30A45
:10389000612F8AE10E94620C822D0E94B40BF30119
:1038A000608171818281938100E222E045E00E9483
:1038B0000E1788810E94FA0B211003C081E00E943C
:1038C0008F0B82E995E00E94D30A80E00E94E20B10
:1038D00081E00E948F0B0E94A009E881F0E0EE0FCA
:1038E000FF1FE756FA4F6591749182E995E00E94B7
:1038F000FE350E94D30A612F89E20E94620C80E0AB
:103900000E94B40BE881F0E0EE0FFF1FE952FE4F7A
:103910006591749182E995E00E94FE350E94D30A78
:10392000612F80E30E94620C80E00E94B40B6B81E7
:103930007C8190E080E000E322E042E00E940E17EC
:1039400082E995E00E94D30A612F88E30E94620C0D
:1039500080E00E94B40B2A8130E0A8EEB3E00E9420
:103960002C3700E220E043E00E940E1782E995E048
:103970000E94D30A612F8EE30E94620C89810E940B
:10398000B40B89810E94460B80E00E94A20B80E06C
:103990000E94B40BFFEF8F1A9F0A669624E0620E16
:1039A000711C3CCF0E948F0B6CCF80E00E948F0B6C
:1039B0004FE365E081E0810F0E947A0C82E0810F85
:1039C000DF91CF911F910F91FF90EF90DF90CF90FB
:1039D000BF90AF909F908F907F906F905F904F902F
:1039E0003F902F9008950F93CF93DF93C82F682FA8
:1039F00085E00E94620C81E60E94460E87EC91E011
:103A00000E94E10482E60E94460E8DEA91E00E9447
:103A1000E10483E60E94460E8EE991E00E94E104F3
:103A2000D2E0DC0F43E068E081E08C0F0E947A0C6A
:103A30006D2F85E00E94620C84E60E94460E8FE89E
:103A400091E00E94E10481E00E94A20B8BE592E0EC
:103A50000E94D30A6D2F8AE20E94620C85E60E94C2
:103A6000460E8DE791E00E94E10443E068E083E0C8
:103A70008C0F0E947A0C64E06C0F85E00E94620C4F
:103A800086E60E94460E85E691E00E94E10481E010
:103A90000E94A20B20916C0230E0A8EEB3E00E94DD
:103AA0002C3700E320E043E00E940E1782E995E006
:103AB0000E94D30A85E00E94960987E60E94460E7E
:103AC0008FE491E00E94E10485E08C0FDF91CF91BB
:103AD0000F9108954F925F926F927F92AF92BF9233
:103AE000CF92DF92EF92FF920F931F93CF93DF93CA
:103AF0005C01F62ED42E28013901CE2D6AE071E04A
:103B000085EC95E00E94FE35EE20E1F18CE2809399
:103B1000C805C33051F148F4C13091F060E071E064
:103B2000C23081F0C43071F512C0C53031F1C630F9
:103B3000C9F766EF70E089EC95E00E94FE3522C07F
:103B400065E071E089EC95E00E94FE35C8E000E395
:103B500022E041E0C301B2010E940E178C2F90E0D9
:103B600062E975E08B539A4F0BC06AEF70E089EC05
:103B700095E00E94FE35C9E0EACFB50189EC95E0F9
:103B80000E94B937E12C86E1C82ECF9CE0011124B8
:103B9000CC5EDC4F0E2D10E08091E7028150990B36
:103BA000081719078CF54E2D6D2D8F2D0E942F0AA9
:103BB000882341F1E881F0E0E051FF4FE491EE23EA
:103BC00009F10E94BB0AC09EC001C19E900D112444
:103BD0008C010C5E1C4FF80182810E94460B8BE425
:103BE00091E00E94D30A85EC95E00E946A0A0E9447
:103BF000BB0A40E065EC75E0F80182810E94DE0AB4
:103C0000F8011182E394C6CFDF91CF911F910F91FC
:103C1000FF90EF90DF90CF90BF90AF907F906F902C
:103C20005F904F900895CF92DF92EF92FF920F93A3
:103C3000CF93DF93C0907602D0907702E090780225
:103C4000F0907902C701B6010E942B18C701B60196
:103C500020E831E541E050E00E94C836A8EEB3E02C
:103C60000E94EA3600E220E043E00E940E1749E09D
:103C700050E062E872E087E892E00E949537C2E87F
:103C8000D2E083E0E2E9F5E0DE0101900D928A9551
:103C9000E1F784E68B8380E28C83DF91CF910F91F3
:103CA000FF90EF90DF90CF900C94DA0A0F9361E0D1
:103CB00083E40E94620C0E94A3090E94131E68E123
:103CC0008DE30E94620C409102015091030104E0D7
:103CD0002EE260910401809105010E94D91782E8CB
:103CE00092E00E94D30A0E94A0094091700250E025
:103CF00002E02AE360916F0280916E020E94D91760
:103D000082E892E00E94D30A8FE195E00E94E104EC
:103D100082E395E00F910C94E1040F931F93CF93EE
:103D2000DF93D82FC62F8A010E94A30968E181E0A2
:103D30000E94620CDF3F49F589E20E94690B84E032
:103D40000E949609C8010E94D30A80E00E94A20B3B
:103D500081E30E94690B8BE195E00E94E1040E94DF
:103D6000131EC11106C0E80109900020E9F7219750
:103D7000C01B88E28C1B0E94960982E395E0DF91CC
:103D8000CF911F910F910C94E10481E00E94A20B4E
:103D9000D6CFCF93DF930E94F30B0E94A30985E651
:103DA00091E00E94640EC82F82E395E00E94E10436
:103DB000D2E0DC0F61E06C0F83E00E94620C8D2F7B
:103DC0000E94930CC82F49E751E060E080E00E9418
:103DD0008D1E8C2F0E9452194CE463E00E947A0CD5
:103DE0000E94FD184CE463E00E947A0CC82F81E029
:103DF0000E94A20BC0933102109230024CE463E0A7
:103E000081E08C0FDF91CF910C947A0C6F927F92AE
:103E10008F929F92BF92CF92DF92EF92FF920F9379
:103E20001F93CF93DF93CDB7DEB7C056D1090FB63E
:103E3000F894DEBF0FBECDBFB82E962E8EE891E06F
:103E40000E94640E182F61E0680F83E00E94620CEC
:103E500082E0810F0E94930C182F4CE463E081E014
:103E6000810F0E947A0C109331021092300262E3AB
:103E700072E0FE01319680E0DB012D913D91BD01A4
:103E800031832083843048F41E964D915C919F01CC
:103E9000205C3F4FD9014D935C938F5F38968830FB
:103EA00059F7FE01319680E0D12CC12CB81619F0DB
:103EB000BFEFBB1209C0208131812115310521F0EE
:103EC000C216D30608F469018F5F38968C3071F7FB
:103ED000FE01319640E0B41619F02FEFB2125BC02C
:103EE000208131812115310509F455C051E0951625
:103EF00009F4D8C0C601B9010E943B378B012617CF
:103F0000370708F48901C901B8010E943B377B01DA
:103F1000609FC001619F900D709F900D11248217CA
:103F2000930718F48FEFE81AF80AE09EC001E19EAB
:103F3000900DF09E900D11242817390738F40115C3
:103F4000110509F4B9C001501109DDCFF582E482F1
:103F5000C601821B930BB8010E943B3777836683AF
:103F6000E60EF71EE09EC001E19E900DF09E900DC2
:103F70001124D601A81BB90BCD0196958795938383
:103F8000828382819381892B31F4868197819695F2
:103F90008795938382834F5F38964C3009F09BCF8F
:103FA000BFEFCB1ADB0A912C812C82E8682E82E0CD
:103FB000782EC114D10409F45FC00E9445088823FB
:103FC00009F44FC0E1E0CE1AD108B60190E080E0DC
:103FD0000E942B186DE971E08AE892E00E94B937DF
:103FE000D3010D900020E9F7BD016358724042E80B
:103FF00052E080E00E948D1E8E010F5F1F4FF12C5A
:10400000BF1419F0BFEFBB121AC0F8018081918173
:10401000892BA9F0828193818816990680F02481EA
:104020003581A401481B590BCA0166817781620F53
:10403000731F0E943B3761E08217930708F060E02E
:1040400082E08F0D0E946C03F394085F1F4F5CE0C9
:10405000F512D6CF8FEF881A980A0E94561E0E943A
:10406000840E89E396E00E945204892B09F4A1CFC3
:1040700089E396E00E943004C05ADF4F0FB6F894EF
:10408000DEBF0FBECDBFDF91CF911F910F91FF908B
:10409000EF90DF90CF90BF909F908F907F906F9028
:1040A0000C945F0A35832483C601821B930B97838C
:1040B00086831382128265CF0E949037CF92DF925F
:1040C000EF92FF920F931F93CF93DF93D62FF42E8F
:1040D000833609F46AC09CF4813609F460C00CF0A0
:1040E0009BC08F5F823008F45EC080E0DF91CF918B
:1040F0001F910F91FF90EF90DF90CF90089585363C
:1041000009F45EC00CF457C0863609F45DC08736EA
:1041100061F7C0916C0294E1C92E93E0D92E10E0B2
:1041200000E08091E7028150990B081719070CF005
:104130006AC080EB8C0F883008F463C0C83609F47D
:10414000C9E6402F6F2D8D2F0E942F0A882309F179
:1041500062ED71E082E995E00E94FE354AE062E896
:1041600072E08C2F90E00E94313662E872E086E9BE
:1041700095E00E94B93740E062E975E0F60182817E
:104180000E94DE0ACF5F6CE271E080E090E00E9466
:10419000BF030F5F1F4FF6E1CF0ED11CC2CF642FBC
:1041A0008D2F0E94F90F81E0A1CF20E084E491E0FF
:1041B0000E94AB10F8CF8BE592E00E942A12F3CF59
:1041C00021E08BE592E0F4CF60916C0270E090E02A
:1041D00080E040E00E94901760936C022091E7021B
:1041E0008FE790E0821B91096817190631F02CF0D7
:1041F0008FE7821B80936C02D6CF6032A0F680E2FC
:10420000F9CFC8E59ECF68EE73E080E090E00E94B1
:10421000BF030E947015C7CF85E0E82E00E010E0D4
:10422000980186EA91E00E946A1DBDCFFF920F932C
:104230001F93CF93DF93EC01F62E08811981C801FB
:104240000E94A236F81621F06F2DC8010E94AA36EE
:10425000CE01DF91CF911F910F91FF900895EF92C2
:10426000FF920F931F93CF93DF9300D0CDB7DEB7AC
:104270008BEDE82E82E0F82E05EE13E01A83098319
:10428000F70161917F01CE0101960E9416210F5F17
:104290001F4F013FF3E01F0789F70F900F90DF9149
:1042A000CF911F910F91FF90EF900895EF92FF92A1
:1042B0000F931F93CF93DF9300D0CDB7DEB729E2E2
:1042C000AC01249FC001259F900D112402E312E050
:1042D000FC01E15FFE4F7F01C701800F911F9A83B0
:1042E0008983F80161918F01CE0101960E94162108
:1042F000F2E00B351F0781F70F900F90DF91CF9100
:104300001F910F91FF90EF900895EF92FF920F93FE
:104310001F93CF93DF9300D0CDB7DEB725ECAC0170
:10432000249FC001259F900D112404EA14E0FC0194
:10433000E25BF3407F01C701800F911F9A8389835D
:10434000F80161918F01CE0101960E941621F5E0DE
:1043500009361F0781F70F900F90DF91CF911F91C2
:104360000F91FF90EF900895EF92FF920F931F939C
:10437000CF93DF9300D0CDB7DEB784E1E82E83E0A2
:10438000F82E10E000E01A830983F70161917F01A4
:10439000CE0101960E9416210F5F1F4F023F1105AB
:1043A00091F70F900F90DF91CF911F910F91FF9098
:1043B000EF9008952F923F924F925F926F927F926B
:1043C0008F929F92AF92BF92CF92DF92EF92FF9225
:1043D0000F931F93CF93DF93CDB7DEB7E1970FB65F
:1043E000F894DEBF0FBECDBF85E691E00E94640E5B
:1043F00020E0482F61E08FEF0E94DB1BC82E082EC3
:10440000000CDD08682F85E00E94620C81E60E94A6
:10441000460E81EE94E00E94E10482E60E94460E80
:1044200087ED94E00E94E10483E60E94460E8FEC43
:1044300094E00E94E10484E60E94460E87EC94E03A
:104440000E94E10485E60E94460E8EEB94E00E94F5
:10445000E1046091E10270E090E080E0EE24E394FA
:1044600000E320E043E00E94961843E068E081E02A
:104470008C0D0E947A0CB6016E5F7F4F85E00E9422
:10448000620C86E60E94460E85EB94E00E94E104F1
:1044900081E00E94A20B6091DC027091DD028091AC
:1044A000DE029091DF024AE00E94770A80E00E94DB
:1044B000A20B83E00E94960987E60E94460E81EBDC
:1044C00094E00E94E10481E00E948F0B88EA94E06E
:1044D0000E94E10480E00E948F0B88E60E94460E55
:1044E0008CE994E00E94E1046091E20241E06111F4
:1044F00040E089E60E94550E82E994E00E94E104C2
:1045000043E068E083E08C0D0E947A0C182F682F3E
:1045100085E00E94620C8AE60E94460E87E894E0DD
:104520000E94E1048BE60E94460E8AE794E00E9416
:10453000E1048CE60E94460E8EE694E00E94E104BF
:104540008DE60E94460E84E694E00E94E10443E07A
:1045500068E081E0810F0E947A0C62E0610F85E0E3
:104560000E94620C8EE60E94460E84E594E00E9452
:10457000E10482E20E94D60B88E595E00E94D30A0E
:1045800083E00E9496098CEA91E00E943D0F8EE341
:1045900094E00E94E10482E20E94D60B8091E40242
:1045A00090E001960E94B00D80E00E94E20B0E9414
:1045B000CB0A6091E702615081E70E944409898B30
:1045C000873609F4EFC40CF046C0823609F46FC197
:1045D000B4F48F3F34F018160CF0EBC1813609F4B7
:1045E0005DC1898981538A8B6CE773E08BE592E02A
:1045F0000E94FE3581E280936C02712CE5C429890A
:10460000243609F4A3C10CF456C1253609F4ECC1D3
:10461000263639F76091DC027091DD028091DE026E
:104620009091DF0240E00E9490176093DC0270934B
:10463000DD028093DE029093DF0220EB34E040E065
:1046400050E00E94C836672B682B692B09F0D9C14E
:104650000E942F21C9CE39893C3609F472C20CF070
:10466000AFC0393609F4D0C10CF4A5C43A3609F408
:10467000BAC03B3609F0B5CF8FEB91E00E94640ED3
:10468000A82E61E0680F8CE00E94620C61E080E07F
:104690000E94CB0B8BEA92E00E94E10462E081E091
:1046A0000E94CB0B84EB92E00E94E1044CE463E0B7
:1046B00082E08A0D0E947A0C54E0952E9A0C63E0F9
:1046C0006A0D83E00E94620C69E4E62E63E0F62E38
:1046D00000EE14E078E2C72E75E0D72EB12C81E011
:1046E0000E94A20BF7016591749182E995E00E9406
:1046F000FE3569E00E942B0B80E00E94B40BD801CC
:104700002D913D914D915D918D016B2D81E60E9422
:10471000661AF80124893589468957896B2D87E601
:104720000E94661AD8019C962D913D914D915C9105
:104730009F976B2D8DE60E94661AF60121913191AB
:10474000419151916F016B2D83E70E94661AD6014A
:1047500054962D913D914D915C9157976B2D81E42D
:104760000E94661A692D6B0D83E00E94620CB3945F
:10477000B2E0EB0EF11CE6E0BE12B1CF8AE08A0D8A
:104780000E94540F0E94CB0A63E088E70E9444090C
:1047900018160CF029CE81360CF45DC187360CF06A
:1047A00044C1F4E08F02C0011124845A9C4F0E943E
:1047B000C717813009F068C18091E40290E061C1BF
:1047C00089898E3609F4E4C30CF4ACC282370CF04C
:1047D00008CF89898F568093E40290E00E94D5111A
:1047E0000E942F21E2C081E280936C026CE773E0AB
:1047F0008BE592E00E94FE3582EB91E00E94640E10
:1048000021E0482F61E08FEF0E94DB1B0E94F31C28
:10481000182F43E068E00E947A0C61E0610F85E0A8
:104820000E94620C6091DB0241E0611140E088E689
:104830000E94550E81E992E00E94E10480E00E940E
:104840008F0B4091DB0261E0411160E089E60E943C
:10485000550E8BE792E00E94E10480E00E948F0BEE
:104860000E94CB0A6FEF89E60E944409182F42E0AC
:1048700060E00E945E20811104C0183631F01936C4
:1048800051F011160CF4B8CFAFCD81E08093DB026C
:104890000E942F21B1CF1092DB02FACF0E94F30BBE
:1048A00061E081E00E94620C0E9470159DCDF0E0F5
:1048B000E0E0099599CD6091080470910904809118
:1048C0000A0490910B04188A1D861A821982B12C51
:1048D000A12CD12CC12CF12CE12C8E010F5F1F4F8C
:1048E0009E01235F3F4FAE01405F5F4F0E942F0745
:1048F00049815A8104E02EE26D8588890E94D9178A
:1049000082E892E00E942A126CE871E082E995E068
:104910000E94053610E000E0009709F497C70330C5
:10492000110509F493C70E94D73597FD8FC701156C
:10493000110519F480970CF089C76CE871E090E0DC
:1049400080E00E9405360F5F1F4FE6CF60E070E009
:10495000CB01E0E7AE2EE2E0BE2EFFE6CF2EF2E086
:10496000DF2EAEE6EA2EA2E0FA2E02E011E024E00D
:1049700031E045E051E00E942F0740910201509143
:104980000301E090700200916F0220916E0260912D
:104990000401809105010E94BB0760930804709395
:1049A000090480930A0490930B04B9891B160CF434
:1049B0001BCD0E94C91EE1960FB6F894DEBF0FBE54
:1049C000CDBFDF91CF911F910F91FF90EF90DF90BE
:1049D000CF90BF90AF909F908F907F906F905F909F
:1049E0004F903F902F9008956091E10270E090E029
:1049F00080E040E00E9490176093E1026F3F09F071
:104A000027CE0E946611F0CC81E09091E2029111D4
:104A100080E08093E2020E942F218091E2028823AD
:104A200009F4E2CC0E94B421DFCC8D362CF424E0D2
:104A30008202C0011124B9CE83372CF434E0830202
:104A4000C0011124B2CE89370CF016CEA4E08A0240
:104A5000C0011124AACE813454F087340CF00CCE5E
:104A6000B4E08B02C0011124845C9B4FA0CE813343
:104A70000CF410C784330CF0FFCD082E000C990BFA
:104A8000C1970E948521F8CD18160CF4F5CDACCC59
:104A9000F701EC55FB4F6081718140E081E68A0DA2
:104AA0000E946418A2C0A12EEA2CF12CF701EE0F8F
:104AB000FF1FE053FB4F6081718141E087E78A0D62
:104AC0000E946418F701EE0FFF1FE852FB4F608150
:104AD000718140E081E48A0D0E9464180E94C50B38
:104AE0006B2D610F83E00E94620C1F5F183009F08C
:104AF00054C08CE0800F0E94540F0E94CB0A63E0E8
:104B00008AE70E94440918160CF06ECC81360CF42A
:104B10008FC0873684F4880F990B8E519C4F0E946A
:104B20008118813009F09BC08091E40290E094C02C
:104B3000B2E0AB2EB9CF8F3674F3873764F38B377F
:104B400054F38EEC91E00E94640E082F61E0680F30
:104B50008CE00E94620C81E00E94B40B86EE92E031
:104B60000E94E10462E080E00E94CB0B84EB92E0C3
:104B70000E94E1044CE463E082E0800F0E947A0C22
:104B800034E0B32EB00E63E0600F83E00E94620C4D
:104B900040EBC42E44E0D42E10E0AA24A39412309B
:104BA00031F02EEFA22EA10E133008F4A12E81E0D9
:104BB0000E94A20BEA2CF12CEE0CFF1CF701E75B24
:104BC000FC4F6591749182E995E00E94FE3569E0A1
:104BD0000E942B0B0E94C50BE1E0AE1259CF1230A0
:104BE00008F456CF8BE00E9496090E94C50BD601AF
:104BF0006D917D916D0141E087E6810F0E946418FF
:104C0000F6016685778541E08FE6810F0E94641882
:104C1000123008F448CF143009F48ACF83E0A82E6C
:104C2000173009F441CF6AE08BE00E94CB0B56CFDE
:104C3000813444F085340CF084CF880F990B8A5A64
:104C40009B4F6DCF81330CF42BC684330CF079CF9E
:104C5000082E000C990BC1970E94852172CF18165F
:104C60000CF46FCFC1CBB2E0FB2EA6C0BA89B23034
:104C700028F460E08FE00E94CB0BF0C061E0F2010D
:104C800080819181892B09F060E0872D0E94370E89
:104C9000AB89BC896D917C9190E080E00E942B18DB
:104CA0000E94DA0AEE24E394EB89FC8980819181E9
:104CB000892B09F0E12CCE2C00E020E048E261E0F5
:104CC0008B2D0E94DF0D80E00E94B40B113009F0A3
:104CD000C5C0F39471C08136ECF089366CF4880F4E
:104CE000990B80599E4F0E948118813009F04DC167
:104CF0008091E50290E046C18D368CF38D340CF442
:104D000022C160E08D3621F08E3609F01FC161E0CE
:104D10008FEF06C08134C4F3893484F761E0815495
:104D20000E94061F8EED91E00E94640E182F61E034
:104D3000680F85E00E94620CC12CEE24E39400E031
:104D400020E248E260E08FE60E94DF0D82E20E94EE
:104D5000690B60E18AE492E00E942B0B80E00E94E4
:104D6000690B85E593E00E94E10453E0A52EA10EB6
:104D70004AE365E082E0810F0E947A0C69E4262E06
:104D800063E0362EFDEFFA8B912C812CF12C10E094
:104D9000812F153009F483E0282F30E009E6702ECA
:104DA000780E99E4B92EB80E220F331FC9018E5B1D
:104DB0009D4F2C019C8B8B8BA98AA394698988E0D9
:104DC0000E94620C81E00E94A20BF1016591749136
:104DD00082E995E00E94FE3561E10E942B0B81E0A3
:104DE0000E94B40BF401EF0DF11DEE0FFF1FEE5CFE
:104DF000FD4FC080D1809F2D910F9F8BEE24E394B7
:104E0000C114D10409F0E12C6E2D8F898F590E94B5
:104E1000370EB60190E080E00E942B180E94DA0A5B
:104E2000CE2C00E020E048E261E08F898F5B0E9499
:104E3000DF0D81E00E94B40B113009F017CF8FEF26
:104E40008F0D823008F012CF60E08FE00E94CB0B14
:104E5000A1E0FA1609F407CFE2E0FE2E1F5FFFEF94
:104E60008F1A9F0A2A892F5F2A8B32E0230E311C6A
:104E7000163009F08DCF4AE365E08A2D0E947A0C46
:104E800069896D5F85E00E94620C8EEE91E00E9460
:104E90003D0F80E493E00E94E10484EF91E00E94E2
:104EA0003D0F82E393E00E94E1048DE60E94460EEE
:104EB00088E293E00E94E1048EE60E94460E8CE1B7
:104EC00093E00E94E10443E068E089898C5F0E94DE
:104ED0007A0C69896B5F85E00E94620C8FE60E9404
:104EE000460E80E193E00E94E1048AEF91E00E9487
:104EF0003D0F82E093E00E94E10482E20E94690B90
:104F000081E00E94A20B8091E50290E001960E9450
:104F1000B00D80E00E94690B83E00E94960980E05A
:104F200092E00E943D0F81EF92E00E94E1040E9416
:104F3000CB0A68E08FE60E94440918160CF4CBCE29
:104F40000E945F0A51CA61E08354EACE81330CF4B7
:104F5000ABC485334CF481538093E50290E00E940A
:104F6000B8110E942F21DECE893344F08F3609F02C
:104F7000D9CE8AE492E00E942A12BACE082E000C02
:104F8000990BC5970E945621CDCE1816CCF6CACEE5
:104F900088E595E00E942A128091E40290E00E9448
:104FA000852122CA8091E0020E94A7098093E00235
:104FB000809300014DCB8091E6020E94A709809367
:104FC000E60246CB7724739486E092E00E94640E5A
:104FD00020E0482F672D8A890E94DB1B8F5F0E948B
:104FE000F31C01E0080F43E068E00E947A0C602F98
:104FF00085E00E94620C88E60E94460E8CE294E0F6
:105000000E94E104602F8EE10E94620C11E01725DE
:10501000472D612F89E60E94550E8EE194E00E9493
:10502000E104602F83E30E94620C412F672D8AE622
:105030000E94550E83E194E00E94E10480E00E940A
:10504000A20B0E94CB0A69E08AE60E944409082F5D
:10505000472D6A890E945E20182F8111F3C30936FB
:1050600009F4CBCA0A3609F4ADCF083609F0E7C314
:1050700091E09CA3A1E0ABA3B1E0BEA7E1E0EDA766
:10508000F1E0FAA321E02DA331E03CA71D8E1E8E96
:105090001F8E18A21F8A188E198E1A8E812C912CA1
:1050A0005401212C312C2101A6E1BA89AB9FC0010A
:1050B0001124FC01EC5EFC4FFC8FEB8F05C08D8C46
:1050C0009E8CAF8CB8A011E066E074E085EC95E0B2
:1050D0000E94FE35AB8DBC8D8C91823009F4B6C038
:1050E000C8F5882309F45CC0813009F483C085ECDD
:1050F00095E00E94640ED82E1111FCC0672D8A899C
:105100000E94F90FAB8DBC8D8C918150823008F0DC
:10511000F1C0E12EF12C8091E7028150990BE81645
:10512000F9060CF0E7C0412F672D8A890E942F0AEB
:10513000882371F0B6E1BE9DF001BF9DF00D1124F2
:10514000EC5EFC4F40E06BE172E082810E94DE0A7F
:105150001F5FDFCF833009F4A2C0843041F66BEECD
:1051600073E081ED95E00E94FE351111C0CF909162
:105170003C049D8FA0913D04AE8FB0913E04BF8F43
:10518000E0913F04E8A31CA21BA21EA61DA61AA222
:105190001F8A188E198E1A8E812C912C540126C0CC
:1051A00060E074E081ED95E00E94FE3511119FCF23
:1051B000B0912C04BD8FE0912D04EE8FF0912E0460
:1051C000FF8F20912F0428A31CA21BA21AA21DA2AC
:1051D00080EA96E8A1E0B0E08F8B988FA98FBA8F14
:1051E00078E0872E72E5972EA12CB12C212C312C42
:1051F00021017DCF6BEF73E081ED95E00E94FE35DC
:10520000111175CF909130049D8FA0913104AE8F14
:10521000B0913204BF8FE0913304E8A31CA688E864
:105220009FE8A5E1B0E08F8B988FA98FBA8F58E8DF
:10523000852E5FE8952E55E1A52EB12C60E2262E35
:1052400068E4362E44244394512C51CF66EF73E02A
:1052500081ED95E00E94FE35111149CF9091340403
:105260009D8FA0913504AE8FB0913604BF8FE09131
:105270003704E8A380E197E2A0E0B0E08F8B988F3D
:10528000A98FBA8F38E5832E3BE1932EA12CB12C48
:1052900040EA242E4FE0342E412C512C28CF60EFD1
:1052A00073E081ED95E00E94FE35111120CF9091C1
:1052B00038049D8FA0913904AE8FB0913A04BF8F0E
:1052C000E0913B04E8A31CA21BA21AA21DA28FEF2F
:1052D0009FEFDC018F8B988FA98FBA8F98EE892E64
:1052E0009EE6992E93E0A92EB12C22242A94322CEA
:1052F0002101FDCE21E04D2D672D8A890E94DB1B07
:1053000011E0180F682F85E00E94620CECA5E0FB0D
:1053100060F8FDA1F0FB61F82AA120FB62F83DA531
:1053200030FB63F88EA580FB64F89BA190FB65F8C9
:10533000ACA1A0FB66F8B62DB170DB2E60FE07C0F5
:1053400081E60E94460E88ED93E00E94E104E62D7E
:10535000E270EE2E61FE07C082E60E94460E85ECEA
:1053600093E00E94E104F62DF470FF2E62FE07C068
:1053700083E60E94460E87EB93E00E94E10443E03F
:1053800068E0812F0E947A0C082F182F63FE12C04C
:10539000682F85E00E94620C84E60E94460E88EA2F
:1053A00093E00E94E10411E0100FB501A401802FE9
:1053B0000E948A1A64FE13C0612F85E00E94620C6D
:1053C00085E60E94460E89E993E00E94E1044D8D36
:1053D0005E8D6F8D78A1812F1F5F0E948A1A65FEF6
:1053E00011C0612F85E00E94620C86E60E94460E85
:1053F00081E993E00E94E104B201A101812F1F5FC6
:105400000E948A1A66FE12C0612F85E00E94620C1B
:1054100087E60E94460E88E893E00E94E1044F89E7
:10542000588D698D7A8D812F0E948A1A0E94CB0A2D
:1054300060E087E60E9444098FA71D861E861F86AE
:1054400019821A821B821C821D821E821F8218866C
:1054500019861A861B861C86E82FE156E73008F06D
:10546000E9C10E2E000CFF0BE85CF54D0C94823761
:105470003F2A012B582BCF2B5F28D72BDF2BDD208A
:1054800009F421CEA5019401672D8A890E94B11AE1
:105490006B017C01C114D104E104F10409F413CEC1
:1054A000AB8DBC8D8C91843009F495C1823009F0AC
:1054B0009FC08D87C501B4012CE432E040E050E08C
:1054C0000E946337C701B601685A71468109910984
:1054D0000E94B83628E13CEF4FEF5FEF0E94633740
:1054E000280D391D4A1D5B1D29833A834B835C833C
:1054F000B1E0BB8B09811A812B813C81ED84472D62
:105500006A8984E491E00E946A1DB1E0B9A3E9A12F
:10551000FB89EF1708F07FC10E2F10E09801220FD2
:10552000331F220F331F39AB28AB81E090E08C0F83
:105530009D1F820F931F9BA78AA7DC01CD90DD9052
:10554000ED90FC90A7019601672D8A890E94B11AFF
:105550006EA37FA388A799A7672B682B692B09F4F3
:1055600057C1EB8DFC8D8081823009F037C1C701B6
:10557000B6012CE432E040E050E00E9463376EA1B7
:105580007FA188A599A5685A7146810991090E9451
:10559000B83628E13CEF4FEF5FEF0E946337DA0146
:1055A000C9018C0D9D1DAE1DBF1DEAA5FBA5808305
:1055B0009183A283B383ADE0B0E0AC0FBD1FA00F19
:1055C000B11FE1E0F0E0EC0FFD1F28A939A9E20FBF
:1055D000F31F0081118122813381EC90472D6A896C
:1055E00084E491E00E946A1D89A18F5F89A38FCF17
:1055F00084E08D8789829A82AB82BC82E1E0EB8B6A
:1056000079CFEE2009F45FCDAB8DBC8D8C9120E07D
:1056100030E0A901813011F0A5019401672D8A893C
:105620000E94B11A6B017C01C114D104E104F104A0
:1056300009F449CDEB8DFC8D8081813051F18430AE
:1056400099F112E01D87C501B4012CE432E040E07D
:1056500050E00E946337C701B601685A714681095C
:1056600091090E94B83628E13CEF4FEF5FEF0E94AE
:105670006337280D391D4A1D5B1D29833A834B83EF
:105680005C831E872D823E824F82588632E03B8BA0
:1056900031CF86E08D8784E08E878D829E82AF82B7
:1056A000B886F2E0FB8B26CF8E8722E02B8B22CFB1
:1056B000FF2009F408CDAB8DBC8D8C9120E030E04B
:1056C000A901813011F0A5019401672D8A890E94FA
:1056D000B11A6B017C01DC01CB01885A9146A1090A
:1056E000B1098B8B9C8BAD8BBE8BAB8DBC8D8C91A4
:1056F000813089F586E08D8714E01E87C201B101F3
:105700002DE230E040E050E00E9463376B897C89F5
:105710008D899E890E94B83628EE33E040E050E043
:105720000E946337220D331D441D551D2D833E837A
:105730004F8358871F878F89988DA98DBA8D898748
:105740009A87AB87BC87CD28CE28CF2809F4BBCC5D
:1057500093E09B8BCFCE12E01D87C501B4012CE4F2
:1057600032E040E050E00E9463376B897C898D898C
:105770009E890E94B83628E13CEF4FEF5FEF0E9410
:105780006337280D391D4A1D5B1D29833A834B83DE
:105790005C831E872D823E824F825886CBCF41E0AC
:1057A000C501B4010E9490174B015C018CCC41E013
:1057B000C201B1010E9490171B012C0184CC41E071
:1057C0006F89788D898D9A8D0E9490176F8B788F55
:1057D000898F9A8F78CCA1E0AB8B8CCE813009F089
:1057E000EACEC701B6012DE230E040E050E00E9471
:1057F00063376EA17FA188A599A5685A7146810972
:1058000091090E94B83628EE33E040E050E0C5CE62
:105810003B8939A3E9CE1091E7020E94701580916F
:10582000E702811710F40E9470158091E202811145
:105830000E94B4219FA519160CF0C6CB44CCAFEC46
:10584000A00FAA8B10160CF4BFCBAFC84091020179
:1058500050910301E12C00E020E06091040180916F
:1058600005010E94BB076B017C01609108047091E7
:10587000090480910A0490910B040E942B1882E87D
:1058800092E00E942A120E94820F6C0D7D1D8E1DD7
:105890009F1D5FC8813011F00C943C230C94DC23D5
:1058A000813009F04EC940C9813009F421CA3ACA91
:1058B0001F920F920FB60F9211242F933F938F9345
:1058C0009F93AF93BF9380918A0590918B05A09190
:1058D0008C05B0918D053091890523E0230F2D377C
:1058E00058F50196A11DB11D2093890580938A0565
:1058F00090938B05A0938C05B0938D0580918E05B8
:1059000090918F05A0919005B09191050196A11DF0
:10591000B11D80938E0590938F05A0939005B09351
:105920009105BF91AF919F918F913F912F910F90D2
:105930000FBE0F901F90189526E8230F0296A11D09
:10594000B11DD2CF1F920F920FB60F9211242F9339
:105950003F934F935F936F937F938F939F93AF93F7
:10596000BF93EF93FF9389E396E00E947204FF9147
:10597000EF91BF91AF919F918F917F916F915F91C7
:105980004F913F912F910F900FBE0F901F90189540
:105990001F920F920FB60F9211242F938F939F9304
:1059A000EF93FF93E0914906F0914A068081E091E0
:1059B0004F06F091500682FD1BC0908180915206E7
:1059C0008F5F8F7320915306821741F0E09152064A
:1059D000F0E0E75CF94F958F80935206FF91EF91CD
:1059E0009F918F912F910F900FBE0F901F90189540
:1059F0008081F4CF1F920F920FB60F9211242F9334
:105A00003F934F935F936F937F938F939F93AF9346
:105A1000BF93EF93FF938091B900887F803609F49C
:105A20004AC0F0F5883209F4A7C018F5803109F4AE
:105A30009BC0B8F4882309F4F9C0883009F494C0F5
:105A4000FF91EF91BF91AF919F918F917F916F9156
:105A50005F914F913F912F910F900FBE0F901F902C
:105A60001895883109F488C0803251F780930D066B
:105A700014C0803409F49DC040F48033B9F38833F6
:105A8000F9F680930D0685ECB0C0803509F485C029
:105A9000883509F496C0883499F60E94F211D0CF67
:105AA000883909F48CC038F5883729F050F48836E5
:105AB00011F0803729F683E080930F061092D6020A
:105AC00057C0883809F47BC0803919F0803809F054
:105AD000B7CF8091D602803208F071C0E091D60233
