:100000000C94E8020C9410030C9410030C9410034D
:100010000C9410030C9410030C9410030C94100314
:100020000C9410030C9410030C9410030C94100304
:100030000C9410030C9410030C9410030C941003F4
:100040000C94392C0C9410030C94A92C0C94832C34
:100050000C9410030C9410030C9410030C941003D4
:100060000C94DB2C0C9410034C564C00442E4F2E59
:10007000004F525000525444004C6576656C004F5E
:1000800032005265646F780045430054656D702EF0
:100090000025006D5600704800C2B55300C2B04341
:1000A0000058025802840384035802000001010131
:1000B0000102014E616D652C004F2C252C31004F43
:1000C0002C6D672C30004B2C312E30004F2C5347B9
:1000D0002C30004F2C532C30004F2C5444532C30D8
:1000E000004F2C45432C3100532C63004C2C310025
:1000F00001010101010064727900686967682C00E0
:100100006D69642C006C6F772C0043616C003A20A1
:1001100000C2B043005D20403A005B00496E742E7F
:10012000204C6576656C202D2031004552520056DA
:10013000616C3A200045525200205600537461749D
:1001400075733A2000536C61766520403A20004474
:100150006F20284175746F2D294164647265737333
:100160002865732900283173742920284175746F1C
:100170002D2941646472657373203D2000446F2013
:10018000284175746F2D294E616D652873290028EB
:100190004175746F2D294E616D65203D20004465C9
:1001A0006C657465204E616D6528732900436C652C
:1001B00061722043616C6962726174696F6E287349
:1001C00029202020202000526573657420202020E3
:1001D00020004932432C0075008800960071006CA5
:1001E0000068003D20002D50742E200020746F20E8
:1001F00053657474696E672D4E6F2E205B312D33FD
:100200005D00290020280020436F70792046554C5E
:100210004C2053455454494E4720007C2020205404
:10022000656D702E202020207C202020204543203A
:10023000202020207C2020202020704820202020EA
:10024000207C202020205265646F78202020207C94
:10025000202020204F3220202020207C2020204CD5
:100260006576656C20207C003C007E003C007E00B2
:100270003E003E003A2000724800426F6F742046F4
:100280006F72205465726D696E616C2055736500E4
:10029000426F6F74204173204D6F64425553205359
:1002A0006C6176652020202020004661696C5361D6
:1002B000666500746F6F4C6F772020207C202020B3
:1002C000204C6F7720202020207C2020202048698F
:1002D0006768202020207C2020746F6F4869676841
:1002E0002020207C0044656C617954696D65730041
:1002F00020436F7079546F536574205B312D345DEA
:10030000002053656C656374536574203D2000457F
:100310006469744E616D652020200052756E416CD9
:100320006C43656E742E0052756E414C4C2020203B
:10033000002052756E53696E676C65202020002086
:1003400045646974202020008B008800960082009C
:100350007F007900207C202020202020204C4F5737
:10036000202020202020207C2020202020204849E0
:100370004748202020202020207C002D44756D6DD2
:10038000794E616D652D005365742048696768007A
:10039000536574204C6F7700536574204156472095
:1003A0004173204D6964005365742053696E676C16
:1003B000652F4D696400446F20332D50742E204307
:1003C000616C2E00446F20322D50742E2043616CDE
:1003D0002E202020202000446F20312D50742E200C
:1003E00043616C2E2020202020004F32202D004F12
:1003F0005250202D007048202D004543202D0052E2
:100400005444202D002D2043616C69627261746533
:10041000200053656C65637420414C4C0053656C3F
:100420006563742053696E676C650043616C696233
:10043000726174696F6E2873292E2E2E0020536509
:100440006C2E53657474696E67205B312D335D20AB
:100450003D200053657474696E672D4E616D652093
:100460003D20004D616E75616C2E2E2E0054696D1D
:1004700065732E2E2E2020200056616C7565732E1C
:100480002E2E202020004D6F72652E2E2E20202033
:1004900000417344656661756C74004B6579436F08
:1004A0006C6F7220202000436F6C6F722020200040
:1004B00044696D005370656564203D2000416464AB
:1004C000722E203D200054696D652020200044617B
:1004D0007465202020005265426F6F742020200038
:1004E00052655363616E2020200048003B001B5B77
:1004F000001B5B324A006D001B5B001B5B316D0013
:100500001B5B32326D0044001B5B0043001B5B0031
:100510001B5B376D001B5B346D002040200020000A
:100520001B5B32346D003A002900207C20001B3711
:10053000001B5B32376D001B38003E3E2000000080
:100540000000240027002A000000000025002800E9
:100550002B000000000023002600290004040404EE
:10056000040404040202020202020303030303035D
:10057000010204081020408001020408102001023A
:100580000408102000000008000201000003040716
:1005900000000000000000009D00990096009300FC
:1005A000910091002020202053656C656374206BBE
:1005B00065792C206F7220456E74657228666F72A3
:1005C0002072657475726E292E2E2E000A00FA2D87
:1005D00011241FBECFEFD8E0DEBFCDBF26E0A4E2DE
:1005E000B2E001C01D92A63EB207E1F712E0A0E022
:1005F000B1E0E8ECFEE602C005900D92A432B1072E
:10060000D9F712E0C8EED2E004C02197FE010E94A3
:100610001B37C73ED107C9F70E94332E0C946237AF
:100620000C9400008091A3059091A405891B990B5F
:100630000895833081F028F4813099F08230A9F058
:1006400008958730A9F08830C9F08430B1F48091E2
:1006500080008F7D03C0809180008F778093800021
:10066000089584B58F7784BD089584B58F7DFBCFC1
:100670008091B0008F778093B00008958091B00092
:100680008F7DF9CFCF93DF93282F30E0F901EC571E
:10069000FA4F8491F901E059FA4FD491F901E45AE3
:1006A000FA4FC491CC23A1F081110E941903EC2FC1
:1006B000F0E0EE0FFF1FEE5AFA4FA591B491EC91C6
:1006C000ED2381E090E009F480E0DF91CF9108957F
:1006D00080E090E0FACF1F93CF93DF93282F30E094
:1006E000F901EC57FA4F8491F901E059FA4FD4918E
:1006F000F901E45AFA4FC491CC23A9F0162F8111C5
:100700000E941903EC2FF0E0EE0FFF1FE85BFA4F99
:10071000A591B4918FB7F894EC91111108C0D095C0
:10072000DE23DC938FBFDF91CF911F910895DE2BE5
:10073000F8CF3FB7F89480918E0590918F05A091E6
:100740009005B091910526B5A89B05C02F3F19F0E3
:100750000196A11DB11D3FBFBA2FA92F982F882741
:10076000BC01CD01620F711D811D911D42E0660F1C
:10077000771F881F991F4A95D1F708958F929F92EE
:10078000AF92BF92CF92DF92EF92FF926B017C010A
:100790000E9499034B015C01C114D104E104F104EE
:1007A000B9F00E949903681979098A099B09683E82
:1007B00073408105910580F321E0C21AD108E10858
:1007C000F10888EE880E83E0981EA11CB11CE4CFCE
:1007D000FF90EF90DF90CF90BF90AF909F908F9061
:1007E000089508950895AF92BF92CF92DF92EF924D
:1007F000FF920F931F93CF93DF936C017B018B01CB
:10080000040F151FEB015E01AE18BF08C017D1071A
:1008100059F06991D601ED91FC910190F081E02DA4
:10082000C6010995892B79F7C501DF91CF911F91F9
:100830000F91FF90EF90DF90CF90BF90AF90089511
:10084000FC01538D448D252F30E0842F90E0821BD6
:10085000930B541710F0CF96089501970895FC015B
:10086000918D828D981761F0A28DAE0FBF2FB11DB3
:100870005D968C91928D9F5F9F73928F90E008950B
:100880008FEF9FEF0895FC01918D828D981731F0C5
:10089000828DE80FF11D858D90E008958FEF9FEF19
:1008A0000895FC01918D228D892F90E0805C9F4FEF
:1008B000821B91098F739927089589E396E00E941E
:1008C000510421E0892B09F420E0822F089580E073
:1008D00090E0892B29F00E945D0481110C940000A6
:1008E0000895FC01A48DA80FB92FB11DA35ABF4FC5
:1008F0002C91848D90E001968F739927848FA6891F
:10090000B7892C93A089B1898C91837080648C9372
:10091000938D848D981306C00288F389E02D808121
:100920008F7D80830895EF92FF920F931F93CF9353
:10093000DF93EC0181E0888F9B8D8C8D98131AC01A
:10094000E889F989808185FF15C09FB7F894EE8901
:10095000FF896083E889F98980818370806480835E
:100960009FBF81E090E0DF91CF911F910F91FF90A9
:10097000EF900895F62E0B8D10E00F5F1F4F0F7351
:100980001127E02E8C8D8E110CC00FB607FCFACF0C
:10099000E889F989808185FFF5CFCE010E94710435
:1009A000F1CFEB8DEC0FFD2FF11DE35AFF4FF082DD
:1009B0009FB7F8940B8FEA89FB8980818062CFCF43
:1009C0000F931F93CF93DF938C01D0E0C0E0F80129
:1009D000EC0FFD1F6491662341F089E396E00E94CD
:1009E0009304892B11F02196F2CFCE01DF91CF91A4
:1009F0001F910F910895682F89E396E00C9493045A
:100A0000CF93DF93EC01888D8823B9F0AA89BB8945
:100A1000E889F9898C9185FD03C0808186FD0DC030
:100A20000FB607FCF7CF8C9185FFF2CF808185FF51
:100A3000EDCFCE010E947104E9CFDF91CF910895EF
:100A40002091B402260F3327331F21323105ECF4F5
:100A500020910F06FC0190E080E0243069F082E0F4
:100A60000895A091B4022191AC014C565D4FA40FA2
:100A7000B52FB11D2C930196861798F38091B4027F
:100A8000680F6093B40280E0089581E008951092A9
:100A90000F0681E080930E061092E90561E082E185
:100AA0000E946B0361E083E10E946B03E9EBF0E0DD
:100AB00080818E7F808380818D7F808388E4809396
:100AC000B80085E48093BC000895CF93DF9391E054
:100AD000909393028823B9F0C091B800D091BA00E6
:100AE0008091BC008A7B8093BC0060E082E10E9420
:100AF0006B0360E083E10E946B030E944705D09383
:100B0000BA00C093B800DF91CF9108958F929F9261
:100B1000AF92BF92CF92DF92EF92FF920F931F930B
:100B2000CF93DF93D0913806D13208F0D7C0182F79
:100B3000C09137060E9499036B017C0180910F06DA
:100B400081116BC082E080930F0610930E068FEF29
:100B500080930D0610920C06D0930B06A7E1B6E029
:100B6000EBEEF5E080E0D81391C01092EA05809199
:100B7000EA05CC0FC82BC093EA058091E9058130C6
:100B800009F088C01092E9050E9499036B017C016D
:100B90008091EA058093BB00809111069091120626
:100BA000A0911306B0911406892B8A2B8B2BA1F0F0
:100BB0000E949903009111061091120620911306CC
:100BC000309114066C197D098E099F0906171707C5
:100BD0002807390708F442C08091BC0083FDD8CFB4
:100BE00085EC8093BC000E9499036B017C0180918D
:100BF0000F06823009F450C080910D068F3F09F432
:100C00006FC080910D06803209F46CC080910D0692
:100C1000803309F469C084E026C080911106909168
:100C20001206A0911306B0911406892B8A2B8B2BE8
:100C300009F484CF0E9499038090110690901206C7
:100C4000A0901306B09014066C197D098E099F09B7
:100C500086169706A806B90608F070CF8091100690
:100C60000E94650585E010921606109238061092D3
:100C70001506DF91CF911F910F91FF90EF90DF90BC
:100C8000CF90BF90AF909F908F9008959D9191933A
:100C90008F5F69CF85EEA5CF8091110690911206E6
:100CA000A0911306B0911406892B8A2B8B2B09F483
:100CB0009ECF0E9499030091110610911206209177
:100CC0001306309114066C197D098E099F090617C9
:100CD00017072807390708F08ACFC0CF81E0C3CFB4
:100CE00080E0C1CF82E0BFCF83E0BDCF0895E09127
:100CF000A4058091A305E81730F4F0E0EB55FA4F16
:100D0000808190E008958FEF9FEF08959091A40562
:100D10008091A3052FEF3FEF981748F4E92FF0E0FB
:100D2000EB55FA4F208130E09F5F9093A405C901F5
:100D30000895CF92DF92EF92FF920F931F93CF937C
:100D4000DF937C01CB018A0120911506222389F0D3
:100D5000EB016B01C40ED51ECC15DD0569F0699160
:100D6000D701ED91FC910190F081E02DC70109952B
:100D7000F3CF642F0E942005C801DF91CF911F910E
:100D80000F91FF90EF90DF90CF900895CF93DF9376
:100D90001F92CDB7DEB76983209115062223F9F0A3
:100DA00020913806203258F021E030E0FC013383F6
:100DB000228390E080E00F90DF91CF9108958091A1
:100DC0001606E82FF0E0E95EF94F998190838F5F76
:100DD000809316068093380681E090E0ECCF61E0C6
:100DE000CE0101960E942005F7CF90E080E00895A3
:100DF0009C0164E670E00E94D436FC01C901837056
:100E00009927892B11F4309779F4C90160E971E0D1
:100E10000E94D4369C01EF2B11F4892B19F481E048
:100E2000232B09F080E0089581E00895863029F0B1
:100E300034F4823051F0843031F48EE108958930F9
:100E4000E1F38B30D1F38FE10895CB010E94F806D6
:100E5000882311F08DE108958CE108952F923F923F
:100E60004F925F926F927F928F929F92AF92BF92BA
:100E7000CF92DF92EF92FF920F931F93CF93DF9366
:100E80002B013C011A014901E80187EE97E09983A3
:100E9000888340E853E361EE71E04415550566052B
:100EA0007705B0F488819981019699838883441AE3
:100EB000550A660A770A0E94F80640E450E761E3A3
:100EC00070E08111EACF40EC5EE160E370E0E5CFD5
:100ED00081E0F401808360E87EED88E290E06415B3
:100EE000750586059705B0F4F40120812F5F2083F6
:100EF000461A570A680A790A68817981822F0E9406
:100F00001607A82FB0E020E831E541E050E00E944C
:100F10008336E5CFC301B20120E831E541E050E07E
:100F20000E9461362F5FF101208320E13EE040E026
:100F300050E00E946136F70120832CE330E040E06E
:100F400050E00E946136F6012083F5016083DF9155
:100F5000CF911F910F91FF90EF90DF90CF90BF90B6
:100F6000AF909F908F907F906F905F904F903F9049
:100F70002F9008954F925F926F927F928F929F92DF
:100F8000AF92BF92CF92DF92EF92FF920F93CF93E7
:100F9000DF93C82FC62E3A01D22F97EE492E97E045
:100FA000592E812C912C540146145704C0F4C201CF
:100FB0000E94F80681110CC020E8821A2CEC920ADB
:100FC0002EE1A20A2EEFB20A4FEF441A540AECCFD8
:100FD0003BE7931A3DE1A30A3EEFB30AF5CF442461
:100FE0004394512CD12C4C145D04A4F4B301842DF2
:100FF0000E941607A82FB0E020E831E541E050E05C
:101000000E948336860E971EA81EB91E5FEF451AF2
:10101000550AE9CF202F30E0ACE3B0E00E94C5369E
:101020009B01AC012E0D311D411D511D69017A013D
:101030002D2F30E0A0E1BEE00E94C536C60ED71EBF
:10104000E81EF91E4C2F4150550BDA0120E831E51E
:1010500041E050E00E9421376C0D7D1D8E1D9F1DCB
:10106000680D791D8A1D9B1DDF91CF910F91FF9017
:10107000EF90DF90CF90BF90AF909F908F907F9038
:101080006F905F904F9008950F931F938FB7F894D0
:1010900040918A0550918B0560918C0570918D056A
:1010A0008FBF00917E0210917F02209180023091CB
:1010B0008102DB01CA01401751076207730718F468
:1010C0000197A109B109801B910BA20BB30B0091F1
:1010D0007A0210917B0220917C0230917D02800F78
:1010E000911FA21FB31F883E23E09207A105B105FF
:1010F00008F4C7C040937E0250937F026093800241
:1011000070938102885E9340A109B10980937A02AD
:1011100090937B02A0937C02B0937D028091760233
:1011200090917702A0917802B09179020196A11D69
:10113000B11D8093760290937702A0937802B093CA
:101140007902809175028F5F809375028C3339F438
:1011500080917402109275028F5F80937402809167
:1011600074028C3339F480917302109274028F5F91
:101170008093730280917302883159F41092730244
:101180008091710290917202019690937202809305
:101190007102809170028F5F809370024091080409
:1011A0005091090460910A0470910B044F5F5F4FE6
:1011B0006F4F7F4F409308045093090460930A04D3
:1011C00070930B048C3339F480916F02109270028B
:1011D0008F5F80936F0280916F028C3339F480911E
:1011E0006E0210926F028F5F80936E0280916E028A
:1011F000883121F081E01F910F91089510926E02C5
:10120000909105019F5F90930501809104018230C8
:1012100009F59D3170F080910201909103010E94C7
:10122000F806811106C081E08093050183E0809378
:101230000401809104018D30E9F681E0809304017E
:101240008091020190910301019690930301809394
:101250000201D0CF863019F020F4843031F42FE130
:1012600005C08930E1F38B30D1F320E2022E000C6F
:10127000330B92171306E9F691E0909305018F5F07
:10128000D6CF80E0B8CFCF92DF92EF92FF920F934C
:101290001F93CF93DF93CFEFDCE3E62EF12C082FE3
:1012A00010E068018FE1C81AD108DD23A1F10E9486
:1012B00044088111D15089E396E00E945104892BA2
:1012C000A1F389E396E00E942F04C82F803304F134
:1012D000082E000C990B9C0120533109E216F306ED
:1012E000D4F4C1369CF008171907ACF48C159D0591
:1012F00094F0CB3179F0CB3271F0CD3261F0DCE398
:101300008C2F8D7F8C3339F0CFEFD1CFC13474F770
:10131000CD3079F7C0E08C2FDF91CF911F910F91E5
:10132000FF90EF90DF90CF900895CF93C82FC150DA
:1013300020F080E20E94FB04FACFCF91089581E073
:101340000C94950980E195E00C94E004813671F0ED
:101350002AE5853261F0882349F021E0280F93EED9
:10136000980F983020F08955883008F02EE1822FB0
:1013700008954F925F926F927F928F929F92AF9259
:10138000BF92CF92EF92FF920F931F932B013C01DC
:101390008E2DD5011C92812C912C540141145104A5
:1013A0006104710461F08090080490900904A09099
:1013B0000A04B0900B0484189508A608B708E02F1B
:1013C000F0E0EE0FFF1FEC55FB4F608171817B0158
:1013D00010E000E0E814F9040A051B0558F48E1823
:1013E0009F08A00AB10A281539054A055B05C8F00F
:1013F00091E09C93CC2039F18430F1F0B0F482304C
:10140000C8F0C301B2011F910F91FF90EF90CF90F0
:10141000BF90AF909F908F907F906F905F904F9014
:101420000895412C512C3201E5CF863051F368F0FC
:10143000873039F0865F01C08CE06C910E946B03AD
:10144000E0CF8DE0FACF8E5FF8CF87E0F6CF0E9435
:101450009F098AE30E94FB040C949F094817C1F07E
:10146000613091F4E6E1E49FD0011124AC5EBC4F01
:10147000E89FF0011124EC5EFC4F81E02C919081FB
:10148000291729F080E0089581E06230D9F70895A6
:1014900081E0FDCF96E1899FF0011124EC5EFC4FC5
:1014A000E081F0E0EE0FFF1FEF55FF4F6591749163
:1014B000072E000C880B990B0C94BE03CF93C2E04F
:1014C00060E08C2F0E946B03CF5FCE30C9F7CF91C5
:1014D0000895FC0101900020E9F73197AF01481B06
:1014E000590BBC0189E396E00C94F3038F929F9211
:1014F000AF92BF920F931F93CF93DF93CDB7DEB719
:10150000A1970FB6F894DEBF0FBECDBF19A242302F
:1015100008F44AE08E010F5D1F4F842E912CB12CF0
:10152000A12CA50194010E946136E62FB901CA01E0
:10153000EA30F4F4E05DD801EE938D01232B242BE7
:10154000252B79F790E080E0109719F0CD010E94EB
:10155000690AA1960FB6F894DEBF0FBECDBFDF912A
:10156000CF911F910F91BF90AF909F908F90089552
:10157000E95CE1CF009711F00C94690A90E080E0FB
:10158000089582E892E00C94BA0A82E491E00C9407
:10159000690ACF93DF930E94E004EC010E94C50A20
:1015A0008C0F9D1FDF91CF9108958CEC95E00E94E8
:1015B000C90A84EA95E00C94E004CF92DF92FF928E
:1015C0000F931F93CF93DF93EB0109900020E9F76E
:1015D0002197C61BD70BCC2369F18B0191E0909327
:1015E0001506809337061092160610923806F12CD5
:1015F000EC2FE40FFF27FF1F6F018F2D90E08C155C
:101600009D0554F4800F911FFC01608186ED96E0EA
:101610000E94C606F394F1CF81E00E9486058111F5
:101620000BC08C2FDF91CF911F910F91FF90DF9016
:10163000CF90089580E0F6CF8FEFF4CF96E1899FA9
:10164000F0011124EC5EFC4F40E065E471E0828122
:101650000C94DD0A0F931F93CF938C01FC01019032
:101660000020E9F73197E81BF90B6E1B862F869552
:10167000C62FC81B0E949509C8010E94BA0A8C2F68
:10168000CF911F910F910C949509682F70E090E015
:1016900080E04AE00C94760ACF93C82F8DE095E065
:1016A0000E94E0048C2F0E94450B8BE095E0CF91C7
:1016B0000C94E004CF93C82F88E095E00E94E004EA
:1016C0008C2F0E94450B86E095E0CF910C94E004AE
:1016D000CF93C82F811101C0C7E280916D028111A3
:1016E0000CC082EE8C0F883030F086EA8C0F883088
:1016F00010F0C73211F4C093010188EF94E00E940A
:10170000E0048C2F0E94450B86EF94E00E94E004D9
:10171000C73211F0CF910895C1E3DFCFCF93C82F27
:1017200010926D0280E00E94A10B80910101CC23F8
:1017300029F081E080936D0280910001CF910C949B
:10174000680BCF93C82F80916D02882319F080E039
:101750000E948E0B8BEF94E0C11102C080E095E0F7
:10176000CF910C94E004CF93C82F80E00E94A10B8E
:101770008AE295E00E94E004CC2321F081E0CF9141
:101780000C94A10BCF91089580E00E94B30B81E0EF
:101790000C945A0BCF93C62F0E94950981E00E94AA
:1017A000B30B8C2FCF910C949509CF93C82F80E069
:1017B0000E948E0B8C2F0E94680B81E0CF910C94BD
:1017C000A10B81110C94D50B80E00E94A10B80E04D
:1017D0000C94680B8091E6020E94E10B85E195E094
:1017E0000C94E00480E00E94680B81EF94E00C947C
:1017F000E0048F929F92AF92BF92CF92DF92EF92CE
:10180000FF920F931F9390E0FC01EE0FFF1FEE0F6E
:10181000FF1FE05CFA4F0081118122813381FC01BE
:10182000EE0FFF1FEE0FFF1FE85DFA4FC080D18063
:10183000E280F380FC01EE0FFF1FEE0FFF1FE05F61
:10184000FA4F80809180A280B380FC01EE0FFF1FD1
:10185000EE0FFF1FE45DFB4F408151816281738178
:10186000880F991F880F991FFC01E850FB4F80815A
:101870009181A281B381481759076A077B07A4F0B9
:1018800082E2481559056A057B057CF08FE1041753
:101890001507260737074CF080E2C416D506E60682
:1018A000F7061CF481E201C084E21F910F91FF90C2
:1018B000EF90DF90CF90BF90AF909F908F900C945F
:1018C000680BCF93DF93C82FD62F8EEE94E00E9443
:1018D000E0048D2F0E94450B8CEE94E00E94E00402
:1018E0008C2F0E94450B8AEE94E0DF91CF910C94EF
:1018F000E0041F93CF93DF93C82F862FD42FCC23E0
:1019000031F011E01C0F6C2F0E94610CC12FD150DF
:1019100020F08DE20E94FB04FACF8C2FDF91CF9153
:101920001F910895CF93C82F81E00E94A10B8BE1F6
:1019300092E00E94E0044CE463E08C2F0E94790C5A
:10194000C82F80E00E94A10B8C2FCF910895CF92D9
:10195000DF92EF92FF920F931F93CF93DF93C82FE5
:101960001092C5050E9499036B017C0180910F06BE
:10197000811166C081E080930F0680930E069FEF71
:1019800090930D0610920C069FE190930B068093A6
:10199000EA058091EA05CC0FC82BC093EA05809137
:1019A000E905813009F0A3C01092E9050E9499036E
:1019B0006B017C018091EA058093BB008091110648
:1019C00090911206A0911306B0911406892B8A2BD0
:1019D0008B2BA1F00E949903009111061091120621
:1019E00020911306309114066C197D098E099F0908
:1019F000061717072807390708F443C08091BC0071
:101A000083FDD8CF85EC8093BC000E9499036B01C5
:101A10007C0180910F06813009F46BC080910C0627
:101A2000D0E2803210F4D0910C06ABEEB5E0E5EADE
:101A3000F5E080E08D1751F19D9191938F5FFACF82
:101A40008091110690911206A0911306B091140690
:101A5000892B8A2B8B2B09F489CF0E949903009143
:101A600011061091120620911306309114066C197C
:101A70007D098E099F09061717072807390708F0FF
:101A800075CF809110060E946505D0E01092A405E4
:101A9000D093A30511E0C0E08091A405D817B1F060
:101AA000C132A4F486ED96E00E948606112309F463
:101AB00045C0813009F43FC0C0E08F3F39F0CFEF1F
:101AC0008E3F21F0CEEF823009F0CCEF81E00E9412
:101AD0008605882311F0C7FFCDEF8C2FDF91CF91C2
:101AE0001F910F91FF90EF90DF90CF90089585EEBA
:101AF0008ACF8091110690911206A0911306B091A1
:101B00001406892B8A2B8B2B09F483CF0E9499030F
:101B100000911106109112062091130630911406BF
:101B20006C197D098E099F090617170728073907C1
:101B300008F06FCFA6CFC0E010E0AECFEC2F0C2E98
:101B4000000CFF0BEB53FA4F8083882309F4BECFC0
:101B5000CF5FEC2FF0E0EB53FA4F1082EDCFCF9236
:101B6000DF92EF92FF92CF93DF936C01092E000C6E
:101B7000EE08FF0897FF17C08DE20E94FB04EC01FE
:101B800066277727CB016C197D098E099F094AE0EA
:101B90000E94760A8C0F9D1FDF91CF91FF90EF90EE
:101BA000DF90CF9008954AE0C701B601DF91CF9151
:101BB000FF90EF90DF90CF900C94760ACF92EF9247
:101BC0000F931F93CF93DF93182FD42FC22F611140
:101BD0000E949F09EE2011F0C11005C080E00E9414
:101BE0008E0B0E94EA0BDD2319F08D2F0E94FB045F
:101BF000812F0E94FB0488E295E00E94E00400230C
:101C000021F086E295E00E94E00480E00E94A10BB2
:101C100080E295E00E94E00401110E949F09CC231C
:101C200019F08C2F0E94FB0480E00E94680BEE20CC
:101C3000A1F0C11014C081E0DF91CF911F910F91ED
:101C4000EF90CF900C94A10B81E0DF91CF911F9189
:101C50000F91EF90CF900C948E0BC110F5CFDF91C8
:101C6000CF911F910F91EF90CF900895CF92EF9267
:101C70000F93C62EE12C00E020E240E060E00E94DD
:101C8000DE0D0F91EF90CF900895CF92EF920F93CA
:101C9000C12CE12C01E020E040E060E00E94DE0D7C
:101CA0000F91EF90CF900895CF92EF920F93C42EA3
:101CB000E62E01E020E040E060E00E94DE0D0F91A2
:101CC000EF90CF900895CF93DF93EC010E94F20B39
:101CD00080E00E94680B0E94A20961E081E00E94FE
:101CE000610C81E00E94A10B60E5CE010E942A0BED
:101CF00080E00E94A10B81E395E00E94E00482E075
:101D0000DF91CF910895CF92DF92EF92FF920F93E0
:101D10001F93CF93DF93CDB7DEB72C970FB6F89410
:101D2000DEBF0FBECDBF8CE0E6E0F1E0DE01119634
:101D300001900D928A95E1F724E2C22E22E0D22E84
:101D4000760112E000E0812F0E944203F701919199
:101D50007F01981719F03197808301E01F5F1E30D3
:101D600091F7011104C080913002811176C07E018B
:101D7000F9E0EF0EF11C8E010F5F1F4F60913102F1
:101D8000F80181918F010E94610CF60181916F0130
:101D9000882309F451C082E20E94D50B82E792E0C9
:101DA0000E94E00481E00E948E0B8EE692E00E9489
:101DB000E0040E151F0511F78CE2C82E82E0D82E24
:101DC000EE24E394F12CEC0EFD1EFCE0EF0EF11C72
:101DD00060913102F80181918F010E94610CF6013E
:101DE00081916F01882399F181E20E94D50B8CE6E5
:101DF00092E00E94E00482E00E945A0B81E00E947F
:101E00008E0B8AE692E00E94E004E016F10601F7EC
:101E100081E08093300280E02C960FB6F894DEBF0C
:101E20000FBECDBFDF91CF911F910F91FF90EF902B
:101E3000DF90CF900C94E10B81E00E948E0B80E745
:101E400092E00E94E00480E20E94D50BAECF81E0D8
:101E50000E948E0B88E692E0D6CF2C960FB6F894AF
:101E6000DEBF0FBECDBFDF91CF911F910F91FF90CD
:101E7000EF90DF90CF900895CF93DF93EC0180E057
:101E80000E948E0B0E94EA0BCE010E94BA0A80E0EB
:101E90000E948E0B80E295E00E94E00480E0DF91DA
:101EA000CF910C94E10BCF93C82F682F85E00E944F
:101EB000610C87E491E00E943C0F87E092E00E9471
:101EC000E00482E20E94680B88E595E00E94BA0A6D
:101ED00084E092E00E94E0048091E40290E00196A8
:101EE0000E94AF0D82E092E00E94E00480E00E9438
:101EF000680B8CEE91E00E94E00481E08C0FCF91A2
:101F00000895FF920F931F93CF93DF936BE471E0DB
:101F100082E995E00E949E35F12C00E010E0D0E0CF
:101F2000C0E00097E9F0C330D105E1F00E947035C0
:101F30008C33910598F5209761F48831910574F5FB
:101F4000182F6BE471E090E080E00E949E352196AE
:101F5000E8CFC130D10511F4082FF3CFF82EF1CF1F
:101F60002397E1F4212F30E0A0E1BEE00E94C536C6
:101F70002CE3029F80011124012E000C220B330B55
:101F8000600F711F821F931F6F0D711D811D911DA9
:101F9000DF91CF911F910F91FF90089560E070E065
:101FA000CB01F6CFCF93DF93C82FD62F80E00E94CE
:101FB0009509DD23C9F081E00E948E0BEC2FF0E043
:101FC000EE0FFF1FE856FA4F6591749182E995E094
:101FD0000E9497350E94BA0A83E00E94950980E02A
:101FE000DF91CF910C948E0B80E00E94680BE6CFBE
:101FF0006F927F928F929F92AF92BF92CF92DF9219
:10200000EF92FF920F931F93CF93DF93CDB7DEB77D
:10201000E6970FB6F894DEBF0FBECDBF782E662EC2
:1020200084E1E82E83E0F82ED12CC12C809113039B
:102030008150990BC816D9060CF077C04C2D662D2F
:10204000872D0E942E0A882309F468C06CEE70E088
:10205000CE0101960E949735F7018081813051F1C0
:1020600028F0843009F446C001E007C068EE70E053
:10207000CE010A960E94973502E0CE0101965C01DE
:10208000912C812C10E0801691060CF041C040E0AC
:10209000B501F70182810E94DD0A6CE271E080E007
:1020A00090E00E94BE03FFEF8F1A9F0A89E0A80EFE
:1020B000B11CE9CF61EE70E0CE010A960E9497351F
:1020C00069ED70E0CE0143960E94973563ED70E0B4
:1020D000CE014C960E9497356CEC70E0CE0185964F
:1020E0000E94973566EC70E0CE018E960E9497357F
:1020F00006E0C3CF6FEB70E0CE010A960E949735E1
:1021000069EB70E0CE0143960E94973503E0B5CFAE
:102110006CE271E080E090E00E94BE039FEFC91A7C
:10212000D90AE6E1EE0EF11C81CFE6960FB6F894DF
:10213000DEBF0FBECDBFDF91CF911F910F91FF90FA
:10214000EF90DF90CF90BF90AF909F908F907F9057
:102150006F9008955F926F927F928F929F92AF924D
:10216000BF92CF92DF92EF92FF920F931F93CF9384
:10217000DF9300D000D000D0CDB7DEB75C01662E73
:10218000542E722ECE0101966C0186E0D6011D926E
:102190008A95E9F704E113E0F12CE12C8091130317
:1021A0008150990BE816F9060CF073C04E2D652D81
:1021B000862D0E942E0A882309F450C063EB70E03C
:1021C00085EC95E00E9497357720C1F0D801EC911D
:1021D000F0E0D601AE0FBF1F8C918F5F8C93EE0F96
:1021E000FF1FE952FE4F6591749182E995E00E94CC
:1021F0009735BC018AEC95E00E94523785EC882E19
:1022000085E0982EF40101900020E9F7CF01B50197
:1022100001970E945237772091F0F401019000203D
:10222000E9F7E65CF540FF27EB53FA4FD8018C91B4
:10223000D601A80FB11D8C91805D8083118241E091
:1022400065EC75E0F80182810E94DD0A181634F40D
:102250006AEC75E0C80105960E945237D8011296C3
:102260008C9191E090931506809337061092160694
:102270001092380660E086ED96E00E94C606F801EE
:1022800082810E948605FFEFEF1AFF0A0A5E1F4F48
:1022900085CF26960FB6F894DEBF0FBECDBFDF9177
:1022A000CF911F910F91FF90EF90DF90CF90BF9053
:1022B000AF909F908F907F906F905F9008950F9355
:1022C0001F93CF93DF930BED12E0C5EED3E0CE0169
:1022D0000E943B36F80181938F012196C13FF3E0C4
:1022E000DF07A9F76091DC027091DD028091DE02C8
:1022F0009091DF0220EB34E040E050E00E94613634
:10230000672B682B692B61F080E895E2A0E0B0E0D4
:102310008093DC029093DD02A093DE02B093DF0293
:102320008091E402833020F01092E4021092E202E5
:102330008091E502843020F01092E5021092E202D2
:102340008091E3028B3020F01092E3021092E202BF
:102350008091E00280930001DF91CF911F910F9156
:1023600008950F931F93CF93DF9329E2289F800155
:10237000299F100D1124C2E3D2E0015F1E4FC80156
:102380008C0F9D1F0E943B36899382E0CB35D80786
:10239000B1F7DF91CF911F910F9108950F931F9384
:1023A000CF93DF9325EC289F8001299F100D1124E6
:1023B000C4EAD4E0025B1340C8018C0F9D1F0E9449
:1023C0003B36899385E0C936D807B1F7DF91CF91C5
:1023D0001F910F91089585ED8093BC0080911106A7
:1023E00090911206A0911306B09114060796A11DB4
:1023F000B11D23E0B695A795979587952A95D1F7B6
:102400002091BC0024FD03C010920F060895409156
:102410001106509112066091130670911406452B17
:10242000462B472B69F30097A105B10541F025E341
:102430002A95F1F700000197A109B109E1CF809138
:1024400010060C9465052F923F924F925F926F9207
:102450007F928F929F92AF92BF92CF92DF92EF9234
:10246000FF920F931F93CF93DF936C01EC010990C0
:102470000020E9F72197C81BD90B6C2E81E00E9440
:10248000A10B8AE395E00E94E00480E00E94A10B8A
:1024900084E20E94680B8EE295E00E94E004CC2367
:1024A00049F00E94A209C6010E94BA0A81E395E0A0
:1024B0000E94E004B60182E995E00E945237FE01D5
:1024C000FF27EE56FA4F10825C2E1C2FE12CF12CC8
:1024D000212C912CC0E0D0E090E1892E0CE3DD307E
:1024E00009F4B1C10E9444088823C9F00150B9F42D
:1024F00080E00E94680B80E0DF91CF911F910F91E7
:10250000FF90EF90DF90CF90BF90AF909F908F9013
:102510007F906F905F904F903F902F90089589E348
:1025200096E00E945104892BD1F289E396E00E9443
:102530002F04D82F412E4518662009F493C1992401
:1025400093945C12912CFC2EF60C312E3F18EE2445
:10255000E394E30CDD3009F443C1A4F4D830B1F0C6
:10256000DA3009F43DC12C2E80EE8D0F8F3508F046
:10257000B5CF103108F41AC1662009F4AFCFAA24F0
:10258000A394DFC0DB3129F0DF3769F72C2EA12CB3
:10259000D8C02C2E6CE070E080E090E00E94BE037A
:1025A00000E0A12C712CDBE189E396E00E9451044C
:1025B000892B09F44BC0739489E396E00E942F04A1
:1025C000D82F6CE070E080E090E00E94BE0323E032
:1025D000721651F1271558F031E07316A9F082E018
:1025E0007816A9F0AA24A394DFCF342CD3CF94E09B
:1025F000791641F1E5E07E12F5CF8FEB8D0F843037
:1026000088F70FE70D0FD0CFDB3561F7CDCFD5338E
:1026100034F4D33314F4D13329F70D2FC5CF8FEB16
:102620008D0F8430F8F6F9CFDB3309F4BDCFDE37F8
:10263000C9F6013309F4B8CFA8F28DEC800F8230CF
:1026400088F6B2CFD23309F4AFCFCCCF772009F4DC
:102650004FCFA11043CF033409F456C0E0F4043344
:1026600089F058F4013309F449C0033309F45EC01A
:10267000662009F433CF412C0AC0013409F43EC06E
:102680000234B1F7742C662009F44EC04318742C40
:10269000750C612C7AC0013C69F168F4043409F4CA
:1026A0003BC0003C29F7752C7194552009F416CFD6
:1026B00061105DC012C0023C49F0033CC9F641E024
:1026C000511001C040E0742E719405C077247394BA
:1026D000411001C0712C611047C0772009F4DFC0A0
:1026E000672C752C760CC52D16140CF44EC0619415
:1026F000C72D4BC0742C4110DBCFF0CE662009F4FF
:10270000CCC04C2E4518C3CF6110C0CF7724739432
:1027100041100AC0712C08C06110F3CF41E0511084
:1027200001C040E0742E7194612C7FC0611009C01B
:10273000511680F7FF24F394F50CE42C252C662425
:1027400063944E2D50E06F2D70E06E567A4F822DBF
:1027500090E08E569A4F0E942E371619722CAA209E
:1027600009F497CF522C24C0772009F4B7CE8C2FD0
:10277000860D9920A1F0C70D7C2EC81718F4982F4C
:102780008C2FC92F6C2E681AC82F87E395E00E9402
:10279000E004662009F485C0C11188C097C0780E96
:1027A000872DC71578F78C2FC72DECCF6110E7CE9A
:1027B000852D90E09C012E563A4F59018D569A4F27
:1027C000511680F4442D50E04F5F5F4FB9010E94D5
:1027D0002E37F501D08377247394750C1F5F59CF82
:1027E0002C2E7CCEFC011082F4CF81E395E00E9478
:1027F000E0045C2E560C852D90E09C012E563A4F3D
:102800005901511638F4F50181915F010E94FB04D2
:102810005394F7CF5C2E882D811B0E94950987E386
:1028200095E00E94E004C52D512C772009F456CE86
:10283000570C872D17141CF40E944C0B4FCE81951A
:102840000E945A0B4BCEE12FF0E0EE56FA4F108269
:1028500080E00E94680B62E975E0C6010E94523771
:1028600081E04ACE8D3009F439CE34F4883051F00D
:102870008A3009F433CE78CE8B3109F4B6CE8F3757
:1028800009F072CE552059F022242A94250CEE240A
:10289000E394E40CF52CA12C52CF752C44CF612C81
:1028A0001DCE512C112309F4B6CFC12F82E9A82ED9
:1028B00085E0B82E512CF50181915F010E94FB0447
:1028C00053945C12F8CF662009F4A5CF0E94A209A8
:1028D0005C2E2C2F260D3327331F5901852D90E0B8
:1028E0008A159B050CF081CF8E569A4FFC01808192
:1028F0000E94FB045394F2CFFF920F931F93CF9348
:10290000DF938C01F62E6EE270E00E944737EC01F7
:10291000892B11F0F1101BC04AE050E070E060E03C
:10292000C8010E9459348B019C01F7FE08C0A8EE33
:10293000B3E0AC019B010E9483368B019C01C9016D
:10294000B801DF91CF911F910F91FF9008951882E8
:102950004AE050E070E060E0C8010E9459349B01F9
:10296000AC01A8EEB3E00E9483368B019C01F12CF0
:1029700037FF09C030952095109501951F4F2F4FB7
:102980003F4FFF24F394FE01319684E690E0CAE0C5
:10299000D0E041914423F9F018161906E4F4042E0E
:1029A000000C550B405351094A30510590F7489F90
:1029B000B001499F700D589F700D1124AB01770F26
:1029C000660B770B040F151F261F371FBE010E94D1
:1029D000E836CB01DECFFF2009F4B1CF309520954A
:1029E000109501951F4F2F4F3F4FA9CF009721F012
:1029F0009093E8058093E7056DE471E08091E70529
:102A00009091E8050E949E350097A1F01092E8058C
:102A10001092E705FC014081242F042E000C330B9B
:102A2000205331092A30310510F04D3229F76FEF6C
:102A30000C947C1460E070E0CB010895FF920F933A
:102A40001F93CF93DF93082F10E096E1899FE00159
:102A50001124CC5EDC4F8A810E94A70C18165CF50D
:102A600085EC95E00E94F614F801EE0FFF1FEE0FC3
:102A7000FF1FE951FD4F6083718382839383FF249D
:102A8000F394E881F0E0E355FF4FE491FE16D0F4B3
:102A900090E080E00E94F614F801EF0DF11DEE0FBA
:102AA000FF1FEE0FFF1FE951FD4F6083718382838B
:102AB0009383F394E6CF80E0DF91CF911F910F9144
:102AC000FF90089581E0F8CF8F929F92AF92BF92CE
:102AD000FF920F931F93CF93DF93109213030E94E3
:102AE000C50AC0E210E006E1FF24F394209113032D
:102AF000C7FD4FC12A3008F04CC180EB8C0F8830E5
:102B000008F431C1C83609F42EC11C136DC06DE440
:102B100071E080E090E00E94BE03111167C0F09266
:102B20001506C0933706109216061092380681E0FB
:102B30000E948605811117C185E491E00E94E0049E
:102B40008C2F0E94450B0E94270A6DE471E080E003
:102B500090E00E94BE0340E06FE471E08C2F0E9481
:102B6000DD0A082E000C990B0E94AF0D0E94270A67
:102B70006DE471E080E090E00E94BE038C2F0E9423
:102B8000A70CD82F082E000C990B0E94AF0D0E94A5
:102B9000270ADC5FD53008F4F8C085EC95E00E9488
:102BA000BA0A0E94270A8091C5058F3309F0EDC04B
:102BB0008091C605893409F0E8C0E09113030E9FA7
:102BC000F0011124EC5EFC4F118215828091C80542
:102BD000D3E08F3499F064F4D4E0843479F0D1E018
:102BE000853461F0DFEF0AC01C2F99CF10E0A4CF2D
:102BF000823509F4BAC0D2E08037A1F78D2F0D2EAF
:102C0000000C990B0E94AF0D0E94C50ADF3F09F42A
:102C1000BCC0E09113030E9FF0011124EC5EFC4F49
:102C2000C283D08385EC95E00E94F614D091130303
:102C30000D9F90011124A9014C5E5C4F5A01FA01CD
:102C40007483638340E061E571E08C2F0E94DD0AAC
:102C50006DE471E080E090E00E94BE038C2F0E9442
:102C6000A70C18162CF48091CA058053F5018183B6
:102C700040E067E571E08C2F0E94DD0A6DE471E0B1
:102C800080E090E00E94BE038C2F0E94A70C1816D3
:102C90004CF4D09FC00111246BEC75E0875E9C4F13
:102CA0000E94523740E06EE571E08C2F0E94DD0AF1
:102CB0008CE391E00E94E0046CE271E080E090E03F
:102CC0000E94BE038C2F0E94A70C18160CF055C052
:102CD0008091CD050E94FB040E949F0980E40E9420
:102CE000FB040E949F098FEC95E00E94BA0A89E3D9
:102CF00091E00E94C90A8FE291E00E94E004D09125
:102D000013038D2F0E941E0B8D2F0E944A0A8D2FB8
:102D10000E941E158823A1F1E091130344E0E49F73
:102D2000F0011124E951FD4F80809180A280B38091
:102D30004AE0C501B401B7FE0BC08DE20E94FB045E
:102D400066277727CB01681979098A099B094AE028
:102D50000E94760A0E94C50A0E94C50A8091130348
:102D60008F5F80931303CF5FC1CED1E08091C905FF
:102D7000843509F4D0E0D19541CF85E391E0B9CF16
:102D80008BE291E00E94C90AE7CFC113ECCFC1509A
:102D9000EACF30E0F901EE0FFF1FEE0FFF1FE95100
:102DA000FD4F8AE694E0A1E0B0E080839183A283A6
:102DB000B383C6E1C29FC001C39F900D1124FC01E3
:102DC000EC5EFC4F12826CE171E0875E9C4F0E94CA
:102DD000973580911303C89FF0011124EC5EFC4FDE
:102DE00095E0908311828F5F809313038093E302B9
:102DF000DF91CF911F910F91FF90BF90AF909F9067
:102E00008F900895DF92EF92FF920F931F93CF93CD
:102E1000DF93142FD22F2AE042E955E00E94D535E6
:102E200042E955E0FA0101900020E9F7AF0143596A
:102E30005540C42F4430A8F4552784E090E07C012D
:102E4000E41AF50A62E975E0C7018E569A4F0E94AE
:102E50002E37A70160E370E082E995E00E944037D9
:102E6000C4E01D5FD12EDC1A1D14B4F44C2F50E0C9
:102E700062E975E0ED2C0D2C000CFF08C7018E56A1
:102E80009A4F0E942E37602F000F770BA70182E91F
:102E900095E00E944037C12F8C2F90E08C010157A4
:102EA0001A4F43E050E0B80180579A4F0E942E37E6
:102EB0008EE2F8018083CF5F12E01D0F1D0D412FC0
:102EC0004C1B141664F4042E000C550B8C2F90E050
:102ED00060E370E08E569A4F0E944037C12FECEFAE
:102EE000EC0F80E0DD2321F08E2FEDEFED0FEC0FE6
:102EF000F0E0EE56FA4F1082DF91CF911F910F91C3
:102F0000FF90EF90DF900895CF92DF92EF92FF92C3
:102F10000F93CF936B017C01C42F4423E9F000E2AF
:102F200023E041E00E94021762E975E082E892E046
:102F30000E94523782E892E00E942312882391F087
:102F40006C2F619582E995E0CF910F91FF90EF9002
:102F5000DF90CF900C947C142AE042E852E00E946B
:102F6000D535E8CFC701B601CF910F91FF90EF9013
:102F7000DF90CF900895CF93DF93EC016881798142
:102F80008A819B8141E00E948417688379838A83C8
:102F90009B8381E0DF91CF910895CF92DF92EF92F2
:102FA000FF920F931F93CF93DF93D62F7A01122FA7
:102FB000C02F282F30E0A8EEB3E00E94C53600E312
:102FC00020E042E00E94021762E975E082E892E0A8
:102FD0000E94523782E8C82E82E0D82EF601128372
:102FE0002D2F30E0A8EEB3E00E94C53620E042E08D
:102FF0000E94021762E975E085E892E00E9452376C
:10300000F60115839701A8EEB3E00E94C53620E0D3
:103010004C2F0E94021762E975E088E892E00E9456
:103020005237EC2FF0E0EE57FD4F1682DF91CF9133
:103030001F910F91FF90EF90DF90CF900895AF9286
:10304000BF92CF92DF92EF92FF920F931F93CF9395
:10305000DF9300D01F92CDB7DEB719821A821B8290
:103060009E012D5F3F4F59012150310969012150C7
:103070003109790110E000E030E020E050E040E06C
:103080000E942E074B8150E002E02AE36A81898189
:103090000E94CD170F900F900F90DF91CF911F914D
:1030A0000F91FF90EF90DF90CF90BF90AF90089579
:1030B0001F93CF93DF93EB01142F61E0209709F06A
:1030C00060E00E94360EBE0190E080E00E941F1872
:1030D0000E94C10A112329F0DF91CF911F910C9416
:1030E000C40BDF91CF911F910895CF93DF93EC0133
:1030F0006881798190E080E00E941F1882E892E068
:103100000E9423120E94810F7983688381E0DF91FE
:10311000CF9108958F929F92AF92BF92EF920F93AB
:10312000CF93DF934B015C01C42FD22F8E2D0E94D1
:10313000A10BDD23C1F02D2F4C2FC501B4010E943E
:103140000217C82F82E995E00E94BA0A80E00E9427
:10315000A10B8C2FDF91CF910F91EF90BF90AF908B
:103160009F908F900895A8EEB3E0A50194010E946E
:10317000833620E04C2FE3CFEF92FF920F931F9303
:10318000CF93DF93C82FF62EE42E122FD02F0E945C
:10319000F90B6E2D8F2D0E94610C84E0C89FF00109
:1031A0001124E45DFB4F6081718182819381EE2463
:1031B000E39400E222E0412F0E948A18DD2351F0BF
:1031C00060E08C2FDF91CF911F910F91FF90EF90D6
:1031D0000C94D20FDF91CF911F910F91FF90EF9040
:1031E0000895EF920F93CF93C82F01E022E0482F6C
:1031F00067E080E00E94BC1881E00E94F90B6C2F10
:1032000084E10E94610C60913004709131048091DE
:1032100032049091330428EE33E040E050E00E9405
:10322000FC36CA01B901EE24E39400E220E044E058
:103230000E948A1860E081E00E94D20F01E022E043
:103240004C2F60E282E00E94BC1800E024E04C2F8A
:103250006CE283E00E94BC1880E00E94680B87E764
:1032600092E00E94E00401E023E04C2F6AE384E056
:103270000E94BC1823E04C2F68E485E00E94BC1833
:1032800081E08C0FCF910F91EF9008952F923F9294
:103290004F925F926F927F928F929F92AF92BF9266
:1032A000CF92DF92EF92FF920F931F93CF93DF9312
:1032B000CDB7DEB76A970FB6F894DEBF0FBECDBFAD
:1032C000A82E86E0E2E1F1E0DE01119601900D9278
:1032D0008A95E1F786E0E8E1F1E0DE0117960190DA
:1032E0000D928A95E1F7ECE28E2EE4E09E2E9E018F
:1032F000295F3F4F3B8B2A8BAE014F5F5F4F588B4F
:103300004F8710E0B12C113009F470C081E090E0DB
:1033100052E0598BEA89FB892191FB8BEA8B2C8B3C
:10332000EF85F8892191F88BEF872D8B44E153E0ED
:103330005E874D8777EE272E72E0372E6A2DD12CCF
:10334000C12C412C512C3201F12C9C01990F440BC2
:10335000550B2F8B388F498F5A8F809113038C1503
:103360001D0409F00CF446C03FEFC31AD30AED85E3
:10337000FE858081811330C0F394F1E0F60FFE8B5F
:103380008D890E94610CC6010E94AF0D84E792E016
:103390000E94E004F10160817181828193812F8913
:1033A000388D498D5A8D0E94FC36CA01B901EE2430
:1033B000E39400E229894C890E948A18F1018081F6
:1033C0009181A281B381480E591E6A1E7B1E61E065
:1033D000812F0E94D20F6E892D853E852A5E3F4F38
:1033E0003E872D8734E0230E311CB7CF88EE93E063
:1033F000198A90CFFF20E1F12F2D30E050E040E01E
:10340000C301B2010E94FC36F40120833183428360
:103410005383133051F52091380430913904409191
:103420003A0450913B04AAE0B0E00E94833621E2C6
:1034300031E040E050E00E94FC36809134049091ED
:103440003504A0913604B0913704880F991FAA1F44
:10345000BB1F820F931FA41FB51F80933804909346
:103460003904A0933A04B0933B04BF1408F4BF2C72
:103470001F5FF4E08F0E911C163009F044CF8A2DA7
:103480008B0D6A960FB6F894DEBF0FBECDBFDF91ED
:10349000CF911F910F91FF90EF90DF90CF90BF9051
:1034A000AF909F908F907F906F905F904F903F90E4
:1034B0002F9008958F929F92AF92BF92CF92EF92EA
:1034C0000F93962F49015A01C12CE12C00E020E214
:1034D00040E060E0890F0E94DE0D00E222E044E05F
:1034E000C501B4010E948A1880E00F91EF90CF903F
:1034F000BF90AF909F908F900C94B30B8F929F9240
:10350000AF92BF92EF920F93CF93C82F4A015B0106
:1035100086EE91E00E94E0046C2F8DE10E94610C28
:1035200083EE91E00E94E004EE24E39400E222E0C6
:1035300044E0C501B4010E948A18CF910F91EF9029
:10354000BF90AF909F908F9008952F923F924F928F
:103550005F926F927F928F929F92AF92BF92CF9223
:10356000DF92EF92FF920F931F93CF93DF9300D0E0
:103570001F92CDB7DEB78983662E49015A0158E7FD
:10358000752E00E010E0C12CD12C7601202F30E008
:103590003B832A83809113038150990B28173907A5
:1035A0003CF586E1829FF001839FF00D1124EC5ED3
:1035B000FC4F808181111AC01F5F802F0E941E0B5B
:1035C000802F0E944A0A802F0E941E15EA81FB81EB
:1035D000EE0FFF1FEE0FFF1FE951FD4F808191811C
:1035E000A281B381C80ED91EEA1EFB1E0F5FCECF8B
:1035F000112309F4AAC0212F30E050E040E0C701B8
:10360000B6010E94FC3619012A0120922C04309246
:103610002D0440922E0450922F040E94C50A80E08F
:103620000E948E0B0E94EA0B8AE191E00E94E00466
:10363000E12C00E222E044E0C501B4010E948A18B6
:1036400085E191E00E94E00480E00E948E0B80E220
:1036500095E00E94E00480E00E94E10B0E949F0937
:1036600022E043E0C201B1010E948A1881E00E9479
:103670008E0B81E191E00E94E00480E00E948E0BBD
:1036800083E00E944C0B10E034E1F32E212F30E058
:103690003B832A83809113038150990B28173907A4
:1036A0000CF06FCF412F662D89810E942E0A88234E
:1036B000F1F1812F0E941E0B812F0E944A0A812F57
:1036C0000E941E156A817B816F5F7F4F072E000C61
:1036D000880B990BE12C00E320E042E00E948A185D
:1036E0008EE091E00E94E0048A819B81880F991FFF
:1036F000880F991F89519D4FFC01608171818281E2
:103700009381EE24E39400E222E044E00E948A18D0
:1037100080E00E94B30BFEE0FF0E22E42F1538F488
:103720000E94C50A84E10E944C0B85E1F82E0E949C
:10373000440881117A9489E396E00E945104892B10
:1037400069F4772059F01F5FA1CF20902C043090AE
:103750002D0440902E0450902F0457CF89E396E01B
:103760000E942F044B9719F4212C312C2101C20106
:10377000B1010F900F900F90DF91CF911F910F919A
:10378000FF90EF90DF90CF90BF90AF909F908F9081
:103790007F906F905F904F903F902F9008952F9261
:1037A0003F924F925F926F927F928F929F92AF92D1
:1037B000BF92CF92DF92EF92FF920F931F93CF931E
:1037C000DF93082FD62E142F322EF12C8F3F19F4B1
:1037D000FF24F39400E04FE365E0812F0E94790C11
:1037E000C4E1D3E027EE622E22E0722E912C812CD0
:1037F000402E512C26E1029FC0011124FC01EC5EF9
:10380000FC4F5F01809113038815190409F00CF433
:10381000C0C09881F5018081981719F0FF2009F444
:10382000ADC01F5F222423944814590419F0D1100D
:1038300001C0212C612F85E00E94610C31100FC066
:10384000CC24C394C224E22C00E020E048E260E0F3
:1038500081E3880D0E94DE0D81E00E945A0B81E019
:10386000222009F493C00E94A10B83E00E944C0B1C
:10387000CE0105960E94BA0A612F8AE10E94610C6E
:10388000822D0E94B30BF30160817181828193814B
:1038900000E222E045E00E94021788810E94F90BB5
:1038A000211003C081E00E948E0B82E995E00E9406
:1038B000BA0A80E00E94E10B81E00E948E0B0E9418
:1038C0009F09E881F0E0EE0FFF1FE856FA4F65917F
:1038D000749182E995E00E9497350E94BA0A612F9F
:1038E00089E20E94610C80E00E94B30BE881F0E065
:1038F000EE0FFF1FE952FE4F6591749182E995E04A
:103900000E9497350E94BA0A612F80E30E94610CE1
:1039100080E00E94B30B6B817C8190E080E000E34B
:1039200022E042E00E94021782E995E00E94BA0A72
:10393000612F88E30E94610C80E00E94B30B2A8112
:1039400030E0A8EEB3E00E94C53600E220E043E09C
:103950000E94021782E995E00E94BA0A612F8EE365
:103960000E94610C89810E94B30B89810E94450BE2
:1039700080E00E94A10B80E00E94B30BFFEF8F1A42
:103980009F0A669624E0620E711C3CCF0E948E0B4B
:103990006CCF80E00E948E0B4FE365E081E0810FE9
:1039A0000E94790C82E0810FDF91CF911F910F91DE
:1039B000FF90EF90DF90CF90BF90AF909F908F904F
:1039C0007F906F905F904F903F902F9008950F934E
:1039D000CF93DF93C82F682F85E00E94610C81E6AA
:1039E0000E94450E87EC91E00E94E00482E60E946E
:1039F000450E8DEA91E00E94E00483E60E94450EA8
:103A00008EE991E00E94E004D2E0DC0F43E068E040
:103A100081E08C0F0E94790C6D2F85E00E94610C73
:103A200084E60E94450E8FE891E00E94E00481E068
:103A30000E94A10B8BE592E00E94BA0A6D2F8AE2E8
:103A40000E94610C85E60E94450E8DE791E00E9480
:103A5000E00443E068E083E08C0F0E94790C64E0AE
:103A60006C0F85E00E94610C86E60E94450E85E69B
:103A700091E00E94E00481E00E94A10B20916C0281
:103A800030E0A8EEB3E00E94C53600E320E043E05A
:103A90000E94021782E995E00E94BA0A85E00E941E
:103AA000950987E60E94450E8FE491E00E94E004AC
:103AB00085E08C0FDF91CF910F9108954F925F9227
:103AC0006F927F92AF92BF92CF92DF92EF92FF926E
:103AD0000F931F93CF93DF935C01F62ED42E280112
:103AE0003901CE2D6AE071E085EC95E00E949735B2
:103AF000EE20E9F18CE28093C805C33059F150F40F
:103B0000C13099F060E071E0C23089F0C53078F5DD
:103B1000C4E012C0C53031F1C630C1F766EF70E0C5
:103B200089EC95E00E94973522C065E071E089EC50
:103B300095E00E949735C8E000E322E041E0C30130
:103B4000B2010E9402178C2F90E062E975E08B535E
:103B50009A4F0BC06AEF70E089EC95E00E949735B0
:103B6000C9E0EACFB50189EC95E00E945237E12C1B
:103B700086E1C82ECF9CE0011124CC5EDC4F0E2DD7
:103B800010E0809113038150990B081719070CF569
:103B90004E2D6D2D8F2D0E942E0A8823C1F0E881B5
:103BA000F0E0E051FF4FE491EE2389F0C09EC001A8
:103BB000C19E900D11248C010C5E1C4F40E065EC01
:103BC00075E0F80182810E94DD0AF8011182E39418
:103BD000D6CFDF91CF911F910F91FF90EF90DF90A3
:103BE000CF90BF90AF907F906F905F904F9008956F
:103BF000CF92DF92EF92FF920F93CF93DF93C0901B
:103C00007602D0907702E0907802F0907902C701B6
:103C1000B6010E941F18C701B60120E831E541E056
:103C200050E00E946136A8EEB3E00E94833600E2C5
:103C300020E043E00E94021749E050E062E872E0B1
:103C400087E892E00E942E37C2E8D2E083E0E2E902
:103C5000F5E0DE0101900D928A95E1F784E68B8311
:103C600080E28C83DF91CF910F91FF90EF90DF90F6
:103C7000CF900C94C10A0F9361E083E40E94610C21
:103C80000E94A2090E94F81D68E18DE30E94610C68
:103C9000409102015091030104E02EE26091040181
:103CA000809105010E94CD1782E892E00E94BA0A35
:103CB0000E949F094091700250E002E02AE3609167
:103CC0006F0280916E020E94CD1782E892E00E94FE
:103CD000BA0A8EE195E00E94E00481E395E00F913D
:103CE0000C94E0040F931F93CF93DF93D82FC62F2C
:103CF0008A010E94A20968E181E00E94610CDF3F15
:103D000049F589E20E94680B84E00E949509C80188
:103D10000E94BA0A80E00E94A10B81E30E94680B16
:103D20008AE195E00E94E0040E94F81DC11106C0DE
:103D3000E80109900020E9F72197C01B88E28C1B5D
:103D40000E94950981E395E0DF91CF911F910F913A
:103D50000C94E00481E00E94A10BD6CFCF93DF93B7
:103D60000E94F20B0E94A20985E691E00E94630E78
:103D7000C82F81E395E00E94E004D2E0DC0F61E00F
:103D80006C0F83E00E94610C8D2F0E94920CC82F53
:103D900049E751E060E080E00E94721E8C2F0E9493
:103DA00046194CE463E00E94790C0E94F1184CE43F
:103DB00063E00E94790CC82F81E00E94A10BC093A0
:103DC0003102109230024CE463E081E08C0FDF910D
:103DD000CF910C94790C6F927F928F929F92BF92A9
:103DE000CF92DF92EF92FF920F931F93CF93DF93C7
:103DF000CDB7DEB7C056D1090FB6F894DEBF0FBEFF
:103E0000CDBFB82E962E8EE891E00E94630E182F3B
:103E100061E0680F83E00E94610C82E0810F0E94E4
:103E2000920C182F4CE463E081E0810F0E94790C22
:103E3000109331021092300262E372E0FE0131967B
:103E400080E0DB012D913D91BD01318320838430E1
:103E500048F41E964D915C919F01205C3F4FD90123
:103E60004D935C938F5F3896883059F7FE013196F9
:103E700080E0D12CC12CB81619F0BFEFBB1209C0DD
:103E8000208131812115310521F0C216D30608F4B5
:103E900069018F5F38968C3071F7FE01319640E0F2
:103EA000B41619F02FEFB2125BC0208131812115B9
:103EB000310509F455C051E0951609F4D8C0C60182
:103EC000B9010E94D4368B012617370708F48901FF
:103ED000C901B8010E94D4367B01609FC001619F77
:103EE000900D709F900D11248217930718F48FEF97
:103EF000E81AF80AE09EC001E19E900DF09E900D38
:103F000011242817390738F40115110509F4B9C02F
:103F100001501109DDCFF582E482C601821B930BAB
:103F2000B8010E94D43677836683E60EF71EE09EC2
:103F3000C001E19E900DF09E900D1124D601A81BAA
:103F4000B90BCD0196958795938382838281938166
:103F5000892B31F486819781969587959383828307
:103F60004F5F38964C3009F09BCFBFEFCB1ADB0A7E
:103F7000912C812C82E8682E82E0782EC114D10425
:103F800009F45FC00E944408882309F44FC0E1E0AF
:103F9000CE1AD108B60190E080E00E941F186DE9AA
:103FA00071E08AE892E00E945237D3010D90002020
:103FB000E9F7BD016358724042E852E080E00E9498
:103FC000721E8E010F5F1F4FF12CBF1419F0BFEF4F
:103FD000BB121AC0F80180819181892BA9F08281DE
:103FE00093818816990680F024813581A401481BAD
:103FF000590BCA0166817781620F731F0E94D43604
:1040000061E08217930708F060E082E08F0D0E9464
:104010006B03F394085F1F4F5CE0F512D6CF8FEF70
:10402000881A980A0E943B1E0E94830E89E396E03C
:104030000E945104892B09F4A1CF89E396E00E94E4
:104040002F04C05ADF4F0FB6F894DEBF0FBECDBFAE
:10405000DF91CF911F910F91FF90EF90DF90CF9064
:10406000BF909F908F907F906F900C945E0A3583E5
:104070002483C601821B930B97838683138212824B
:1040800065CF0E942937CF92DF92EF92FF920F9374
:104090001F93CF93DF93D62FF42E833609F46AC093
:1040A0009CF4813609F460C00CF09BC08F5F8230B5
:1040B00008F45EC080E0DF91CF911F910F91FF90D7
:1040C000EF90DF90CF900895853609F45EC00CF430
:1040D00057C0863609F45DC0873661F7C0916C021F
:1040E00094E1C92E93E0D92E10E000E080911303F3
:1040F0008150990B081719070CF06AC080EB8C0FE0
:10410000883008F463C0C83609F4C9E6402F6F2D23
:104110008D2F0E942E0A882309F162ED71E082E959
:1041200095E00E9497354AE062E872E08C2F90E0BB
:104130000E94CA3562E872E086E995E00E94523733
:1041400040E062E975E0F60182810E94DD0ACF5FFE
:104150006CE271E080E090E00E94BE030F5F1F4FB1
:10416000F6E1CF0ED11CC2CF642F8D2F0E94F80F25
:1041700081E0A1CF20E084E491E00E94AA10F8CF72
:104180008BE592E00E942312F3CF21E08BE592E0D1
:10419000F4CF60916C0270E090E080E040E00E941B
:1041A000841760936C02209113038FE790E0821BC9
:1041B00091096817190631F02CF08FE7821B809364
:1041C0006C02D6CF6032A0F680E2F9CFC8E59ECF70
:1041D00068EE73E080E090E00E94BE030E946415E8
:1041E000C7CF85E0E82E00E010E0980186EA91E074
:1041F0000E945E1DBDCFFF920F931F93CF93DF935D
:10420000EC01F62E08811981C8010E943B36F81690
:1042100021F06F2DC8010E944336CE01DF91CF916E
:104220001F910F91FF900895EF92FF920F931F93AC
:10423000CF93DF9300D0CDB7DEB78BEDE82E82E0D1
:10424000F82E05EE13E01A830983F70161917F01CF
:10425000CE0101960E94FB200F5F1F4F013FF3E04C
:104260001F0789F70F900F90DF91CF911F910F914A
:10427000FF90EF900895EF92FF920F931F93CF93CB
:10428000DF9300D0CDB7DEB729E2AC01249FC00197
:10429000259F900D112402E312E0FC01E15FFE4F27
:1042A0007F01C701800F911F9A838983F801619173
:1042B0008F01CE0101960E94FB20F2E00B351F0713
:1042C00081F70F900F90DF91CF911F910F91FF9089
:1042D000EF900895EF92FF920F931F93CF93DF9388
:1042E00000D0CDB7DEB725ECAC01249FC001259FDF
:1042F000900D112404EA14E0FC01E25BF3407F011D
:10430000C701800F911F9A838983F80161918F0102
:10431000CE0101960E94FB20F5E009361F0781F7C8
:104320000F900F90DF91CF911F910F91FF90EF9021
:104330000895EF92FF920F931F93CF93DF9300D0D6
:10434000CDB7DEB784E1E82E83E0F82E10E000E080
:104350001A830983F70161917F01CE0101960E94C2
:10436000FB200F5F1F4F023F110591F70F900F9039
:10437000DF91CF911F910F91FF90EF9008952F92B1
:104380003F924F925F926F927F928F929F92AF92E5
:10439000BF92CF92DF92EF92FF920F931F93CF9332
:1043A000DF93CDB7DEB7E1970FB6F894DEBF0FBE4F
:1043B000CDBF85E691E00E94630E20E0482F61E0CA
:1043C0008FEF0E94CF1BC82E082E000CDD08682F2F
:1043D00085E00E94610C81E60E94450E80EE94E02B
:1043E0000E94E00482E60E94450E86ED94E00E9461
:1043F000E00483E60E94450E8EEC94E00E94E00407
:1044000084E60E94450E86EC94E00E94E00485E676
:104410000E94450E8DEB94E00E94E0046091E10261
:1044200070E090E080E0EE24E39400E320E043E0DD
:104430000E948A1843E068E081E08C0D0E94790CAC
:10444000B6016E5F7F4F85E00E94610C86E60E9498
:10445000450E84EB94E00E94E00481E00E94A10BF1
:104460006091DC027091DD028091DE029091DF02AA
:104470004AE00E94760A80E00E94A10B83E00E943D
:10448000950987E60E94450E80EB94E00E94E004C7
:1044900081E00E948E0B87EA94E00E94E00480E0B5
:1044A0000E948E0B88E60E94450E8BE994E00E94E4
:1044B000E0046091E20241E0611140E089E60E947F
:1044C000540E81E994E00E94E00443E068E083E058
:1044D0008C0D0E94790C182F682F85E00E94610CCA
:1044E0008AE60E94450E86E894E00E94E0048BE68E
:1044F0000E94450E89E794E00E94E0048CE60E9449
:10450000450E8DE694E00E94E0048DE60E94450E83
:1045100083E694E00E94E00443E068E081E0810FDC
:104520000E94790C62E0610F85E00E94610C8EE6CA
:104530000E94450E83E594E00E94E00482E20E941E
:10454000D50B88E595E00E94BA0A83E00E949509A0
:104550008CEA91E00E943C0F8DE394E00E94E0041D
:1045600082E20E94D50B8091E40290E001960E94C5
:10457000AF0D80E00E94E10B0E94D50A6091130309
:10458000615081E70E944309898B873609F4EBC4A7
:104590000CF046C0823609F40CCFB4F48F3F34F0EF
:1045A00018160CF0E3C1813609F45DC18989815385
:1045B0008A8B6BE773E08BE592E00E94973581E28E
:1045C00080936C02712CE1C42989243609F49FC1BF
:1045D0000CF452C1253609F4E8C1263639F760914A
:1045E000DC027091DD028091DE029091DF0240E0FA
:1045F0000E9484176093DC027093DD028093DE02D8
:104600009093DF0220EB34E040E050E00E946136FE
:10461000672B682B692B09F0D5C10E941421C9CEE4
:1046200039893C3609F46EC20CF0AFC0393609F452
:10463000CCC10CF4A1C43A3609F4BAC03B3609F037
:10464000B5CF8FEB91E00E94630EA82E61E0680F5A
:104650008CE00E94610C61E080E00E94CA0B8AEA53
:1046600092E00E94E00462E081E00E94CA0B83EBCA
:1046700092E00E94E0044CE463E082E08A0D0E9434
:10468000790C54E0952E9A0C63E06A0D83E00E9449
:10469000610C68E4E62E63E0F62E00EE14E078E2AA
:1046A000C72E75E0D72EB12C81E00E94A10BF70137
:1046B0006591749182E995E00E94973569E00E94C6
:1046C0002A0B80E00E94B30BD8012D913D914D91B2
:1046D0005D918D016B2D81E60E945A1AF8012489A3
:1046E0003589468957896B2D87E60E945A1AD80169
:1046F0009C962D913D914D915C919F976B2D8DE6F0
:104700000E945A1AF60121913191419151916F0104
:104710006B2D83E70E945A1AD60154962D913D9134
:104720004D915C9157976B2D81E40E945A1A692D27
:104730006B0D83E00E94610CB394B2E0EB0EF11CB0
:10474000E6E0BE12B1CF8AE08A0D0E94530F0E94AC
:10475000D50A63E088E70E94430918160CF029CEB9
:1047600081360CF459C187360CF040C1F4E08F0259
:10477000C0011124845A9C4F0E94BB17813009F05C
:1047800064C18091E40290E05DC189898E3609F4AC
:10479000E0C30CF4A8C282370CF008CF89898F5689
:1047A0008093E40290E00E94CE110E941421DEC0AA
:1047B00081E280936C026BE773E08BE592E00E94EC
:1047C000973582EB91E00E94630E21E0482F61E073
:1047D0008FEF0E94CF1B0E94E71C182F43E068E078
:1047E0000E94790C61E0610F85E00E94610C60918C
:1047F000DB0241E0611140E088E60E94540E80E94E
:1048000092E00E94E00480E00E948E0B4091DB0267
:1048100061E0411160E089E60E94540E8AE792E06F
:104820000E94E00480E00E948E0B0E94D50A6FEF88
:1048300089E60E944309182F42E060E00E9443206D
:10484000811104C0183631F0193651F011160CF4EC
:10485000B8CFAFCD81E08093DB020E941421B1CFAD
:104860001092DB02FACF0E94F20B61E081E00E941D
:10487000610C0E9464159DCD60910804709109043B
:1048800080910A0490910B04188A1D861A8219825D
:10489000B12CA12CD12CC12CF12CE12C8E010F5F5D
:1048A0001F4F9E01235F3F4FAE01405F5F4F0E944D
:1048B0002E0749815A8104E02EE26D8588890E9485
:1048C000CD1782E892E00E9423126CE871E082E941
:1048D00095E00E949E3510E000E0009709F497C72C
:1048E0000330110509F493C70E94703597FD8FC7F7
:1048F0000115110519F480970CF089C76CE871E077
:1049000090E080E00E949E350F5F1F4FE6CF60E091
:1049100070E0CB01E0E7AE2EE2E0BE2EFFE6CF2E48
:10492000F2E0DF2EAEE6EA2EA2E0FA2E02E011E07F
:1049300024E031E045E051E00E942E074091020161
:1049400050910301E090700200916F0220916E027D
:1049500060910401809105010E94BA0760930804E8
:104960007093090480930A0490930B04B9891B1671
:104970000CF41FCD0E94AE1EE1960FB6F894DEBF78
:104980000FBECDBFDF91CF911F910F91FF90EF90A0
:10499000DF90CF90BF90AF909F908F907F906F905F
:1049A0005F904F903F902F9008956091E10270E0EA
:1049B00090E080E040E00E9484176093E1026F3F46
:1049C00009F02BCE0E945F11F4CC81E09091E202BD
:1049D000911180E08093E2020E9414218091E20212
:1049E000882309F4E6CC0E949921E3CC8D362CF47F
:1049F00024E08202C0011124BDCE83372CF434E0C0
:104A00008302C0011124B6CE89370CF01ACEA4E07F
:104A10008A02C0011124AECE813454F087340CF0E8
:104A200010CEB4E08B02C0011124845C9B4FA4CE55
:104A300081330CF410C784330CF003CE082E000C25
:104A4000990BC1970E946A21FCCD18160CF4F9CD80
:104A5000B0CCF701EC55FB4F6081718140E081E6FD
:104A60008A0D0E945818A2C0A12EEA2CF12CF70141
:104A7000EE0FFF1FE053FB4F6081718141E087E73C
:104A80008A0D0E945818F701EE0FFF1FE852FB4FE6
:104A90006081718140E081E48A0D0E9458180E9473
:104AA000C40B6B2D610F83E00E94610C1F5F1830F7
:104AB00009F054C08CE0800F0E94530F0E94D50A69
:104AC00063E08AE70E94430918160CF072CC813625
:104AD0000CF48FC0873684F4880F990B8E519C4F4D
:104AE0000E947518813009F09BC08091E40290E02B
:104AF00094C0B2E0AB2EB9CF8F3674F3873764F32E
:104B00008B3754F38EEC91E00E94630E082F61E026
:104B1000680F8CE00E94610C81E00E94B30B85EE6F
:104B200092E00E94E00462E080E00E94CA0B83EB06
:104B300092E00E94E0044CE463E082E0800F0E9477
:104B4000790C34E0B32EB00E63E0600F83E00E9476
:104B5000610C40EBC42E44E0D42E10E0AA24A394B0
:104B6000123031F02EEFA22EA10E133008F4A12E38
:104B700081E00E94A10BEA2CF12CEE0CFF1CF70146
:104B8000E85BFC4F6591749182E995E00E9497354E
:104B900069E00E942A0B0E94C40BE1E0AE1259CFDB
:104BA000123008F456CF8BE00E9495090E94C40B86
:104BB000D6016D917D916D0141E087E6810F0E94E4
:104BC0005818F6016685778541E08FE6810F0E94CF
:104BD0005818123008F448CF143009F48ACF83E013
:104BE000A82E173009F441CF6AE08BE00E94CA0B6F
:104BF00056CF813444F085340CF084CF880F990B64
:104C00008A5A9B4F6DCF81330CF42BC684330CF042
:104C100079CF082E000C990BC1970E946A2172CFA0
:104C200018160CF46FCFC5CBB2E0FB2EA6C0BA8924
:104C3000B23028F460E08FE00E94CA0BF0C061E05F
:104C4000F20180819181892B09F060E0872D0E941B
:104C5000360EAB89BC896D917C9190E080E00E941A
:104C60001F180E94C10AEE24E394EB89FC8980811D
:104C70009181892B09F0E12CCE2C00E020E048E264
:104C800061E08B2D0E94DE0D80E00E94B30B11309D
:104C900009F0C5C0F39471C08136ECF089366CF42C
:104CA000880F990B80599E4F0E947518813009F02A
:104CB0004DC18091E50290E046C18D368CF38D3474
:104CC0000CF422C160E08D3621F08E3609F01FC150
:104CD00061E08FEF06C08134C4F3893484F761E06A
:104CE00081540E94EB1E8EED91E00E94630E182FFE
:104CF00061E0680F85E00E94610CC12CEE24E39412
:104D000000E020E248E260E08FE60E94DE0D82E2F1
:104D10000E94680B60E18AE492E00E942A0B80E026
:104D20000E94680B84E593E00E94E00453E0A52E06
:104D3000A10E4AE365E082E0810F0E94790C68E4ED
:104D4000262E63E0362EFDEFFA8B912C812CF12C70
:104D500010E0812F153009F483E0282F30E009E6B8
:104D6000702E780E99E4B92EB80E220F331FC901A8
:104D70008E5B9D4F2C019C8B8B8BA98AA394698998
:104D800088E00E94610C81E00E94A10BF101659115
:104D9000749182E995E00E94973561E10E942A0BA7
:104DA00081E00E94B30BF401EF0DF11DEE0FFF1F28
:104DB000EE5CFD4FC080D1809F2D910F9F8BEE2424
:104DC000E394C114D10409F0E12C6E2D8F898F5921
:104DD0000E94360EB60190E080E00E941F180E94EB
:104DE000C10ACE2C00E020E048E261E08F898F5BB1
:104DF0000E94DE0D81E00E94B30B113009F017CF45
:104E00008FEF8F0D823008F012CF60E08FE00E94AC
:104E1000CA0BA1E0FA1609F407CFE2E0FE2E1F5FED
:104E2000FFEF8F1A9F0A2A892F5F2A8B32E0230E09
:104E3000311C163009F08DCF4AE365E08A2D0E94BF
:104E4000790C69896D5F85E00E94610C8EEE91E0BE
:104E50000E943C0F8FE393E00E94E00484EF91E016
:104E60000E943C0F81E393E00E94E0048DE60E94E3
:104E7000450E87E293E00E94E0048EE60E94450E14
:104E80008BE193E00E94E00443E068E089898C5F55
:104E90000E94790C69896B5F85E00E94610C8FE646
:104EA0000E94450E8FE093E00E94E0048AEF91E0BB
:104EB0000E943C0F81E093E00E94E00482E20E94A5
:104EC000680B81E00E94A10B8091E50290E00196C1
:104ED0000E94AF0D80E00E94680B83E00E9495095C
:104EE00080E092E00E943C0F80EF92E00E94E0049C
:104EF0000E94D50A68E08FE60E94430918160CF458
:104F0000CBCE0E945E0A55CA61E08354EACE81335B
:104F10000CF4ABC485334CF481538093E50290E0EC
:104F20000E94B1110E941421DECE893344F08F36E5
:104F300009F0D9CE8AE492E00E942312BACE082E5C
:104F4000000C990BC5970E943B21CDCE1816CCF6CC
:104F5000CACE88E595E00E9423128091E40290E099
:104F60000E946A2126CA8091E0020E94A6098093CD
:104F7000E0028093000151CB8091E6020E94A609D5
:104F80008093E6024ACB7724739486E092E00E94F5
:104F9000630E20E0482F672D8A890E94CF1B8F5F08
:104FA0000E94E71C01E0080F43E068E00E94790CD2
:104FB000602F85E00E94610C88E60E94450E8BE21E
:104FC00094E00E94E004602F8EE10E94610C11E0E9
:104FD0001725472D612F89E60E94540E8DE194E03C
:104FE0000E94E004602F83E30E94610C412F672D33
:104FF0008AE60E94540E82E194E00E94E00480E080
:105000000E94A10B0E94D50A69E08AE60E9443092A
:10501000082F472D6A890E944320182F8111F3C35E
:10502000093609F4CFCA0A3609F4ADCF083609F0BB
:10503000E7C391E09CA3A1E0ABA3B1E0BEA7E1E090
:10504000EDA7F1E0FAA321E02DA331E03CA71D8EEE
:105050001E8E1F8E18A21F8A188E198E1A8E812CF2
:10506000912C5401212C312C2101A6E1BA89AB9F4E
:10507000C0011124FC01EC5EFC4FFC8FEB8F05C0DE
:105080008D8C9E8CAF8CB8A011E065E074E085EC4F
:1050900095E00E949735AB8DBC8D8C91823009F4E0
:1050A000B6C0C8F5882309F45CC0813009F483C018
:1050B00085EC95E00E94630ED82E1111FCC0672D7F
:1050C0008A890E94F80FAB8DBC8D8C918150823003
:1050D00008F0F1C0E12EF12C809113038150990B5F
:1050E000E816F9060CF0E7C0412F672D8A890E9467
:1050F0002E0A882371F0B6E1BE9DF001BF9DF00D30
:105100001124EC5EFC4F40E06BE172E082810E9472
:10511000DD0A1F5FDFCF833009F4A2C0843041F67F
:105120006AEE73E081ED95E00E9497351111C0CFD2
:1051300090913C049D8FA0913D04AE8FB0913E04B0
:10514000BF8FE0913F04E8A31CA21BA21EA61DA6D0
:105150001AA21F8A188E198E1A8E812C912C540136
:1051600026C06FEF73E081ED95E00E949735111135
:105170009FCFB0912C04BD8FE0912D04EE8FF09164
:105180002E04FF8F20912F0428A31CA21BA21AA279
:105190001DA280EA96E8A1E0B0E08F8B988FA98FDE
:1051A000BA8F78E0872E72E5972EA12CB12C212C96
:1051B000312C21017DCF6AEF73E081ED95E00E94F3
:1051C0009735111175CF909130049D8FA0913104C6
:1051D000AE8FB0913204BF8FE0913304E8A31CA6D8
:1051E00088E89FE8A5E1B0E08F8B988FA98FBA8FF0
:1051F00058E8852E5FE8952E55E1A52EB12C60E28A
:10520000262E68E4362E44244394512C51CF65EF6A
:1052100073E081ED95E00E949735111149CF90918F
:1052200034049D8FA0913504AE8FB0913604BF8FAA
:10523000E0913704E8A380E197E2A0E0B0E08F8B33
:10524000988FA98FBA8F38E5832E3BE1932EA12C3E
:10525000B12C40EA242E4FE0342E412C512C28CF83
:105260006FEE73E081ED95E00E949735111120CF2C
:10527000909138049D8FA0913904AE8FB0913A047B
:10528000BF8FE0913B04E8A31CA21BA21AA21DA29F
:105290008FEF9FEFDC018F8B988FA98FBA8F98EEDD
:1052A000892E9EE6992E93E0A92EB12C22242A94D1
:1052B000322C2101FDCE21E04D2D672D8A890E94DF
:1052C000CF1B11E0180F682F85E00E94610CECA540
:1052D000E0FB60F8FDA1F0FB61F82AA120FB62F879
:1052E0003DA530FB63F88EA580FB64F89BA190FB85
:1052F00065F8ACA1A0FB66F8B62DB170DB2E60FEA0
:1053000007C081E60E94450E87ED93E00E94E0040D
:10531000E62DE270EE2E61FE07C082E60E94450E89
:1053200084EC93E00E94E004F62DF470FF2E62FE00
:1053300007C083E60E94450E86EB93E00E94E004DE
:1053400043E068E0812F0E94790C082F182F63FE3C
:1053500012C0682F85E00E94610C84E60E94450E11
:1053600087EA93E00E94E00411E0100FB501A40168
:10537000802F0E947E1A64FE13C0612F85E00E9478
:10538000610C85E60E94450E88E993E00E94E004E6
:105390004D8D5E8D6F8D78A1812F1F5F0E947E1ACB
:1053A00065FE11C0612F85E00E94610C86E60E94B7
:1053B000450E80E993E00E94E004B201A101812F33
:1053C0001F5F0E947E1A66FE12C0612F85E00E9458
:1053D000610C87E60E94450E87E893E00E94E00496
:1053E0004F89588D698D7A8D812F0E947E1A0E9477
:1053F000D50A60E087E60E9443098FA71D861E86B6
:105400001F8619821A821B821C821D821E821F82A5
:10541000188619861A861B861C86E82FE156E73007
:1054200008F0E9C10E2E000CFF0BE75EF54D0C9461
:105430001B37202AE22A392BB02B4028B82BC02B4F
:10544000DD2009F421CEA5019401672D8A890E94EF
:10545000A51A6B017C01C114D104E104F10409F423
:1054600013CEAB8DBC8D8C91843009F495C1823004
:1054700009F09FC08D87C501B4012CE432E040E003
:1054800050E00E94FC36C701B601685A7146810996
:1054900091090E94513628E13CEF4FEF5FEF0E94E7
:1054A000FC36280D391D4A1D5B1D29833A834B8329
:1054B0005C83B1E0BB8B09811A812B813C81ED8437
:1054C000472D6A8984E491E00E945E1DB1E0B9A392
:1054D000E9A1FB89EF1708F07FC10E2F10E09801BA
:1054E000220F331F220F331F39AB28AB81E090E02E
:1054F0008C0F9D1F820F931F9BA78AA7DC01CD9065
:10550000DD90ED90FC90A7019601672D8A890E949D
:10551000A51A6EA37FA388A799A7672B682B692B71
:1055200009F457C1EB8DFC8D8081823009F037C1C1
:10553000C701B6012CE432E040E050E00E94FC36A6
:105540006EA17FA188A599A5685A71468109910924
:105550000E94513628E13CEF4FEF5FEF0E94FC368E
:10556000DA01C9018C0D9D1DAE1DBF1DEAA5FBA56D
:1055700080839183A283B383ADE0B0E0AC0FBD1F05
:10558000A00FB11FE1E0F0E0EC0FFD1F28A939A941
:10559000E20FF31F0081118122813381EC90472DAE
:1055A0006A8984E491E00E945E1D89A18F5F89A3CE
:1055B0008FCF84E08D8789829A82AB82BC82E1E0C2
:1055C000EB8B79CFEE2009F45FCDAB8DBC8D8C9148
:1055D00020E030E0A901813011F0A5019401672D90
:1055E0008A890E94A51A6B017C01C114D104E104CF
:1055F000F10409F449CDEB8DFC8D8081813051F1AE
:10560000843099F112E01D87C501B4012CE432E029
:1056100040E050E00E94FC36C701B601685A71466E
:10562000810991090E94513628E13CEF4FEF5FEF6D
:105630000E94FC36280D391D4A1D5B1D29833A83C3
:105640004B835C831E872D823E824F82588632E0D8
:105650003B8B31CF86E08D8784E08E878D829E8262
:10566000AF82B886F2E0FB8B26CF8E8722E02B8BB1
:1056700022CFFF2009F408CDAB8DBC8D8C9120E0AA
:1056800030E0A901813011F0A5019401672D8A89CC
:105690000E94A51A6B017C01DC01CB01885A91465E
:1056A000A109B1098B8B9C8BAD8BBE8BAB8DBC8D57
:1056B0008C91813089F586E08D8714E01E87C201C8
:1056C000B1012DE230E040E050E00E94FC366B89F1
:1056D0007C898D899E890E94513628EE33E040E016
:1056E00050E00E94FC36220D331D441D551D2D83B4
:1056F0003E834F8358871F878F89988DA98DBA8DD8
:1057000089879A87AB87BC87CD28CE28CF2809F414
:10571000BBCC93E09B8BCFCE12E01D87C501B401BB
:105720002CE432E040E050E00E94FC366B897C893A
:105730008D899E890E94513628E13CEF4FEF5FEF43
:105740000E94FC36280D391D4A1D5B1D29833A83B2
:105750004B835C831E872D823E824F825886CBCF3F
:1057600041E0C501B4010E9484174B015C018CCC5F
:1057700041E0C201B1010E9484171B012C0184CCBD
:1057800041E06F89788D898D9A8D0E9484176F8B87
:10579000788F898F9A8F78CCA1E0AB8B8CCE8130BB
:1057A00009F0EACEC701B6012DE230E040E050E05A
:1057B0000E94FC366EA17FA188A599A5685A714602
:1057C000810991090E94513628EE33E040E050E013
:1057D000C5CE3B8939A3E9CE109113030E9464150D
:1057E00080911303811710F40E9464158091E202E6
:1057F00081110E9499219FA519160CF0C6CB44CCAB
:10580000AFECA00FAA8B10160CF4BFCBAFC8409121
:10581000020150910301E12C00E020E060910401BD
:10582000809105010E94BA076B017C016091080418
:105830007091090480910A0490910B040E941F1832
:1058400082E892E00E9423120E94810F6C0D7D1D60
:105850008E1D9F1D5FC8813011F00C9421230C9484
:10586000C123813009F04EC940C9813009F421CAF1
:105870003ACA1F920F920FB60F9211242F933F93A3
:105880008F939F93AF93BF9380918A0590918B05DF
:10589000A0918C05B0918D053091890523E0230FEF
:1058A0002D3758F50196A11DB11D209389058093D0
:1058B0008A0590938B05A0938C05B0938D058091FC
:1058C0008E0590918F05A0919005B091910501965C
:1058D000A11DB11D80938E0590938F05A093900517
:1058E000B0939105BF91AF919F918F913F912F916F
:1058F0000F900FBE0F901F90189526E8230F029669
:10590000A11DB11DD2CF1F920F920FB60F9211247D
:105910002F933F934F935F936F937F938F939F93B7
:10592000AF93BF93EF93FF9389E396E00E947104D6
:10593000FF91EF91BF91AF919F918F917F916F9167
:105940005F914F913F912F910F900FBE0F901F903D
:1059500018951F920F920FB60F9211242F938F93C9
:105960009F93EF93FF93E0914906F0914A0680815F
:10597000E0914F06F091500682FD1BC0908180910E
:1059800052068F5F8F7320915306821741F0E0918A
:105990005206F0E0E75CF94F958F80935206FF9135
:1059A000EF919F918F912F910F900FBE0F901F90AD
:1059B00018958081F4CF1F920F920FB60F92112489
:1059C0002F933F934F935F936F937F938F939F9307
:1059D000AF93BF93EF93FF938091B900887F803698
:1059E00009F44AC0F0F5883209F4A7C018F58031EF
:1059F00009F49BC0B8F4882309F4F9C0883009F48D
:105A000094C0FF91EF91BF91AF919F918F917F9142
:105A10006F915F914F913F912F910F900FBE0F901B
:105A20001F901895883109F488C0803251F780930F
:105A30000D0614C0803409F49DC040F48033B9F3DE
:105A40008833F9F680930D0685ECB0C0803509F4F3
:105A500085C0883509F496C0883499F60E94EB1108
:105A6000D0CF883909F48CC038F5883729F050F444
:105A7000883611F0803729F683E080930F06109264
:105A8000D60257C0883809F47BC0803919F08038B5
:105A900009F0B7CF8091D602803208F071C0E09152
:105AA000D60281E08E0F8093D6028091BB00F0E099
:105AB000EA54FD4F80833DC0803B39F0E0F4803AEA
:105AC00009F479C0883A09F09CCF84E080930F06EE
:105AD0001092B5021092B402E091D902F091DA026C
