:100000000C9407030C942F030C942F030C942F03D0
:100010000C942F030C942F030C942F030C942F0398
:100020000C942F030C942F030C942F030C942F0388
:100030000C942F030C942F030C942F030C942F0378
:100040000C94352D0C942F030C94A52D0C947F2D1E
:100050000C942F030C942F030C942F030C942F0358
:100060000C94D72D0C942F034C564C00442E4F2E3D
:10007000004F525000525444004C6576656C004F5E
:1000800032005265646F780045430054656D702EF0
:100090000025006D5600704800C2B55300C2B04341
:1000A0000058025802840384035802000001010131
:1000B0000102014E616D652C004F2C252C31004F43
:1000C0002C6D672C30004B2C312E30004F2C5347B9
:1000D0002C30004F2C532C30004F2C5444532C30D8
:1000E000004F2C45432C3100532C63004C2C310025
:1000F00001010101010064727900686967682C00E0
:100100006D69642C006C6F772C0043616C003A20A1
:1001100000C2B043005D20403A005B00496E742E7F
:10012000204C6576656C202D2031004552520056DA
:10013000616C3A200045525200205600537461749D
:1001400075733A2000536C61766520403A20004474
:100150006F20284175746F2D294164647265737333
:100160002865732900283173742920284175746F1C
:100170002D2941646472657373203D2000446F2013
:10018000284175746F2D294E616D652873290028EB
:100190004175746F2D294E616D65203D20004465C9
:1001A0006C657465204E616D6528732900436C652C
:1001B00061722043616C6962726174696F6E287349
:1001C00029202020202000526573657420202020E3
:1001D00020004932432C0075008800960071006CA5
:1001E0000068003D20002D50742E200020746F20E8
:1001F00053657474696E672D4E6F2E205B312D33FD
:100200005D00290020280020436F70792046554C5E
:100210004C2053455454494E47200042001B5B007C
:100220007C20204F666673657420207C20204F6EF2
:1002300054696D6520207C204F666654696D652089
:10024000207C204F4E27735F32446F207C20205348
:10025000746174652020207C003A20007248007C84
:1002600020202054656D702E202020207C2020200E
:1002700020454320202020207C2020202020704862
:1002800020202020207C202020205265646F7820B0
:100290002020207C202020204F3220202020207C65
:1002A0002020204C6576656C20207C00426F6F74A6
:1002B00020466F72205465726D696E616C205573B3
:1002C0006500426F6F74204173204D6F6442555337
:1002D00020536C6176652020202020004661696CE7
:1002E0005361666500746F6F4C6F772020207C200F
:1002F0002020204C6F7720202020207C20202020D0
:1003000048696768202020207C2020746F6F48692E
:1003100067682020207C0044656C617954696D65B4
:10032000730020436F7079546F536574205B312DD7
:10033000345D002053656C656374536574203D2003
:1003400000456469744E616D652020200052756E11
:10035000416C6C43656E742E0052756E414C4C209E
:100360002020002052756E53696E676C6520202036
:10037000002045646974202020008B0088009600CE
:1003800082007F007900207C202020202020204C2B
:100390004F57202020202020207C2020202020209B
:1003A00048494748202020202020207C002D4475EB
:1003B0006D6D794E616D652D0053657420486967D8
:1003C0006800536574204C6F770053657420415664
:1003D00047204173204D6964005365742053696E52
:1003E000676C652F4D696400446F20332D50742E67
:1003F0002043616C2E00446F20322D50742E204318
:10040000616C2E202020202000446F20312D50745C
:100410002E2043616C2E2020202020004F32202DE2
:10042000004F5250202D007048202D004543202DB4
:1004300000525444202D002D2043616C696272618A
:100440007465200053656C65637420414C4C005307
:10045000656C6563742053696E676C650043616CFD
:100460006962726174696F6E2873292E2E2E0020C6
:1004700053656C2E53657474696E67205B312D3340
:100480005D203D200053657474696E672D4E616D6B
:1004900065203D20004D616E75616C2E2E2E00543E
:1004A000696D65732E2E2E2020200056616C7565B7
:1004B000732E2E2E202020004D6F72652E2E2E20A2
:1004C000202000417344656661756C74004B65794A
:1004D000436F6C6F7220202000436F6C6F7220207E
:1004E000200044696D005370656564203D20004123
:1004F0006464722E203D200054696D652020200028
:1005000044617465202020005265426F6F74202082
:10051000200052655363616E2020200048003B009C
:100520001B5B001B5B324A006D001B5B001B5B31D9
:100530006D001B5B32326D0044001B5B0043001BEF
:100540005B001B5B376D001B5B346D00204020009F
:1005500020001B5B32346D003A002900207C200013
:100560001B37001B5B32376D001B38003E3E2000FE
:1005700000000000240027002A003C007E003C0010
:100580007E003E003E0000000000250028002B00F9
:1005900000000000230026002900040404040404D1
:1005A0000404020202020202030303030303010222
:1005B00004081020408001020408102001020408F1
:1005C00010200000000800020100000304070000E2
:1005D0000000000000009D0099009600930091002B
:1005E00091002020202053656C656374206B657931
:1005F0002C206F7220456E74657228666F722072AF
:10060000657475726E292E2E2E000A00F62E1124A6
:100610001FBECFEFD8E0DEBFCDBF26E0ACE2B2E038
:1006200001C01D92AE3EB207E1F712E0A0E0B1E0DA
:10063000E6EEF1E702C005900D92AC32B107D9F7B2
:1006400013E0C7E0D3E004C02197FE010E94AA385E
:10065000C630D107C9F70E942F2F0C94F1380C94A3
:1006600000008091AB059091AC05891B990B089512
:10067000833081F028F4813099F08230A9F0089518
:100680008730A9F08830C9F08430B1F480918000BF
:100690008F7D03C0809180008F77809380000895C4
:1006A00084B58F7784BD089584B58F7DFBCF80910D
:1006B000B0008F778093B00008958091B0008F7D57
:1006C000F9CFCF93DF93282F30E0F901EE53FA4FA3
:1006D0008491F901E255FA4FD491F901E656FA4FA7
:1006E000C491CC23A1F081110E943803EC2FF0E0DB
:1006F000EE0FFF1FE057FA4FA591B491EC91ED2357
:1007000081E090E009F480E0DF91CF91089580E0EE
:1007100090E0FACF1F93CF93DF93282F30E0F901B9
:10072000EE53FA4F8491F901E255FA4FD491F90151
:10073000E656FA4FC491CC23A9F0162F81110E94DE
:100740003803EC2FF0E0EE0FFF1FEA57FA4FA591A8
:10075000B4918FB7F894EC91111108C0D095DE23B5
:10076000DC938FBFDF91CF911F910895DE2BF8CFDF
:100770003FB7F8948091960590919705A0919805C0
:10078000B091990526B5A89B05C02F3F19F0019699
:10079000A11DB11D3FBFBA2FA92F982F8827BC01DB
:1007A000CD01620F711D811D911D42E0660F771F03
:1007B000881F991F4A95D1F708958F929F92AF9203
:1007C000BF92CF92DF92EF92FF926B017C010E9469
:1007D000B8034B015C01C114D104E104F104B9F088
:1007E0000E94B803681979098A099B09683E734019
:1007F0008105910580F321E0C21AD108E108F108D2
:1008000088EE880E83E0981EA11CB11CE4CFFF90F7
:10081000EF90DF90CF90BF90AF909F908F90089512
:1008200008950895AF92BF92CF92DF92EF92FF9218
:100830000F931F93CF93DF936C017B018B01040F08
:10084000151FEB015E01AE18BF08C017D10759F0A4
:100850006991D601ED91FC910190F081E02DC601E6
:100860000995892B79F7C501DF91CF911F910F91E0
:10087000FF90EF90DF90CF90BF90AF900895FC0174
:10088000538D448D252F30E0842F90E0821B930BF5
:10089000541710F0CF96089501970895FC01918D9B
:1008A000828D981761F0A28DAE0FBF2FB11D5D969E
:1008B0008C91928D9F5F9F73928F90E008958FEF40
:1008C0009FEF0895FC01918D828D981731F0828DF4
:1008D000E80FF11D858D90E008958FEF9FEF08954B
:1008E000FC01918D228D892F90E0805C9F4F821BAF
:1008F00091098F739927089581E496E00E9470040E
:1009000021E0892B09F420E0822F089580E090E017
:10091000892B29F00E947C0481110C940000089519
:10092000FC01A48DA80FB92FB11DA35ABF4F2C9164
:10093000848D90E001968F739927848FA689B7895B
:100940002C93A089B1898C91837080648C93938D52
:10095000848D981306C00288F389E02D80818F7DF5
:1009600080830895EF92FF920F931F93CF93DF93AD
:10097000EC0181E0888F9B8D8C8D98131AC0E889DB
:10098000F989808185FF15C09FB7F894EE89FF89AA
:100990006083E889F98980818370806480839FBF48
:1009A00081E090E0DF91CF911F910F91FF90EF9048
:1009B0000895F62E0B8D10E00F5F1F4F0F73112758
:1009C000E02E8C8D8E110CC00FB607FCFACFE88993
:1009D000F989808185FFF5CFCE010E949004F1CF87
:1009E000EB8DEC0FFD2FF11DE35AFF4FF0829FB707
:1009F000F8940B8FEA89FB8980818062CFCF0F93B7
:100A00001F93CF93DF938C01D0E0C0E0F801EC0F8F
:100A1000FD1F6491662341F081E496E00E94B204D8
:100A2000892B11F02196F2CFCE01DF91CF911F914A
:100A30000F910895682F81E496E00C94B204CF934F
:100A4000DF93EC01888D8823B9F0AA89BB89E889F6
:100A5000F9898C9185FD03C0808186FD0DC00FB69C
:100A600007FCF7CF8C9185FFF2CF808185FFEDCF1A
:100A7000CE010E949004E9CFDF91CF91089520919B
:100A8000AE02260F3327331F21323105ECF42091BB
:100A90001706FC0190E080E0243069F082E00895C0
:100AA000A091AE022191AC0142575D4FA40FB52F2A
:100AB000B11D2C930196861798F38091AE02680FB2
:100AC0006093AE0280E0089581E0089510921706C9
:100AD00081E0809316061092F10561E082E10E94A8
:100AE0008A0361E083E10E948A03E9EBF0E0808100
:100AF0008E7F808380818D7F808388E48093B8009F
:100B000085E48093BC000895CF93DF9391E09093A8
:100B10008D028823B9F0C091B800D091BA008091BD
:100B2000BC008A7B8093BC0060E082E10E948A0363
:100B300060E083E10E948A030E946605D093BA00B8
:100B4000C093B800DF91CF9108958F929F92AF929A
:100B5000BF92CF92DF92EF92FF920F931F93CF93AA
:100B6000DF93D0914006D13208F0D7C0182FC09142
:100B70003F060E94B8036B017C018091170681112A
:100B80006BC082E080931706109316068FEF809358
:100B9000150610921406D0931306AFE1B6E0E3EF0A
:100BA000F5E080E0D81391C01092F2058091F20533
:100BB000CC0FC82BC093F2058091F105813009F06C
:100BC00088C01092F1050E94B8036B017C018091EE
:100BD000F2058093BB008091190690911A06A091AE
:100BE0001B06B0911C06892B8A2B8B2BA1F00E942F
:100BF000B8030091190610911A0620911B06309136
:100C00001C066C197D098E099F090617170728070E
:100C1000390708F442C08091BC0083FDD8CF85EC31
:100C20008093BC000E94B8036B017C018091170681
:100C3000823009F450C0809115068F3F09F46FC0CF
:100C400080911506803209F46CC0809115068033BE
:100C500009F469C084E026C08091190690911A06B3
:100C6000A0911B06B0911C06892B8A2B8B2B09F4B3
:100C700084CF0E94B8038090190690901A06A09025
:100C80001B06B0901C066C197D098E099F098616FB
:100C90009706A806B90608F070CF809118060E9442
:100CA000840585E010921E061092400610921D06E3
:100CB000DF91CF911F910F91FF90EF90DF90CF9038
:100CC000BF90AF909F908F9008959D9191938F5F6B
:100CD00069CF85EEA5CF8091190690911A06A09153
:100CE0001B06B0911C06892B8A2B8B2B09F49ECFF7
:100CF0000E94B8030091190610911A0620911B0654
:100D000030911C066C197D098E099F09061717077B
:100D10002807390708F08ACFC0CF81E0C3CF80E031
:100D2000C1CF82E0BFCF83E0BDCF0895E091AC0595
:100D30008091AB05E81730F4F0E0E355FA4F80817D
:100D400090E008958FEF9FEF08959091AC0580910A
:100D5000AB052FEF3FEF981748F4E92FF0E0E3558C
:100D6000FA4F208130E09F5F9093AC05C901089550
:100D7000CF92DF92EF92FF920F931F93CF93DF9367
:100D80007C01CB018A0120911D06222389F0EB0111
:100D90006B01C40ED51ECC15DD0569F06991D70134
:100DA000ED91FC910190F081E02DC7010995F3CF01
:100DB000642F0E943F05C801DF91CF911F910F91D1
:100DC000FF90EF90DF90CF900895CF93DF931F9225
:100DD000CDB7DEB7698320911D062223F9F020915B
:100DE0004006203258F021E030E0FC0133832283BA
:100DF00090E080E00F90DF91CF91089580911E06E2
:100E0000E82FF0E0E15EF94F998190838F5F809346
:100E10001E068093400681E090E0ECCF61E0CE01B9
:100E200001960E943F05F7CF90E080E008959C0175
:100E300064E670E00E946338FC01C9018370992761
:100E4000892B11F4309779F4C90160E971E00E94AF
:100E500063389C01EF2B11F4892B19F481E0232BCB
:100E600009F080E0089581E00895863029F034F497
:100E7000823051F0843031F48EE108958930E1F30D
:100E80008B30D1F38FE10895CB010E94170788239F
:100E900011F08DE108958CE108952F923F924F92C9
:100EA0005F926F927F928F929F92AF92BF92CF92FA
:100EB000DF92EF92FF920F931F93CF93DF932B015B
:100EC0003C011A014901E80187EE97E09983888384
:100ED00040E853E361EE71E044155505660577057A
:100EE000B0F488819981019699838883441A550AC0
:100EF000660A770A0E94170740E450E761E370E052
:100F00008111EACF40EC5EE160E370E0E5CF81E083
:100F1000F401808360E87EED88E290E06415750559
:100F200086059705B0F4F40120812F5F2083461ACF
:100F3000570A680A790A68817981822F0E943507E9
:100F4000A82FB0E020E831E541E050E00E941238DF
:100F5000E5CFC301B20120E831E541E050E00E9455
:100F6000F0372F5FF101208320E13EE040E050E0C8
:100F70000E94F037F70120832CE330E040E050E09E
:100F80000E94F037F6012083F5016083DF91CF9155
:100F90001F910F91FF90EF90DF90CF90BF90AF9097
:100FA0009F908F907F906F905F904F903F902F9089
:100FB00008954F925F926F927F928F929F92AF921D
:100FC000BF92CF92DF92EF92FF920F93CF93DF9376
:100FD000C82FC62E3A01D22F97EE492E97E0592EF0
:100FE000812C912C540146145704C0F4C2010E9474
:100FF000170781110CC020E8821A2CEC920A2EE10E
:10100000A20A2EEFB20A4FEF441A540AECCF3BE784
:10101000931A3DE1A30A3EEFB30AF5CF442443946B
:10102000512CD12C4C145D04A4F4B301842D0E94E6
:101030003507A82FB0E020E831E541E050E00E94FC
:101040001238860E971EA81EB91E5FEF451A550A64
:10105000E9CF202F30E0ACE3B0E00E9454389B0190
:10106000AC012E0D311D411D511D69017A012D2F3D
:1010700030E0A0E1BEE00E945438C60ED71EE81E44
:10108000F91E4C2F4150550BDA0120E831E541E0C3
:1010900050E00E94B0386C0D7D1D8E1D9F1D680DA7
:1010A000791D8A1D9B1DDF91CF910F91FF90EF90CD
:1010B000DF90CF90BF90AF909F908F907F906F9078
:1010C0005F904F9008950F931F938FB7F8944091BE
:1010D00092055091930560919405709195058FBF8D
:1010E000009178021091790220917A0230917B026E
:1010F000DB01CA01401751076207730718F4019713
:10110000A109B109801B910BA20BB30B00917402D2
:10111000109175022091760230917702800F911F15
:10112000A21FB31F883E23E09207A105B10508F472
:10113000C7C0409378025093790260937A0270930B
:101140007B02885E9340A109B10980937402909359
:101150007502A0937602B09377028091700290910D
:101160007102A0917202B09173020196A11DB11D8E
:101170008093700290937102A0937202B0937302F5
:1011800080916F028F5F80936F028C3339F480916E
:101190006E0210926F028F5F80936E0280916E02DA
:1011A0008C3339F480916D0210926E028F5F8093C0
:1011B0006D0280916D02883159F410926D02809118
:1011C0006B0290916C02019690936C0280936B027B
:1011D00080916A028F5F80936A024091100450915F
:1011E000110460911204709113044F5F5F4F6F4FB1
:1011F0007F4F409310045093110460931204709336
:1012000013048C3339F48091690210926A028F5F63
:1012100080936902809169028C3339F4809168026D
:10122000109269028F5F8093680280916802883112
:1012300021F081E01F910F91089510926802909122
:1012400005019F5F9093050180910401823009F5AB
:101250009D3170F080910201909103010E94170767
:10126000811106C081E08093050183E08093040131
:10127000809104018D30E9F681E080930401809132
:101280000201909103010196909303018093020162
:10129000D0CF863019F020F4843031F42FE105C02E
:1012A0008930E1F38B30D1F320E2022E000C330BB6
:1012B00092171306E9F691E0909305018F5FD6CF60
:1012C00080E0B8CFCF92DF92EF92FF920F931F93FF
:1012D000CF93DF93CFEFDCE3E62EF12C082F10E065
:1012E00068018FE1C81AD108DD23A1F10E946308CB
:1012F0008111D15081E496E00E947004892BA1F302
:1013000081E496E00E944E04C82F803304F1082E39
:10131000000C990B9C0120533109E216F306D4F41A
:10132000C1369CF008171907ACF48C159D0594F094
:10133000CB3179F0CB3271F0CD3261F0DCE38C2F20
:101340008D7F8C3339F0CFEFD1CFC13474F7CD30EE
:1013500079F7C0E08C2FDF91CF911F910F91FF9013
:10136000EF90DF90CF900895CF93C82FC15020F019
:1013700080E20E941A05FACFCF91089581E00C9483
:10138000B40982E495E00C94FF04813671F02AE5FB
:10139000853261F0882349F021E0280F93EE980F01
:1013A000983020F08955883008F02EE1822F08957A
:1013B0004F925F926F927F928F929F92AF92BF9265
:1013C000CF92EF92FF920F931F932B013C018E2D32
:1013D000D5011C92812C912C5401411451046104BB
:1013E000710461F08090100490901104A090120498
:1013F000B090130484189508A608B708E02FF0E011
:10140000EE0FFF1FE455FB4F608171817B0110E0FF
:1014100000E0E814F9040A051B0558F48E189F082B
:10142000A00AB10A281539054A055B05C8F091E004
:101430009C93CC2039F18430F1F0B0F48230C8F0C4
:10144000C301B2011F910F91FF90EF90CF90BF9019
:10145000AF909F908F907F906F905F904F90089586
:10146000412C512C3201E5CF863051F368F08730A2
:1014700039F0865F01C08CE06C910E948A03E0CF56
:101480008DE0FACF8E5FF8CF87E0F6CF4817C1F036
:10149000613091F4E6E1E49FD0011124A45EBC4FD9
:1014A000E89FF0011124E45EFC4F81E02C919081D3
:1014B000291729F080E0089581E06230D9F7089576
:1014C00081E0FDCF0E94BE098AE30E941A050C94B8
:1014D000BE0996E1899FF0011124E45EFC4FE08192
:1014E000F0E0EE0FFF1FEF55FF4F65917491072E4F
:1014F000000C880B990B0C94DD03CF93C2E060E0E5
:101500008C2F0E948A03CF5FCE30C9F7CF91089508
:10151000FC0101900020E9F73197AF01481B590BFE
:10152000BC0181E496E00C9412048F929F92AF92DA
:10153000BF920F931F93CF93DF93CDB7DEB7A197E1
:101540000FB6F894DEBF0FBECDBF19A2423008F42B
:101550004AE08E010F5D1F4F842E912CB12CA12CDF
:10156000A50194010E94F037E62FB901CA01EA30C3
:10157000F4F4E05DD801EE938D01232B242B252B71
:1015800079F790E080E0109719F0CD010E94880A69
:10159000A1960FB6F894DEBF0FBECDBFDF91CF91FD
:1015A0001F910F91BF90AF909F908F900895E95C2D
:1015B000E1CF009711F00C94880A90E080E0089544
:1015C0008CE792E00C94D90A82E491E00C94880AAA
:1015D000CF93DF930E94FF04EC010E94E40A8C0F7A
:1015E0009D1FDF91CF9108958AE096E00E94E80A5E
:1015F00082EE95E00C94FF04CF92DF92FF920F935E
:101600001F93CF93DF93EB0109900020E9F7219717
:10161000C61BD70BCC2369F18B0191E090931D067B
:1016200080933F0610921E0610924006F12CEC2F7C
:10163000E40FFF27FF1F6F018F2D90E08C159D0594
:1016400054F4800F911FFC0160818EED96E00E94A2
:10165000E506F394F1CF81E00E94A50581110BC04E
:101660008C2FDF91CF911F910F91FF90DF90CF9042
:10167000089580E0F6CF8FEFF4CF96E1899FF001D7
:101680001124E45EFC4F40E065E471E082810C943B
:10169000FC0A0F931F93CF938C01FC010190002053
:1016A000E9F73197E81BF90B6E1B862F8695C62F3D
:1016B000C81B0E94B409C8010E94D90A8C2FCF917F
:1016C0001F910F910C94B409682F70E090E080E0B6
:1016D0004AE00C94950ACF93C82F8FE395E00E94BF
:1016E000FF048C2F0E94640B8DE395E0CF910C9446
:1016F000FF04CF93C82F8AE395E00E94FF048C2F4C
:101700000E94640B88E395E0CF910C94FF04CF9383
:10171000C82F811101C0C7E28091670281110CC0FE
:1017200082EE8C0F883030F086EA8C0F883010F013
:10173000C73211F4C09301018AE295E00E94FF04D0
:101740008C2F0E94640B88E295E00E94FF04C73250
:1017500011F0CF910895C1E3DFCFCF93C82F10923E
:10176000670280E00E94C00B80910101CC2329F028
:1017700081E08093670280910001CF910C94870BE8
:10178000CF93C82F80916702882319F080E00E94D0
:10179000AD0B8DE295E0C11102C082E395E0CF91DF
:1017A0000C94FF04CF93C82F80E00E94C00B8CE5FF
:1017B00095E00E94FF04CC2321F081E0CF910C94AE
:1017C000C00BCF91089580E00E94D20B81E00C9471
:1017D000790BCF93C62F0E94B40981E00E94D20BEF
:1017E0008C2FCF910C94B409CF93C82F80E00E9426
:1017F000AD0B8C2F0E94870B81E0CF910C94C00B16
:1018000081110C94F40B80E00E94C00B80E00C94DA
:10181000870B8091E0020E94000C87E495E00C9415
:10182000FF0480E00E94870B83E295E00C94FF04A4
:101830008F929F92AF92BF92CF92DF92EF92FF92E0
:101840000F931F9390E0FC01EE0FFF1FEE0FFF1FA1
:10185000E85BFA4F0081118122813381FC01EE0F98
:10186000FF1FEE0FFF1FE05DFA4FC080D180E280C6
:10187000F380FC01EE0FFF1FEE0FFF1FE85EFA4F33
:1018800080809180A280B380FC01EE0FFF1FEE0FDD
:10189000FF1FEC5CFB4F4081518162817381880F97
:1018A000991F880F991FFC01E050FB4F80819181A7
:1018B000A281B381481759076A077B07A4F082E227
:1018C000481559056A057B057CF08FE1041715075B
:1018D000260737074CF080E2C416D506E606F70661
:1018E0001CF481E201C084E21F910F91FF90EF9000
:1018F000DF90CF90BF90AF909F908F900C94870B0C
:10190000CF93DF93C82FD62F80E295E00E94FF048B
:101910008D2F0E94640B8EE195E00E94FF048C2FB6
:101920000E94640B8CE195E0DF91CF910C94FF0451
:101930001F93CF93DF93C82F862FD42FCC2331F062
:1019400011E01C0F6C2F0E94800CC12FD15020F091
:101950008DE20E941A05FACF8C2FDF91CF911F9153
:101960000895CF92DF92EF92FF920F931F93CF9340
:10197000DF93C82F1092CD050E94B8036B017C0144
:1019800080911706811166C081E0809317068093CD
:1019900016069FEF90931506109214069FE1909300
:1019A00013068093F2058091F205CC0FC82BC093EB
:1019B000F2058091F105813009F0A3C01092F10584
:1019C0000E94B8036B017C018091F2058093BB00FB
:1019D0008091190690911A06A0911B06B0911C06E1
:1019E000892B8A2B8B2BA1F00E94B803009119063A
:1019F00010911A0620911B0630911C066C197D0966
:101A00008E099F09061717072807390708F443C0EE
:101A10008091BC0083FDD8CF85EC8093BC000E94F0
:101A2000B8036B017C0180911706813009F46BC00B
:101A300080911406D0E2803210F4D0911406A3EF06
:101A4000B5E0EDEAF5E080E08D1751F19D919193BD
:101A50008F5FFACF8091190690911A06A0911B060C
:101A6000B0911C06892B8A2B8B2B09F489CF0E94FD
:101A7000B8030091190610911A0620911B063091A7
:101A80001C066C197D098E099F0906171707280780
:101A9000390708F075CF809118060E948405D0E0C0
:101AA0001092AC05D093AB0511E0C0E08091AC057D
:101AB000D817B1F0C132A4F48EED96E00E94A506CD
:101AC000112309F445C0813009F43FC0C0E08F3FC5
:101AD00039F0CFEF8E3F21F0CEEF823009F0CCEF1E
:101AE00081E00E94A505882311F0C7FFCDEF8C2F60
:101AF000DF91CF911F910F91FF90EF90DF90CF90EA
:101B0000089585EE8ACF8091190690911A06A091CA
:101B10001B06B0911C06892B8A2B8B2B09F483CFD3
:101B20000E94B8030091190610911A0620911B0615
:101B300030911C066C197D098E099F09061717073D
:101B40002807390708F06FCFA6CFC0E010E0AECF6E
:101B5000EC2F0C2E000CFF0BE353FA4F80838823ED
:101B600009F4BECFCF5FEC2FF0E0E353FA4F1082C1
:101B7000EDCFCF92DF92EF92FF92CF93DF936C0184
:101B8000092E000CEE08FF0897FF17C08DE20E9497
:101B90001A05EC0166277727CB016C197D098E09A0
:101BA0009F094AE00E94950A8C0F9D1FDF91CF91FB
:101BB000FF90EF90DF90CF9008954AE0C701B60103
:101BC000DF91CF91FF90EF90DF90CF900C94950A2A
:101BD000CF92EF920F931F93CF93DF93182FD42FB1
:101BE000C22F61110E94BE09EE2011F0C11005C084
:101BF00080E00E94AD0B0E94090CDD2319F08D2FAF
:101C00000E941A05812F0E941A058AE595E00E941C
:101C1000FF04002321F088E595E00E94FF0480E0A6
:101C20000E94C00B82E595E00E94FF0401110E9412
:101C3000BE09CC2319F08C2F0E941A0580E00E9467
:101C4000870BEE20A1F0C11014C081E0DF91CF918D
:101C50001F910F91EF90CF900C94C00B81E0DF911A
:101C6000CF911F910F91EF90CF900C94AD0BC110BD
:101C7000F5CFDF91CF911F910F91EF90CF90089505
:101C8000CF92EF920F93C62EE12C00E020E240E0CD
:101C900060E00E94E80D0F91EF90CF900895CF92F1
:101CA000EF920F93C12CE12C01E020E040E060E0D6
:101CB0000E94E80D0F91EF90CF900895CF92EF9290
:101CC0000F93C42EE62E01E020E040E060E00E9489
:101CD000E80D0F91EF90CF900895CF93DF93EC0133
:101CE0000E94110C80E00E94870B0E94C10961E0F4
:101CF00081E00E94800C81E00E94C00B60E5CE0173
:101D00000E94490B80E00E94C00B83E695E00E9490
:101D1000FF0482E0DF91CF910895CF93DF93EC0130
:101D200080E00E94AD0B0E94090CCE010E94D90AEE
:101D300080E00E94AD0B82E595E00E94FF0480E008
:101D4000DF91CF910C94000CCF93C82F682F85E0C2
:101D50000E94800C87E491E00E948D0E87E092E063
:101D60000E94FF0482E20E94870B80E695E00E94B9
:101D7000D90A84E092E00E94FF048091DE0290E0A4
:101D800001960E94B90D82E092E00E94FF0480E07B
:101D90000E94870B8CEE91E00E94FF0481E08C0F83
:101DA000CF910895FF920F931F93CF93DF936BE42E
:101DB00071E08AE995E00E942D37F12C00E010E0F7
:101DC000D0E0C0E00097E9F0C330D105E1F00E9417
:101DD000FF368C33910598F5209761F48831910591
:101DE00074F5182F6BE471E090E080E00E942D37CD
:101DF0002196E8CFC130D10511F4082FF3CFF82E8A
:101E0000F1CF2397E1F4212F30E0A0E1BEE00E9462
:101E100054382CE3029F80011124012E000C220B68
:101E2000330B600F711F821F931F6F0D711D811D7A
:101E3000911DDF91CF911F910F91FF90089560E068
:101E400070E0CB01F6CFCF93DF93C82FD62F80E081
:101E50000E94B409DD23C9F081E00E94AD0BEC2F94
:101E6000F0E0EE0FFF1FEA52FA4F659174918AE994
:101E700095E00E9426370E94D90A83E00E94B409A7
:101E800080E0DF91CF910C94AD0B80E00E94870B36
:101E9000E6CF6F927F928F929F92AF92BF92CF9236
:101EA000DF92EF92FF920F931F93CF93DF93CDB703
:101EB000DEB7E6970FB6F894DEBF0FBECDBF782E23
:101EC000662E8CE1E82E83E0F82ED12CC12C809177
:101ED0001B038150990BC816D9060CF077C04C2D06
:101EE000662D872D0E94460A882309F468C06CEE8F
:101EF00070E0CE0101960E942637F7018081813083
:101F000051F128F0843009F446C001E007C068EEC2
:101F100070E0CE010A960E94263702E0CE010196BB
:101F20005C01912C812C10E0801691060CF041C0D0
:101F300040E0B501F70182810E94FC0A6CE271E089
:101F400080E090E00E94DD03FFEF8F1A9F0A89E096
:101F5000A80EB11CE9CF61EE70E0CE010A960E9496
:101F6000263769ED70E0CE0143960E94263763ED77
:101F700070E0CE014C960E9426376CEC70E0CE01EA
:101F800085960E94263766EC70E0CE018E960E9400
:101F9000263706E0C3CF6FEB70E0CE010A960E94B1
:101FA000263769EB70E0CE0143960E94263703E0A6
:101FB000B5CF6CE271E080E090E00E94DD039FEF1E
:101FC000C91AD90AE6E1EE0EF11C81CFE6960FB6EA
:101FD000F894DEBF0FBECDBFDF91CF911F910F915F
:101FE000FF90EF90DF90CF90BF90AF909F908F9039
:101FF0007F906F9008955F926F927F928F929F92E1
:10200000AF92BF92CF92DF92EF92FF920F931F9306
:10201000CF93DF9300D000D000D0CDB7DEB75C0106
:10202000662E542E722ECE0101966C0186E0D601EA
:102030001D928A95E9F70CE113E0F12CE12C8091D7
:102040001B038150990BE816F9060CF073C04E2D56
:10205000652D862D0E94460A882309F450C063EB43
:1020600070E08DEC95E00E9426377720C1F0D80112
:10207000EC91F0E0D601AE0FBF1F8C918F5F8C9377
:10208000EE0FFF1FE952FE4F659174918AE995E0CA
:102090000E942637BC0182ED95E00E94E1388DEC6C
:1020A000882E85E0982EF40101900020E9F7CF01F9
:1020B000B50101970E94E138772091F0F401019079
:1020C0000020E9F7EE5CF540FF27E353FA4FD80113
:1020D0008C91D601A80FB11D8C91805D80831182F7
:1020E00041E06DEC75E0F80182810E94FC0A18164F
:1020F00034F462ED75E0C80105960E94E138D8011C
:1021000012968C9191E090931D0680933F06109259
:102110001E061092400660E08EED96E00E94E506F5
:10212000F80182810E94A505FFEFEF1AFF0A0A5EFF
:102130001F4F85CF26960FB6F894DEBF0FBECDBFDA
:10214000DF91CF911F910F91FF90EF90DF90CF9093
:10215000BF90AF909F908F907F906F905F90089509
:102160000F931F93CF93DF9305ED12E0C5EED3E0FD
:10217000CE010E94CA37F80181938F012196C13F99
:10218000F3E0DF07A9F76091D6027091D702809142
:10219000D8029091D90220EB34E040E050E00E9458
:1021A000F037672B682B692B61F080E895E2A0E09F
:1021B000B0E08093D6029093D702A093D802B09358
:1021C000D9028091DE02833020F01092DE0210925C
:1021D000DC028091DF02843020F01092DF02109246
:1021E000DC028091DD028B3020F01092DD02109233
:1021F000DC028091DA0280930001DF91CF911F9180
:102200000F9108950F931F93CF93DF9329E2289F97
:102210008001299F100D1124CCE2D2E00B5E1E4FED
:10222000C8018C0F9D1F0E94CA37899382E0C53573
:10223000D807B1F7DF91CF911F910F9108950F93B8
:102240001F93CF93DF9325EC289F8001299F100DCA
:102250001124CCEAD4E00A5B1340C8018C0F9D1F07
:102260000E94CA37899385E0C137D807B1F7DF915B
:10227000CF911F910F91089585ED8093BC008091BF
:10228000190690911A06A0911B06B0911C0607969C
:10229000A11DB11D23E0B695A795979587952A9521
:1022A000D1F72091BC0024FD03C0109217060895B9
:1022B0004091190650911A0660911B0670911C06F8
:1022C000452B462B472B69F30097A105B10541F03B
:1022D00025E32A95F1F700000197A109B109E1CFA3
:1022E000809118060C9484052F923F924F925F9232
:1022F0006F927F928F929F92AF92BF92CF92DF9216
:10230000EF92FF920F931F93CF93DF936C01EC0139
:1023100009900020E9F72197C81BD90B6C2E81E0AA
:102320000E94C00B8CE695E00E94FF0480E00E94B2
:10233000C00B84E20E94870B80E695E00E94FF04B8
:10234000CC2349F00E94C109C6010E94D90A83E644
:1023500095E00E94FF04B6018AE995E00E94E13809
:10236000FE01FF27E656FA4F10825C2E1C2FE12C4F
:10237000F12C212C912CC0E0D0E090E1892E0CE3CF
:10238000DD3009F4B1C10E9463088823C9F001500F
:10239000B9F480E00E94870B80E0DF91CF911F911C
:1023A0000F91FF90EF90DF90CF90BF90AF909F90F4
:1023B0008F907F906F905F904F903F902F900895F7
:1023C00081E496E00E947004892BD1F281E496E0CA
:1023D0000E944E04D82F412E4518662009F493C15F
:1023E000992493945C12912CFC2EF60C312E3F18FC
:1023F000EE24E394E30CDD3009F443C1A4F4D830B7
:10240000B1F0DA3009F43DC12C2E80EE8D0F8F35FE
:1024100008F0B5CF103108F41AC1662009F4AFCF27
:10242000AA24A394DFC0DB3129F0DF3769F72C2E13
:10243000A12CD8C02C2E6CE070E080E090E00E94CF
:10244000DD0300E0A12C712CDBE181E496E00E9429
:102450007004892B09F44BC0739481E496E00E94C8
:102460004E04D82F6CE070E080E090E00E94DD0325
:1024700023E0721651F1271558F031E07316A9F0D8
:1024800082E07816A9F0AA24A394DFCF342CD3CF0E
:1024900094E0791641F1E5E07E12F5CF8FEB8D0FD8
:1024A000843088F70FE70D0FD0CFDB3561F7CDCF44
:1024B000D53334F4D33314F4D13329F70D2FC5CFEA
:1024C0008FEB8D0F8430F8F6F9CFDB3309F4BDCFF5
:1024D000DE37C9F6013309F4B8CFA8F28DEC800FCE
:1024E000823088F6B2CFD23309F4AFCFCCCF772089
:1024F00009F44FCFA11043CF033409F456C0E0F4E0
:10250000043389F058F4013309F449C0033309F462
:102510005EC0662009F433CF412C0AC0013409F4AF
:102520003EC00234B1F7742C662009F44EC0431843
:10253000742C750C612C7AC0013C69F168F4043488
:1025400009F43BC0003C29F7752C7194552009F41F
:1025500016CF61105DC012C0023C49F0033CC9F6C1
:1025600041E0511001C040E0742E719405C0772401
:102570007394411001C0712C611047C0772009F499
:10258000DFC0672C752C760CC52D16140CF44EC0CC
:102590006194C72D4BC0742C4110DBCFF0CE662068
:1025A00009F4CCC04C2E4518C3CF6110C0CF77249E
:1025B000739441100AC0712C08C06110F3CF41E040
:1025C000511001C040E0742E7194612C7FC06110E5
:1025D00009C0511680F7FF24F394F50CE42C252C48
:1025E000662463944E2D50E06F2D70E066567A4F4E
:1025F000822D90E086569A4F0E94BD381619722C93
:10260000AA2009F497CF522C24C0772009F4B7CE22
:102610008C2F860D9920A1F0C70D7C2EC81718F4B9
:10262000982F8C2FC92F6C2E681AC82F89E695E039
:102630000E94FF04662009F485C0C11188C097C0BC
:10264000780E872DC71578F78C2FC72DECCF61102A
:10265000E7CE852D90E09C0126563A4F59018556CC
:102660009A4F511680F4442D50E04F5F5F4FB901EF
:102670000E94BD38F501D08377247394750C1F5FD9
:1026800059CF2C2E7CCEFC011082F4CF83E695E04E
:102690000E94FF045C2E560C852D90E09C0126566E
:1026A0003A4F5901511638F4F50181915F010E94AA
:1026B0001A055394F7CF5C2E882D811B0E94B40914
:1026C00089E695E00E94FF04C52D512C772009F47E
:1026D00056CE570C872D17141CF40E946B0B4FCE4F
:1026E00081950E94790B4BCEE12FF0E0E656FA4F30
:1026F000108280E00E94870B6AE975E0C6010E94A3
:10270000E13881E04ACE8D3009F439CE34F4883096
:1027100051F08A3009F433CE78CE8B3109F4B6CE3D
:102720008F3709F072CE552059F022242A94250CB7
:10273000EE24E394E40CF52CA12C52CF752C44CF5D
:10274000612C1DCE512C112309F4B6CFC12F8AE97B
:10275000A82E85E0B82E512CF50181915F010E94D1
:102760001A0553945C12F8CF662009F4A5CF0E9495
:10277000C1095C2E2C2F260D3327331F5901852DBF
:1027800090E08A159B050CF081CF86569A4FFC018C
:1027900080810E941A055394F2CFFF920F931F93EA
:1027A000CF93DF938C01F62E6EE270E00E94D63854
:1027B000EC01892B11F0F1101BC04AE050E070E0F1
:1027C00060E0C8010E94E8358B019C01F7FE08C05B
:1027D000A8EEB3E0AC019B010E9412388B019C0172
:1027E000C901B801DF91CF911F910F91FF9008951A
:1027F00018824AE050E070E060E0C8010E94E835CD
:102800009B01AC01A8EEB3E00E9412388B019C0141
:10281000F12C37FF09C030952095109501951F4F79
:102820002F4F3F4FFF24F394FE01319684E690E052
:10283000CAE0D0E041914423F9F018161906E4F4F7
:10284000042E000C550B405351094A30510590F7A6
:10285000489FB001499F700D589F700D1124AB0126
:10286000770F660B770B040F151F261F371FBE014E
:102870000E947738CB01DECFFF2009F4B1CF30952D
:102880002095109501951F4F2F4F3F4FA9CF0097CF
:1028900021F09093F0058093EF056DE471E0809155
:1028A000EF059091F0050E942D370097A1F010924E
:1028B000F0051092EF05FC014081242F042E000C3E
:1028C000330B205331092A30310510F04D3229F7EE
:1028D0006FEF0C94CD1360E070E0CB010895FF9290
:1028E0000F931F93CF93DF93082F10E096E1899FFA
:1028F000E0011124C45EDC4F8A810E94B10C1816DD
:102900005CF58DEC95E00E944714F801EE0FFF1F77
:10291000EE0FFF1FE151FD4F60837183828393832C
:10292000FF24F394E881F0E0E355FF4FE491FE16B5
:10293000D0F490E080E00E944714F801EF0DF11D03
:10294000EE0FFF1FEE0FFF1FE151FD4F60837183FC
:1029500082839383F394E6CF80E0DF91CF911F9140
:102960000F91FF90089581E0F8CF8F929F92AF92E0
:10297000BF92FF920F931F93CF93DF9310921B038D
:102980000E94E40AC0E210E006E1FF24F3942091E3
:102990001B03C7FD4FC12A3008F04CC180EB8C0FE0
:1029A000883008F431C1C83609F42EC11C136DC03B
:1029B0006DE471E080E090E00E94DD03111167C0DA
:1029C000F0921D06C0933F0610921E06109240061C
:1029D00081E00E94A505811117C185E491E00E9464
:1029E000FF048C2F0E94640B0E94620A6DE471E068
:1029F00080E090E00E94DD0340E06FE471E08C2F06
:102A00000E94FC0A082E000C990B0E94B90D0E942E
:102A1000620A6DE471E080E090E00E94DD038C2F9B
:102A20000E94B10CD82F082E000C990B0E94B90DF2
:102A30000E94620ADC5FD53008F4F8C08DEC95E0A6
:102A40000E94D90A0E94620A8091CD058F3309F055
:102A5000EDC08091CE05893409F0E8C0E0911B03F8
:102A60000E9FF0011124E45EFC4F118215828091CB
:102A7000D005D3E08F3499F064F4D4E0843479F055
:102A8000D1E0853461F0DFEF0AC01C2F99CF10E050
:102A9000A4CF823509F4BAC0D2E08037A1F78D2FD8
:102AA0000D2E000C990B0E94B90D0E94E40ADF3F25
:102AB00009F4BCC0E0911B030E9FF0011124E45EF9
:102AC000FC4FC283D0838DEC95E00E944714D091D7
:102AD0001B030D9F90011124A901445E5C4F5A0114
:102AE000FA017483638340E061E571E08C2F0E94FA
:102AF000FC0A6DE471E080E090E00E94DD038C2F21
:102B00000E94B10C18162CF48091D2058053F50167
:102B1000818340E067E571E08C2F0E94FC0A6DE440
:102B200071E080E090E00E94DD038C2F0E94B10CE8
:102B300018164CF4D09FC001112463ED75E08F5D31
:102B40009C4F0E94E13840E06EE571E08C2F0E94BE
:102B5000FC0A8CE391E00E94FF046CE271E080E0EB
:102B600090E00E94DD038C2F0E94B10C18160CF02F
:102B700055C08091D5050E941A050E94BE0980E4C7
:102B80000E941A050E94BE0987ED95E00E94D90AAD
:102B900089E391E00E94E80A8FE291E00E94FF043D
:102BA000D0911B038D2F0E943D0B8D2F0E94690A2F
:102BB0008D2F0E946F148823A1F1E0911B0344E044
:102BC000E49FF0011124E151FD4F80809180A280AB
:102BD000B3804AE0C501B401B7FE0BC08DE20E948C
:102BE0001A0566277727CB01681979098A099B0995
:102BF0004AE00E94950A0E94E40A0E94E40A809139
:102C00001B038F5F80931B03CF5FC1CED1E0809108
:102C1000D105843509F4D0E0D19541CF85E391E029
:102C2000B9CF8BE291E00E94E80AE7CFC113ECCF65
:102C3000C150EACF30E0F901EE0FFF1FEE0FFF1F8A
:102C4000E151FD4F8AE694E0A1E0B0E080839183FA
:102C5000A283B383C6E1C29FC001C39F900D11241C
:102C6000FC01E45EFC4F12826CE171E08F5D9C4FD1
:102C70000E94263780911B03C89FF0011124E45E57
:102C8000FC4F95E0908311828F5F80931B03DF914F
:102C9000CF911F910F91FF90BF90AF909F908F9019
:102CA0000895DF92EF92FF920F931F93CF93DF93DC
:102CB000142FD22F2AE04AE955E00E9464374AE9EE
:102CC00055E0FA0101900020E9F7AF014B5955405A
:102CD000C42F4430A8F4552784E090E07C01E41A26
:102CE000F50A6AE975E0C70186569A4F0E94BD3819
:102CF000A70160E370E08AE995E00E94CF38C4E064
:102D00001D5FD12EDC1A1D14B4F44C2F50E06AE97B
:102D100075E0ED2C0D2C000CFF08C70186569A4F6C
:102D20000E94BD38602F000F770BA7018AE995E05C
:102D30000E94CF38C12F8C2F90E08C0109561A4F7A
:102D400043E050E0B80188569A4F0E94BD388EE2A9
:102D5000F8018083CF5F12E01D0F1D0D412F4C1B2A
:102D6000141664F4042E000C550B8C2F90E060E3D5
:102D700070E086569A4F0E94CF38C12FECEFEC0FCF
:102D800080E0DD2321F08E2FEDEFED0FEC0FF0E072
:102D9000E656FA4F1082DF91CF911F910F91FF906D
:102DA000EF90DF900895CF92DF92EF92FF920F9312
:102DB000CF936B017C01C42F4423E9F000E223E0B0
:102DC00041E00E9451166AE975E08CE792E00E94AA
:102DD000E1388CE792E00E947411882391F06C2F07
:102DE00061958AE995E0CF910F91FF90EF90DF9088
:102DF000CF900C94CD132AE04CE752E00E94643748
:102E0000E8CFC701B601CF910F91FF90EF90DF900F
:102E1000CF900895CF93DF93EC01688179818A8107
:102E20009B8141E00E94D316688379838A839B83C8
:102E300081E0DF91CF910895CF92DF92EF92FF92E0
:102E40000F931F93CF93DF93D62F7A01122FC02FAA
:102E5000282F30E0A8EEB3E00E94543800E320E0D1
:102E600042E00E9451166AE975E08CE792E00E9408
:102E7000E1388CE7C82E82E0D82EF60112832D2F80
:102E800030E0A8EEB3E00E94543820E042E00E9417
:102E900051166AE975E08FE792E00E94E138F60189
:102EA00015839701A8EEB3E00E94543820E04C2F20
:102EB0000E9451166AE975E082E892E00E94E138CA
:102EC000EC2FF0E0E458FD4F1682DF91CF911F9177
:102ED0000F91FF90EF90DF90CF900895AF92BF9247
:102EE000CF92DF92EF92FF920F931F93CF93DF93D6
:102EF00000D01F92CDB7DEB719821A821B829E01C5
:102F00002D5F3F4F5901215031096901215031098D
:102F1000790110E000E030E020E050E040E00E9465
:102F20004D074B8150E002E02AE36A8189810E94CB
:102F30001C170F900F900F90DF91CF911F910F9161
:102F4000FF90EF90DF90CF90BF90AF9008951F93C8
:102F5000CF93DF93EB01142F61E0209709F060E03D
:102F60000E94400EBE0190E080E00E946E170E9419
:102F7000E00A112329F0DF91CF911F910C94E30B0C
:102F8000DF91CF911F910895CF93DF93EC0168817A
:102F9000798190E080E00E946E178CE792E00E94B9
:102FA00074110E94D20E7983688381E0DF91CF9102
:102FB00008958F929F92AF92BF92EF920F93CF930B
:102FC000DF934B015C01C42FD22F8E2D0E94C00BCA
:102FD000DD23C1F02D2F4C2FC501B4010E945116E5
:102FE000C82F8AE995E00E94D90A80E00E94C00BB0
:102FF0008C2FDF91CF910F91EF90BF90AF909F906A
:103000008F900895A8EEB3E0A50194010E941238B4
:1030100020E04C2FE3CFEF92FF920F931F93CF93BB
:10302000DF93C82FF62EE42E122FD02F0E94180CFB
:103030006E2D8F2D0E94800C84E0C89FF00111241A
:10304000EC5CFB4F6081718182819381EE24E3947B
:1030500000E222E0412F0E94D917DD2351F060E009
:103060008C2FDF91CF911F910F91FF90EF900C94D7
:10307000230FDF91CF911F910F91FF90EF90089553
:10308000EF920F93CF93C82F01E022E0482F67E023
:1030900080E00E940B1881E00E94180C6C2F84E1E4
:1030A0000E94800C609138047091390480913A0438
:1030B00090913B0428EE33E040E050E00E948B38D2
:1030C000CA01B901EE24E39400E220E044E00E944A
:1030D000D91760E081E00E94230F01E022E04C2F2D
:1030E00060E282E00E940B1800E024E04C2F6CE2CA
:1030F00083E00E940B1880E00E94870B8CE592E031
:103100000E94FF0401E023E04C2F6AE384E00E9468
:103110000B1823E04C2F68E485E00E940B1881E037
:103120008C0FCF910F91EF9008952F923F924F9275
:103130005F926F927F928F929F92AF92BF92CF9247
:10314000DF92EF92FF920F931F93CF93DF93CDB750
:10315000DEB76A970FB6F894DEBF0FBECDBFA82EBC
:1031600086E0E6E0F1E0DE01119601900D928A958D
:10317000E1F786E0ECE0F1E0DE01179601900D92B8
:103180008A95E1F7E4E38E2EE4E09E2E9E01295F0E
:103190003F4F3B8B2A8BAE014F5F5F4F588B4F8762
:1031A00010E0B12C113009F470C081E090E052E0E1
:1031B000598BEA89FB892191FB8BEA8B2C8BEF855C
:1031C000F8892191F88BEF872D8B4CE153E05E87D6
:1031D0004D877FEE272E72E0372E6A2DD12CC12C21
:1031E000412C512C3201F12C9C01990F440B550BB1
:1031F0002F8B388F498F5A8F80911B038C151D049C
:1032000009F00CF446C03FEFC31AD30AED85FE85E2
:103210008081811330C0F394F1E0F60FFE8B8D892D
:103220000E94800CC6010E94B90D89E592E00E94BF
:10323000FF04F10160817181828193812F89388D32
:10324000498D5A8D0E948B38CA01B901EE24E3944E
:1032500000E229894C890E94D917F101808191816E
:10326000A281B381480E591E6A1E7B1E61E0812F28
:103270000E94230F6E892D853E852A5E3F4F3E8733
:103280002D8734E0230E311CB7CF88EE93E0198AE6
:1032900090CFFF20E1F12F2D30E050E040E0C3015E
:1032A000B2010E948B38F40120833183428353831F
:1032B000133051F520914004309141044091420473
:1032C00050914304AAE0B0E00E94123821E231E0BC
:1032D00040E050E00E948B3880913C0490913D0486
:1032E000A0913E04B0913F04880F991FAA1FBB1FF5
:1032F000820F931FA41FB51F809340049093410435
:10330000A0934204B0934304BF1408F4BF2C1F5F82
:10331000F4E08F0E911C163009F044CF8A2D8B0DEE
:103320006A960FB6F894DEBF0FBECDBFDF91CF9186
:103330001F910F91FF90EF90DF90CF90BF90AF90D3
:103340009F908F907F906F905F904F903F902F90C5
:1033500008958F929F92AF92BF92CF92EF920F9368
:10336000962F49015A01C12CE12C00E020E240E0F7
:1033700060E0890F0E94E80D00E222E044E0C50110
:10338000B4010E94D91780E00F91EF90CF90BF90C9
:10339000AF909F908F900C94D20B8F929F92AF9290
:1033A000BF92EF920F93CF93C82F4A015B0186EE35
:1033B00091E00E94FF046C2F8DE10E94800C83EE4F
:1033C00091E00E94FF04EE24E39400E222E044E056
:1033D000C501B4010E94D917CF910F91EF90BF9012
:1033E000AF909F908F9008952F923F924F925F924F
:1033F0006F927F928F929F92AF92BF92CF92DF9205
:10340000EF92FF920F931F93CF93DF9300D01F9201
:10341000CDB7DEB78983662E49015A0158E7752E6C
:1034200000E010E0C12CD12C7601202F30E03B834E
:103430002A8380911B038150990B281739073CF58B
:1034400086E1829FF001839FF00D1124E45EFC4F22
:10345000808181111AC01F5F802F0E943D0B802F39
:103460000E94690A802F0E946F14EA81FB81EE0F8F
:10347000FF1FEE0FFF1FE151FD4F80819181A2815F
:10348000B381C80ED91EEA1EFB1E0F5FCECF1123DB
:1034900009F4AAC0212F30E050E040E0C701B60196
:1034A0000E948B3819012A0120923404309235048D
:1034B00040923604509237040E94E40A80E00E9451
:1034C000AD0B0E94090C8AE191E00E94FF04E12CFF
:1034D00000E222E044E0C501B4010E94D91785E171
:1034E00091E00E94FF0480E00E94AD0B82E595E030
:1034F0000E94FF0480E00E94000C0E94BE0922E0AE
:1035000043E0C201B1010E94D91781E00E94AD0BD6
:1035100081E191E00E94FF0480E00E94AD0B83E016
:103520000E946B0B10E034E1F32E212F30E03B833F
:103530002A8380911B038150990B281739070CF0BF
:103540006FCF412F662D89810E94460A8823F1F1B1
:10355000812F0E943D0B812F0E94690A812F0E94BA
:103560006F146A817B816F5F7F4F072E000C880B81
:10357000990BE12C00E320E042E00E94D9178EE095
:1035800091E00E94FF048A819B81880F991F880F18
:10359000991F81519D4FFC016081718182819381CE
:1035A000EE24E39400E222E044E00E94D91780E098
:1035B0000E94D20BFEE0FF0E22E42F1538F40E9489
:1035C000E40A84E10E946B0B85E1F82E0E946308F7
:1035D00081117A9481E496E00E947004892B69F449
:1035E000772059F01F5FA1CF20903404309035042C
:1035F000409036045090370457CF81E496E00E9403
:103600004E044B9719F4212C312C2101C201B10138
:103610000F900F900F90DF91CF911F910F91FF901E
:10362000EF90DF90CF90BF90AF909F908F907F9062
:103630006F905F904F903F902F9008952F923F9200
:103640004F925F926F927F928F929F92AF92BF92B2
:10365000CF92DF92EF92FF920F931F93CF93DF935E
:10366000082FD62E142F322EF12C8F3F19F4FF2461
:10367000F39400E04FE365E0812F0E94980CCCE1C9
:10368000D3E02FEE622E22E0722E912C812C402E60
:10369000512C26E1029FC0011124FC01E45EFC4F85
:1036A0005F0180911B038815190409F00CF4C0C058
:1036B0009881F5018081981719F0FF2009F4ADC0B9
:1036C0001F5F222423944814590419F0D11001C01B
:1036D000212C612F85E00E94800C31100FC0CC247A
:1036E000C394C224E22C00E020E048E260E081E3E1
:1036F000880D0E94E80D81E00E94790B81E0222074
:1037000009F493C00E94C00B83E00E946B0BCE01B2
:1037100005960E94D90A612F8AE10E94800C822DB1
:103720000E94D20BF301608171818281938100E25A
:1037300022E045E00E94511688810E94180C211059
:1037400003C081E00E94AD0B8AE995E00E94D90A8E
:1037500080E00E94000C81E00E94AD0B0E94BE0937
:10376000E881F0E0EE0FFF1FEA52FA4F6591749185
:103770008AE995E00E9426370E94D90A612F89E2E2
:103780000E94800C80E00E94D20BE881F0E0EE0FF6
:10379000FF1FE952FE4F659174918AE995E00E94FE
:1037A00026370E94D90A612F80E30E94800C80E0B6
:1037B0000E94D20B6B817C8190E080E000E322E0EC
:1037C00042E00E9451168AE995E00E94D90A612FD1
:1037D00088E30E94800C80E00E94D20B2A8130E0B6
:1037E000A8EEB3E00E94543800E220E043E00E94DB
:1037F00051168AE995E00E94D90A612F8EE30E9452
:10380000800C89810E94D20B89810E94640B80E028
:103810000E94C00B80E00E94D20BFFEF8F1A9F0A1C
:10382000669624E0620E711C3CCF0E94AD0B6CCFFB
:1038300080E00E94AD0B4FE365E081E0810F0E94C4
:10384000980C82E0810FDF91CF911F910F91FF9033
:10385000EF90DF90CF90BF90AF909F908F907F9030
:103860006F905F904F903F902F9008950F93CF935C
:10387000DF93C82F682F85E00E94800C81E60E94AC
:103880004F0E87EC91E00E94FF0482E60E944F0EEB
:103890008DEA91E00E94FF0483E60E944F0E8EE9BC
:1038A00091E00E94FF04D2E0DC0F43E068E081E099
:1038B0008C0F0E94980C6D2F85E00E94800C84E68E
:1038C0000E944F0E8FE891E00E94FF0481E00E9469
:1038D000C00B85E592E00E94D90A6D2F8AE20E9412
:1038E000800C85E60E944F0E8DE791E00E94FF0458
:1038F00043E068E083E08C0F0E94980C64E06C0F5A
:1039000085E00E94800C86E60E944F0E85E691E0DD
:103910000E94FF0481E00E94C00B2091660230E00B
:10392000A8EEB3E00E94543800E320E043E00E9498
:1039300051168AE995E00E94D90A85E00E94B409EF
:1039400087E60E944F0E8FE491E00E94FF0485E01D
:103950008C0FDF91CF910F9108954F925F926F92EC
:103960007F92AF92BF92CF92DF92EF92FF920F932E
:103970001F93CF93DF935C01F62ED42E28013901DB
:10398000CE2D6AE071E08DEC95E00E942637EE20A6
:10399000E9F18CE28093D005C33059F150F4C13085
:1039A00099F060E071E0C23089F0C53078F5C4E08C
:1039B00012C0C53031F1C630C1F766EF70E081ED5D
:1039C00095E00E94263722C065E071E081ED95E028
:1039D0000E942637C8E000E322E041E0C301B201C3
:1039E0000E9451168C2F90E06AE975E083539A4F3C
:1039F0000BC06AEF70E081ED95E00E942637C9E0C8
:103A0000EACFB50181ED95E00E94E138E12C86E135
:103A1000C82ECF9CE0011124C45EDC4F0E2D10E0B7
:103A200080911B038150990B081719070CF54E2D37
:103A30006D2D8F2D0E94460A8823C1F0E881F0E0A9
:103A4000E051FF4FE491EE2389F0C09EC001C19E7A
:103A5000900D11248C01045E1C4F40E06DEC75E06C
:103A6000F80182810E94FC0AF8011182E394D6CF0A
:103A7000DF91CF911F910F91FF90EF90DF90CF904A
:103A8000BF90AF907F906F905F904F900895CF92CE
:103A9000DF92EF92FF920F93CF93DF93C09070026B
:103AA000D0907102E0907202F0907302C701B601EB
:103AB0000E946E17C701B60120E831E541E050E0F1
:103AC0000E94F037A8EEB3E00E94123800E220E036
:103AD00043E00E94511649E050E06CE772E081E853
:103AE00092E00E94BD38CCE7D2E083E0EAE9F5E05D
:103AF000DE0101900D928A95E1F784E68B8380E2E6
:103B00008C83DF91CF910F91FF90EF90DF90CF905A
:103B10000C94E00A0F9361E083E40E94800C0E9401
:103B2000C1090E94471D68E18DE30E94800C40910D
:103B300002015091030104E02EE2609104018091A2
:103B400005010E941C178CE792E00E94D90A0E948E
:103B5000BE0940916A0250E002E02AE360916902E6
:103B6000809168020E941C178CE792E00E94D90A9B
:103B700080E595E00E94FF0483E695E00F910C94A8
:103B8000FF040F931F93CF93DF93D82FC62F8A0183
:103B90000E94C10968E181E00E94800CDF3F49F585
:103BA00089E20E94870B84E00E94B409C8010E9448
:103BB000D90A80E00E94C00B81E30E94870B8CE44D
:103BC00095E00E94FF040E94471DC11106C0E80154
:103BD00009900020E9F72197C01B88E28C1B0E9406
:103BE000B40983E695E0DF91CF911F910F910C947A
:103BF000FF0481E00E94C00BD6CFCF93DF930E94D9
:103C0000110C0E94C10985E691E00E946D0EC82F3B
:103C100083E695E00E94FF04D2E0DC0F61E06C0FC8
:103C200083E00E94800C81E00E94C00B8FE592E04F
:103C30000E94FF044CE463E08D2F0E94980CC82F73
:103C400080E00E94C00B49E751E060E080E00E9404
:103C5000C11D8C2F0E9495184CE463E00E94980CC3
:103C60000E9440184CE463E00E94980CC82F81E049
:103C70000E94C00BC093E1021092E2024CE463E0A8
:103C800081E08C0FDF91CF910C94980C2F923F9292
:103C90004F925F926F927F928F929F92AF92BF925C
:103CA000CF92DF92EF92FF920F931F93CF93DF9308
:103CB000CDB7DEB7CD59D1090FB6F894DEBF0FBE30
:103CC000CDBFF82EC356DF4F6883CD59D0408EE864
:103CD00091E00E946D0E182F61E0680F83E10E9451
:103CE000800C80E292E00E94FF0481E00E94C00B01
:103CF00003E0010F44E467E082E0810F0E94980C2A
:103D00006CE272E0FE01319680E0DB012D913D9185
:103D1000BD0131832083843048F41E964D915C911F
:103D20009F0128593F4FD9014D935C938F5F3D967A
:103D3000883059F7FE01319680E0D12CC12CF8165D
:103D400019F0BFEFFB1209C0208131812115310527
:103D500021F0C216D30608F4690110868F5F3D96E4
:103D60008C3069F710E0412CBDE05B2EEE24E3942B
:103D7000123031F0E12E133018F0AEEFEA2EE10EE2
:103D80002E2C312C220C331CF101E658FC4F1F0164
:103D900080E01F1519F0FFEFFF12F6C0A12EB12C25
:103DA000E1E0F0E0EC0FFD1F519EE00DF11D11244C
:103DB000208131812115310509F4E6C0C356DF4F5A
:103DC0008881CD59D040813009F4E2C0C601B901E3
:103DD0000E94633826173707B8F1748763875A9CA7
:103DE00030015B9C700C1124A1E0B0E0AC0FBD1F52
:103DF0006A0E7B1EBBE06B0E711CD301ED91FC9132
:103E0000C901BF010E9463384B01E69FC001E79FD3
:103E1000900DF69F900D11248217930718F4BFEFB1
:103E20008B1A9B0AE89DC001E99D900DF89D900DAD
:103E300011242817390758F4309709F423C2319711
:103E4000D301ED93FC93D9CF34872387C8CF5A9CF5
:103E500030015B9C700C112481E090E08C0F9D1F61
:103E6000680E791ED30115969C928E921497C60106
:103E7000821B930BBF010E946338D30117967C937A
:103E80006E931697680D791D6E9FC0016F9F900D00
:103E90007E9F900D1124F601E81BF90BCF0196953A
:103EA000879513969C938E9312975A9CF0015B9C76
:103EB000F00D1124A1E0B0E0AC0FBD1FEA0FFB1F15
:103EC000868097809286818682819381892B29F4CE
:103ED000C401969587959383828382E2183008F017
:103EE00081E20E94870B602F0F5F87E00E94800CA9
:103EF00081E00E94C00BF101659174918AE995E01F
:103F00000E9426376BE00E94490B80E00E94870BDD
:103F100080E00E94D20B5A9CC0015B9C900D112442
:103F2000AA24A394B12CAC0EBD1EA80EB91EF50197
:103F30006281738190E080E00E946E170E94E00A27
:103F400080E00E94D20BD50114966D917C9190E097
:103F500080E00E946E170E94E00A80E00E94D20B6F
:103F6000B40190E080E00E946E170E94E00A81E0B8
:103F70000E94D20B842D411007C080E695E00E947C
:103F8000FF0481E044244394123080F4185F01CF91
:103F900081E090E09487838735832483C601821B68
:103FA000930B97838683138212827FCF143009F498
:103FB0004AC1173009F449C11B3009F48AC01A30CC
:103FC00009F445C1183008F01850882371F0B1E0A9
:103FD000EB1202C0133049F480E00E94C00B802F26
:103FE00044E467E00F5F0E94980C1F5F183008F4EC
:103FF000BDCE4CE7842E42E0942E442443945DE0F1
:10400000552EC114D10409F449C00E9463088823C5
:10401000D1F1E1E0CE1AD108B60190E080E00E9433
:104020006E176DE971E084E892E00E94E138D401F6
:104030000D900020E9F7BD016D5772404CE752E04A
:1040400080E00E94C11D8E010F5F1F4FE12CA12C4B
:10405000FE1419F0BFEFFB120CC0F80180819181B2
:10406000892B39F0828193810097A9F1019793837D
:104070008283E394035F1F4FFCE0EF12E9CFA110AE
:1040800055C00E948A1D81E496E00E947004892B2D
:1040900009F4B7CF81E496E00E944E04C356DF4F87
:1040A0000FB6F894DEBF0FBECDBFDF91CF911F9149
:1040B0000F91FF90EF90DF90CF90BF90AF909F90C7
:1040C0008F907F906F905F904F903F902F900C94C7
:1040D0007D0A17E07ACF8185928520852223C1F061
:1040E000248135812817390729F412861186108614
:1040F000AA24A394D80118966C9182E08E0D0E9498
:104100008A03F80181859285019692878187B1CFD4
:10411000268137812817390769F71286118640866C
:1041200083859485019794878387E2CF10E0B12C33
:104130003A2C123031F0312E133018F03EEF332E7E
:10414000310E80E01F1519F02FEFF2125AC0612EC8
:10415000712CE1E0F0E0EC0FFD1F519EE00DF11D30
:10416000112420813181232B09F44BC089E695E08D
:104170000E94FF04BB2059F08DE192E00E94FF04F1
:104180008B2D0E94640B8BE192E00E94FF04B3949C
:1041900082E2183008F081E20E94870B569CC00131
:1041A000579C900D112466246394712C6C0E7D1E17
:1041B000680E791ED3011B966D917C9190E080E092
:1041C000EE24E39400E320E048E00E94D91780E069
:1041D0000E94870BF3010085802F0E94D20B0023E1
:1041E000A1F08091E0020E94870B68E086EA91E0EE
:1041F0000E94490B80E00E94870B80E00E94D20B56
:104200008A2D123040F4185F9DCF68E089EA91E072
:104210000E94490BF2CF143021F1173021F11B30ED
:1042200041F11A3011F1183008F01850882331F09C
:10423000F1E03F1202C0133009F4B3941F5F18304D
:1042400008F476CF1ECF1AE0A4CD1BE0A2CD15E076
:10425000882309F492CD21E014E0E21609F4C5CEDA
:10426000BBCE1AE06FCF1BE06DCF81110DC015E002
:1042700065CF882309F405CF31E0331609F401CF67
:1042800017E0DBCF0E94B83881E014E03812D5CFB8
:10429000EECFEF92FF920F931F93CF93962F83361B
:1042A00009F45EC084F4813609F454C00CF08FC068
:1042B0008F5F823008F452C080E0CF911F910F9140
:1042C000FF90EF900895853609F455C00CF44EC068
:1042D000863609F454C0873679F7C09166020CE13E
:1042E00013E0F12CE12C80911B038150990BE8160F
:1042F000F9060CF063C080EB8C0F883008F45CC0CA
:10430000C83609F4C9E662ED71E08AE995E00E94D9
:1043100026374AE06CE772E08C2F90E00E94593714
:104320006CE772E08EE995E00E94E13840E06AE9CE
:1043300075E0F80182810E94FC0ACF5F6CE271E0B7
:1043400080E090E00E94DD03FFEFEF1AFF0A0A5EB3
:104350001F4FC9CF642F892F0E94490F81E0ADCF35
:1043600020E084E491E00E94FB0FF8CF85E592E025
:104370000E947411F3CF21E085E592E0F4CF6091C3
:10438000660270E090E080E040E00E94D316609307
:10439000660220911B038FE790E0821B910968174A
:1043A000190631F02CF08FE7821B80936602D6CF7E
:1043B0006032A0F680E2F9CFC8E5A5CF68EE73E0E1
:1043C00080E090E00E94DD030E94B514C7CF85E035
:1043D000E82E00E010E098018DEA91E00E94AD1C0B
:1043E000BDCFFF920F931F93CF93DF93EC01F62E77
:1043F00008811981C8010E94CA37F81621F06F2D73
:10440000C8010E94D237CE01DF91CF911F910F9149
:10441000FF900895EF92FF920F931F93CF93DF9336
:1044200000D0CDB7DEB785EDE82E82E0F82E05EEA0
:1044300013E01A830983F70161917F01CE01019690
:104440000E94F1210F5F1F4F013FF3E01F0789F723
:104450000F900F90DF91CF911F910F91FF90EF90F0
:104460000895EF92FF920F931F93CF93DF9300D0A5
:10447000CDB7DEB729E2AC01249FC001259F900D86
:1044800011240CE212E0FC01EB5EFE4F7F01C7013C
:10449000800F911F9A838983F80161918F01CE016A
:1044A00001960E94F121F2E005351F0781F70F9078
:1044B0000F90DF91CF911F910F91FF90EF90089592
:1044C000EF92FF920F931F93CF93DF9300D0CDB75E
:1044D000DEB725ECAC01249FC001259F900D11246F
:1044E0000CEA14E0FC01EA5BF3407F01C701800F96
:1044F000911F9A838983F80161918F01CE01019602
:104500000E94F121F5E001371F0781F70F900F900E
:10451000DF91CF911F910F91FF90EF900895EF924F
:10452000FF920F931F93CF93DF9300D0CDB7DEB7E9
:104530008CE1E82E83E0F82E10E000E01A83098376
:10454000F70161917F01CE0101960E94F1210F5F79
:104550001F4F023F110591F70F900F90DF91CF9100
:104560001F910F91FF90EF9008952F923F924F92DD
:104570005F926F927F928F929F92AF92BF92CF92F3
:10458000DF92EF92FF920F931F93CF93DF93CDB7FC
:10459000DEB7E1970FB6F894DEBF0FBECDBF85E65C
:1045A00091E00E946D0E20E0482F61E08FEF0E94A5
:1045B0001E1BC82E082E000CDD08682F85E00E9407
:1045C000800C81E60E944F0E82E195E00E94FF047C
:1045D00082E60E944F0E88E095E00E94FF0483E689
:1045E0000E944F0E80E095E00E94FF0484E60E9446
:1045F0004F0E88EF94E00E94FF0485E60E944F0E64
:104600008FEE94E00E94FF046091DB0270E090E086
:1046100080E0EE24E39400E320E043E00E94D91719
:1046200043E068E081E08C0D0E94980CB6016E5F5B
:104630007F4F85E00E94800C86E60E944F0E86EE3A
:1046400094E00E94FF0481E00E94C00B6091D602BA
:104650007091D7028091D8029091D9024AE00E94CD
:10466000950A80E00E94C00B83E00E94B40987E6AF
:104670000E944F0E82EE94E00E94FF0481E00E94AF
:10468000AD0B89ED94E00E94FF0480E00E94AD0B29
:1046900088E60E944F0E8DEC94E00E94FF0460912A
:1046A000DC0241E0611140E089E60E945E0E83EC8D
:1046B00094E00E94FF0443E068E083E08C0D0E94D8
:1046C000980C182F682F85E00E94800C8AE60E94C3
:1046D0004F0E88EB94E00E94FF048BE60E944F0E81
:1046E0008BEA94E00E94FF048CE60E944F0E8FE953
:1046F00094E00E94FF048DE60E944F0E85E994E04D
:104700000E94FF0443E068E081E0810F0E94980C62
:1047100062E0610F85E00E94800C8EE60E944F0EE1
:1047200085E894E00E94FF0482E20E94F40B80E698
:1047300095E00E94D90A83E00E94B40983EB91E0DE
:104740000E948D0E8FE694E00E94FF0482E20E9498
:10475000F40B8091DE0290E001960E94B90D80E09A
:104760000E94000C0E94F40A60911B03615081E7D3
:104770000E946209898B873609F4F1C40CF046C0A7
:10478000823609F40CCFB4F48F3F34F018160CF0D5
:10479000E3C1813609F45DC1898981538A8B6DEA51
:1047A00073E085E592E00E94263781E280936602FD
:1047B000712CE7C42989243609F49FC10CF452C135
:1047C000253609F4E8C1263639F76091D602709192
:1047D000D7028091D8029091D90240E00E94D3166E
:1047E0006093D6027093D7028093D8029093D90237
:1047F00020EB34E040E050E00E94F037672B682B5C
:10480000692B09F0D5C10E940A22C9CE39893C36EC
:1048100009F46EC20CF0AFC0393609F4CCC10CF407
:10482000A7C43A3609F4BAC03B3609F0B5CF86ECD6
:1048300091E00E946D0EA82E61E0680F8CE00E944E
:10484000800C61E080E00E94E90B8CED92E00E9418
:10485000FF0462E081E00E94E90B85EE92E00E9495
:10486000FF044CE463E082E08A0D0E94980C54E05F
:10487000952E9A0C63E06A0D83E00E94800C6AE733
:10488000E62E63E0F62E08EE14E070E3C72E75E026
:10489000D72EB12C81E00E94C00BF7016591749175
:1048A0008AE995E00E94263769E00E94490B80E082
:1048B0000E94D20BD8012D913D914D915D918D01BA
:1048C0006B2D81E60E94A919F80124893589468952
:1048D00057896B2D87E60E94A919D8019C962D91C6
:1048E0003D914D915C919F976B2D8DE60E94A9198A
:1048F000F60121913191419151916F016B2D83E727
:104900000E94A919D60154962D913D914D915C912B
:1049100057976B2D81E40E94A919692D6B0D83E0D7
:104920000E94800CB394B2E0EB0EF11CE6E0BE12E4
:10493000B1CF8AE08A0D0E94A40E0E94F40A63E0BF
:1049400088E70E94620918160CF029CE81360CF413
:1049500059C187360CF040C1F4E08F02C001112428
:104960008C599C4F0E940A17813009F064C18091D4
:10497000DE0290E05DC189898E3609F4E6C30CF44D
:10498000A4C282370CF008CF89898F568093DE024B
:1049900090E00E941F110E940A22DEC081E28093F3
:1049A00066026DEA73E085E592E00E94263789EBA6
:1049B00091E00E946D0E21E0482F61E08FEF0E9490
:1049C0001E1B0E94361C182F43E068E00E94980CC2
:1049D00061E0610F85E00E94800C6091D50241E0AA
:1049E000611140E088E60E945E0E82EC92E00E9437
:1049F000FF0480E00E94AD0B4091D50261E04111BF
:104A000060E089E60E945E0E8CEA92E00E94FF045C
:104A100080E00E94AD0B0E94F40A6FEF89E60E94CD
:104A20006209182F42E060E00E944921811104C010
:104A3000183631F0193651F011160CF4B8CFAFCD4D
:104A400081E08093D5020E940A22B1CF1092D50254
:104A5000FACF0E94110C61E081E00E94800C0E945C
:104A6000B5149DCD609110047091110480911204D1
:104A700090911304188A1D861A821982B12CA12CD8
:104A8000D12CC12CF12CE12C8E010F5F1F4F9E0108
:104A9000235F3F4FAE01405F5F4F0E944D0749814A
:104AA0005A8104E02EE26D8588890E941C178CE7EC
:104AB00092E00E9474116CE871E08AE995E00E942E
:104AC0002D3710E000E0009709F49DC70330110571
:104AD00009F499C70E94FF3697FD95C70115110586
:104AE00019F480970CF08FC76CE871E090E080E0DB
:104AF0000E942D370F5F1F4FE6CF60E070E0CB01C3
:104B0000EAE6AE2EE2E0BE2EF9E6CF2EF2E0DF2E90
:104B1000A8E6EA2EA2E0FA2E02E011E024E031E05D
:104B200045E051E00E944D07409102015091030180
:104B3000E0906A020091690220916802609104018C
:104B4000809105010E94D9076093100470931104AD
:104B50008093120490931304B9891B160CF41FCD93
:104B60000E94FD1DE1960FB6F894DEBF0FBECDBFCB
:104B7000DF91CF911F910F91FF90EF90DF90CF9039
:104B8000BF90AF909F908F907F906F905F904F906D
:104B90003F902F9008956091DB0270E090E080E0FC
:104BA00040E00E94D3166093DB026F3F09F02BCEEA
:104BB0000E94B010F4CC81E09091DC02911180E071
:104BC0008093DC020E940A228091DC02882309F48F
:104BD000E6CC0E948F22E3CC8D362CF424E08202B6
:104BE000C0011124BDCE83372CF434E08302C00110
:104BF0001124B6CE89370CF01ACEA4E08A02C00187
:104C00001124AECE813454F087340CF010CEB4E0D1
:104C10008B02C00111248C5B9B4FA4CE81330CF41A
:104C200016C784330CF003CE082E000C990BC197E5
:104C30000E946022FCCD18160CF4F9CDB0CCF7011F
:104C4000E455FB4F6081718140E081E68A0D0E944E
:104C5000A717A2C0A12EEA2CF12CF701EE0FFF1F1F
:104C6000E852FB4F6081718141E087E78A0D0E9425
:104C7000A717F701EE0FFF1FE052FB4F6081718114
:104C800040E081E48A0D0E94A7170E94E30B6B2D80
:104C9000610F83E00E94800C1F5F183009F054C040
:104CA0008CE0800F0E94A40E0E94F40A63E08AE761
:104CB0000E94620918160CF072CC81360CF48FC079
:104CC000873684F4880F990B86519C4F0E94C41735
:104CD000813009F09BC08091DE0290E094C0B2E088
:104CE000AB2EB9CF8F3674F3873764F38B3754F319
:104CF00085ED91E00E946D0E082F61E0680F8CE059
:104D00000E94800C81E00E94D20B87E193E00E9418
:104D1000FF0462E080E00E94E90B85EE92E00E94D1
:104D2000FF044CE463E082E0800F0E94980C34E0C2
:104D3000B32EB00E63E0600F83E00E94800C48EB5E
:104D4000C42E44E0D42E10E0AA24A394123031F0F3
:104D50002EEFA22EA10E133008F4A12E81E00E94A6
:104D6000C00BEA2CF12CEE0CFF1CF701E658FC4FAF
:104D7000659174918AE995E00E94263769E00E9466
:104D8000490B0E94E30BE1E0AE1259CF123008F458
:104D900056CF8BE00E94B4090E94E30BD6016D91BF
:104DA0007D916D0141E087E6810F0E94A717F60112
:104DB0006685778541E08FE6810F0E94A717123044
:104DC00008F448CF143009F48ACF83E0A82E1730B6
:104DD00009F441CF6AE08BE00E94E90B56CF8134A1
:104DE00044F085340CF084CF880F990B825A9B4F86
:104DF0006DCF81330CF431C684330CF079CF082E9B
:104E0000000C990BC1970E94602272CF18160CF407
:104E10006FCFC5CBB2E0FB2EA2C0BA89B23028F466
:104E200060E08FE00E94E90BECC061E0F20180815C
:104E30009181892B09F060E0872D0E94400EAB899B
:104E4000BC896D917C9190E080E00E946E170E9479
:104E5000E00AEE24E394EB89FC8980819181892B1F
:104E600009F0E12CCE2C00E020E048E261E08B2D3F
:104E70000E94E80D80E00E94D20B113009F0C1C001
:104E8000F3946DC08136BCF089366CF4880F990BB1
:104E900086599E4F0E94C417813009F053C18091FA
:104EA000DF0290E04CC18D360CF020C1880F990BC9
:104EB00086529E4FEFCF81340CF41DC189340CF023
:104EC00015C161E081540E94461E85EE91E00E946A
:104ED0006D0E182F61E0680F85E00E94800CC12CD8
:104EE000EE24E39400E020E248E260E08FE60E94D6
:104EF000E80D82E20E94870B60E184E492E00E9468
:104F0000490B80E00E94870B86E893E00E94FF0433
:104F100053E0A52EA10E4AE365E082E0810F0E94D6
:104F2000980C6AE7262E63E0362EFDEFFA8B912C63
:104F3000812CF12C10E0812F153009F483E0282F0B
:104F400030E009E6702E780E99E4B92EB80E220FE3
:104F5000331FC901845C9D4F2C019C8B8B8BA98ACC
:104F6000A394698988E00E94800C81E00E94C00BB4
:104F7000F101659174918AE995E00E94263761E11B
:104F80000E94490B81E00E94D20BF401EF0DF11D4C
:104F9000EE0FFF1FE45DFD4FC080D1809F2D910F6C
:104FA0009F8BEE24E394C114D10409F0E12C6E2D03
:104FB0008F898F590E94400EB60190E080E00E94D8
:104FC0006E170E94E00ACE2C00E020E048E261E08B
:104FD0008F898F5B0E94E80D81E00E94D20B113017
:104FE00009F01BCF8FEF8F0D823008F016CF60E0F5
:104FF0008FE00E94E90BA1E0FA1609F40BCFE2E082
:10500000FE2E1F5FFFEF8F1A9F0A2A892F5F2A8BC0
:1050100032E0230E311C163009F08DCF4AE365E0F3
:105020008A2D0E94980C69896D5F85E00E94800C32
:1050300085EF91E00E948D0E81E793E00E94FF04CE
:105040008BEF91E00E948D0E83E693E00E94FF04B7
:105050008DE60E944F0E89E593E00E94FF048EE6E4
:105060000E944F0E8DE493E00E94FF0443E068E04D
:1050700089898C5F0E94980C69896B5F85E00E942A
:10508000800C8FE60E944F0E81E493E00E94FF04A3
:1050900081E092E00E948D0E83E393E00E94FF0482
:1050A00082E20E94870B81E00E94C00B8091DF02A8
:1050B00090E001960E94B90D80E00E94870B83E08A
:1050C0000E94B40987E092E00E948D0E82E293E094
:1050D0000E94FF040E94F40A68E08FE60E946209C1
:1050E00018160CF4CFCE0E947D0A59CA8D3444F0B4
:1050F00060E08D3619F08E3631F461E08FEFE3CE4B
:1051000061E08354E0CE81330CF4ABC485334CF4BE
:1051100081538093DF0290E00E9402110E940A22D4
:10512000D4CE893344F08F3609F0CFCE84E492E0B8
:105130000E947411B4CE082E000C990BC5970E94E2
:105140003122C3CE18167CF6C0CE80E695E00E94D0
:1051500074118091DE0290E00E94602220CA80914A
:10516000DA020E94C5098093DA02809300014BCBDA
:105170008091E0020E94C5098093E00244CB77242D
:1051800073948DE092E00E946D0E20E0482F672D11
:105190008A890E941E1B8F5F0E94361C01E0080F47
:1051A00043E068E00E94980C602F85E00E94800C2C
:1051B00088E60E944F0E8DE594E00E94FF04602F68
:1051C0008EE10E94800C11E01725472D612F89E6A2
:1051D0000E945E0E8FE494E00E94FF04602F83E340
:1051E0000E94800C412F672D8AE60E945E0E84E4A7
:1051F00094E00E94FF0480E00E94C00B0E94F40A29
:1052000069E08AE60E946209082F472D6A890E9498
:105210004921182F8111F3C3093609F4C9CA0A3686
:1052200009F4ADCF083609F0E7C391E09CA3A1E0F3
:10523000ABA3B1E0BEA7E1E0EDA7F1E0FAA321E066
:105240002DA331E03CA71D8E1E8E1F8E18A21F8A33
:10525000188E198E1A8E812C912C5401212C312CF0
:105260002101A6E1BA89AB9FC0011124FC01E45ED3
:10527000FC4FFC8FEB8F05C08D8C9E8CAF8CB8A043
:1052800011E067E374E08DEC95E00E942637AB8D6A
:10529000BC8D8C91823009F4B6C0C8F5882309F41E
:1052A0005CC0813009F483C08DEC95E00E946D0EE6
:1052B000D82E1111FCC0672D8A890E94490FAB8D31
:1052C000BC8D8C918150823008F0F1C0E12EF12C20
:1052D00080911B038150990BE816F9060CF0E7C08A
:1052E000412F672D8A890E94460A882371F0B6E112
:1052F000BE9DF001BF9DF00D1124E45EFC4F40E027
:1053000062E272E082810E94FC0A1F5FDFCF83307D
:1053100009F4A2C0843041F66CE174E089ED95E0B7
:105320000E9426371111C0CF909144049D8FA09107
:105330004504AE8FB0914604BF8FE0914704E8A3C7
:105340001CA21BA21EA61DA61AA21F8A188E198EA9
:105350001A8E812C912C540126C061E374E089EDF2
:1053600095E00E94263711119FCFB0913404BD8F74
:10537000E0913504EE8FF0913604FF8F20913704D1
:1053800028A31CA21BA21AA21DA280EA96E8A1E0F3
:10539000B0E08F8B988FA98FBA8F78E0872E72E557
:1053A000972EA12CB12C212C312C21017DCF6CE228
:1053B00074E089ED95E00E942637111175CF909128
:1053C00038049D8FA0913904AE8FB0913A04BF8FFD
:1053D000E0913B04E8A31CA688E89FE8A5E1B0E0C3
:1053E0008F8B988FA98FBA8F58E8852E5FE8952EFE
:1053F00055E1A52EB12C60E2262E68E4362E442419
:105400004394512C51CF67E274E089ED95E00E94FE
:105410002637111149CF90913C049D8FA0913D04F6
:10542000AE8FB0913E04BF8FE0913F04E8A380E1CE
:1054300097E2A0E0B0E08F8B988FA98FBA8F38E504
:10544000832E3BE1932EA12CB12C40EA242E4FE079
:10545000342E412C512C28CF61E274E089ED95E087
:105460000E942637111120CF909140049D8FA0916A
:105470004104AE8FB0914204BF8FE0914304E8A392
:105480001CA21BA21AA21DA28FEF9FEFDC018F8B23
:10549000988FA98FBA8F98EE892E9EE6992E93E069
:1054A000A92EB12C22242A94322C2101FDCE21E0F8
:1054B0004D2D672D8A890E941E1B11E0180F682F41
:1054C00085E00E94800CECA5E0FB60F8FDA1F0FBFC
:1054D00061F82AA120FB62F83DA530FB63F88EA598
:1054E00080FB64F89BA190FB65F8ACA1A0FB66F87B
:1054F000B62DB170DB2E60FE07C081E60E944F0E14
:1055000089E094E00E94FF04E62DE270EE2E61FE39
:1055100007C082E60E944F0E86EF93E00E94FF04D0
:10552000F62DF470FF2E62FE07C083E60E944F0E38
:1055300088EE93E00E94FF0443E068E0812F0E9420
:10554000980C082F182F63FE12C0682F85E00E9468
:10555000800C84E60E944F0E89ED93E00E94FF04C8
:1055600011E0100FB501A401802F0E94CD1964FE37
:1055700013C0612F85E00E94800C85E60E944F0ECB
:105580008AEC93E00E94FF044D8D5E8D6F8D78A1B3
:10559000812F1F5F0E94CD1965FE11C0612F85E02C
:1055A0000E94800C86E60E944F0E82EC93E00E94DF
:1055B000FF04B201A101812F1F5F0E94CD1966FE79
:1055C00012C0612F85E00E94800C87E60E944F0E7A
:1055D00089EB93E00E94FF044F89588D698D7A8D85
:1055E000812F0E94CD190E94F40A60E087E60E9494
:1055F00062098FA71D861E861F8619821A821B824A
:105600001C821D821E821F82188619861A861B869E
:105610001C86E82FE156E73008F0E9C10E2E000C99
:10562000FF0BEB5EF44D0C94AA381C2BDE2B352CB3
:10563000AC2C3C29B42CBC2CDD2009F421CEA501D6
:105640009401672D8A890E94F4196B017C01C114B1
:10565000D104E104F10409F413CEAB8DBC8D8C911F
:10566000843009F495C1823009F09FC08D87C5014F
:10567000B4012CE432E040E050E00E948B38C701D6
:10568000B601685A7146810991090E94E03728E104
:105690003CEF4FEF5FEF0E948B38280D391D4A1DFC
:1056A0005B1D29833A834B835C83B1E0BB8B09810B
:1056B0001A812B813C81ED84472D6A8984E491E035
:1056C0000E94AD1CB1E0B9A3E9A1FB89EF1708F076
:1056D0007FC10E2F10E09801220F331F220F331FBE
:1056E00039AB28AB81E090E08C0F9D1F820F931F98
:1056F0009BA78AA7DC01CD90DD90ED90FC90A701DF
:105700009601672D8A890E94F4196EA37FA388A74A
:1057100099A7672B682B692B09F457C1EB8DFC8D7A
:105720008081823009F037C1C701B6012CE432E034
:1057300040E050E00E948B386EA17FA188A599A51A
:10574000685A7146810991090E94E03728E13CEFCF
:105750004FEF5FEF0E948B38DA01C9018C0D9D1D60
:10576000AE1DBF1DEAA5FBA580839183A283B383F1
:10577000ADE0B0E0AC0FBD1FA00FB11FE1E0F0E065
:10578000EC0FFD1F28A939A9E20FF31F0081118139
:1057900022813381EC90472D6A8984E491E00E9454
:1057A000AD1C89A18F5F89A38FCF84E08D8789820B
:1057B0009A82AB82BC82E1E0EB8B79CFEE2009F4D8
:1057C0005FCDAB8DBC8D8C9120E030E0A9018130A4
:1057D00011F0A5019401672D8A890E94F4196B01CB
:1057E0007C01C114D104E104F10409F449CDEB8D2D
:1057F000FC8D8081813051F1843099F112E01D8758
:10580000C501B4012CE432E040E050E00E948B3846
:10581000C701B601685A7146810991090E94E037B3
:1058200028E13CEF4FEF5FEF0E948B38280D391DC8
:105830004A1D5B1D29833A834B835C831E872D821F
:105840003E824F82588632E03B8B31CF86E08D8797
:1058500084E08E878D829E82AF82B886F2E0FB8BD9
:1058600026CF8E8722E02B8B22CFFF2009F408CD94
:10587000AB8DBC8D8C9120E030E0A901813011F01E
:10588000A5019401672D8A890E94F4196B017C019E
:10589000DC01CB01885A9146A109B1098B8B9C8B05
:1058A000AD8BBE8BAB8DBC8D8C91813089F586E044
:1058B0008D8714E01E87C201B1012DE230E040E087
:1058C00050E00E948B386B897C898D899E890E946B
:1058D000E03728EE33E040E050E00E948B38220DA4
:1058E000331D441D551D2D833E834F8358871F87CD
:1058F0008F89988DA98DBA8D89879A87AB87BC8748
:10590000CD28CE28CF2809F4BBCC93E09B8BCFCEFB
:1059100012E01D87C501B4012CE432E040E050E004
:105920000E948B386B897C898D899E890E94E03723
:1059300028E13CEF4FEF5FEF0E948B38280D391DB7
:105940004A1D5B1D29833A834B835C831E872D820E
:105950003E824F825886CBCF41E0C501B4010E9400
:10596000D3164B015C018CCC41E0C201B1010E9415
:10597000D3161B012C0184CC41E06F89788D898D71
:105980009A8D0E94D3166F8B788F898F9A8F78CCDF
:10599000A1E0AB8B8CCE813009F0EACEC701B60115
:1059A0002DE230E040E050E00E948B386EA17FA1F4
:1059B00088A599A5685A7146810991090E94E03726
:1059C00028EE33E040E050E0C5CE3B8939A3E9CE74
:1059D00010911B030E94B51480911B03811710F4D2
:1059E0000E94B5148091DC0281110E948F229FA534
:1059F00019160CF0C6CB44CCAFECA00FAA8B101636
:105A00000CF4BFCBA9C84091020150910301E12CD5
:105A100000E020E060910401809105010E94D90717
:105A20006B017C016091100470911104809112044B
:105A3000909113040E946E178CE792E00E947411FB
:105A40000E94D20E6C0D7D1D8E1D9F1D59C8813088
:105A500011F00C9417240C94B724813009F048C934
:105A60003AC9813009F41BCA30CA1F920F920FB68F
:105A70000F9211242F933F938F939F93AF93BF93D4
:105A80008091920590919305A0919405B091950510
:105A90003091910523E0230F2D3758F50196A11D74
:105AA000B11D209391058093920590939305A09347
:105AB0009405B09395058091960590919705A091D6
:105AC0009805B09199050196A11DB11D8093960589
:105AD00090939705A0939805B0939905BF91AF91C6
